{
	"contracts/Web3_Jukebox_V1.2.sol": {
		"Jukebox": {
			"abi": [
				{
					"inputs": [],
					"stateMutability": "nonpayable",
					"type": "constructor"
				},
				{
					"anonymous": false,
					"inputs": [
						{
							"indexed": false,
							"internalType": "string",
							"name": "albumName",
							"type": "string"
						},
						{
							"indexed": false,
							"internalType": "string",
							"name": "cid",
							"type": "string"
						},
						{
							"indexed": false,
							"internalType": "address[]",
							"name": "albumOwners",
							"type": "address[]"
						},
						{
							"indexed": false,
							"internalType": "address[]",
							"name": "paymentTokens",
							"type": "address[]"
						},
						{
							"indexed": false,
							"internalType": "uint256",
							"name": "playFee",
							"type": "uint256"
						},
						{
							"indexed": false,
							"internalType": "uint256",
							"name": "wholeAlbumFee",
							"type": "uint256"
						}
					],
					"name": "AlbumAdded",
					"type": "event"
				},
				{
					"anonymous": false,
					"inputs": [
						{
							"indexed": true,
							"internalType": "address",
							"name": "player",
							"type": "address"
						},
						{
							"indexed": false,
							"internalType": "string",
							"name": "albumName",
							"type": "string"
						},
						{
							"indexed": false,
							"internalType": "address",
							"name": "tokenUsed",
							"type": "address"
						},
						{
							"indexed": false,
							"internalType": "uint256",
							"name": "amountPaid",
							"type": "uint256"
						}
					],
					"name": "AlbumPlayed",
					"type": "event"
				},
				{
					"anonymous": false,
					"inputs": [
						{
							"indexed": true,
							"internalType": "address",
							"name": "player",
							"type": "address"
						},
						{
							"indexed": false,
							"internalType": "string",
							"name": "albumName",
							"type": "string"
						},
						{
							"indexed": false,
							"internalType": "uint256",
							"name": "trackNumber",
							"type": "uint256"
						},
						{
							"indexed": false,
							"internalType": "address",
							"name": "tokenUsed",
							"type": "address"
						},
						{
							"indexed": false,
							"internalType": "uint256",
							"name": "amountPaid",
							"type": "uint256"
						}
					],
					"name": "SongPlayed",
					"type": "event"
				},
				{
					"anonymous": false,
					"inputs": [
						{
							"indexed": false,
							"internalType": "string",
							"name": "albumName",
							"type": "string"
						},
						{
							"indexed": false,
							"internalType": "address",
							"name": "token",
							"type": "address"
						}
					],
					"name": "TokenAdded",
					"type": "event"
				},
				{
					"anonymous": false,
					"inputs": [
						{
							"indexed": false,
							"internalType": "string",
							"name": "albumName",
							"type": "string"
						},
						{
							"indexed": false,
							"internalType": "address",
							"name": "token",
							"type": "address"
						}
					],
					"name": "TokenRemoved",
					"type": "event"
				},
				{
					"anonymous": false,
					"inputs": [
						{
							"indexed": true,
							"internalType": "address",
							"name": "recipient",
							"type": "address"
						},
						{
							"indexed": false,
							"internalType": "uint256",
							"name": "amount",
							"type": "uint256"
						}
					],
					"name": "Withdrawal",
					"type": "event"
				},
				{
					"inputs": [
						{
							"internalType": "string",
							"name": "albumName",
							"type": "string"
						},
						{
							"internalType": "string",
							"name": "cid",
							"type": "string"
						},
						{
							"internalType": "address[]",
							"name": "albumOwners",
							"type": "address[]"
						},
						{
							"internalType": "address[]",
							"name": "paymentTokens",
							"type": "address[]"
						},
						{
							"internalType": "uint256",
							"name": "playFee",
							"type": "uint256"
						},
						{
							"internalType": "uint256",
							"name": "wholeAlbumFee",
							"type": "uint256"
						}
					],
					"name": "addAlbum",
					"outputs": [],
					"stateMutability": "payable",
					"type": "function"
				},
				{
					"inputs": [
						{
							"internalType": "string",
							"name": "albumName",
							"type": "string"
						},
						{
							"internalType": "address",
							"name": "token",
							"type": "address"
						}
					],
					"name": "addToken",
					"outputs": [],
					"stateMutability": "nonpayable",
					"type": "function"
				},
				{
					"inputs": [],
					"name": "albumCreationFee",
					"outputs": [
						{
							"internalType": "uint256",
							"name": "",
							"type": "uint256"
						}
					],
					"stateMutability": "view",
					"type": "function"
				},
				{
					"inputs": [
						{
							"internalType": "string",
							"name": "",
							"type": "string"
						}
					],
					"name": "albums",
					"outputs": [
						{
							"internalType": "string",
							"name": "cid",
							"type": "string"
						},
						{
							"internalType": "uint256",
							"name": "playFee",
							"type": "uint256"
						},
						{
							"internalType": "uint256",
							"name": "wholeAlbumFee",
							"type": "uint256"
						}
					],
					"stateMutability": "view",
					"type": "function"
				},
				{
					"inputs": [],
					"name": "collectedFees",
					"outputs": [
						{
							"internalType": "uint256",
							"name": "",
							"type": "uint256"
						}
					],
					"stateMutability": "view",
					"type": "function"
				},
				{
					"inputs": [],
					"name": "getAlbumCount",
					"outputs": [
						{
							"internalType": "uint256",
							"name": "",
							"type": "uint256"
						}
					],
					"stateMutability": "view",
					"type": "function"
				},
				{
					"inputs": [
						{
							"internalType": "string",
							"name": "albumName",
							"type": "string"
						}
					],
					"name": "getAlbumDetails",
					"outputs": [
						{
							"internalType": "string",
							"name": "cid",
							"type": "string"
						},
						{
							"internalType": "address[]",
							"name": "albumOwners",
							"type": "address[]"
						},
						{
							"internalType": "address[]",
							"name": "paymentTokens",
							"type": "address[]"
						},
						{
							"internalType": "uint256",
							"name": "playFee",
							"type": "uint256"
						},
						{
							"internalType": "uint256",
							"name": "wholeAlbumFee",
							"type": "uint256"
						}
					],
					"stateMutability": "view",
					"type": "function"
				},
				{
					"inputs": [
						{
							"internalType": "uint256",
							"name": "index",
							"type": "uint256"
						}
					],
					"name": "getAlbumNameByIndex",
					"outputs": [
						{
							"internalType": "string",
							"name": "",
							"type": "string"
						}
					],
					"stateMutability": "view",
					"type": "function"
				},
				{
					"inputs": [],
					"name": "owner",
					"outputs": [
						{
							"internalType": "address",
							"name": "",
							"type": "address"
						}
					],
					"stateMutability": "view",
					"type": "function"
				},
				{
					"inputs": [
						{
							"internalType": "string",
							"name": "albumName",
							"type": "string"
						},
						{
							"internalType": "address",
							"name": "token",
							"type": "address"
						}
					],
					"name": "playAlbum",
					"outputs": [],
					"stateMutability": "nonpayable",
					"type": "function"
				},
				{
					"inputs": [
						{
							"internalType": "string",
							"name": "albumName",
							"type": "string"
						},
						{
							"internalType": "uint256",
							"name": "trackNumber",
							"type": "uint256"
						},
						{
							"internalType": "address",
							"name": "token",
							"type": "address"
						}
					],
					"name": "playSong",
					"outputs": [],
					"stateMutability": "nonpayable",
					"type": "function"
				},
				{
					"inputs": [
						{
							"internalType": "string",
							"name": "albumName",
							"type": "string"
						},
						{
							"internalType": "address",
							"name": "token",
							"type": "address"
						}
					],
					"name": "removeToken",
					"outputs": [],
					"stateMutability": "nonpayable",
					"type": "function"
				},
				{
					"inputs": [
						{
							"internalType": "uint256",
							"name": "fee",
							"type": "uint256"
						}
					],
					"name": "setAlbumCreationFee",
					"outputs": [],
					"stateMutability": "nonpayable",
					"type": "function"
				},
				{
					"inputs": [],
					"name": "withdrawFees",
					"outputs": [],
					"stateMutability": "nonpayable",
					"type": "function"
				},
				{
					"inputs": [
						{
							"internalType": "address",
							"name": "token",
							"type": "address"
						},
						{
							"internalType": "uint256",
							"name": "amount",
							"type": "uint256"
						}
					],
					"name": "withdrawToken",
					"outputs": [],
					"stateMutability": "nonpayable",
					"type": "function"
				}
			],
			"devdoc": {
				"kind": "dev",
				"methods": {},
				"version": 1
			},
			"evm": {
				"assembly": "    /* \"contracts/Web3_Jukebox_V1.2.sol\":336:9400  contract Jukebox {... */\n  mstore(0x40, 0x80)\n    /* \"contracts/Web3_Jukebox_V1.2.sol\":419:426  1 ether */\n  0x0de0b6b3a7640000\n    /* \"contracts/Web3_Jukebox_V1.2.sol\":385:426  uint256 public albumCreationFee = 1 ether */\n  0x01\n  sstore\n    /* \"contracts/Web3_Jukebox_V1.2.sol\":1828:1877  constructor() {... */\n  callvalue\n  dup1\n  iszero\n  tag_1\n  jumpi\n  0x00\n  dup1\n  revert\ntag_1:\n  pop\n    /* \"contracts/Web3_Jukebox_V1.2.sol\":1860:1870  msg.sender */\n  caller\n    /* \"contracts/Web3_Jukebox_V1.2.sol\":1852:1857  owner */\n  0x00\n  dup1\n    /* \"contracts/Web3_Jukebox_V1.2.sol\":1852:1870  owner = msg.sender */\n  0x0100\n  exp\n  dup2\n  sload\n  dup2\n  0xffffffffffffffffffffffffffffffffffffffff\n  mul\n  not\n  and\n  swap1\n  dup4\n  0xffffffffffffffffffffffffffffffffffffffff\n  and\n  mul\n  or\n  swap1\n  sstore\n  pop\n    /* \"contracts/Web3_Jukebox_V1.2.sol\":336:9400  contract Jukebox {... */\n  dataSize(sub_0)\n  dup1\n  dataOffset(sub_0)\n  0x00\n  codecopy\n  0x00\n  return\nstop\n\nsub_0: assembly {\n        /* \"contracts/Web3_Jukebox_V1.2.sol\":336:9400  contract Jukebox {... */\n      mstore(0x40, 0x80)\n      jumpi(tag_1, lt(calldatasize, 0x04))\n      shr(0xe0, calldataload(0x00))\n      dup1\n      0x9e281a98\n      gt\n      tag_17\n      jumpi\n      dup1\n      0xe5421c82\n      gt\n      tag_18\n      jumpi\n      dup1\n      0xe5421c82\n      eq\n      tag_13\n      jumpi\n      dup1\n      0xf3025b48\n      eq\n      tag_14\n      jumpi\n      dup1\n      0xf5767849\n      eq\n      tag_15\n      jumpi\n      dup1\n      0xf8ac7b44\n      eq\n      tag_16\n      jumpi\n      jump(tag_1)\n    tag_18:\n      dup1\n      0x9e281a98\n      eq\n      tag_9\n      jumpi\n      dup1\n      0xb0b22c2c\n      eq\n      tag_10\n      jumpi\n      dup1\n      0xb120662e\n      eq\n      tag_11\n      jumpi\n      dup1\n      0xe3c5c2a9\n      eq\n      tag_12\n      jumpi\n      jump(tag_1)\n    tag_17:\n      dup1\n      0x476343ee\n      gt\n      tag_19\n      jumpi\n      dup1\n      0x476343ee\n      eq\n      tag_5\n      jumpi\n      dup1\n      0x6c463ecc\n      eq\n      tag_6\n      jumpi\n      dup1\n      0x8da5cb5b\n      eq\n      tag_7\n      jumpi\n      dup1\n      0x9003adfe\n      eq\n      tag_8\n      jumpi\n      jump(tag_1)\n    tag_19:\n      dup1\n      0x32aeb67b\n      eq\n      tag_2\n      jumpi\n      dup1\n      0x3878ea70\n      eq\n      tag_3\n      jumpi\n      dup1\n      0x3936d48d\n      eq\n      tag_4\n      jumpi\n    tag_1:\n      0x00\n      dup1\n      revert\n        /* \"contracts/Web3_Jukebox_V1.2.sol\":4185:4375  function getAlbumNameByIndex(uint256 index) external view returns (string memory) {... */\n    tag_2:\n      callvalue\n      dup1\n      iszero\n      tag_20\n      jumpi\n      0x00\n      dup1\n      revert\n    tag_20:\n      pop\n      tag_21\n      0x04\n      dup1\n      calldatasize\n      sub\n      dup2\n      add\n      swap1\n      tag_22\n      swap2\n      swap1\n      tag_23\n      jump\t// in\n    tag_22:\n      tag_24\n      jump\t// in\n    tag_21:\n      mload(0x40)\n      tag_25\n      swap2\n      swap1\n      tag_26\n      jump\t// in\n    tag_25:\n      mload(0x40)\n      dup1\n      swap2\n      sub\n      swap1\n      return\n        /* \"contracts/Web3_Jukebox_V1.2.sol\":5003:5598  function playSong(string memory albumName, uint256 trackNumber, address token) external {... */\n    tag_3:\n      callvalue\n      dup1\n      iszero\n      tag_27\n      jumpi\n      0x00\n      dup1\n      revert\n    tag_27:\n      pop\n      tag_28\n      0x04\n      dup1\n      calldatasize\n      sub\n      dup2\n      add\n      swap1\n      tag_29\n      swap2\n      swap1\n      tag_30\n      jump\t// in\n    tag_29:\n      tag_31\n      jump\t// in\n    tag_28:\n      stop\n        /* \"contracts/Web3_Jukebox_V1.2.sol\":1018:1056  mapping(string => Album) public albums */\n    tag_4:\n      callvalue\n      dup1\n      iszero\n      tag_32\n      jumpi\n      0x00\n      dup1\n      revert\n    tag_32:\n      pop\n      tag_33\n      0x04\n      dup1\n      calldatasize\n      sub\n      dup2\n      add\n      swap1\n      tag_34\n      swap2\n      swap1\n      tag_35\n      jump\t// in\n    tag_34:\n      tag_36\n      jump\t// in\n    tag_33:\n      mload(0x40)\n      tag_37\n      swap4\n      swap3\n      swap2\n      swap1\n      tag_38\n      jump\t// in\n    tag_37:\n      mload(0x40)\n      dup1\n      swap2\n      sub\n      swap1\n      return\n        /* \"contracts/Web3_Jukebox_V1.2.sol\":6275:6474  function withdrawFees() external onlyOwner {... */\n    tag_5:\n      callvalue\n      dup1\n      iszero\n      tag_39\n      jumpi\n      0x00\n      dup1\n      revert\n    tag_39:\n      pop\n      tag_40\n      tag_41\n      jump\t// in\n    tag_40:\n      stop\n        /* \"contracts/Web3_Jukebox_V1.2.sol\":5645:6226  function playAlbum(string memory albumName, address token) external {... */\n    tag_6:\n      callvalue\n      dup1\n      iszero\n      tag_42\n      jumpi\n      0x00\n      dup1\n      revert\n    tag_42:\n      pop\n      tag_43\n      0x04\n      dup1\n      calldatasize\n      sub\n      dup2\n      add\n      swap1\n      tag_44\n      swap2\n      swap1\n      tag_45\n      jump\t// in\n    tag_44:\n      tag_46\n      jump\t// in\n    tag_43:\n      stop\n        /* \"contracts/Web3_Jukebox_V1.2.sol\":359:379  address public owner */\n    tag_7:\n      callvalue\n      dup1\n      iszero\n      tag_47\n      jumpi\n      0x00\n      dup1\n      revert\n    tag_47:\n      pop\n      tag_48\n      tag_49\n      jump\t// in\n    tag_48:\n      mload(0x40)\n      tag_50\n      swap2\n      swap1\n      tag_51\n      jump\t// in\n    tag_50:\n      mload(0x40)\n      dup1\n      swap2\n      sub\n      swap1\n      return\n        /* \"contracts/Web3_Jukebox_V1.2.sol\":471:499  uint256 public collectedFees */\n    tag_8:\n      callvalue\n      dup1\n      iszero\n      tag_52\n      jumpi\n      0x00\n      dup1\n      revert\n    tag_52:\n      pop\n      tag_53\n      tag_54\n      jump\t// in\n    tag_53:\n      mload(0x40)\n      tag_55\n      swap2\n      swap1\n      tag_56\n      jump\t// in\n    tag_55:\n      mload(0x40)\n      dup1\n      swap2\n      sub\n      swap1\n      return\n        /* \"contracts/Web3_Jukebox_V1.2.sol\":6480:6785  function withdrawToken(address token, uint256 amount) external onlyOwner {... */\n    tag_9:\n      callvalue\n      dup1\n      iszero\n      tag_57\n      jumpi\n      0x00\n      dup1\n      revert\n    tag_57:\n      pop\n      tag_58\n      0x04\n      dup1\n      calldatasize\n      sub\n      dup2\n      add\n      swap1\n      tag_59\n      swap2\n      swap1\n      tag_60\n      jump\t// in\n    tag_59:\n      tag_61\n      jump\t// in\n    tag_58:\n      stop\n        /* \"contracts/Web3_Jukebox_V1.2.sol\":7949:8446  function addToken(string memory albumName, address token) external {... */\n    tag_10:\n      callvalue\n      dup1\n      iszero\n      tag_62\n      jumpi\n      0x00\n      dup1\n      revert\n    tag_62:\n      pop\n      tag_63\n      0x04\n      dup1\n      calldatasize\n      sub\n      dup2\n      add\n      swap1\n      tag_64\n      swap2\n      swap1\n      tag_45\n      jump\t// in\n    tag_64:\n      tag_65\n      jump\t// in\n    tag_63:\n      stop\n        /* \"contracts/Web3_Jukebox_V1.2.sol\":2121:2221  function setAlbumCreationFee(uint256 fee) external onlyOwner {... */\n    tag_11:\n      callvalue\n      dup1\n      iszero\n      tag_66\n      jumpi\n      0x00\n      dup1\n      revert\n    tag_66:\n      pop\n      tag_67\n      0x04\n      dup1\n      calldatasize\n      sub\n      dup2\n      add\n      swap1\n      tag_68\n      swap2\n      swap1\n      tag_23\n      jump\t// in\n    tag_68:\n      tag_69\n      jump\t// in\n    tag_67:\n      stop\n        /* \"contracts/Web3_Jukebox_V1.2.sol\":8509:9398  function removeToken(string memory albumName, address token) external {... */\n    tag_12:\n      callvalue\n      dup1\n      iszero\n      tag_70\n      jumpi\n      0x00\n      dup1\n      revert\n    tag_70:\n      pop\n      tag_71\n      0x04\n      dup1\n      calldatasize\n      sub\n      dup2\n      add\n      swap1\n      tag_72\n      swap2\n      swap1\n      tag_45\n      jump\t// in\n    tag_72:\n      tag_73\n      jump\t// in\n    tag_71:\n      stop\n        /* \"contracts/Web3_Jukebox_V1.2.sol\":4428:4952  function getAlbumDetails(string memory albumName)... */\n    tag_13:\n      callvalue\n      dup1\n      iszero\n      tag_74\n      jumpi\n      0x00\n      dup1\n      revert\n    tag_74:\n      pop\n      tag_75\n      0x04\n      dup1\n      calldatasize\n      sub\n      dup2\n      add\n      swap1\n      tag_76\n      swap2\n      swap1\n      tag_35\n      jump\t// in\n    tag_76:\n      tag_77\n      jump\t// in\n    tag_75:\n      mload(0x40)\n      tag_78\n      swap6\n      swap5\n      swap4\n      swap3\n      swap2\n      swap1\n      tag_79\n      jump\t// in\n    tag_78:\n      mload(0x40)\n      dup1\n      swap2\n      sub\n      swap1\n      return\n        /* \"contracts/Web3_Jukebox_V1.2.sol\":385:426  uint256 public albumCreationFee = 1 ether */\n    tag_14:\n      callvalue\n      dup1\n      iszero\n      tag_80\n      jumpi\n      0x00\n      dup1\n      revert\n    tag_80:\n      pop\n      tag_81\n      tag_82\n      jump\t// in\n    tag_81:\n      mload(0x40)\n      tag_83\n      swap2\n      swap1\n      tag_56\n      jump\t// in\n    tag_83:\n      mload(0x40)\n      dup1\n      swap2\n      sub\n      swap1\n      return\n        /* \"contracts/Web3_Jukebox_V1.2.sol\":4036:4134  function getAlbumCount() external view returns (uint256) {... */\n    tag_15:\n      callvalue\n      dup1\n      iszero\n      tag_84\n      jumpi\n      0x00\n      dup1\n      revert\n    tag_84:\n      pop\n      tag_85\n      tag_86\n      jump\t// in\n    tag_85:\n      mload(0x40)\n      tag_87\n      swap2\n      swap1\n      tag_56\n      jump\t// in\n    tag_87:\n      mload(0x40)\n      dup1\n      swap2\n      sub\n      swap1\n      return\n        /* \"contracts/Web3_Jukebox_V1.2.sol\":2262:3978  function addAlbum(... */\n    tag_16:\n      tag_88\n      0x04\n      dup1\n      calldatasize\n      sub\n      dup2\n      add\n      swap1\n      tag_89\n      swap2\n      swap1\n      tag_90\n      jump\t// in\n    tag_89:\n      tag_91\n      jump\t// in\n    tag_88:\n      stop\n        /* \"contracts/Web3_Jukebox_V1.2.sol\":4185:4375  function getAlbumNameByIndex(uint256 index) external view returns (string memory) {... */\n    tag_24:\n        /* \"contracts/Web3_Jukebox_V1.2.sol\":4252:4265  string memory */\n      0x60\n        /* \"contracts/Web3_Jukebox_V1.2.sol\":4293:4303  albumNames */\n      0x04\n        /* \"contracts/Web3_Jukebox_V1.2.sol\":4293:4310  albumNames.length */\n      dup1\n      sload\n      swap1\n      pop\n        /* \"contracts/Web3_Jukebox_V1.2.sol\":4285:4290  index */\n      dup3\n        /* \"contracts/Web3_Jukebox_V1.2.sol\":4285:4310  index < albumNames.length */\n      lt\n        /* \"contracts/Web3_Jukebox_V1.2.sol\":4277:4334  require(index < albumNames.length, \"Index out of bounds\") */\n      tag_93\n      jumpi\n      mload(0x40)\n      0x08c379a000000000000000000000000000000000000000000000000000000000\n      dup2\n      mstore\n      0x04\n      add\n      tag_94\n      swap1\n      tag_95\n      jump\t// in\n    tag_94:\n      mload(0x40)\n      dup1\n      swap2\n      sub\n      swap1\n      revert\n    tag_93:\n        /* \"contracts/Web3_Jukebox_V1.2.sol\":4351:4361  albumNames */\n      0x04\n        /* \"contracts/Web3_Jukebox_V1.2.sol\":4362:4367  index */\n      dup3\n        /* \"contracts/Web3_Jukebox_V1.2.sol\":4351:4368  albumNames[index] */\n      dup2\n      sload\n      dup2\n      lt\n      tag_96\n      jumpi\n      tag_97\n      tag_98\n      jump\t// in\n    tag_97:\n    tag_96:\n      swap1\n      0x00\n      mstore\n      keccak256(0x00, 0x20)\n      add\n        /* \"contracts/Web3_Jukebox_V1.2.sol\":4344:4368  return albumNames[index] */\n      dup1\n      sload\n      tag_100\n      swap1\n      tag_101\n      jump\t// in\n    tag_100:\n      dup1\n      0x1f\n      add\n      0x20\n      dup1\n      swap2\n      div\n      mul\n      0x20\n      add\n      mload(0x40)\n      swap1\n      dup2\n      add\n      0x40\n      mstore\n      dup1\n      swap3\n      swap2\n      swap1\n      dup2\n      dup2\n      mstore\n      0x20\n      add\n      dup3\n      dup1\n      sload\n      tag_102\n      swap1\n      tag_101\n      jump\t// in\n    tag_102:\n      dup1\n      iszero\n      tag_103\n      jumpi\n      dup1\n      0x1f\n      lt\n      tag_104\n      jumpi\n      0x0100\n      dup1\n      dup4\n      sload\n      div\n      mul\n      dup4\n      mstore\n      swap2\n      0x20\n      add\n      swap2\n      jump(tag_103)\n    tag_104:\n      dup3\n      add\n      swap2\n      swap1\n      0x00\n      mstore\n      keccak256(0x00, 0x20)\n      swap1\n    tag_105:\n      dup2\n      sload\n      dup2\n      mstore\n      swap1\n      0x01\n      add\n      swap1\n      0x20\n      add\n      dup1\n      dup4\n      gt\n      tag_105\n      jumpi\n      dup3\n      swap1\n      sub\n      0x1f\n      and\n      dup3\n      add\n      swap2\n    tag_103:\n      pop\n      pop\n      pop\n      pop\n      pop\n      swap1\n      pop\n        /* \"contracts/Web3_Jukebox_V1.2.sol\":4185:4375  function getAlbumNameByIndex(uint256 index) external view returns (string memory) {... */\n      swap2\n      swap1\n      pop\n      jump\t// out\n        /* \"contracts/Web3_Jukebox_V1.2.sol\":5003:5598  function playSong(string memory albumName, uint256 trackNumber, address token) external {... */\n    tag_31:\n        /* \"contracts/Web3_Jukebox_V1.2.sol\":5101:5120  Album storage album */\n      0x00\n        /* \"contracts/Web3_Jukebox_V1.2.sol\":5123:5129  albums */\n      0x03\n        /* \"contracts/Web3_Jukebox_V1.2.sol\":5130:5139  albumName */\n      dup5\n        /* \"contracts/Web3_Jukebox_V1.2.sol\":5123:5140  albums[albumName] */\n      mload(0x40)\n      tag_107\n      swap2\n      swap1\n      tag_108\n      jump\t// in\n    tag_107:\n      swap1\n      dup2\n      mstore\n      0x20\n      add\n      mload(0x40)\n      dup1\n      swap2\n      sub\n      swap1\n      keccak256\n        /* \"contracts/Web3_Jukebox_V1.2.sol\":5101:5140  Album storage album = albums[albumName] */\n      swap1\n      pop\n        /* \"contracts/Web3_Jukebox_V1.2.sol\":5184:5185  0 */\n      0x00\n        /* \"contracts/Web3_Jukebox_V1.2.sol\":5164:5169  album */\n      dup2\n        /* \"contracts/Web3_Jukebox_V1.2.sol\":5164:5173  album.cid */\n      0x00\n      add\n        /* \"contracts/Web3_Jukebox_V1.2.sol\":5158:5181  bytes(album.cid).length */\n      dup1\n      sload\n      tag_109\n      swap1\n      tag_101\n      jump\t// in\n    tag_109:\n      swap1\n      pop\n        /* \"contracts/Web3_Jukebox_V1.2.sol\":5158:5185  bytes(album.cid).length > 0 */\n      gt\n        /* \"contracts/Web3_Jukebox_V1.2.sol\":5150:5211  require(bytes(album.cid).length > 0, \"Album does not exist.\") */\n      tag_110\n      jumpi\n      mload(0x40)\n      0x08c379a000000000000000000000000000000000000000000000000000000000\n      dup2\n      mstore\n      0x04\n      add\n      tag_111\n      swap1\n      tag_112\n      jump\t// in\n    tag_111:\n      mload(0x40)\n      dup1\n      swap2\n      sub\n      swap1\n      revert\n    tag_110:\n        /* \"contracts/Web3_Jukebox_V1.2.sol\":5229:5234  album */\n      dup1\n        /* \"contracts/Web3_Jukebox_V1.2.sol\":5229:5250  album.isTokenAccepted */\n      0x05\n      add\n        /* \"contracts/Web3_Jukebox_V1.2.sol\":5229:5257  album.isTokenAccepted[token] */\n      0x00\n        /* \"contracts/Web3_Jukebox_V1.2.sol\":5251:5256  token */\n      dup4\n        /* \"contracts/Web3_Jukebox_V1.2.sol\":5229:5257  album.isTokenAccepted[token] */\n      0xffffffffffffffffffffffffffffffffffffffff\n      and\n      0xffffffffffffffffffffffffffffffffffffffff\n      and\n      dup2\n      mstore\n      0x20\n      add\n      swap1\n      dup2\n      mstore\n      0x20\n      add\n      0x00\n      keccak256\n      0x00\n      swap1\n      sload\n      swap1\n      0x0100\n      exp\n      swap1\n      div\n      0xff\n      and\n        /* \"contracts/Web3_Jukebox_V1.2.sol\":5221:5296  require(album.isTokenAccepted[token], \"Token not accepted for this album.\") */\n      tag_113\n      jumpi\n      mload(0x40)\n      0x08c379a000000000000000000000000000000000000000000000000000000000\n      dup2\n      mstore\n      0x04\n      add\n      tag_114\n      swap1\n      tag_115\n      jump\t// in\n    tag_114:\n      mload(0x40)\n      dup1\n      swap2\n      sub\n      swap1\n      revert\n    tag_113:\n        /* \"contracts/Web3_Jukebox_V1.2.sol\":5307:5326  IERC20 paymentToken */\n      0x00\n        /* \"contracts/Web3_Jukebox_V1.2.sol\":5336:5341  token */\n      dup3\n        /* \"contracts/Web3_Jukebox_V1.2.sol\":5307:5342  IERC20 paymentToken = IERC20(token) */\n      swap1\n      pop\n        /* \"contracts/Web3_Jukebox_V1.2.sol\":5398:5403  album */\n      dup2\n        /* \"contracts/Web3_Jukebox_V1.2.sol\":5398:5411  album.playFee */\n      0x03\n      add\n      sload\n        /* \"contracts/Web3_Jukebox_V1.2.sol\":5360:5372  paymentToken */\n      dup2\n        /* \"contracts/Web3_Jukebox_V1.2.sol\":5360:5382  paymentToken.balanceOf */\n      0xffffffffffffffffffffffffffffffffffffffff\n      and\n      0x70a08231\n        /* \"contracts/Web3_Jukebox_V1.2.sol\":5383:5393  msg.sender */\n      caller\n        /* \"contracts/Web3_Jukebox_V1.2.sol\":5360:5394  paymentToken.balanceOf(msg.sender) */\n      mload(0x40)\n      dup3\n      0xffffffff\n      and\n      0xe0\n      shl\n      dup2\n      mstore\n      0x04\n      add\n      tag_116\n      swap2\n      swap1\n      tag_51\n      jump\t// in\n    tag_116:\n      0x20\n      mload(0x40)\n      dup1\n      dup4\n      sub\n      dup2\n      dup7\n      gas\n      staticcall\n      iszero\n      dup1\n      iszero\n      tag_118\n      jumpi\n      returndatasize\n      0x00\n      dup1\n      returndatacopy\n      revert(0x00, returndatasize)\n    tag_118:\n      pop\n      pop\n      pop\n      pop\n      mload(0x40)\n      returndatasize\n      not(0x1f)\n      0x1f\n      dup3\n      add\n      and\n      dup3\n      add\n      dup1\n      0x40\n      mstore\n      pop\n      dup2\n      add\n      swap1\n      tag_119\n      swap2\n      swap1\n      tag_120\n      jump\t// in\n    tag_119:\n        /* \"contracts/Web3_Jukebox_V1.2.sol\":5360:5411  paymentToken.balanceOf(msg.sender) >= album.playFee */\n      lt\n      iszero\n        /* \"contracts/Web3_Jukebox_V1.2.sol\":5352:5443  require(paymentToken.balanceOf(msg.sender) >= album.playFee, \"Insufficient token balance.\") */\n      tag_121\n      jumpi\n      mload(0x40)\n      0x08c379a000000000000000000000000000000000000000000000000000000000\n      dup2\n      mstore\n      0x04\n      add\n      tag_122\n      swap1\n      tag_123\n      jump\t// in\n    tag_122:\n      mload(0x40)\n      dup1\n      swap2\n      sub\n      swap1\n      revert\n    tag_121:\n        /* \"contracts/Web3_Jukebox_V1.2.sol\":5454:5507  splitPayment(token, album.playFee, album.albumOwners) */\n      tag_124\n        /* \"contracts/Web3_Jukebox_V1.2.sol\":5467:5472  token */\n      dup4\n        /* \"contracts/Web3_Jukebox_V1.2.sol\":5474:5479  album */\n      dup4\n        /* \"contracts/Web3_Jukebox_V1.2.sol\":5474:5487  album.playFee */\n      0x03\n      add\n      sload\n        /* \"contracts/Web3_Jukebox_V1.2.sol\":5489:5494  album */\n      dup5\n        /* \"contracts/Web3_Jukebox_V1.2.sol\":5489:5506  album.albumOwners */\n      0x01\n      add\n        /* \"contracts/Web3_Jukebox_V1.2.sol\":5454:5507  splitPayment(token, album.playFee, album.albumOwners) */\n      dup1\n      sload\n      dup1\n      0x20\n      mul\n      0x20\n      add\n      mload(0x40)\n      swap1\n      dup2\n      add\n      0x40\n      mstore\n      dup1\n      swap3\n      swap2\n      swap1\n      dup2\n      dup2\n      mstore\n      0x20\n      add\n      dup3\n      dup1\n      sload\n      dup1\n      iszero\n      tag_125\n      jumpi\n      0x20\n      mul\n      dup3\n      add\n      swap2\n      swap1\n      0x00\n      mstore\n      keccak256(0x00, 0x20)\n      swap1\n    tag_126:\n      dup2\n      0x00\n      swap1\n      sload\n      swap1\n      0x0100\n      exp\n      swap1\n      div\n      0xffffffffffffffffffffffffffffffffffffffff\n      and\n      0xffffffffffffffffffffffffffffffffffffffff\n      and\n      dup2\n      mstore\n      0x20\n      add\n      swap1\n      0x01\n      add\n      swap1\n      dup1\n      dup4\n      gt\n      tag_126\n      jumpi\n    tag_125:\n      pop\n      pop\n      pop\n      pop\n      pop\n        /* \"contracts/Web3_Jukebox_V1.2.sol\":5454:5466  splitPayment */\n      tag_127\n        /* \"contracts/Web3_Jukebox_V1.2.sol\":5454:5507  splitPayment(token, album.playFee, album.albumOwners) */\n      jump\t// in\n    tag_124:\n        /* \"contracts/Web3_Jukebox_V1.2.sol\":5534:5544  msg.sender */\n      caller\n        /* \"contracts/Web3_Jukebox_V1.2.sol\":5523:5591  SongPlayed(msg.sender, albumName, trackNumber, token, album.playFee) */\n      0xffffffffffffffffffffffffffffffffffffffff\n      and\n      0xb53ed8f15802aa36dffcba6be380a339237c5544765d530961f58e0ce4ccdb81\n        /* \"contracts/Web3_Jukebox_V1.2.sol\":5546:5555  albumName */\n      dup7\n        /* \"contracts/Web3_Jukebox_V1.2.sol\":5557:5568  trackNumber */\n      dup7\n        /* \"contracts/Web3_Jukebox_V1.2.sol\":5570:5575  token */\n      dup7\n        /* \"contracts/Web3_Jukebox_V1.2.sol\":5577:5582  album */\n      dup7\n        /* \"contracts/Web3_Jukebox_V1.2.sol\":5577:5590  album.playFee */\n      0x03\n      add\n      sload\n        /* \"contracts/Web3_Jukebox_V1.2.sol\":5523:5591  SongPlayed(msg.sender, albumName, trackNumber, token, album.playFee) */\n      mload(0x40)\n      tag_128\n      swap5\n      swap4\n      swap3\n      swap2\n      swap1\n      tag_129\n      jump\t// in\n    tag_128:\n      mload(0x40)\n      dup1\n      swap2\n      sub\n      swap1\n      log2\n        /* \"contracts/Web3_Jukebox_V1.2.sol\":5091:5598  {... */\n      pop\n      pop\n        /* \"contracts/Web3_Jukebox_V1.2.sol\":5003:5598  function playSong(string memory albumName, uint256 trackNumber, address token) external {... */\n      pop\n      pop\n      pop\n      jump\t// out\n        /* \"contracts/Web3_Jukebox_V1.2.sol\":1018:1056  mapping(string => Album) public albums */\n    tag_36:\n      0x03\n      dup2\n      dup1\n      mload\n      0x20\n      dup2\n      add\n      dup3\n      add\n      dup1\n      mload\n      dup5\n      dup3\n      mstore\n      0x20\n      dup4\n      add\n      0x20\n      dup6\n      add\n      keccak256\n      dup2\n      dup4\n      mstore\n      dup1\n      swap6\n      pop\n      pop\n      pop\n      pop\n      pop\n      pop\n      0x00\n      swap2\n      pop\n      swap1\n      pop\n      dup1\n      0x00\n      add\n      dup1\n      sload\n      tag_130\n      swap1\n      tag_101\n      jump\t// in\n    tag_130:\n      dup1\n      0x1f\n      add\n      0x20\n      dup1\n      swap2\n      div\n      mul\n      0x20\n      add\n      mload(0x40)\n      swap1\n      dup2\n      add\n      0x40\n      mstore\n      dup1\n      swap3\n      swap2\n      swap1\n      dup2\n      dup2\n      mstore\n      0x20\n      add\n      dup3\n      dup1\n      sload\n      tag_131\n      swap1\n      tag_101\n      jump\t// in\n    tag_131:\n      dup1\n      iszero\n      tag_132\n      jumpi\n      dup1\n      0x1f\n      lt\n      tag_133\n      jumpi\n      0x0100\n      dup1\n      dup4\n      sload\n      div\n      mul\n      dup4\n      mstore\n      swap2\n      0x20\n      add\n      swap2\n      jump(tag_132)\n    tag_133:\n      dup3\n      add\n      swap2\n      swap1\n      0x00\n      mstore\n      keccak256(0x00, 0x20)\n      swap1\n    tag_134:\n      dup2\n      sload\n      dup2\n      mstore\n      swap1\n      0x01\n      add\n      swap1\n      0x20\n      add\n      dup1\n      dup4\n      gt\n      tag_134\n      jumpi\n      dup3\n      swap1\n      sub\n      0x1f\n      and\n      dup3\n      add\n      swap2\n    tag_132:\n      pop\n      pop\n      pop\n      pop\n      pop\n      swap1\n      dup1\n      0x03\n      add\n      sload\n      swap1\n      dup1\n      0x04\n      add\n      sload\n      swap1\n      pop\n      dup4\n      jump\t// out\n        /* \"contracts/Web3_Jukebox_V1.2.sol\":6275:6474  function withdrawFees() external onlyOwner {... */\n    tag_41:\n        /* \"contracts/Web3_Jukebox_V1.2.sol\":1993:1998  owner */\n      0x00\n      dup1\n      sload\n      swap1\n      0x0100\n      exp\n      swap1\n      div\n      0xffffffffffffffffffffffffffffffffffffffff\n      and\n        /* \"contracts/Web3_Jukebox_V1.2.sol\":1979:1998  msg.sender == owner */\n      0xffffffffffffffffffffffffffffffffffffffff\n      and\n        /* \"contracts/Web3_Jukebox_V1.2.sol\":1979:1989  msg.sender */\n      caller\n        /* \"contracts/Web3_Jukebox_V1.2.sol\":1979:1998  msg.sender == owner */\n      0xffffffffffffffffffffffffffffffffffffffff\n      and\n      eq\n        /* \"contracts/Web3_Jukebox_V1.2.sol\":1971:2051  require(msg.sender == owner, \"Only the contract owner can perform this action.\") */\n      tag_136\n      jumpi\n      mload(0x40)\n      0x08c379a000000000000000000000000000000000000000000000000000000000\n      dup2\n      mstore\n      0x04\n      add\n      tag_137\n      swap1\n      tag_138\n      jump\t// in\n    tag_137:\n      mload(0x40)\n      dup1\n      swap2\n      sub\n      swap1\n      revert\n    tag_136:\n        /* \"contracts/Web3_Jukebox_V1.2.sol\":6328:6342  uint256 amount */\n      0x00\n        /* \"contracts/Web3_Jukebox_V1.2.sol\":6345:6358  collectedFees */\n      sload(0x02)\n        /* \"contracts/Web3_Jukebox_V1.2.sol\":6328:6358  uint256 amount = collectedFees */\n      swap1\n      pop\n        /* \"contracts/Web3_Jukebox_V1.2.sol\":6384:6385  0 */\n      0x00\n        /* \"contracts/Web3_Jukebox_V1.2.sol\":6368:6381  collectedFees */\n      0x02\n        /* \"contracts/Web3_Jukebox_V1.2.sol\":6368:6385  collectedFees = 0 */\n      dup2\n      swap1\n      sstore\n      pop\n        /* \"contracts/Web3_Jukebox_V1.2.sol\":6403:6408  owner */\n      0x00\n      dup1\n      sload\n      swap1\n      0x0100\n      exp\n      swap1\n      div\n      0xffffffffffffffffffffffffffffffffffffffff\n      and\n        /* \"contracts/Web3_Jukebox_V1.2.sol\":6395:6418  payable(owner).transfer */\n      0xffffffffffffffffffffffffffffffffffffffff\n      and\n        /* \"contracts/Web3_Jukebox_V1.2.sol\":6395:6426  payable(owner).transfer(amount) */\n      0x08fc\n        /* \"contracts/Web3_Jukebox_V1.2.sol\":6419:6425  amount */\n      dup3\n        /* \"contracts/Web3_Jukebox_V1.2.sol\":6395:6426  payable(owner).transfer(amount) */\n      swap1\n      dup2\n      iszero\n      mul\n      swap1\n      mload(0x40)\n      0x00\n      mload(0x40)\n      dup1\n      dup4\n      sub\n      dup2\n      dup6\n      dup9\n      dup9\n      call\n      swap4\n      pop\n      pop\n      pop\n      pop\n      iszero\n      dup1\n      iszero\n      tag_141\n      jumpi\n      returndatasize\n      0x00\n      dup1\n      returndatacopy\n      revert(0x00, returndatasize)\n    tag_141:\n      pop\n        /* \"contracts/Web3_Jukebox_V1.2.sol\":6453:6458  owner */\n      0x00\n      dup1\n      sload\n      swap1\n      0x0100\n      exp\n      swap1\n      div\n      0xffffffffffffffffffffffffffffffffffffffff\n      and\n        /* \"contracts/Web3_Jukebox_V1.2.sol\":6442:6467  Withdrawal(owner, amount) */\n      0xffffffffffffffffffffffffffffffffffffffff\n      and\n      0x7fcf532c15f0a6db0bd6d0e038bea71d30d808c7d98cb3bf7268a95bf5081b65\n        /* \"contracts/Web3_Jukebox_V1.2.sol\":6460:6466  amount */\n      dup3\n        /* \"contracts/Web3_Jukebox_V1.2.sol\":6442:6467  Withdrawal(owner, amount) */\n      mload(0x40)\n      tag_142\n      swap2\n      swap1\n      tag_56\n      jump\t// in\n    tag_142:\n      mload(0x40)\n      dup1\n      swap2\n      sub\n      swap1\n      log2\n        /* \"contracts/Web3_Jukebox_V1.2.sol\":6318:6474  {... */\n      pop\n        /* \"contracts/Web3_Jukebox_V1.2.sol\":6275:6474  function withdrawFees() external onlyOwner {... */\n      jump\t// out\n        /* \"contracts/Web3_Jukebox_V1.2.sol\":5645:6226  function playAlbum(string memory albumName, address token) external {... */\n    tag_46:\n        /* \"contracts/Web3_Jukebox_V1.2.sol\":5723:5742  Album storage album */\n      0x00\n        /* \"contracts/Web3_Jukebox_V1.2.sol\":5745:5751  albums */\n      0x03\n        /* \"contracts/Web3_Jukebox_V1.2.sol\":5752:5761  albumName */\n      dup4\n        /* \"contracts/Web3_Jukebox_V1.2.sol\":5745:5762  albums[albumName] */\n      mload(0x40)\n      tag_144\n      swap2\n      swap1\n      tag_108\n      jump\t// in\n    tag_144:\n      swap1\n      dup2\n      mstore\n      0x20\n      add\n      mload(0x40)\n      dup1\n      swap2\n      sub\n      swap1\n      keccak256\n        /* \"contracts/Web3_Jukebox_V1.2.sol\":5723:5762  Album storage album = albums[albumName] */\n      swap1\n      pop\n        /* \"contracts/Web3_Jukebox_V1.2.sol\":5806:5807  0 */\n      0x00\n        /* \"contracts/Web3_Jukebox_V1.2.sol\":5786:5791  album */\n      dup2\n        /* \"contracts/Web3_Jukebox_V1.2.sol\":5786:5795  album.cid */\n      0x00\n      add\n        /* \"contracts/Web3_Jukebox_V1.2.sol\":5780:5803  bytes(album.cid).length */\n      dup1\n      sload\n      tag_145\n      swap1\n      tag_101\n      jump\t// in\n    tag_145:\n      swap1\n      pop\n        /* \"contracts/Web3_Jukebox_V1.2.sol\":5780:5807  bytes(album.cid).length > 0 */\n      gt\n        /* \"contracts/Web3_Jukebox_V1.2.sol\":5772:5833  require(bytes(album.cid).length > 0, \"Album does not exist.\") */\n      tag_146\n      jumpi\n      mload(0x40)\n      0x08c379a000000000000000000000000000000000000000000000000000000000\n      dup2\n      mstore\n      0x04\n      add\n      tag_147\n      swap1\n      tag_112\n      jump\t// in\n    tag_147:\n      mload(0x40)\n      dup1\n      swap2\n      sub\n      swap1\n      revert\n    tag_146:\n        /* \"contracts/Web3_Jukebox_V1.2.sol\":5851:5856  album */\n      dup1\n        /* \"contracts/Web3_Jukebox_V1.2.sol\":5851:5872  album.isTokenAccepted */\n      0x05\n      add\n        /* \"contracts/Web3_Jukebox_V1.2.sol\":5851:5879  album.isTokenAccepted[token] */\n      0x00\n        /* \"contracts/Web3_Jukebox_V1.2.sol\":5873:5878  token */\n      dup4\n        /* \"contracts/Web3_Jukebox_V1.2.sol\":5851:5879  album.isTokenAccepted[token] */\n      0xffffffffffffffffffffffffffffffffffffffff\n      and\n      0xffffffffffffffffffffffffffffffffffffffff\n      and\n      dup2\n      mstore\n      0x20\n      add\n      swap1\n      dup2\n      mstore\n      0x20\n      add\n      0x00\n      keccak256\n      0x00\n      swap1\n      sload\n      swap1\n      0x0100\n      exp\n      swap1\n      div\n      0xff\n      and\n        /* \"contracts/Web3_Jukebox_V1.2.sol\":5843:5918  require(album.isTokenAccepted[token], \"Token not accepted for this album.\") */\n      tag_148\n      jumpi\n      mload(0x40)\n      0x08c379a000000000000000000000000000000000000000000000000000000000\n      dup2\n      mstore\n      0x04\n      add\n      tag_149\n      swap1\n      tag_115\n      jump\t// in\n    tag_149:\n      mload(0x40)\n      dup1\n      swap2\n      sub\n      swap1\n      revert\n    tag_148:\n        /* \"contracts/Web3_Jukebox_V1.2.sol\":5929:5948  IERC20 paymentToken */\n      0x00\n        /* \"contracts/Web3_Jukebox_V1.2.sol\":5958:5963  token */\n      dup3\n        /* \"contracts/Web3_Jukebox_V1.2.sol\":5929:5964  IERC20 paymentToken = IERC20(token) */\n      swap1\n      pop\n        /* \"contracts/Web3_Jukebox_V1.2.sol\":6020:6025  album */\n      dup2\n        /* \"contracts/Web3_Jukebox_V1.2.sol\":6020:6039  album.wholeAlbumFee */\n      0x04\n      add\n      sload\n        /* \"contracts/Web3_Jukebox_V1.2.sol\":5982:5994  paymentToken */\n      dup2\n        /* \"contracts/Web3_Jukebox_V1.2.sol\":5982:6004  paymentToken.balanceOf */\n      0xffffffffffffffffffffffffffffffffffffffff\n      and\n      0x70a08231\n        /* \"contracts/Web3_Jukebox_V1.2.sol\":6005:6015  msg.sender */\n      caller\n        /* \"contracts/Web3_Jukebox_V1.2.sol\":5982:6016  paymentToken.balanceOf(msg.sender) */\n      mload(0x40)\n      dup3\n      0xffffffff\n      and\n      0xe0\n      shl\n      dup2\n      mstore\n      0x04\n      add\n      tag_150\n      swap2\n      swap1\n      tag_51\n      jump\t// in\n    tag_150:\n      0x20\n      mload(0x40)\n      dup1\n      dup4\n      sub\n      dup2\n      dup7\n      gas\n      staticcall\n      iszero\n      dup1\n      iszero\n      tag_152\n      jumpi\n      returndatasize\n      0x00\n      dup1\n      returndatacopy\n      revert(0x00, returndatasize)\n    tag_152:\n      pop\n      pop\n      pop\n      pop\n      mload(0x40)\n      returndatasize\n      not(0x1f)\n      0x1f\n      dup3\n      add\n      and\n      dup3\n      add\n      dup1\n      0x40\n      mstore\n      pop\n      dup2\n      add\n      swap1\n      tag_153\n      swap2\n      swap1\n      tag_120\n      jump\t// in\n    tag_153:\n        /* \"contracts/Web3_Jukebox_V1.2.sol\":5982:6039  paymentToken.balanceOf(msg.sender) >= album.wholeAlbumFee */\n      lt\n      iszero\n        /* \"contracts/Web3_Jukebox_V1.2.sol\":5974:6071  require(paymentToken.balanceOf(msg.sender) >= album.wholeAlbumFee, \"Insufficient token balance.\") */\n      tag_154\n      jumpi\n      mload(0x40)\n      0x08c379a000000000000000000000000000000000000000000000000000000000\n      dup2\n      mstore\n      0x04\n      add\n      tag_155\n      swap1\n      tag_123\n      jump\t// in\n    tag_155:\n      mload(0x40)\n      dup1\n      swap2\n      sub\n      swap1\n      revert\n    tag_154:\n        /* \"contracts/Web3_Jukebox_V1.2.sol\":6082:6141  splitPayment(token, album.wholeAlbumFee, album.albumOwners) */\n      tag_156\n        /* \"contracts/Web3_Jukebox_V1.2.sol\":6095:6100  token */\n      dup4\n        /* \"contracts/Web3_Jukebox_V1.2.sol\":6102:6107  album */\n      dup4\n        /* \"contracts/Web3_Jukebox_V1.2.sol\":6102:6121  album.wholeAlbumFee */\n      0x04\n      add\n      sload\n        /* \"contracts/Web3_Jukebox_V1.2.sol\":6123:6128  album */\n      dup5\n        /* \"contracts/Web3_Jukebox_V1.2.sol\":6123:6140  album.albumOwners */\n      0x01\n      add\n        /* \"contracts/Web3_Jukebox_V1.2.sol\":6082:6141  splitPayment(token, album.wholeAlbumFee, album.albumOwners) */\n      dup1\n      sload\n      dup1\n      0x20\n      mul\n      0x20\n      add\n      mload(0x40)\n      swap1\n      dup2\n      add\n      0x40\n      mstore\n      dup1\n      swap3\n      swap2\n      swap1\n      dup2\n      dup2\n      mstore\n      0x20\n      add\n      dup3\n      dup1\n      sload\n      dup1\n      iszero\n      tag_157\n      jumpi\n      0x20\n      mul\n      dup3\n      add\n      swap2\n      swap1\n      0x00\n      mstore\n      keccak256(0x00, 0x20)\n      swap1\n    tag_158:\n      dup2\n      0x00\n      swap1\n      sload\n      swap1\n      0x0100\n      exp\n      swap1\n      div\n      0xffffffffffffffffffffffffffffffffffffffff\n      and\n      0xffffffffffffffffffffffffffffffffffffffff\n      and\n      dup2\n      mstore\n      0x20\n      add\n      swap1\n      0x01\n      add\n      swap1\n      dup1\n      dup4\n      gt\n      tag_158\n      jumpi\n    tag_157:\n      pop\n      pop\n      pop\n      pop\n      pop\n        /* \"contracts/Web3_Jukebox_V1.2.sol\":6082:6094  splitPayment */\n      tag_127\n        /* \"contracts/Web3_Jukebox_V1.2.sol\":6082:6141  splitPayment(token, album.wholeAlbumFee, album.albumOwners) */\n      jump\t// in\n    tag_156:\n        /* \"contracts/Web3_Jukebox_V1.2.sol\":6169:6179  msg.sender */\n      caller\n        /* \"contracts/Web3_Jukebox_V1.2.sol\":6157:6219  AlbumPlayed(msg.sender, albumName, token, album.wholeAlbumFee) */\n      0xffffffffffffffffffffffffffffffffffffffff\n      and\n      0xa3380e26e795e8b011218106540ac41c35ea93f383c2259d0834693381025e4c\n        /* \"contracts/Web3_Jukebox_V1.2.sol\":6181:6190  albumName */\n      dup6\n        /* \"contracts/Web3_Jukebox_V1.2.sol\":6192:6197  token */\n      dup6\n        /* \"contracts/Web3_Jukebox_V1.2.sol\":6199:6204  album */\n      dup6\n        /* \"contracts/Web3_Jukebox_V1.2.sol\":6199:6218  album.wholeAlbumFee */\n      0x04\n      add\n      sload\n        /* \"contracts/Web3_Jukebox_V1.2.sol\":6157:6219  AlbumPlayed(msg.sender, albumName, token, album.wholeAlbumFee) */\n      mload(0x40)\n      tag_159\n      swap4\n      swap3\n      swap2\n      swap1\n      tag_160\n      jump\t// in\n    tag_159:\n      mload(0x40)\n      dup1\n      swap2\n      sub\n      swap1\n      log2\n        /* \"contracts/Web3_Jukebox_V1.2.sol\":5713:6226  {... */\n      pop\n      pop\n        /* \"contracts/Web3_Jukebox_V1.2.sol\":5645:6226  function playAlbum(string memory albumName, address token) external {... */\n      pop\n      pop\n      jump\t// out\n        /* \"contracts/Web3_Jukebox_V1.2.sol\":359:379  address public owner */\n    tag_49:\n      0x00\n      dup1\n      sload\n      swap1\n      0x0100\n      exp\n      swap1\n      div\n      0xffffffffffffffffffffffffffffffffffffffff\n      and\n      dup2\n      jump\t// out\n        /* \"contracts/Web3_Jukebox_V1.2.sol\":471:499  uint256 public collectedFees */\n    tag_54:\n      sload(0x02)\n      dup2\n      jump\t// out\n        /* \"contracts/Web3_Jukebox_V1.2.sol\":6480:6785  function withdrawToken(address token, uint256 amount) external onlyOwner {... */\n    tag_61:\n        /* \"contracts/Web3_Jukebox_V1.2.sol\":1993:1998  owner */\n      0x00\n      dup1\n      sload\n      swap1\n      0x0100\n      exp\n      swap1\n      div\n      0xffffffffffffffffffffffffffffffffffffffff\n      and\n        /* \"contracts/Web3_Jukebox_V1.2.sol\":1979:1998  msg.sender == owner */\n      0xffffffffffffffffffffffffffffffffffffffff\n      and\n        /* \"contracts/Web3_Jukebox_V1.2.sol\":1979:1989  msg.sender */\n      caller\n        /* \"contracts/Web3_Jukebox_V1.2.sol\":1979:1998  msg.sender == owner */\n      0xffffffffffffffffffffffffffffffffffffffff\n      and\n      eq\n        /* \"contracts/Web3_Jukebox_V1.2.sol\":1971:2051  require(msg.sender == owner, \"Only the contract owner can perform this action.\") */\n      tag_162\n      jumpi\n      mload(0x40)\n      0x08c379a000000000000000000000000000000000000000000000000000000000\n      dup2\n      mstore\n      0x04\n      add\n      tag_163\n      swap1\n      tag_138\n      jump\t// in\n    tag_163:\n      mload(0x40)\n      dup1\n      swap2\n      sub\n      swap1\n      revert\n    tag_162:\n        /* \"contracts/Web3_Jukebox_V1.2.sol\":6563:6582  IERC20 paymentToken */\n      0x00\n        /* \"contracts/Web3_Jukebox_V1.2.sol\":6592:6597  token */\n      dup3\n        /* \"contracts/Web3_Jukebox_V1.2.sol\":6563:6598  IERC20 paymentToken = IERC20(token) */\n      swap1\n      pop\n        /* \"contracts/Web3_Jukebox_V1.2.sol\":6657:6663  amount */\n      dup2\n        /* \"contracts/Web3_Jukebox_V1.2.sol\":6616:6628  paymentToken */\n      dup2\n        /* \"contracts/Web3_Jukebox_V1.2.sol\":6616:6638  paymentToken.balanceOf */\n      0xffffffffffffffffffffffffffffffffffffffff\n      and\n      0x70a08231\n        /* \"contracts/Web3_Jukebox_V1.2.sol\":6647:6651  this */\n      address\n        /* \"contracts/Web3_Jukebox_V1.2.sol\":6616:6653  paymentToken.balanceOf(address(this)) */\n      mload(0x40)\n      dup3\n      0xffffffff\n      and\n      0xe0\n      shl\n      dup2\n      mstore\n      0x04\n      add\n      tag_165\n      swap2\n      swap1\n      tag_51\n      jump\t// in\n    tag_165:\n      0x20\n      mload(0x40)\n      dup1\n      dup4\n      sub\n      dup2\n      dup7\n      gas\n      staticcall\n      iszero\n      dup1\n      iszero\n      tag_167\n      jumpi\n      returndatasize\n      0x00\n      dup1\n      returndatacopy\n      revert(0x00, returndatasize)\n    tag_167:\n      pop\n      pop\n      pop\n      pop\n      mload(0x40)\n      returndatasize\n      not(0x1f)\n      0x1f\n      dup3\n      add\n      and\n      dup3\n      add\n      dup1\n      0x40\n      mstore\n      pop\n      dup2\n      add\n      swap1\n      tag_168\n      swap2\n      swap1\n      tag_120\n      jump\t// in\n    tag_168:\n        /* \"contracts/Web3_Jukebox_V1.2.sol\":6616:6663  paymentToken.balanceOf(address(this)) >= amount */\n      lt\n      iszero\n        /* \"contracts/Web3_Jukebox_V1.2.sol\":6608:6695  require(paymentToken.balanceOf(address(this)) >= amount, \"Insufficient token balance.\") */\n      tag_169\n      jumpi\n      mload(0x40)\n      0x08c379a000000000000000000000000000000000000000000000000000000000\n      dup2\n      mstore\n      0x04\n      add\n      tag_170\n      swap1\n      tag_123\n      jump\t// in\n    tag_170:\n      mload(0x40)\n      dup1\n      swap2\n      sub\n      swap1\n      revert\n    tag_169:\n        /* \"contracts/Web3_Jukebox_V1.2.sol\":6713:6725  paymentToken */\n      dup1\n        /* \"contracts/Web3_Jukebox_V1.2.sol\":6713:6734  paymentToken.transfer */\n      0xffffffffffffffffffffffffffffffffffffffff\n      and\n      0xa9059cbb\n        /* \"contracts/Web3_Jukebox_V1.2.sol\":6735:6740  owner */\n      0x00\n      dup1\n      sload\n      swap1\n      0x0100\n      exp\n      swap1\n      div\n      0xffffffffffffffffffffffffffffffffffffffff\n      and\n        /* \"contracts/Web3_Jukebox_V1.2.sol\":6742:6748  amount */\n      dup5\n        /* \"contracts/Web3_Jukebox_V1.2.sol\":6713:6749  paymentToken.transfer(owner, amount) */\n      mload(0x40)\n      dup4\n      0xffffffff\n      and\n      0xe0\n      shl\n      dup2\n      mstore\n      0x04\n      add\n      tag_171\n      swap3\n      swap2\n      swap1\n      tag_172\n      jump\t// in\n    tag_171:\n      0x20\n      mload(0x40)\n      dup1\n      dup4\n      sub\n      dup2\n      0x00\n      dup8\n      gas\n      call\n      iszero\n      dup1\n      iszero\n      tag_174\n      jumpi\n      returndatasize\n      0x00\n      dup1\n      returndatacopy\n      revert(0x00, returndatasize)\n    tag_174:\n      pop\n      pop\n      pop\n      pop\n      mload(0x40)\n      returndatasize\n      not(0x1f)\n      0x1f\n      dup3\n      add\n      and\n      dup3\n      add\n      dup1\n      0x40\n      mstore\n      pop\n      dup2\n      add\n      swap1\n      tag_175\n      swap2\n      swap1\n      tag_176\n      jump\t// in\n    tag_175:\n        /* \"contracts/Web3_Jukebox_V1.2.sol\":6705:6778  require(paymentToken.transfer(owner, amount), \"Token withdrawal failed.\") */\n      tag_177\n      jumpi\n      mload(0x40)\n      0x08c379a000000000000000000000000000000000000000000000000000000000\n      dup2\n      mstore\n      0x04\n      add\n      tag_178\n      swap1\n      tag_179\n      jump\t// in\n    tag_178:\n      mload(0x40)\n      dup1\n      swap2\n      sub\n      swap1\n      revert\n    tag_177:\n        /* \"contracts/Web3_Jukebox_V1.2.sol\":6553:6785  {... */\n      pop\n        /* \"contracts/Web3_Jukebox_V1.2.sol\":6480:6785  function withdrawToken(address token, uint256 amount) external onlyOwner {... */\n      pop\n      pop\n      jump\t// out\n        /* \"contracts/Web3_Jukebox_V1.2.sol\":7949:8446  function addToken(string memory albumName, address token) external {... */\n    tag_65:\n        /* \"contracts/Web3_Jukebox_V1.2.sol\":8026:8045  Album storage album */\n      0x00\n        /* \"contracts/Web3_Jukebox_V1.2.sol\":8048:8054  albums */\n      0x03\n        /* \"contracts/Web3_Jukebox_V1.2.sol\":8055:8064  albumName */\n      dup4\n        /* \"contracts/Web3_Jukebox_V1.2.sol\":8048:8065  albums[albumName] */\n      mload(0x40)\n      tag_181\n      swap2\n      swap1\n      tag_108\n      jump\t// in\n    tag_181:\n      swap1\n      dup2\n      mstore\n      0x20\n      add\n      mload(0x40)\n      dup1\n      swap2\n      sub\n      swap1\n      keccak256\n        /* \"contracts/Web3_Jukebox_V1.2.sol\":8026:8065  Album storage album = albums[albumName] */\n      swap1\n      pop\n        /* \"contracts/Web3_Jukebox_V1.2.sol\":8109:8110  0 */\n      0x00\n        /* \"contracts/Web3_Jukebox_V1.2.sol\":8089:8094  album */\n      dup2\n        /* \"contracts/Web3_Jukebox_V1.2.sol\":8089:8098  album.cid */\n      0x00\n      add\n        /* \"contracts/Web3_Jukebox_V1.2.sol\":8083:8106  bytes(album.cid).length */\n      dup1\n      sload\n      tag_182\n      swap1\n      tag_101\n      jump\t// in\n    tag_182:\n      swap1\n      pop\n        /* \"contracts/Web3_Jukebox_V1.2.sol\":8083:8110  bytes(album.cid).length > 0 */\n      gt\n        /* \"contracts/Web3_Jukebox_V1.2.sol\":8075:8136  require(bytes(album.cid).length > 0, \"Album does not exist.\") */\n      tag_183\n      jumpi\n      mload(0x40)\n      0x08c379a000000000000000000000000000000000000000000000000000000000\n      dup2\n      mstore\n      0x04\n      add\n      tag_184\n      swap1\n      tag_112\n      jump\t// in\n    tag_184:\n      mload(0x40)\n      dup1\n      swap2\n      sub\n      swap1\n      revert\n    tag_183:\n        /* \"contracts/Web3_Jukebox_V1.2.sol\":8154:8189  isAlbumOwner(albumName, msg.sender) */\n      tag_185\n        /* \"contracts/Web3_Jukebox_V1.2.sol\":8167:8176  albumName */\n      dup4\n        /* \"contracts/Web3_Jukebox_V1.2.sol\":8178:8188  msg.sender */\n      caller\n        /* \"contracts/Web3_Jukebox_V1.2.sol\":8154:8166  isAlbumOwner */\n      tag_186\n        /* \"contracts/Web3_Jukebox_V1.2.sol\":8154:8189  isAlbumOwner(albumName, msg.sender) */\n      jump\t// in\n    tag_185:\n        /* \"contracts/Web3_Jukebox_V1.2.sol\":8146:8230  require(isAlbumOwner(albumName, msg.sender), \"Caller is not an owner of the album.\") */\n      tag_187\n      jumpi\n      mload(0x40)\n      0x08c379a000000000000000000000000000000000000000000000000000000000\n      dup2\n      mstore\n      0x04\n      add\n      tag_188\n      swap1\n      tag_189\n      jump\t// in\n    tag_188:\n      mload(0x40)\n      dup1\n      swap2\n      sub\n      swap1\n      revert\n    tag_187:\n        /* \"contracts/Web3_Jukebox_V1.2.sol\":8249:8254  album */\n      dup1\n        /* \"contracts/Web3_Jukebox_V1.2.sol\":8249:8270  album.isTokenAccepted */\n      0x05\n      add\n        /* \"contracts/Web3_Jukebox_V1.2.sol\":8249:8277  album.isTokenAccepted[token] */\n      0x00\n        /* \"contracts/Web3_Jukebox_V1.2.sol\":8271:8276  token */\n      dup4\n        /* \"contracts/Web3_Jukebox_V1.2.sol\":8249:8277  album.isTokenAccepted[token] */\n      0xffffffffffffffffffffffffffffffffffffffff\n      and\n      0xffffffffffffffffffffffffffffffffffffffff\n      and\n      dup2\n      mstore\n      0x20\n      add\n      swap1\n      dup2\n      mstore\n      0x20\n      add\n      0x00\n      keccak256\n      0x00\n      swap1\n      sload\n      swap1\n      0x0100\n      exp\n      swap1\n      div\n      0xff\n      and\n        /* \"contracts/Web3_Jukebox_V1.2.sol\":8248:8277  !album.isTokenAccepted[token] */\n      iszero\n        /* \"contracts/Web3_Jukebox_V1.2.sol\":8240:8308  require(!album.isTokenAccepted[token], \"Token is already accepted.\") */\n      tag_190\n      jumpi\n      mload(0x40)\n      0x08c379a000000000000000000000000000000000000000000000000000000000\n      dup2\n      mstore\n      0x04\n      add\n      tag_191\n      swap1\n      tag_192\n      jump\t// in\n    tag_191:\n      mload(0x40)\n      dup1\n      swap2\n      sub\n      swap1\n      revert\n    tag_190:\n        /* \"contracts/Web3_Jukebox_V1.2.sol\":8319:8324  album */\n      dup1\n        /* \"contracts/Web3_Jukebox_V1.2.sol\":8319:8338  album.paymentTokens */\n      0x02\n      add\n        /* \"contracts/Web3_Jukebox_V1.2.sol\":8344:8349  token */\n      dup3\n        /* \"contracts/Web3_Jukebox_V1.2.sol\":8319:8350  album.paymentTokens.push(token) */\n      swap1\n      dup1\n      0x01\n      dup2\n      sload\n      add\n      dup1\n      dup3\n      sstore\n      dup1\n      swap2\n      pop\n      pop\n      0x01\n      swap1\n      sub\n      swap1\n      0x00\n      mstore\n      keccak256(0x00, 0x20)\n      add\n      0x00\n      swap1\n      swap2\n      swap1\n      swap2\n      swap1\n      swap2\n      0x0100\n      exp\n      dup2\n      sload\n      dup2\n      0xffffffffffffffffffffffffffffffffffffffff\n      mul\n      not\n      and\n      swap1\n      dup4\n      0xffffffffffffffffffffffffffffffffffffffff\n      and\n      mul\n      or\n      swap1\n      sstore\n      pop\n        /* \"contracts/Web3_Jukebox_V1.2.sol\":8391:8395  true */\n      0x01\n        /* \"contracts/Web3_Jukebox_V1.2.sol\":8360:8365  album */\n      dup2\n        /* \"contracts/Web3_Jukebox_V1.2.sol\":8360:8381  album.isTokenAccepted */\n      0x05\n      add\n        /* \"contracts/Web3_Jukebox_V1.2.sol\":8360:8388  album.isTokenAccepted[token] */\n      0x00\n        /* \"contracts/Web3_Jukebox_V1.2.sol\":8382:8387  token */\n      dup5\n        /* \"contracts/Web3_Jukebox_V1.2.sol\":8360:8388  album.isTokenAccepted[token] */\n      0xffffffffffffffffffffffffffffffffffffffff\n      and\n      0xffffffffffffffffffffffffffffffffffffffff\n      and\n      dup2\n      mstore\n      0x20\n      add\n      swap1\n      dup2\n      mstore\n      0x20\n      add\n      0x00\n      keccak256\n      0x00\n        /* \"contracts/Web3_Jukebox_V1.2.sol\":8360:8395  album.isTokenAccepted[token] = true */\n      0x0100\n      exp\n      dup2\n      sload\n      dup2\n      0xff\n      mul\n      not\n      and\n      swap1\n      dup4\n      iszero\n      iszero\n      mul\n      or\n      swap1\n      sstore\n      pop\n        /* \"contracts/Web3_Jukebox_V1.2.sol\":8411:8439  TokenAdded(albumName, token) */\n      0x6d97a31531bdb3c43d920bc996ec8b9fd7733f5f55a81cd74700f88631fc6032\n        /* \"contracts/Web3_Jukebox_V1.2.sol\":8422:8431  albumName */\n      dup4\n        /* \"contracts/Web3_Jukebox_V1.2.sol\":8433:8438  token */\n      dup4\n        /* \"contracts/Web3_Jukebox_V1.2.sol\":8411:8439  TokenAdded(albumName, token) */\n      mload(0x40)\n      tag_194\n      swap3\n      swap2\n      swap1\n      tag_195\n      jump\t// in\n    tag_194:\n      mload(0x40)\n      dup1\n      swap2\n      sub\n      swap1\n      log1\n        /* \"contracts/Web3_Jukebox_V1.2.sol\":8016:8446  {... */\n      pop\n        /* \"contracts/Web3_Jukebox_V1.2.sol\":7949:8446  function addToken(string memory albumName, address token) external {... */\n      pop\n      pop\n      jump\t// out\n        /* \"contracts/Web3_Jukebox_V1.2.sol\":2121:2221  function setAlbumCreationFee(uint256 fee) external onlyOwner {... */\n    tag_69:\n        /* \"contracts/Web3_Jukebox_V1.2.sol\":1993:1998  owner */\n      0x00\n      dup1\n      sload\n      swap1\n      0x0100\n      exp\n      swap1\n      div\n      0xffffffffffffffffffffffffffffffffffffffff\n      and\n        /* \"contracts/Web3_Jukebox_V1.2.sol\":1979:1998  msg.sender == owner */\n      0xffffffffffffffffffffffffffffffffffffffff\n      and\n        /* \"contracts/Web3_Jukebox_V1.2.sol\":1979:1989  msg.sender */\n      caller\n        /* \"contracts/Web3_Jukebox_V1.2.sol\":1979:1998  msg.sender == owner */\n      0xffffffffffffffffffffffffffffffffffffffff\n      and\n      eq\n        /* \"contracts/Web3_Jukebox_V1.2.sol\":1971:2051  require(msg.sender == owner, \"Only the contract owner can perform this action.\") */\n      tag_197\n      jumpi\n      mload(0x40)\n      0x08c379a000000000000000000000000000000000000000000000000000000000\n      dup2\n      mstore\n      0x04\n      add\n      tag_198\n      swap1\n      tag_138\n      jump\t// in\n    tag_198:\n      mload(0x40)\n      dup1\n      swap2\n      sub\n      swap1\n      revert\n    tag_197:\n        /* \"contracts/Web3_Jukebox_V1.2.sol\":2211:2214  fee */\n      dup1\n        /* \"contracts/Web3_Jukebox_V1.2.sol\":2192:2208  albumCreationFee */\n      0x01\n        /* \"contracts/Web3_Jukebox_V1.2.sol\":2192:2214  albumCreationFee = fee */\n      dup2\n      swap1\n      sstore\n      pop\n        /* \"contracts/Web3_Jukebox_V1.2.sol\":2121:2221  function setAlbumCreationFee(uint256 fee) external onlyOwner {... */\n      pop\n      jump\t// out\n        /* \"contracts/Web3_Jukebox_V1.2.sol\":8509:9398  function removeToken(string memory albumName, address token) external {... */\n    tag_73:\n        /* \"contracts/Web3_Jukebox_V1.2.sol\":8589:8608  Album storage album */\n      0x00\n        /* \"contracts/Web3_Jukebox_V1.2.sol\":8611:8617  albums */\n      0x03\n        /* \"contracts/Web3_Jukebox_V1.2.sol\":8618:8627  albumName */\n      dup4\n        /* \"contracts/Web3_Jukebox_V1.2.sol\":8611:8628  albums[albumName] */\n      mload(0x40)\n      tag_201\n      swap2\n      swap1\n      tag_108\n      jump\t// in\n    tag_201:\n      swap1\n      dup2\n      mstore\n      0x20\n      add\n      mload(0x40)\n      dup1\n      swap2\n      sub\n      swap1\n      keccak256\n        /* \"contracts/Web3_Jukebox_V1.2.sol\":8589:8628  Album storage album = albums[albumName] */\n      swap1\n      pop\n        /* \"contracts/Web3_Jukebox_V1.2.sol\":8672:8673  0 */\n      0x00\n        /* \"contracts/Web3_Jukebox_V1.2.sol\":8652:8657  album */\n      dup2\n        /* \"contracts/Web3_Jukebox_V1.2.sol\":8652:8661  album.cid */\n      0x00\n      add\n        /* \"contracts/Web3_Jukebox_V1.2.sol\":8646:8669  bytes(album.cid).length */\n      dup1\n      sload\n      tag_202\n      swap1\n      tag_101\n      jump\t// in\n    tag_202:\n      swap1\n      pop\n        /* \"contracts/Web3_Jukebox_V1.2.sol\":8646:8673  bytes(album.cid).length > 0 */\n      gt\n        /* \"contracts/Web3_Jukebox_V1.2.sol\":8638:8699  require(bytes(album.cid).length > 0, \"Album does not exist.\") */\n      tag_203\n      jumpi\n      mload(0x40)\n      0x08c379a000000000000000000000000000000000000000000000000000000000\n      dup2\n      mstore\n      0x04\n      add\n      tag_204\n      swap1\n      tag_112\n      jump\t// in\n    tag_204:\n      mload(0x40)\n      dup1\n      swap2\n      sub\n      swap1\n      revert\n    tag_203:\n        /* \"contracts/Web3_Jukebox_V1.2.sol\":8717:8752  isAlbumOwner(albumName, msg.sender) */\n      tag_205\n        /* \"contracts/Web3_Jukebox_V1.2.sol\":8730:8739  albumName */\n      dup4\n        /* \"contracts/Web3_Jukebox_V1.2.sol\":8741:8751  msg.sender */\n      caller\n        /* \"contracts/Web3_Jukebox_V1.2.sol\":8717:8729  isAlbumOwner */\n      tag_186\n        /* \"contracts/Web3_Jukebox_V1.2.sol\":8717:8752  isAlbumOwner(albumName, msg.sender) */\n      jump\t// in\n    tag_205:\n        /* \"contracts/Web3_Jukebox_V1.2.sol\":8709:8793  require(isAlbumOwner(albumName, msg.sender), \"Caller is not an owner of the album.\") */\n      tag_206\n      jumpi\n      mload(0x40)\n      0x08c379a000000000000000000000000000000000000000000000000000000000\n      dup2\n      mstore\n      0x04\n      add\n      tag_207\n      swap1\n      tag_189\n      jump\t// in\n    tag_207:\n      mload(0x40)\n      dup1\n      swap2\n      sub\n      swap1\n      revert\n    tag_206:\n        /* \"contracts/Web3_Jukebox_V1.2.sol\":8811:8816  album */\n      dup1\n        /* \"contracts/Web3_Jukebox_V1.2.sol\":8811:8832  album.isTokenAccepted */\n      0x05\n      add\n        /* \"contracts/Web3_Jukebox_V1.2.sol\":8811:8839  album.isTokenAccepted[token] */\n      0x00\n        /* \"contracts/Web3_Jukebox_V1.2.sol\":8833:8838  token */\n      dup4\n        /* \"contracts/Web3_Jukebox_V1.2.sol\":8811:8839  album.isTokenAccepted[token] */\n      0xffffffffffffffffffffffffffffffffffffffff\n      and\n      0xffffffffffffffffffffffffffffffffffffffff\n      and\n      dup2\n      mstore\n      0x20\n      add\n      swap1\n      dup2\n      mstore\n      0x20\n      add\n      0x00\n      keccak256\n      0x00\n      swap1\n      sload\n      swap1\n      0x0100\n      exp\n      swap1\n      div\n      0xff\n      and\n        /* \"contracts/Web3_Jukebox_V1.2.sol\":8803:8866  require(album.isTokenAccepted[token], \"Token is not accepted.\") */\n      tag_208\n      jumpi\n      mload(0x40)\n      0x08c379a000000000000000000000000000000000000000000000000000000000\n      dup2\n      mstore\n      0x04\n      add\n      tag_209\n      swap1\n      tag_210\n      jump\t// in\n    tag_209:\n      mload(0x40)\n      dup1\n      swap2\n      sub\n      swap1\n      revert\n    tag_208:\n        /* \"contracts/Web3_Jukebox_V1.2.sol\":8949:8954  false */\n      0x00\n        /* \"contracts/Web3_Jukebox_V1.2.sol\":8918:8923  album */\n      dup2\n        /* \"contracts/Web3_Jukebox_V1.2.sol\":8918:8939  album.isTokenAccepted */\n      0x05\n      add\n        /* \"contracts/Web3_Jukebox_V1.2.sol\":8918:8946  album.isTokenAccepted[token] */\n      0x00\n        /* \"contracts/Web3_Jukebox_V1.2.sol\":8940:8945  token */\n      dup5\n        /* \"contracts/Web3_Jukebox_V1.2.sol\":8918:8946  album.isTokenAccepted[token] */\n      0xffffffffffffffffffffffffffffffffffffffff\n      and\n      0xffffffffffffffffffffffffffffffffffffffff\n      and\n      dup2\n      mstore\n      0x20\n      add\n      swap1\n      dup2\n      mstore\n      0x20\n      add\n      0x00\n      keccak256\n      0x00\n        /* \"contracts/Web3_Jukebox_V1.2.sol\":8918:8954  album.isTokenAccepted[token] = false */\n      0x0100\n      exp\n      dup2\n      sload\n      dup2\n      0xff\n      mul\n      not\n      and\n      swap1\n      dup4\n      iszero\n      iszero\n      mul\n      or\n      swap1\n      sstore\n      pop\n        /* \"contracts/Web3_Jukebox_V1.2.sol\":9004:9028  address[] storage tokens */\n      0x00\n        /* \"contracts/Web3_Jukebox_V1.2.sol\":9031:9036  album */\n      dup2\n        /* \"contracts/Web3_Jukebox_V1.2.sol\":9031:9050  album.paymentTokens */\n      0x02\n      add\n        /* \"contracts/Web3_Jukebox_V1.2.sol\":9004:9050  address[] storage tokens = album.paymentTokens */\n      swap1\n      pop\n        /* \"contracts/Web3_Jukebox_V1.2.sol\":9065:9074  uint256 i */\n      0x00\n        /* \"contracts/Web3_Jukebox_V1.2.sol\":9060:9346  for (uint256 i = 0; i < tokens.length; i++) {... */\n    tag_211:\n        /* \"contracts/Web3_Jukebox_V1.2.sol\":9084:9090  tokens */\n      dup2\n        /* \"contracts/Web3_Jukebox_V1.2.sol\":9084:9097  tokens.length */\n      dup1\n      sload\n      swap1\n      pop\n        /* \"contracts/Web3_Jukebox_V1.2.sol\":9080:9081  i */\n      dup2\n        /* \"contracts/Web3_Jukebox_V1.2.sol\":9080:9097  i < tokens.length */\n      lt\n        /* \"contracts/Web3_Jukebox_V1.2.sol\":9060:9346  for (uint256 i = 0; i < tokens.length; i++) {... */\n      iszero\n      tag_212\n      jumpi\n        /* \"contracts/Web3_Jukebox_V1.2.sol\":9135:9140  token */\n      dup4\n        /* \"contracts/Web3_Jukebox_V1.2.sol\":9122:9140  tokens[i] == token */\n      0xffffffffffffffffffffffffffffffffffffffff\n      and\n        /* \"contracts/Web3_Jukebox_V1.2.sol\":9122:9128  tokens */\n      dup3\n        /* \"contracts/Web3_Jukebox_V1.2.sol\":9129:9130  i */\n      dup3\n        /* \"contracts/Web3_Jukebox_V1.2.sol\":9122:9131  tokens[i] */\n      dup2\n      sload\n      dup2\n      lt\n      tag_214\n      jumpi\n      tag_215\n      tag_98\n      jump\t// in\n    tag_215:\n    tag_214:\n      swap1\n      0x00\n      mstore\n      keccak256(0x00, 0x20)\n      add\n      0x00\n      swap1\n      sload\n      swap1\n      0x0100\n      exp\n      swap1\n      div\n      0xffffffffffffffffffffffffffffffffffffffff\n      and\n        /* \"contracts/Web3_Jukebox_V1.2.sol\":9122:9140  tokens[i] == token */\n      0xffffffffffffffffffffffffffffffffffffffff\n      and\n      sub\n        /* \"contracts/Web3_Jukebox_V1.2.sol\":9118:9336  if (tokens[i] == token) {... */\n      tag_217\n      jumpi\n        /* \"contracts/Web3_Jukebox_V1.2.sol\":9172:9178  tokens */\n      dup2\n        /* \"contracts/Web3_Jukebox_V1.2.sol\":9195:9196  1 */\n      0x01\n        /* \"contracts/Web3_Jukebox_V1.2.sol\":9179:9185  tokens */\n      dup4\n        /* \"contracts/Web3_Jukebox_V1.2.sol\":9179:9192  tokens.length */\n      dup1\n      sload\n      swap1\n      pop\n        /* \"contracts/Web3_Jukebox_V1.2.sol\":9179:9196  tokens.length - 1 */\n      tag_218\n      swap2\n      swap1\n      tag_219\n      jump\t// in\n    tag_218:\n        /* \"contracts/Web3_Jukebox_V1.2.sol\":9172:9197  tokens[tokens.length - 1] */\n      dup2\n      sload\n      dup2\n      lt\n      tag_220\n      jumpi\n      tag_221\n      tag_98\n      jump\t// in\n    tag_221:\n    tag_220:\n      swap1\n      0x00\n      mstore\n      keccak256(0x00, 0x20)\n      add\n      0x00\n      swap1\n      sload\n      swap1\n      0x0100\n      exp\n      swap1\n      div\n      0xffffffffffffffffffffffffffffffffffffffff\n      and\n        /* \"contracts/Web3_Jukebox_V1.2.sol\":9160:9166  tokens */\n      dup3\n        /* \"contracts/Web3_Jukebox_V1.2.sol\":9167:9168  i */\n      dup3\n        /* \"contracts/Web3_Jukebox_V1.2.sol\":9160:9169  tokens[i] */\n      dup2\n      sload\n      dup2\n      lt\n      tag_223\n      jumpi\n      tag_224\n      tag_98\n      jump\t// in\n    tag_224:\n    tag_223:\n      swap1\n      0x00\n      mstore\n      keccak256(0x00, 0x20)\n      add\n      0x00\n        /* \"contracts/Web3_Jukebox_V1.2.sol\":9160:9197  tokens[i] = tokens[tokens.length - 1] */\n      0x0100\n      exp\n      dup2\n      sload\n      dup2\n      0xffffffffffffffffffffffffffffffffffffffff\n      mul\n      not\n      and\n      swap1\n      dup4\n      0xffffffffffffffffffffffffffffffffffffffff\n      and\n      mul\n      or\n      swap1\n      sstore\n      pop\n        /* \"contracts/Web3_Jukebox_V1.2.sol\":9259:9265  tokens */\n      dup2\n        /* \"contracts/Web3_Jukebox_V1.2.sol\":9259:9271  tokens.pop() */\n      dup1\n      sload\n      dup1\n      tag_226\n      jumpi\n      tag_227\n      tag_228\n      jump\t// in\n    tag_227:\n    tag_226:\n      0x01\n      swap1\n      sub\n      dup2\n      dup2\n      swap1\n      0x00\n      mstore\n      keccak256(0x00, 0x20)\n      add\n      exp(0x0100, 0x00)\n      dup2\n      sload\n      swap1\n      0xffffffffffffffffffffffffffffffffffffffff\n      mul\n      not\n      and\n      swap1\n      sstore\n      swap1\n      sstore\n        /* \"contracts/Web3_Jukebox_V1.2.sol\":9316:9321  break */\n      jump(tag_212)\n        /* \"contracts/Web3_Jukebox_V1.2.sol\":9118:9336  if (tokens[i] == token) {... */\n    tag_217:\n        /* \"contracts/Web3_Jukebox_V1.2.sol\":9099:9102  i++ */\n      dup1\n      dup1\n      0x01\n      add\n      swap2\n      pop\n      pop\n        /* \"contracts/Web3_Jukebox_V1.2.sol\":9060:9346  for (uint256 i = 0; i < tokens.length; i++) {... */\n      jump(tag_211)\n    tag_212:\n      pop\n        /* \"contracts/Web3_Jukebox_V1.2.sol\":9361:9391  TokenRemoved(albumName, token) */\n      0x1adb68f0a540855cafa9d341c1e94a36fa13b8a15ff602507addfe49c0f018d1\n        /* \"contracts/Web3_Jukebox_V1.2.sol\":9374:9383  albumName */\n      dup5\n        /* \"contracts/Web3_Jukebox_V1.2.sol\":9385:9390  token */\n      dup5\n        /* \"contracts/Web3_Jukebox_V1.2.sol\":9361:9391  TokenRemoved(albumName, token) */\n      mload(0x40)\n      tag_230\n      swap3\n      swap2\n      swap1\n      tag_195\n      jump\t// in\n    tag_230:\n      mload(0x40)\n      dup1\n      swap2\n      sub\n      swap1\n      log1\n        /* \"contracts/Web3_Jukebox_V1.2.sol\":8579:9398  {... */\n      pop\n      pop\n        /* \"contracts/Web3_Jukebox_V1.2.sol\":8509:9398  function removeToken(string memory albumName, address token) external {... */\n      pop\n      pop\n      jump\t// out\n        /* \"contracts/Web3_Jukebox_V1.2.sol\":4428:4952  function getAlbumDetails(string memory albumName)... */\n    tag_77:\n        /* \"contracts/Web3_Jukebox_V1.2.sol\":4538:4555  string memory cid */\n      0x60\n        /* \"contracts/Web3_Jukebox_V1.2.sol\":4569:4597  address[] memory albumOwners */\n      dup1\n        /* \"contracts/Web3_Jukebox_V1.2.sol\":4611:4641  address[] memory paymentTokens */\n      0x60\n        /* \"contracts/Web3_Jukebox_V1.2.sol\":4655:4670  uint256 playFee */\n      0x00\n        /* \"contracts/Web3_Jukebox_V1.2.sol\":4684:4705  uint256 wholeAlbumFee */\n      dup1\n        /* \"contracts/Web3_Jukebox_V1.2.sol\":4730:4749  Album storage album */\n      0x00\n        /* \"contracts/Web3_Jukebox_V1.2.sol\":4752:4758  albums */\n      0x03\n        /* \"contracts/Web3_Jukebox_V1.2.sol\":4759:4768  albumName */\n      dup8\n        /* \"contracts/Web3_Jukebox_V1.2.sol\":4752:4769  albums[albumName] */\n      mload(0x40)\n      tag_232\n      swap2\n      swap1\n      tag_108\n      jump\t// in\n    tag_232:\n      swap1\n      dup2\n      mstore\n      0x20\n      add\n      mload(0x40)\n      dup1\n      swap2\n      sub\n      swap1\n      keccak256\n        /* \"contracts/Web3_Jukebox_V1.2.sol\":4730:4769  Album storage album = albums[albumName] */\n      swap1\n      pop\n        /* \"contracts/Web3_Jukebox_V1.2.sol\":4813:4814  0 */\n      0x00\n        /* \"contracts/Web3_Jukebox_V1.2.sol\":4793:4798  album */\n      dup2\n        /* \"contracts/Web3_Jukebox_V1.2.sol\":4793:4802  album.cid */\n      0x00\n      add\n        /* \"contracts/Web3_Jukebox_V1.2.sol\":4787:4810  bytes(album.cid).length */\n      dup1\n      sload\n      tag_233\n      swap1\n      tag_101\n      jump\t// in\n    tag_233:\n      swap1\n      pop\n        /* \"contracts/Web3_Jukebox_V1.2.sol\":4787:4814  bytes(album.cid).length > 0 */\n      gt\n        /* \"contracts/Web3_Jukebox_V1.2.sol\":4779:4840  require(bytes(album.cid).length > 0, \"Album does not exist.\") */\n      tag_234\n      jumpi\n      mload(0x40)\n      0x08c379a000000000000000000000000000000000000000000000000000000000\n      dup2\n      mstore\n      0x04\n      add\n      tag_235\n      swap1\n      tag_112\n      jump\t// in\n    tag_235:\n      mload(0x40)\n      dup1\n      swap2\n      sub\n      swap1\n      revert\n    tag_234:\n        /* \"contracts/Web3_Jukebox_V1.2.sol\":4859:4864  album */\n      dup1\n        /* \"contracts/Web3_Jukebox_V1.2.sol\":4859:4868  album.cid */\n      0x00\n      add\n        /* \"contracts/Web3_Jukebox_V1.2.sol\":4870:4875  album */\n      dup2\n        /* \"contracts/Web3_Jukebox_V1.2.sol\":4870:4887  album.albumOwners */\n      0x01\n      add\n        /* \"contracts/Web3_Jukebox_V1.2.sol\":4889:4894  album */\n      dup3\n        /* \"contracts/Web3_Jukebox_V1.2.sol\":4889:4908  album.paymentTokens */\n      0x02\n      add\n        /* \"contracts/Web3_Jukebox_V1.2.sol\":4910:4915  album */\n      dup4\n        /* \"contracts/Web3_Jukebox_V1.2.sol\":4910:4923  album.playFee */\n      0x03\n      add\n      sload\n        /* \"contracts/Web3_Jukebox_V1.2.sol\":4925:4930  album */\n      dup5\n        /* \"contracts/Web3_Jukebox_V1.2.sol\":4925:4944  album.wholeAlbumFee */\n      0x04\n      add\n      sload\n        /* \"contracts/Web3_Jukebox_V1.2.sol\":4851:4945  return (album.cid, album.albumOwners, album.paymentTokens, album.playFee, album.wholeAlbumFee) */\n      dup5\n      dup1\n      sload\n      tag_236\n      swap1\n      tag_101\n      jump\t// in\n    tag_236:\n      dup1\n      0x1f\n      add\n      0x20\n      dup1\n      swap2\n      div\n      mul\n      0x20\n      add\n      mload(0x40)\n      swap1\n      dup2\n      add\n      0x40\n      mstore\n      dup1\n      swap3\n      swap2\n      swap1\n      dup2\n      dup2\n      mstore\n      0x20\n      add\n      dup3\n      dup1\n      sload\n      tag_237\n      swap1\n      tag_101\n      jump\t// in\n    tag_237:\n      dup1\n      iszero\n      tag_238\n      jumpi\n      dup1\n      0x1f\n      lt\n      tag_239\n      jumpi\n      0x0100\n      dup1\n      dup4\n      sload\n      div\n      mul\n      dup4\n      mstore\n      swap2\n      0x20\n      add\n      swap2\n      jump(tag_238)\n    tag_239:\n      dup3\n      add\n      swap2\n      swap1\n      0x00\n      mstore\n      keccak256(0x00, 0x20)\n      swap1\n    tag_240:\n      dup2\n      sload\n      dup2\n      mstore\n      swap1\n      0x01\n      add\n      swap1\n      0x20\n      add\n      dup1\n      dup4\n      gt\n      tag_240\n      jumpi\n      dup3\n      swap1\n      sub\n      0x1f\n      and\n      dup3\n      add\n      swap2\n    tag_238:\n      pop\n      pop\n      pop\n      pop\n      pop\n      swap5\n      pop\n      dup4\n      dup1\n      sload\n      dup1\n      0x20\n      mul\n      0x20\n      add\n      mload(0x40)\n      swap1\n      dup2\n      add\n      0x40\n      mstore\n      dup1\n      swap3\n      swap2\n      swap1\n      dup2\n      dup2\n      mstore\n      0x20\n      add\n      dup3\n      dup1\n      sload\n      dup1\n      iszero\n      tag_241\n      jumpi\n      0x20\n      mul\n      dup3\n      add\n      swap2\n      swap1\n      0x00\n      mstore\n      keccak256(0x00, 0x20)\n      swap1\n    tag_242:\n      dup2\n      0x00\n      swap1\n      sload\n      swap1\n      0x0100\n      exp\n      swap1\n      div\n      0xffffffffffffffffffffffffffffffffffffffff\n      and\n      0xffffffffffffffffffffffffffffffffffffffff\n      and\n      dup2\n      mstore\n      0x20\n      add\n      swap1\n      0x01\n      add\n      swap1\n      dup1\n      dup4\n      gt\n      tag_242\n      jumpi\n    tag_241:\n      pop\n      pop\n      pop\n      pop\n      pop\n      swap4\n      pop\n      dup3\n      dup1\n      sload\n      dup1\n      0x20\n      mul\n      0x20\n      add\n      mload(0x40)\n      swap1\n      dup2\n      add\n      0x40\n      mstore\n      dup1\n      swap3\n      swap2\n      swap1\n      dup2\n      dup2\n      mstore\n      0x20\n      add\n      dup3\n      dup1\n      sload\n      dup1\n      iszero\n      tag_243\n      jumpi\n      0x20\n      mul\n      dup3\n      add\n      swap2\n      swap1\n      0x00\n      mstore\n      keccak256(0x00, 0x20)\n      swap1\n    tag_244:\n      dup2\n      0x00\n      swap1\n      sload\n      swap1\n      0x0100\n      exp\n      swap1\n      div\n      0xffffffffffffffffffffffffffffffffffffffff\n      and\n      0xffffffffffffffffffffffffffffffffffffffff\n      and\n      dup2\n      mstore\n      0x20\n      add\n      swap1\n      0x01\n      add\n      swap1\n      dup1\n      dup4\n      gt\n      tag_244\n      jumpi\n    tag_243:\n      pop\n      pop\n      pop\n      pop\n      pop\n      swap3\n      pop\n      swap6\n      pop\n      swap6\n      pop\n      swap6\n      pop\n      swap6\n      pop\n      swap6\n      pop\n      pop\n        /* \"contracts/Web3_Jukebox_V1.2.sol\":4428:4952  function getAlbumDetails(string memory albumName)... */\n      swap2\n      swap4\n      swap6\n      swap1\n      swap3\n      swap5\n      pop\n      jump\t// out\n        /* \"contracts/Web3_Jukebox_V1.2.sol\":385:426  uint256 public albumCreationFee = 1 ether */\n    tag_82:\n      sload(0x01)\n      dup2\n      jump\t// out\n        /* \"contracts/Web3_Jukebox_V1.2.sol\":4036:4134  function getAlbumCount() external view returns (uint256) {... */\n    tag_86:\n        /* \"contracts/Web3_Jukebox_V1.2.sol\":4084:4091  uint256 */\n      0x00\n        /* \"contracts/Web3_Jukebox_V1.2.sol\":4110:4120  albumNames */\n      0x04\n        /* \"contracts/Web3_Jukebox_V1.2.sol\":4110:4127  albumNames.length */\n      dup1\n      sload\n      swap1\n      pop\n        /* \"contracts/Web3_Jukebox_V1.2.sol\":4103:4127  return albumNames.length */\n      swap1\n      pop\n        /* \"contracts/Web3_Jukebox_V1.2.sol\":4036:4134  function getAlbumCount() external view returns (uint256) {... */\n      swap1\n      jump\t// out\n        /* \"contracts/Web3_Jukebox_V1.2.sol\":2262:3978  function addAlbum(... */\n    tag_91:\n        /* \"contracts/Web3_Jukebox_V1.2.sol\":2528:2544  albumCreationFee */\n      sload(0x01)\n        /* \"contracts/Web3_Jukebox_V1.2.sol\":2515:2524  msg.value */\n      callvalue\n        /* \"contracts/Web3_Jukebox_V1.2.sol\":2515:2544  msg.value >= albumCreationFee */\n      lt\n      iszero\n        /* \"contracts/Web3_Jukebox_V1.2.sol\":2507:2582  require(msg.value >= albumCreationFee, \"Insufficient fee to create album.\") */\n      tag_247\n      jumpi\n      mload(0x40)\n      0x08c379a000000000000000000000000000000000000000000000000000000000\n      dup2\n      mstore\n      0x04\n      add\n      tag_248\n      swap1\n      tag_249\n      jump\t// in\n    tag_248:\n      mload(0x40)\n      dup1\n      swap2\n      sub\n      swap1\n      revert\n    tag_247:\n        /* \"contracts/Web3_Jukebox_V1.2.sol\":2626:2627  0 */\n      0x00\n        /* \"contracts/Web3_Jukebox_V1.2.sol\":2606:2615  albumName */\n      dup7\n        /* \"contracts/Web3_Jukebox_V1.2.sol\":2600:2623  bytes(albumName).length */\n      mload\n        /* \"contracts/Web3_Jukebox_V1.2.sol\":2600:2627  bytes(albumName).length > 0 */\n      gt\n        /* \"contracts/Web3_Jukebox_V1.2.sol\":2592:2659  require(bytes(albumName).length > 0, \"Album name cannot be empty.\") */\n      tag_250\n      jumpi\n      mload(0x40)\n      0x08c379a000000000000000000000000000000000000000000000000000000000\n      dup2\n      mstore\n      0x04\n      add\n      tag_251\n      swap1\n      tag_252\n      jump\t// in\n    tag_251:\n      mload(0x40)\n      dup1\n      swap2\n      sub\n      swap1\n      revert\n    tag_250:\n        /* \"contracts/Web3_Jukebox_V1.2.sol\":2697:2698  0 */\n      0x00\n        /* \"contracts/Web3_Jukebox_V1.2.sol\":2683:2686  cid */\n      dup6\n        /* \"contracts/Web3_Jukebox_V1.2.sol\":2677:2694  bytes(cid).length */\n      mload\n        /* \"contracts/Web3_Jukebox_V1.2.sol\":2677:2698  bytes(cid).length > 0 */\n      gt\n        /* \"contracts/Web3_Jukebox_V1.2.sol\":2669:2723  require(bytes(cid).length > 0, \"CID cannot be empty.\") */\n      tag_253\n      jumpi\n      mload(0x40)\n      0x08c379a000000000000000000000000000000000000000000000000000000000\n      dup2\n      mstore\n      0x04\n      add\n      tag_254\n      swap1\n      tag_255\n      jump\t// in\n    tag_254:\n      mload(0x40)\n      dup1\n      swap2\n      sub\n      swap1\n      revert\n    tag_253:\n        /* \"contracts/Web3_Jukebox_V1.2.sol\":2762:2763  0 */\n      0x00\n        /* \"contracts/Web3_Jukebox_V1.2.sol\":2741:2752  albumOwners */\n      dup5\n        /* \"contracts/Web3_Jukebox_V1.2.sol\":2741:2759  albumOwners.length */\n      mload\n        /* \"contracts/Web3_Jukebox_V1.2.sol\":2741:2763  albumOwners.length > 0 */\n      gt\n        /* \"contracts/Web3_Jukebox_V1.2.sol\":2733:2805  require(albumOwners.length > 0, \"At least one album owner is required.\") */\n      tag_256\n      jumpi\n      mload(0x40)\n      0x08c379a000000000000000000000000000000000000000000000000000000000\n      dup2\n      mstore\n      0x04\n      add\n      tag_257\n      swap1\n      tag_258\n      jump\t// in\n    tag_257:\n      mload(0x40)\n      dup1\n      swap2\n      sub\n      swap1\n      revert\n    tag_256:\n        /* \"contracts/Web3_Jukebox_V1.2.sol\":2846:2847  0 */\n      0x00\n        /* \"contracts/Web3_Jukebox_V1.2.sol\":2823:2836  paymentTokens */\n      dup4\n        /* \"contracts/Web3_Jukebox_V1.2.sol\":2823:2843  paymentTokens.length */\n      mload\n        /* \"contracts/Web3_Jukebox_V1.2.sol\":2823:2847  paymentTokens.length > 0 */\n      gt\n        /* \"contracts/Web3_Jukebox_V1.2.sol\":2815:2896  require(paymentTokens.length > 0, \"At least one payment token must be provided.\") */\n      tag_259\n      jumpi\n      mload(0x40)\n      0x08c379a000000000000000000000000000000000000000000000000000000000\n      dup2\n      mstore\n      0x04\n      add\n      tag_260\n      swap1\n      tag_261\n      jump\t// in\n    tag_260:\n      mload(0x40)\n      dup1\n      swap2\n      sub\n      swap1\n      revert\n    tag_259:\n        /* \"contracts/Web3_Jukebox_V1.2.sol\":2956:2965  msg.value */\n      callvalue\n        /* \"contracts/Web3_Jukebox_V1.2.sol\":2939:2952  collectedFees */\n      0x02\n      0x00\n        /* \"contracts/Web3_Jukebox_V1.2.sol\":2939:2965  collectedFees += msg.value */\n      dup3\n      dup3\n      sload\n      tag_262\n      swap2\n      swap1\n      tag_263\n      jump\t// in\n    tag_262:\n      swap3\n      pop\n      pop\n      dup2\n      swap1\n      sstore\n      pop\n        /* \"contracts/Web3_Jukebox_V1.2.sol\":3004:3023  Album storage album */\n      0x00\n        /* \"contracts/Web3_Jukebox_V1.2.sol\":3026:3032  albums */\n      0x03\n        /* \"contracts/Web3_Jukebox_V1.2.sol\":3033:3042  albumName */\n      dup8\n        /* \"contracts/Web3_Jukebox_V1.2.sol\":3026:3043  albums[albumName] */\n      mload(0x40)\n      tag_264\n      swap2\n      swap1\n      tag_108\n      jump\t// in\n    tag_264:\n      swap1\n      dup2\n      mstore\n      0x20\n      add\n      mload(0x40)\n      dup1\n      swap2\n      sub\n      swap1\n      keccak256\n        /* \"contracts/Web3_Jukebox_V1.2.sol\":3004:3043  Album storage album = albums[albumName] */\n      swap1\n      pop\n        /* \"contracts/Web3_Jukebox_V1.2.sol\":3088:3089  0 */\n      0x00\n        /* \"contracts/Web3_Jukebox_V1.2.sol\":3067:3072  album */\n      dup2\n        /* \"contracts/Web3_Jukebox_V1.2.sol\":3067:3076  album.cid */\n      0x00\n      add\n        /* \"contracts/Web3_Jukebox_V1.2.sol\":3061:3084  bytes(album.cid).length */\n      dup1\n      sload\n      tag_265\n      swap1\n      tag_101\n      jump\t// in\n    tag_265:\n      swap1\n      pop\n        /* \"contracts/Web3_Jukebox_V1.2.sol\":3061:3089  bytes(album.cid).length == 0 */\n      eq\n        /* \"contracts/Web3_Jukebox_V1.2.sol\":3053:3115  require(bytes(album.cid).length == 0, \"Album already exists.\") */\n      tag_266\n      jumpi\n      mload(0x40)\n      0x08c379a000000000000000000000000000000000000000000000000000000000\n      dup2\n      mstore\n      0x04\n      add\n      tag_267\n      swap1\n      tag_268\n      jump\t// in\n    tag_267:\n      mload(0x40)\n      dup1\n      swap2\n      sub\n      swap1\n      revert\n    tag_266:\n        /* \"contracts/Web3_Jukebox_V1.2.sol\":3160:3163  cid */\n      dup6\n        /* \"contracts/Web3_Jukebox_V1.2.sol\":3148:3153  album */\n      dup2\n        /* \"contracts/Web3_Jukebox_V1.2.sol\":3148:3157  album.cid */\n      0x00\n      add\n        /* \"contracts/Web3_Jukebox_V1.2.sol\":3148:3163  album.cid = cid */\n      swap1\n      dup2\n      tag_269\n      swap2\n      swap1\n      tag_270\n      jump\t// in\n    tag_269:\n      pop\n        /* \"contracts/Web3_Jukebox_V1.2.sol\":3189:3196  playFee */\n      dup3\n        /* \"contracts/Web3_Jukebox_V1.2.sol\":3173:3178  album */\n      dup2\n        /* \"contracts/Web3_Jukebox_V1.2.sol\":3173:3186  album.playFee */\n      0x03\n      add\n        /* \"contracts/Web3_Jukebox_V1.2.sol\":3173:3196  album.playFee = playFee */\n      dup2\n      swap1\n      sstore\n      pop\n        /* \"contracts/Web3_Jukebox_V1.2.sol\":3228:3241  wholeAlbumFee */\n      dup2\n        /* \"contracts/Web3_Jukebox_V1.2.sol\":3206:3211  album */\n      dup2\n        /* \"contracts/Web3_Jukebox_V1.2.sol\":3206:3225  album.wholeAlbumFee */\n      0x04\n      add\n        /* \"contracts/Web3_Jukebox_V1.2.sol\":3206:3241  album.wholeAlbumFee = wholeAlbumFee */\n      dup2\n      swap1\n      sstore\n      pop\n        /* \"contracts/Web3_Jukebox_V1.2.sol\":3285:3294  uint256 i */\n      0x00\n        /* \"contracts/Web3_Jukebox_V1.2.sol\":3280:3475  for (uint256 i = 0; i < albumOwners.length; i++) {... */\n    tag_271:\n        /* \"contracts/Web3_Jukebox_V1.2.sol\":3304:3315  albumOwners */\n      dup6\n        /* \"contracts/Web3_Jukebox_V1.2.sol\":3304:3322  albumOwners.length */\n      mload\n        /* \"contracts/Web3_Jukebox_V1.2.sol\":3300:3301  i */\n      dup2\n        /* \"contracts/Web3_Jukebox_V1.2.sol\":3300:3322  i < albumOwners.length */\n      lt\n        /* \"contracts/Web3_Jukebox_V1.2.sol\":3280:3475  for (uint256 i = 0; i < albumOwners.length; i++) {... */\n      iszero\n      tag_272\n      jumpi\n        /* \"contracts/Web3_Jukebox_V1.2.sol\":3377:3378  0 */\n      0x00\n        /* \"contracts/Web3_Jukebox_V1.2.sol\":3351:3379  albumOwners[i] != address(0) */\n      0xffffffffffffffffffffffffffffffffffffffff\n      and\n        /* \"contracts/Web3_Jukebox_V1.2.sol\":3351:3362  albumOwners */\n      dup7\n        /* \"contracts/Web3_Jukebox_V1.2.sol\":3363:3364  i */\n      dup3\n        /* \"contracts/Web3_Jukebox_V1.2.sol\":3351:3365  albumOwners[i] */\n      dup2\n      mload\n      dup2\n      lt\n      tag_274\n      jumpi\n      tag_275\n      tag_98\n      jump\t// in\n    tag_275:\n    tag_274:\n      0x20\n      mul\n      0x20\n      add\n      add\n      mload\n        /* \"contracts/Web3_Jukebox_V1.2.sol\":3351:3379  albumOwners[i] != address(0) */\n      0xffffffffffffffffffffffffffffffffffffffff\n      and\n      sub\n        /* \"contracts/Web3_Jukebox_V1.2.sol\":3343:3412  require(albumOwners[i] != address(0), \"Invalid album owner address.\") */\n      tag_276\n      jumpi\n      mload(0x40)\n      0x08c379a000000000000000000000000000000000000000000000000000000000\n      dup2\n      mstore\n      0x04\n      add\n      tag_277\n      swap1\n      tag_278\n      jump\t// in\n    tag_277:\n      mload(0x40)\n      dup1\n      swap2\n      sub\n      swap1\n      revert\n    tag_276:\n        /* \"contracts/Web3_Jukebox_V1.2.sol\":3426:3431  album */\n      dup2\n        /* \"contracts/Web3_Jukebox_V1.2.sol\":3426:3443  album.albumOwners */\n      0x01\n      add\n        /* \"contracts/Web3_Jukebox_V1.2.sol\":3449:3460  albumOwners */\n      dup7\n        /* \"contracts/Web3_Jukebox_V1.2.sol\":3461:3462  i */\n      dup3\n        /* \"contracts/Web3_Jukebox_V1.2.sol\":3449:3463  albumOwners[i] */\n      dup2\n      mload\n      dup2\n      lt\n      tag_279\n      jumpi\n      tag_280\n      tag_98\n      jump\t// in\n    tag_280:\n    tag_279:\n      0x20\n      mul\n      0x20\n      add\n      add\n      mload\n        /* \"contracts/Web3_Jukebox_V1.2.sol\":3426:3464  album.albumOwners.push(albumOwners[i]) */\n      swap1\n      dup1\n      0x01\n      dup2\n      sload\n      add\n      dup1\n      dup3\n      sstore\n      dup1\n      swap2\n      pop\n      pop\n      0x01\n      swap1\n      sub\n      swap1\n      0x00\n      mstore\n      keccak256(0x00, 0x20)\n      add\n      0x00\n      swap1\n      swap2\n      swap1\n      swap2\n      swap1\n      swap2\n      0x0100\n      exp\n      dup2\n      sload\n      dup2\n      0xffffffffffffffffffffffffffffffffffffffff\n      mul\n      not\n      and\n      swap1\n      dup4\n      0xffffffffffffffffffffffffffffffffffffffff\n      and\n      mul\n      or\n      swap1\n      sstore\n      pop\n        /* \"contracts/Web3_Jukebox_V1.2.sol\":3324:3327  i++ */\n      dup1\n      dup1\n      0x01\n      add\n      swap2\n      pop\n      pop\n        /* \"contracts/Web3_Jukebox_V1.2.sol\":3280:3475  for (uint256 i = 0; i < albumOwners.length; i++) {... */\n      jump(tag_271)\n    tag_272:\n      pop\n        /* \"contracts/Web3_Jukebox_V1.2.sol\":3520:3529  uint256 i */\n      0x00\n        /* \"contracts/Web3_Jukebox_V1.2.sol\":3515:3717  for (uint256 i = 0; i < paymentTokens.length; i++) {... */\n    tag_282:\n        /* \"contracts/Web3_Jukebox_V1.2.sol\":3539:3552  paymentTokens */\n      dup5\n        /* \"contracts/Web3_Jukebox_V1.2.sol\":3539:3559  paymentTokens.length */\n      mload\n        /* \"contracts/Web3_Jukebox_V1.2.sol\":3535:3536  i */\n      dup2\n        /* \"contracts/Web3_Jukebox_V1.2.sol\":3535:3559  i < paymentTokens.length */\n      lt\n        /* \"contracts/Web3_Jukebox_V1.2.sol\":3515:3717  for (uint256 i = 0; i < paymentTokens.length; i++) {... */\n      iszero\n      tag_283\n      jumpi\n        /* \"contracts/Web3_Jukebox_V1.2.sol\":3580:3593  address token */\n      0x00\n        /* \"contracts/Web3_Jukebox_V1.2.sol\":3596:3609  paymentTokens */\n      dup6\n        /* \"contracts/Web3_Jukebox_V1.2.sol\":3610:3611  i */\n      dup3\n        /* \"contracts/Web3_Jukebox_V1.2.sol\":3596:3612  paymentTokens[i] */\n      dup2\n      mload\n      dup2\n      lt\n      tag_285\n      jumpi\n      tag_286\n      tag_98\n      jump\t// in\n    tag_286:\n    tag_285:\n      0x20\n      mul\n      0x20\n      add\n      add\n      mload\n        /* \"contracts/Web3_Jukebox_V1.2.sol\":3580:3612  address token = paymentTokens[i] */\n      swap1\n      pop\n        /* \"contracts/Web3_Jukebox_V1.2.sol\":3626:3631  album */\n      dup3\n        /* \"contracts/Web3_Jukebox_V1.2.sol\":3626:3645  album.paymentTokens */\n      0x02\n      add\n        /* \"contracts/Web3_Jukebox_V1.2.sol\":3651:3656  token */\n      dup2\n        /* \"contracts/Web3_Jukebox_V1.2.sol\":3626:3657  album.paymentTokens.push(token) */\n      swap1\n      dup1\n      0x01\n      dup2\n      sload\n      add\n      dup1\n      dup3\n      sstore\n      dup1\n      swap2\n      pop\n      pop\n      0x01\n      swap1\n      sub\n      swap1\n      0x00\n      mstore\n      keccak256(0x00, 0x20)\n      add\n      0x00\n      swap1\n      swap2\n      swap1\n      swap2\n      swap1\n      swap2\n      0x0100\n      exp\n      dup2\n      sload\n      dup2\n      0xffffffffffffffffffffffffffffffffffffffff\n      mul\n      not\n      and\n      swap1\n      dup4\n      0xffffffffffffffffffffffffffffffffffffffff\n      and\n      mul\n      or\n      swap1\n      sstore\n      pop\n        /* \"contracts/Web3_Jukebox_V1.2.sol\":3702:3706  true */\n      0x01\n        /* \"contracts/Web3_Jukebox_V1.2.sol\":3671:3676  album */\n      dup4\n        /* \"contracts/Web3_Jukebox_V1.2.sol\":3671:3692  album.isTokenAccepted */\n      0x05\n      add\n        /* \"contracts/Web3_Jukebox_V1.2.sol\":3671:3699  album.isTokenAccepted[token] */\n      0x00\n        /* \"contracts/Web3_Jukebox_V1.2.sol\":3693:3698  token */\n      dup4\n        /* \"contracts/Web3_Jukebox_V1.2.sol\":3671:3699  album.isTokenAccepted[token] */\n      0xffffffffffffffffffffffffffffffffffffffff\n      and\n      0xffffffffffffffffffffffffffffffffffffffff\n      and\n      dup2\n      mstore\n      0x20\n      add\n      swap1\n      dup2\n      mstore\n      0x20\n      add\n      0x00\n      keccak256\n      0x00\n        /* \"contracts/Web3_Jukebox_V1.2.sol\":3671:3706  album.isTokenAccepted[token] = true */\n      0x0100\n      exp\n      dup2\n      sload\n      dup2\n      0xff\n      mul\n      not\n      and\n      swap1\n      dup4\n      iszero\n      iszero\n      mul\n      or\n      swap1\n      sstore\n      pop\n        /* \"contracts/Web3_Jukebox_V1.2.sol\":3566:3717  {... */\n      pop\n        /* \"contracts/Web3_Jukebox_V1.2.sol\":3561:3564  i++ */\n      dup1\n      dup1\n      0x01\n      add\n      swap2\n      pop\n      pop\n        /* \"contracts/Web3_Jukebox_V1.2.sol\":3515:3717  for (uint256 i = 0; i < paymentTokens.length; i++) {... */\n      jump(tag_282)\n    tag_283:\n      pop\n        /* \"contracts/Web3_Jukebox_V1.2.sol\":3760:3771  albumExists */\n      0x05\n        /* \"contracts/Web3_Jukebox_V1.2.sol\":3772:3781  albumName */\n      dup8\n        /* \"contracts/Web3_Jukebox_V1.2.sol\":3760:3782  albumExists[albumName] */\n      mload(0x40)\n      tag_288\n      swap2\n      swap1\n      tag_108\n      jump\t// in\n    tag_288:\n      swap1\n      dup2\n      mstore\n      0x20\n      add\n      mload(0x40)\n      dup1\n      swap2\n      sub\n      swap1\n      keccak256\n      0x00\n      swap1\n      sload\n      swap1\n      0x0100\n      exp\n      swap1\n      div\n      0xff\n      and\n        /* \"contracts/Web3_Jukebox_V1.2.sol\":3755:3878  if (!albumExists[albumName]) {... */\n      tag_289\n      jumpi\n        /* \"contracts/Web3_Jukebox_V1.2.sol\":3798:3808  albumNames */\n      0x04\n        /* \"contracts/Web3_Jukebox_V1.2.sol\":3814:3823  albumName */\n      dup8\n        /* \"contracts/Web3_Jukebox_V1.2.sol\":3798:3824  albumNames.push(albumName) */\n      swap1\n      dup1\n      0x01\n      dup2\n      sload\n      add\n      dup1\n      dup3\n      sstore\n      dup1\n      swap2\n      pop\n      pop\n      0x01\n      swap1\n      sub\n      swap1\n      0x00\n      mstore\n      keccak256(0x00, 0x20)\n      add\n      0x00\n      swap1\n      swap2\n      swap1\n      swap2\n      swap1\n      swap2\n      pop\n      swap1\n      dup2\n      tag_291\n      swap2\n      swap1\n      tag_270\n      jump\t// in\n    tag_291:\n      pop\n        /* \"contracts/Web3_Jukebox_V1.2.sol\":3863:3867  true */\n      0x01\n        /* \"contracts/Web3_Jukebox_V1.2.sol\":3838:3849  albumExists */\n      0x05\n        /* \"contracts/Web3_Jukebox_V1.2.sol\":3850:3859  albumName */\n      dup9\n        /* \"contracts/Web3_Jukebox_V1.2.sol\":3838:3860  albumExists[albumName] */\n      mload(0x40)\n      tag_292\n      swap2\n      swap1\n      tag_108\n      jump\t// in\n    tag_292:\n      swap1\n      dup2\n      mstore\n      0x20\n      add\n      mload(0x40)\n      dup1\n      swap2\n      sub\n      swap1\n      keccak256\n      0x00\n        /* \"contracts/Web3_Jukebox_V1.2.sol\":3838:3867  albumExists[albumName] = true */\n      0x0100\n      exp\n      dup2\n      sload\n      dup2\n      0xff\n      mul\n      not\n      and\n      swap1\n      dup4\n      iszero\n      iszero\n      mul\n      or\n      swap1\n      sstore\n      pop\n        /* \"contracts/Web3_Jukebox_V1.2.sol\":3755:3878  if (!albumExists[albumName]) {... */\n    tag_289:\n        /* \"contracts/Web3_Jukebox_V1.2.sol\":3893:3971  AlbumAdded(albumName, cid, albumOwners, paymentTokens, playFee, wholeAlbumFee) */\n      0x48ca2be04c170673333be95535f657bd93ff950e43dbc555a86bc66af5335b5e\n        /* \"contracts/Web3_Jukebox_V1.2.sol\":3904:3913  albumName */\n      dup8\n        /* \"contracts/Web3_Jukebox_V1.2.sol\":3915:3918  cid */\n      dup8\n        /* \"contracts/Web3_Jukebox_V1.2.sol\":3920:3931  albumOwners */\n      dup8\n        /* \"contracts/Web3_Jukebox_V1.2.sol\":3933:3946  paymentTokens */\n      dup8\n        /* \"contracts/Web3_Jukebox_V1.2.sol\":3948:3955  playFee */\n      dup8\n        /* \"contracts/Web3_Jukebox_V1.2.sol\":3957:3970  wholeAlbumFee */\n      dup8\n        /* \"contracts/Web3_Jukebox_V1.2.sol\":3893:3971  AlbumAdded(albumName, cid, albumOwners, paymentTokens, playFee, wholeAlbumFee) */\n      mload(0x40)\n      tag_293\n      swap7\n      swap6\n      swap5\n      swap4\n      swap3\n      swap2\n      swap1\n      tag_294\n      jump\t// in\n    tag_293:\n      mload(0x40)\n      dup1\n      swap2\n      sub\n      swap1\n      log1\n        /* \"contracts/Web3_Jukebox_V1.2.sol\":2497:3978  {... */\n      pop\n        /* \"contracts/Web3_Jukebox_V1.2.sol\":2262:3978  function addAlbum(... */\n      pop\n      pop\n      pop\n      pop\n      pop\n      pop\n      jump\t// out\n        /* \"contracts/Web3_Jukebox_V1.2.sol\":6824:7479  function splitPayment(address token, uint256 amount, address[] memory albumOwners) internal {... */\n    tag_127:\n        /* \"contracts/Web3_Jukebox_V1.2.sol\":6926:6945  IERC20 paymentToken */\n      0x00\n        /* \"contracts/Web3_Jukebox_V1.2.sol\":6955:6960  token */\n      dup4\n        /* \"contracts/Web3_Jukebox_V1.2.sol\":6926:6961  IERC20 paymentToken = IERC20(token) */\n      swap1\n      pop\n        /* \"contracts/Web3_Jukebox_V1.2.sol\":6972:6993  uint256 platformShare */\n      0x00\n        /* \"contracts/Web3_Jukebox_V1.2.sol\":7012:7015  100 */\n      0x64\n        /* \"contracts/Web3_Jukebox_V1.2.sol\":7006:7008  10 */\n      0x0a\n        /* \"contracts/Web3_Jukebox_V1.2.sol\":6997:7003  amount */\n      dup6\n        /* \"contracts/Web3_Jukebox_V1.2.sol\":6997:7008  amount * 10 */\n      tag_296\n      swap2\n      swap1\n      tag_297\n      jump\t// in\n    tag_296:\n        /* \"contracts/Web3_Jukebox_V1.2.sol\":6996:7015  (amount * 10) / 100 */\n      tag_298\n      swap2\n      swap1\n      tag_299\n      jump\t// in\n    tag_298:\n        /* \"contracts/Web3_Jukebox_V1.2.sol\":6972:7015  uint256 platformShare = (amount * 10) / 100 */\n      swap1\n      pop\n        /* \"contracts/Web3_Jukebox_V1.2.sol\":7047:7069  uint256 remainingShare */\n      0x00\n        /* \"contracts/Web3_Jukebox_V1.2.sol\":7081:7094  platformShare */\n      dup2\n        /* \"contracts/Web3_Jukebox_V1.2.sol\":7072:7078  amount */\n      dup6\n        /* \"contracts/Web3_Jukebox_V1.2.sol\":7072:7094  amount - platformShare */\n      tag_300\n      swap2\n      swap1\n      tag_219\n      jump\t// in\n    tag_300:\n        /* \"contracts/Web3_Jukebox_V1.2.sol\":7047:7094  uint256 remainingShare = amount - platformShare */\n      swap1\n      pop\n        /* \"contracts/Web3_Jukebox_V1.2.sol\":7104:7122  uint256 ownerShare */\n      0x00\n        /* \"contracts/Web3_Jukebox_V1.2.sol\":7142:7153  albumOwners */\n      dup5\n        /* \"contracts/Web3_Jukebox_V1.2.sol\":7142:7160  albumOwners.length */\n      mload\n        /* \"contracts/Web3_Jukebox_V1.2.sol\":7125:7139  remainingShare */\n      dup3\n        /* \"contracts/Web3_Jukebox_V1.2.sol\":7125:7160  remainingShare / albumOwners.length */\n      tag_301\n      swap2\n      swap1\n      tag_299\n      jump\t// in\n    tag_301:\n        /* \"contracts/Web3_Jukebox_V1.2.sol\":7104:7160  uint256 ownerShare = remainingShare / albumOwners.length */\n      swap1\n      pop\n        /* \"contracts/Web3_Jukebox_V1.2.sol\":7179:7191  paymentToken */\n      dup4\n        /* \"contracts/Web3_Jukebox_V1.2.sol\":7179:7204  paymentToken.transferFrom */\n      0xffffffffffffffffffffffffffffffffffffffff\n      and\n      0x23b872dd\n        /* \"contracts/Web3_Jukebox_V1.2.sol\":7205:7215  msg.sender */\n      caller\n        /* \"contracts/Web3_Jukebox_V1.2.sol\":7225:7229  this */\n      address\n        /* \"contracts/Web3_Jukebox_V1.2.sol\":7232:7245  platformShare */\n      dup7\n        /* \"contracts/Web3_Jukebox_V1.2.sol\":7179:7246  paymentToken.transferFrom(msg.sender, address(this), platformShare) */\n      mload(0x40)\n      dup5\n      0xffffffff\n      and\n      0xe0\n      shl\n      dup2\n      mstore\n      0x04\n      add\n      tag_302\n      swap4\n      swap3\n      swap2\n      swap1\n      tag_303\n      jump\t// in\n    tag_302:\n      0x20\n      mload(0x40)\n      dup1\n      dup4\n      sub\n      dup2\n      0x00\n      dup8\n      gas\n      call\n      iszero\n      dup1\n      iszero\n      tag_305\n      jumpi\n      returndatasize\n      0x00\n      dup1\n      returndatacopy\n      revert(0x00, returndatasize)\n    tag_305:\n      pop\n      pop\n      pop\n      pop\n      mload(0x40)\n      returndatasize\n      not(0x1f)\n      0x1f\n      dup3\n      add\n      and\n      dup3\n      add\n      dup1\n      0x40\n      mstore\n      pop\n      dup2\n      add\n      swap1\n      tag_306\n      swap2\n      swap1\n      tag_176\n      jump\t// in\n    tag_306:\n        /* \"contracts/Web3_Jukebox_V1.2.sol\":7171:7282  require(paymentToken.transferFrom(msg.sender, address(this), platformShare), \"Platform share transfer failed.\") */\n      tag_307\n      jumpi\n      mload(0x40)\n      0x08c379a000000000000000000000000000000000000000000000000000000000\n      dup2\n      mstore\n      0x04\n      add\n      tag_308\n      swap1\n      tag_309\n      jump\t// in\n    tag_308:\n      mload(0x40)\n      dup1\n      swap2\n      sub\n      swap1\n      revert\n    tag_307:\n        /* \"contracts/Web3_Jukebox_V1.2.sol\":7298:7307  uint256 i */\n      0x00\n        /* \"contracts/Web3_Jukebox_V1.2.sol\":7293:7473  for (uint256 i = 0; i < albumOwners.length; i++) {... */\n    tag_310:\n        /* \"contracts/Web3_Jukebox_V1.2.sol\":7317:7328  albumOwners */\n      dup6\n        /* \"contracts/Web3_Jukebox_V1.2.sol\":7317:7335  albumOwners.length */\n      mload\n        /* \"contracts/Web3_Jukebox_V1.2.sol\":7313:7314  i */\n      dup2\n        /* \"contracts/Web3_Jukebox_V1.2.sol\":7313:7335  i < albumOwners.length */\n      lt\n        /* \"contracts/Web3_Jukebox_V1.2.sol\":7293:7473  for (uint256 i = 0; i < albumOwners.length; i++) {... */\n      iszero\n      tag_311\n      jumpi\n        /* \"contracts/Web3_Jukebox_V1.2.sol\":7364:7376  paymentToken */\n      dup5\n        /* \"contracts/Web3_Jukebox_V1.2.sol\":7364:7389  paymentToken.transferFrom */\n      0xffffffffffffffffffffffffffffffffffffffff\n      and\n      0x23b872dd\n        /* \"contracts/Web3_Jukebox_V1.2.sol\":7390:7400  msg.sender */\n      caller\n        /* \"contracts/Web3_Jukebox_V1.2.sol\":7402:7413  albumOwners */\n      dup9\n        /* \"contracts/Web3_Jukebox_V1.2.sol\":7414:7415  i */\n      dup5\n        /* \"contracts/Web3_Jukebox_V1.2.sol\":7402:7416  albumOwners[i] */\n      dup2\n      mload\n      dup2\n      lt\n      tag_313\n      jumpi\n      tag_314\n      tag_98\n      jump\t// in\n    tag_314:\n    tag_313:\n      0x20\n      mul\n      0x20\n      add\n      add\n      mload\n        /* \"contracts/Web3_Jukebox_V1.2.sol\":7418:7428  ownerShare */\n      dup6\n        /* \"contracts/Web3_Jukebox_V1.2.sol\":7364:7429  paymentToken.transferFrom(msg.sender, albumOwners[i], ownerShare) */\n      mload(0x40)\n      dup5\n      0xffffffff\n      and\n      0xe0\n      shl\n      dup2\n      mstore\n      0x04\n      add\n      tag_315\n      swap4\n      swap3\n      swap2\n      swap1\n      tag_303\n      jump\t// in\n    tag_315:\n      0x20\n      mload(0x40)\n      dup1\n      dup4\n      sub\n      dup2\n      0x00\n      dup8\n      gas\n      call\n      iszero\n      dup1\n      iszero\n      tag_317\n      jumpi\n      returndatasize\n      0x00\n      dup1\n      returndatacopy\n      revert(0x00, returndatasize)\n    tag_317:\n      pop\n      pop\n      pop\n      pop\n      mload(0x40)\n      returndatasize\n      not(0x1f)\n      0x1f\n      dup3\n      add\n      and\n      dup3\n      add\n      dup1\n      0x40\n      mstore\n      pop\n      dup2\n      add\n      swap1\n      tag_318\n      swap2\n      swap1\n      tag_176\n      jump\t// in\n    tag_318:\n        /* \"contracts/Web3_Jukebox_V1.2.sol\":7356:7462  require(paymentToken.transferFrom(msg.sender, albumOwners[i], ownerShare), \"Owner share transfer failed.\") */\n      tag_319\n      jumpi\n      mload(0x40)\n      0x08c379a000000000000000000000000000000000000000000000000000000000\n      dup2\n      mstore\n      0x04\n      add\n      tag_320\n      swap1\n      tag_321\n      jump\t// in\n    tag_320:\n      mload(0x40)\n      dup1\n      swap2\n      sub\n      swap1\n      revert\n    tag_319:\n        /* \"contracts/Web3_Jukebox_V1.2.sol\":7337:7340  i++ */\n      dup1\n      dup1\n      0x01\n      add\n      swap2\n      pop\n      pop\n        /* \"contracts/Web3_Jukebox_V1.2.sol\":7293:7473  for (uint256 i = 0; i < albumOwners.length; i++) {... */\n      jump(tag_310)\n    tag_311:\n      pop\n        /* \"contracts/Web3_Jukebox_V1.2.sol\":6916:7479  {... */\n      pop\n      pop\n      pop\n      pop\n        /* \"contracts/Web3_Jukebox_V1.2.sol\":6824:7479  function splitPayment(address token, uint256 amount, address[] memory albumOwners) internal {... */\n      pop\n      pop\n      pop\n      jump\t// out\n        /* \"contracts/Web3_Jukebox_V1.2.sol\":7553:7891  function isAlbumOwner(string memory albumName, address caller) internal view returns (bool) {... */\n    tag_186:\n        /* \"contracts/Web3_Jukebox_V1.2.sol\":7639:7643  bool */\n      0x00\n        /* \"contracts/Web3_Jukebox_V1.2.sol\":7655:7674  Album storage album */\n      dup1\n        /* \"contracts/Web3_Jukebox_V1.2.sol\":7677:7683  albums */\n      0x03\n        /* \"contracts/Web3_Jukebox_V1.2.sol\":7684:7693  albumName */\n      dup5\n        /* \"contracts/Web3_Jukebox_V1.2.sol\":7677:7694  albums[albumName] */\n      mload(0x40)\n      tag_323\n      swap2\n      swap1\n      tag_108\n      jump\t// in\n    tag_323:\n      swap1\n      dup2\n      mstore\n      0x20\n      add\n      mload(0x40)\n      dup1\n      swap2\n      sub\n      swap1\n      keccak256\n        /* \"contracts/Web3_Jukebox_V1.2.sol\":7655:7694  Album storage album = albums[albumName] */\n      swap1\n      pop\n        /* \"contracts/Web3_Jukebox_V1.2.sol\":7709:7718  uint256 i */\n      0x00\n        /* \"contracts/Web3_Jukebox_V1.2.sol\":7704:7863  for (uint256 i = 0; i < album.albumOwners.length; i++) {... */\n    tag_324:\n        /* \"contracts/Web3_Jukebox_V1.2.sol\":7728:7733  album */\n      dup2\n        /* \"contracts/Web3_Jukebox_V1.2.sol\":7728:7745  album.albumOwners */\n      0x01\n      add\n        /* \"contracts/Web3_Jukebox_V1.2.sol\":7728:7752  album.albumOwners.length */\n      dup1\n      sload\n      swap1\n      pop\n        /* \"contracts/Web3_Jukebox_V1.2.sol\":7724:7725  i */\n      dup2\n        /* \"contracts/Web3_Jukebox_V1.2.sol\":7724:7752  i < album.albumOwners.length */\n      lt\n        /* \"contracts/Web3_Jukebox_V1.2.sol\":7704:7863  for (uint256 i = 0; i < album.albumOwners.length; i++) {... */\n      iszero\n      tag_325\n      jumpi\n        /* \"contracts/Web3_Jukebox_V1.2.sol\":7801:7807  caller */\n      dup4\n        /* \"contracts/Web3_Jukebox_V1.2.sol\":7777:7807  album.albumOwners[i] == caller */\n      0xffffffffffffffffffffffffffffffffffffffff\n      and\n        /* \"contracts/Web3_Jukebox_V1.2.sol\":7777:7782  album */\n      dup3\n        /* \"contracts/Web3_Jukebox_V1.2.sol\":7777:7794  album.albumOwners */\n      0x01\n      add\n        /* \"contracts/Web3_Jukebox_V1.2.sol\":7795:7796  i */\n      dup3\n        /* \"contracts/Web3_Jukebox_V1.2.sol\":7777:7797  album.albumOwners[i] */\n      dup2\n      sload\n      dup2\n      lt\n      tag_327\n      jumpi\n      tag_328\n      tag_98\n      jump\t// in\n    tag_328:\n    tag_327:\n      swap1\n      0x00\n      mstore\n      keccak256(0x00, 0x20)\n      add\n      0x00\n      swap1\n      sload\n      swap1\n      0x0100\n      exp\n      swap1\n      div\n      0xffffffffffffffffffffffffffffffffffffffff\n      and\n        /* \"contracts/Web3_Jukebox_V1.2.sol\":7777:7807  album.albumOwners[i] == caller */\n      0xffffffffffffffffffffffffffffffffffffffff\n      and\n      sub\n        /* \"contracts/Web3_Jukebox_V1.2.sol\":7773:7853  if (album.albumOwners[i] == caller) {... */\n      tag_330\n      jumpi\n        /* \"contracts/Web3_Jukebox_V1.2.sol\":7834:7838  true */\n      0x01\n        /* \"contracts/Web3_Jukebox_V1.2.sol\":7827:7838  return true */\n      swap3\n      pop\n      pop\n      pop\n      jump(tag_322)\n        /* \"contracts/Web3_Jukebox_V1.2.sol\":7773:7853  if (album.albumOwners[i] == caller) {... */\n    tag_330:\n        /* \"contracts/Web3_Jukebox_V1.2.sol\":7754:7757  i++ */\n      dup1\n      dup1\n      0x01\n      add\n      swap2\n      pop\n      pop\n        /* \"contracts/Web3_Jukebox_V1.2.sol\":7704:7863  for (uint256 i = 0; i < album.albumOwners.length; i++) {... */\n      jump(tag_324)\n    tag_325:\n      pop\n        /* \"contracts/Web3_Jukebox_V1.2.sol\":7879:7884  false */\n      0x00\n        /* \"contracts/Web3_Jukebox_V1.2.sol\":7872:7884  return false */\n      swap2\n      pop\n      pop\n        /* \"contracts/Web3_Jukebox_V1.2.sol\":7553:7891  function isAlbumOwner(string memory albumName, address caller) internal view returns (bool) {... */\n    tag_322:\n      swap3\n      swap2\n      pop\n      pop\n      jump\t// out\n        /* \"#utility.yul\":7:82   */\n    tag_331:\n        /* \"#utility.yul\":40:46   */\n      0x00\n        /* \"#utility.yul\":73:75   */\n      0x40\n        /* \"#utility.yul\":67:76   */\n      mload\n        /* \"#utility.yul\":57:76   */\n      swap1\n      pop\n        /* \"#utility.yul\":7:82   */\n      swap1\n      jump\t// out\n        /* \"#utility.yul\":88:205   */\n    tag_332:\n        /* \"#utility.yul\":197:198   */\n      0x00\n        /* \"#utility.yul\":194:195   */\n      dup1\n        /* \"#utility.yul\":187:199   */\n      revert\n        /* \"#utility.yul\":211:328   */\n    tag_333:\n        /* \"#utility.yul\":320:321   */\n      0x00\n        /* \"#utility.yul\":317:318   */\n      dup1\n        /* \"#utility.yul\":310:322   */\n      revert\n        /* \"#utility.yul\":334:411   */\n    tag_334:\n        /* \"#utility.yul\":371:378   */\n      0x00\n        /* \"#utility.yul\":400:405   */\n      dup2\n        /* \"#utility.yul\":389:405   */\n      swap1\n      pop\n        /* \"#utility.yul\":334:411   */\n      swap2\n      swap1\n      pop\n      jump\t// out\n        /* \"#utility.yul\":417:539   */\n    tag_335:\n        /* \"#utility.yul\":490:514   */\n      tag_434\n        /* \"#utility.yul\":508:513   */\n      dup2\n        /* \"#utility.yul\":490:514   */\n      tag_334\n      jump\t// in\n    tag_434:\n        /* \"#utility.yul\":483:488   */\n      dup2\n        /* \"#utility.yul\":480:515   */\n      eq\n        /* \"#utility.yul\":470:533   */\n      tag_435\n      jumpi\n        /* \"#utility.yul\":529:530   */\n      0x00\n        /* \"#utility.yul\":526:527   */\n      dup1\n        /* \"#utility.yul\":519:531   */\n      revert\n        /* \"#utility.yul\":470:533   */\n    tag_435:\n        /* \"#utility.yul\":417:539   */\n      pop\n      jump\t// out\n        /* \"#utility.yul\":545:684   */\n    tag_336:\n        /* \"#utility.yul\":591:596   */\n      0x00\n        /* \"#utility.yul\":629:635   */\n      dup2\n        /* \"#utility.yul\":616:636   */\n      calldataload\n        /* \"#utility.yul\":607:636   */\n      swap1\n      pop\n        /* \"#utility.yul\":645:678   */\n      tag_437\n        /* \"#utility.yul\":672:677   */\n      dup2\n        /* \"#utility.yul\":645:678   */\n      tag_335\n      jump\t// in\n    tag_437:\n        /* \"#utility.yul\":545:684   */\n      swap3\n      swap2\n      pop\n      pop\n      jump\t// out\n        /* \"#utility.yul\":690:1019   */\n    tag_23:\n        /* \"#utility.yul\":749:755   */\n      0x00\n        /* \"#utility.yul\":798:800   */\n      0x20\n        /* \"#utility.yul\":786:795   */\n      dup3\n        /* \"#utility.yul\":777:784   */\n      dup5\n        /* \"#utility.yul\":773:796   */\n      sub\n        /* \"#utility.yul\":769:801   */\n      slt\n        /* \"#utility.yul\":766:885   */\n      iszero\n      tag_439\n      jumpi\n        /* \"#utility.yul\":804:883   */\n      tag_440\n      tag_332\n      jump\t// in\n    tag_440:\n        /* \"#utility.yul\":766:885   */\n    tag_439:\n        /* \"#utility.yul\":924:925   */\n      0x00\n        /* \"#utility.yul\":949:1002   */\n      tag_441\n        /* \"#utility.yul\":994:1001   */\n      dup5\n        /* \"#utility.yul\":985:991   */\n      dup3\n        /* \"#utility.yul\":974:983   */\n      dup6\n        /* \"#utility.yul\":970:992   */\n      add\n        /* \"#utility.yul\":949:1002   */\n      tag_336\n      jump\t// in\n    tag_441:\n        /* \"#utility.yul\":939:1002   */\n      swap2\n      pop\n        /* \"#utility.yul\":895:1012   */\n      pop\n        /* \"#utility.yul\":690:1019   */\n      swap3\n      swap2\n      pop\n      pop\n      jump\t// out\n        /* \"#utility.yul\":1025:1124   */\n    tag_337:\n        /* \"#utility.yul\":1077:1083   */\n      0x00\n        /* \"#utility.yul\":1111:1116   */\n      dup2\n        /* \"#utility.yul\":1105:1117   */\n      mload\n        /* \"#utility.yul\":1095:1117   */\n      swap1\n      pop\n        /* \"#utility.yul\":1025:1124   */\n      swap2\n      swap1\n      pop\n      jump\t// out\n        /* \"#utility.yul\":1130:1299   */\n    tag_338:\n        /* \"#utility.yul\":1214:1225   */\n      0x00\n        /* \"#utility.yul\":1248:1254   */\n      dup3\n        /* \"#utility.yul\":1243:1246   */\n      dup3\n        /* \"#utility.yul\":1236:1255   */\n      mstore\n        /* \"#utility.yul\":1288:1292   */\n      0x20\n        /* \"#utility.yul\":1283:1286   */\n      dup3\n        /* \"#utility.yul\":1279:1293   */\n      add\n        /* \"#utility.yul\":1264:1293   */\n      swap1\n      pop\n        /* \"#utility.yul\":1130:1299   */\n      swap3\n      swap2\n      pop\n      pop\n      jump\t// out\n        /* \"#utility.yul\":1305:1444   */\n    tag_339:\n        /* \"#utility.yul\":1394:1400   */\n      dup3\n        /* \"#utility.yul\":1389:1392   */\n      dup2\n        /* \"#utility.yul\":1384:1387   */\n      dup4\n        /* \"#utility.yul\":1378:1401   */\n      mcopy\n        /* \"#utility.yul\":1435:1436   */\n      0x00\n        /* \"#utility.yul\":1426:1432   */\n      dup4\n        /* \"#utility.yul\":1421:1424   */\n      dup4\n        /* \"#utility.yul\":1417:1433   */\n      add\n        /* \"#utility.yul\":1410:1437   */\n      mstore\n        /* \"#utility.yul\":1305:1444   */\n      pop\n      pop\n      pop\n      jump\t// out\n        /* \"#utility.yul\":1450:1552   */\n    tag_340:\n        /* \"#utility.yul\":1491:1497   */\n      0x00\n        /* \"#utility.yul\":1542:1544   */\n      0x1f\n        /* \"#utility.yul\":1538:1545   */\n      not\n        /* \"#utility.yul\":1533:1535   */\n      0x1f\n        /* \"#utility.yul\":1526:1531   */\n      dup4\n        /* \"#utility.yul\":1522:1536   */\n      add\n        /* \"#utility.yul\":1518:1546   */\n      and\n        /* \"#utility.yul\":1508:1546   */\n      swap1\n      pop\n        /* \"#utility.yul\":1450:1552   */\n      swap2\n      swap1\n      pop\n      jump\t// out\n        /* \"#utility.yul\":1558:1935   */\n    tag_341:\n        /* \"#utility.yul\":1646:1649   */\n      0x00\n        /* \"#utility.yul\":1674:1713   */\n      tag_447\n        /* \"#utility.yul\":1707:1712   */\n      dup3\n        /* \"#utility.yul\":1674:1713   */\n      tag_337\n      jump\t// in\n    tag_447:\n        /* \"#utility.yul\":1729:1800   */\n      tag_448\n        /* \"#utility.yul\":1793:1799   */\n      dup2\n        /* \"#utility.yul\":1788:1791   */\n      dup6\n        /* \"#utility.yul\":1729:1800   */\n      tag_338\n      jump\t// in\n    tag_448:\n        /* \"#utility.yul\":1722:1800   */\n      swap4\n      pop\n        /* \"#utility.yul\":1809:1874   */\n      tag_449\n        /* \"#utility.yul\":1867:1873   */\n      dup2\n        /* \"#utility.yul\":1862:1865   */\n      dup6\n        /* \"#utility.yul\":1855:1859   */\n      0x20\n        /* \"#utility.yul\":1848:1853   */\n      dup7\n        /* \"#utility.yul\":1844:1860   */\n      add\n        /* \"#utility.yul\":1809:1874   */\n      tag_339\n      jump\t// in\n    tag_449:\n        /* \"#utility.yul\":1899:1928   */\n      tag_450\n        /* \"#utility.yul\":1921:1927   */\n      dup2\n        /* \"#utility.yul\":1899:1928   */\n      tag_340\n      jump\t// in\n    tag_450:\n        /* \"#utility.yul\":1894:1897   */\n      dup5\n        /* \"#utility.yul\":1890:1929   */\n      add\n        /* \"#utility.yul\":1883:1929   */\n      swap2\n      pop\n        /* \"#utility.yul\":1650:1935   */\n      pop\n        /* \"#utility.yul\":1558:1935   */\n      swap3\n      swap2\n      pop\n      pop\n      jump\t// out\n        /* \"#utility.yul\":1941:2254   */\n    tag_26:\n        /* \"#utility.yul\":2054:2058   */\n      0x00\n        /* \"#utility.yul\":2092:2094   */\n      0x20\n        /* \"#utility.yul\":2081:2090   */\n      dup3\n        /* \"#utility.yul\":2077:2095   */\n      add\n        /* \"#utility.yul\":2069:2095   */\n      swap1\n      pop\n        /* \"#utility.yul\":2141:2150   */\n      dup2\n        /* \"#utility.yul\":2135:2139   */\n      dup2\n        /* \"#utility.yul\":2131:2151   */\n      sub\n        /* \"#utility.yul\":2127:2128   */\n      0x00\n        /* \"#utility.yul\":2116:2125   */\n      dup4\n        /* \"#utility.yul\":2112:2129   */\n      add\n        /* \"#utility.yul\":2105:2152   */\n      mstore\n        /* \"#utility.yul\":2169:2247   */\n      tag_452\n        /* \"#utility.yul\":2242:2246   */\n      dup2\n        /* \"#utility.yul\":2233:2239   */\n      dup5\n        /* \"#utility.yul\":2169:2247   */\n      tag_341\n      jump\t// in\n    tag_452:\n        /* \"#utility.yul\":2161:2247   */\n      swap1\n      pop\n        /* \"#utility.yul\":1941:2254   */\n      swap3\n      swap2\n      pop\n      pop\n      jump\t// out\n        /* \"#utility.yul\":2260:2377   */\n    tag_342:\n        /* \"#utility.yul\":2369:2370   */\n      0x00\n        /* \"#utility.yul\":2366:2367   */\n      dup1\n        /* \"#utility.yul\":2359:2371   */\n      revert\n        /* \"#utility.yul\":2383:2500   */\n    tag_343:\n        /* \"#utility.yul\":2492:2493   */\n      0x00\n        /* \"#utility.yul\":2489:2490   */\n      dup1\n        /* \"#utility.yul\":2482:2494   */\n      revert\n        /* \"#utility.yul\":2506:2686   */\n    tag_344:\n        /* \"#utility.yul\":2554:2631   */\n      0x4e487b7100000000000000000000000000000000000000000000000000000000\n        /* \"#utility.yul\":2551:2552   */\n      0x00\n        /* \"#utility.yul\":2544:2632   */\n      mstore\n        /* \"#utility.yul\":2651:2655   */\n      0x41\n        /* \"#utility.yul\":2648:2649   */\n      0x04\n        /* \"#utility.yul\":2641:2656   */\n      mstore\n        /* \"#utility.yul\":2675:2679   */\n      0x24\n        /* \"#utility.yul\":2672:2673   */\n      0x00\n        /* \"#utility.yul\":2665:2680   */\n      revert\n        /* \"#utility.yul\":2692:2973   */\n    tag_345:\n        /* \"#utility.yul\":2775:2802   */\n      tag_457\n        /* \"#utility.yul\":2797:2801   */\n      dup3\n        /* \"#utility.yul\":2775:2802   */\n      tag_340\n      jump\t// in\n    tag_457:\n        /* \"#utility.yul\":2767:2773   */\n      dup2\n        /* \"#utility.yul\":2763:2803   */\n      add\n        /* \"#utility.yul\":2905:2911   */\n      dup2\n        /* \"#utility.yul\":2893:2903   */\n      dup2\n        /* \"#utility.yul\":2890:2912   */\n      lt\n        /* \"#utility.yul\":2869:2887   */\n      0xffffffffffffffff\n        /* \"#utility.yul\":2857:2867   */\n      dup3\n        /* \"#utility.yul\":2854:2888   */\n      gt\n        /* \"#utility.yul\":2851:2913   */\n      or\n        /* \"#utility.yul\":2848:2936   */\n      iszero\n      tag_458\n      jumpi\n        /* \"#utility.yul\":2916:2934   */\n      tag_459\n      tag_344\n      jump\t// in\n    tag_459:\n        /* \"#utility.yul\":2848:2936   */\n    tag_458:\n        /* \"#utility.yul\":2956:2966   */\n      dup1\n        /* \"#utility.yul\":2952:2954   */\n      0x40\n        /* \"#utility.yul\":2945:2967   */\n      mstore\n        /* \"#utility.yul\":2735:2973   */\n      pop\n        /* \"#utility.yul\":2692:2973   */\n      pop\n      pop\n      jump\t// out\n        /* \"#utility.yul\":2979:3108   */\n    tag_346:\n        /* \"#utility.yul\":3013:3019   */\n      0x00\n        /* \"#utility.yul\":3040:3060   */\n      tag_461\n      tag_331\n      jump\t// in\n    tag_461:\n        /* \"#utility.yul\":3030:3060   */\n      swap1\n      pop\n        /* \"#utility.yul\":3069:3102   */\n      tag_462\n        /* \"#utility.yul\":3097:3101   */\n      dup3\n        /* \"#utility.yul\":3089:3095   */\n      dup3\n        /* \"#utility.yul\":3069:3102   */\n      tag_345\n      jump\t// in\n    tag_462:\n        /* \"#utility.yul\":2979:3108   */\n      swap2\n      swap1\n      pop\n      jump\t// out\n        /* \"#utility.yul\":3114:3422   */\n    tag_347:\n        /* \"#utility.yul\":3176:3180   */\n      0x00\n        /* \"#utility.yul\":3266:3284   */\n      0xffffffffffffffff\n        /* \"#utility.yul\":3258:3264   */\n      dup3\n        /* \"#utility.yul\":3255:3285   */\n      gt\n        /* \"#utility.yul\":3252:3308   */\n      iszero\n      tag_464\n      jumpi\n        /* \"#utility.yul\":3288:3306   */\n      tag_465\n      tag_344\n      jump\t// in\n    tag_465:\n        /* \"#utility.yul\":3252:3308   */\n    tag_464:\n        /* \"#utility.yul\":3326:3355   */\n      tag_466\n        /* \"#utility.yul\":3348:3354   */\n      dup3\n        /* \"#utility.yul\":3326:3355   */\n      tag_340\n      jump\t// in\n    tag_466:\n        /* \"#utility.yul\":3318:3355   */\n      swap1\n      pop\n        /* \"#utility.yul\":3410:3414   */\n      0x20\n        /* \"#utility.yul\":3404:3408   */\n      dup2\n        /* \"#utility.yul\":3400:3415   */\n      add\n        /* \"#utility.yul\":3392:3415   */\n      swap1\n      pop\n        /* \"#utility.yul\":3114:3422   */\n      swap2\n      swap1\n      pop\n      jump\t// out\n        /* \"#utility.yul\":3428:3576   */\n    tag_348:\n        /* \"#utility.yul\":3526:3532   */\n      dup3\n        /* \"#utility.yul\":3521:3524   */\n      dup2\n        /* \"#utility.yul\":3516:3519   */\n      dup4\n        /* \"#utility.yul\":3503:3533   */\n      calldatacopy\n        /* \"#utility.yul\":3567:3568   */\n      0x00\n        /* \"#utility.yul\":3558:3564   */\n      dup4\n        /* \"#utility.yul\":3553:3556   */\n      dup4\n        /* \"#utility.yul\":3549:3565   */\n      add\n        /* \"#utility.yul\":3542:3569   */\n      mstore\n        /* \"#utility.yul\":3428:3576   */\n      pop\n      pop\n      pop\n      jump\t// out\n        /* \"#utility.yul\":3582:4007   */\n    tag_349:\n        /* \"#utility.yul\":3660:3665   */\n      0x00\n        /* \"#utility.yul\":3685:3751   */\n      tag_469\n        /* \"#utility.yul\":3701:3750   */\n      tag_470\n        /* \"#utility.yul\":3743:3749   */\n      dup5\n        /* \"#utility.yul\":3701:3750   */\n      tag_347\n      jump\t// in\n    tag_470:\n        /* \"#utility.yul\":3685:3751   */\n      tag_346\n      jump\t// in\n    tag_469:\n        /* \"#utility.yul\":3676:3751   */\n      swap1\n      pop\n        /* \"#utility.yul\":3774:3780   */\n      dup3\n        /* \"#utility.yul\":3767:3772   */\n      dup2\n        /* \"#utility.yul\":3760:3781   */\n      mstore\n        /* \"#utility.yul\":3812:3816   */\n      0x20\n        /* \"#utility.yul\":3805:3810   */\n      dup2\n        /* \"#utility.yul\":3801:3817   */\n      add\n        /* \"#utility.yul\":3850:3853   */\n      dup5\n        /* \"#utility.yul\":3841:3847   */\n      dup5\n        /* \"#utility.yul\":3836:3839   */\n      dup5\n        /* \"#utility.yul\":3832:3848   */\n      add\n        /* \"#utility.yul\":3829:3854   */\n      gt\n        /* \"#utility.yul\":3826:3938   */\n      iszero\n      tag_471\n      jumpi\n        /* \"#utility.yul\":3857:3936   */\n      tag_472\n      tag_343\n      jump\t// in\n    tag_472:\n        /* \"#utility.yul\":3826:3938   */\n    tag_471:\n        /* \"#utility.yul\":3947:4001   */\n      tag_473\n        /* \"#utility.yul\":3994:4000   */\n      dup5\n        /* \"#utility.yul\":3989:3992   */\n      dup3\n        /* \"#utility.yul\":3984:3987   */\n      dup6\n        /* \"#utility.yul\":3947:4001   */\n      tag_348\n      jump\t// in\n    tag_473:\n        /* \"#utility.yul\":3666:4007   */\n      pop\n        /* \"#utility.yul\":3582:4007   */\n      swap4\n      swap3\n      pop\n      pop\n      pop\n      jump\t// out\n        /* \"#utility.yul\":4027:4367   */\n    tag_350:\n        /* \"#utility.yul\":4083:4088   */\n      0x00\n        /* \"#utility.yul\":4132:4135   */\n      dup3\n        /* \"#utility.yul\":4125:4129   */\n      0x1f\n        /* \"#utility.yul\":4117:4123   */\n      dup4\n        /* \"#utility.yul\":4113:4130   */\n      add\n        /* \"#utility.yul\":4109:4136   */\n      slt\n        /* \"#utility.yul\":4099:4221   */\n      tag_475\n      jumpi\n        /* \"#utility.yul\":4140:4219   */\n      tag_476\n      tag_342\n      jump\t// in\n    tag_476:\n        /* \"#utility.yul\":4099:4221   */\n    tag_475:\n        /* \"#utility.yul\":4257:4263   */\n      dup2\n        /* \"#utility.yul\":4244:4264   */\n      calldataload\n        /* \"#utility.yul\":4282:4361   */\n      tag_477\n        /* \"#utility.yul\":4357:4360   */\n      dup5\n        /* \"#utility.yul\":4349:4355   */\n      dup3\n        /* \"#utility.yul\":4342:4346   */\n      0x20\n        /* \"#utility.yul\":4334:4340   */\n      dup7\n        /* \"#utility.yul\":4330:4347   */\n      add\n        /* \"#utility.yul\":4282:4361   */\n      tag_349\n      jump\t// in\n    tag_477:\n        /* \"#utility.yul\":4273:4361   */\n      swap2\n      pop\n        /* \"#utility.yul\":4089:4367   */\n      pop\n        /* \"#utility.yul\":4027:4367   */\n      swap3\n      swap2\n      pop\n      pop\n      jump\t// out\n        /* \"#utility.yul\":4373:4499   */\n    tag_351:\n        /* \"#utility.yul\":4410:4417   */\n      0x00\n        /* \"#utility.yul\":4450:4492   */\n      0xffffffffffffffffffffffffffffffffffffffff\n        /* \"#utility.yul\":4443:4448   */\n      dup3\n        /* \"#utility.yul\":4439:4493   */\n      and\n        /* \"#utility.yul\":4428:4493   */\n      swap1\n      pop\n        /* \"#utility.yul\":4373:4499   */\n      swap2\n      swap1\n      pop\n      jump\t// out\n        /* \"#utility.yul\":4505:4601   */\n    tag_352:\n        /* \"#utility.yul\":4542:4549   */\n      0x00\n        /* \"#utility.yul\":4571:4595   */\n      tag_480\n        /* \"#utility.yul\":4589:4594   */\n      dup3\n        /* \"#utility.yul\":4571:4595   */\n      tag_351\n      jump\t// in\n    tag_480:\n        /* \"#utility.yul\":4560:4595   */\n      swap1\n      pop\n        /* \"#utility.yul\":4505:4601   */\n      swap2\n      swap1\n      pop\n      jump\t// out\n        /* \"#utility.yul\":4607:4729   */\n    tag_353:\n        /* \"#utility.yul\":4680:4704   */\n      tag_482\n        /* \"#utility.yul\":4698:4703   */\n      dup2\n        /* \"#utility.yul\":4680:4704   */\n      tag_352\n      jump\t// in\n    tag_482:\n        /* \"#utility.yul\":4673:4678   */\n      dup2\n        /* \"#utility.yul\":4670:4705   */\n      eq\n        /* \"#utility.yul\":4660:4723   */\n      tag_483\n      jumpi\n        /* \"#utility.yul\":4719:4720   */\n      0x00\n        /* \"#utility.yul\":4716:4717   */\n      dup1\n        /* \"#utility.yul\":4709:4721   */\n      revert\n        /* \"#utility.yul\":4660:4723   */\n    tag_483:\n        /* \"#utility.yul\":4607:4729   */\n      pop\n      jump\t// out\n        /* \"#utility.yul\":4735:4874   */\n    tag_354:\n        /* \"#utility.yul\":4781:4786   */\n      0x00\n        /* \"#utility.yul\":4819:4825   */\n      dup2\n        /* \"#utility.yul\":4806:4826   */\n      calldataload\n        /* \"#utility.yul\":4797:4826   */\n      swap1\n      pop\n        /* \"#utility.yul\":4835:4868   */\n      tag_485\n        /* \"#utility.yul\":4862:4867   */\n      dup2\n        /* \"#utility.yul\":4835:4868   */\n      tag_353\n      jump\t// in\n    tag_485:\n        /* \"#utility.yul\":4735:4874   */\n      swap3\n      swap2\n      pop\n      pop\n      jump\t// out\n        /* \"#utility.yul\":4880:5679   */\n    tag_30:\n        /* \"#utility.yul\":4967:4973   */\n      0x00\n        /* \"#utility.yul\":4975:4981   */\n      dup1\n        /* \"#utility.yul\":4983:4989   */\n      0x00\n        /* \"#utility.yul\":5032:5034   */\n      0x60\n        /* \"#utility.yul\":5020:5029   */\n      dup5\n        /* \"#utility.yul\":5011:5018   */\n      dup7\n        /* \"#utility.yul\":5007:5030   */\n      sub\n        /* \"#utility.yul\":5003:5035   */\n      slt\n        /* \"#utility.yul\":5000:5119   */\n      iszero\n      tag_487\n      jumpi\n        /* \"#utility.yul\":5038:5117   */\n      tag_488\n      tag_332\n      jump\t// in\n    tag_488:\n        /* \"#utility.yul\":5000:5119   */\n    tag_487:\n        /* \"#utility.yul\":5186:5187   */\n      0x00\n        /* \"#utility.yul\":5175:5184   */\n      dup5\n        /* \"#utility.yul\":5171:5188   */\n      add\n        /* \"#utility.yul\":5158:5189   */\n      calldataload\n        /* \"#utility.yul\":5216:5234   */\n      0xffffffffffffffff\n        /* \"#utility.yul\":5208:5214   */\n      dup2\n        /* \"#utility.yul\":5205:5235   */\n      gt\n        /* \"#utility.yul\":5202:5319   */\n      iszero\n      tag_489\n      jumpi\n        /* \"#utility.yul\":5238:5317   */\n      tag_490\n      tag_333\n      jump\t// in\n    tag_490:\n        /* \"#utility.yul\":5202:5319   */\n    tag_489:\n        /* \"#utility.yul\":5343:5406   */\n      tag_491\n        /* \"#utility.yul\":5398:5405   */\n      dup7\n        /* \"#utility.yul\":5389:5395   */\n      dup3\n        /* \"#utility.yul\":5378:5387   */\n      dup8\n        /* \"#utility.yul\":5374:5396   */\n      add\n        /* \"#utility.yul\":5343:5406   */\n      tag_350\n      jump\t// in\n    tag_491:\n        /* \"#utility.yul\":5333:5406   */\n      swap4\n      pop\n        /* \"#utility.yul\":5129:5416   */\n      pop\n        /* \"#utility.yul\":5455:5457   */\n      0x20\n        /* \"#utility.yul\":5481:5534   */\n      tag_492\n        /* \"#utility.yul\":5526:5533   */\n      dup7\n        /* \"#utility.yul\":5517:5523   */\n      dup3\n        /* \"#utility.yul\":5506:5515   */\n      dup8\n        /* \"#utility.yul\":5502:5524   */\n      add\n        /* \"#utility.yul\":5481:5534   */\n      tag_336\n      jump\t// in\n    tag_492:\n        /* \"#utility.yul\":5471:5534   */\n      swap3\n      pop\n        /* \"#utility.yul\":5426:5544   */\n      pop\n        /* \"#utility.yul\":5583:5585   */\n      0x40\n        /* \"#utility.yul\":5609:5662   */\n      tag_493\n        /* \"#utility.yul\":5654:5661   */\n      dup7\n        /* \"#utility.yul\":5645:5651   */\n      dup3\n        /* \"#utility.yul\":5634:5643   */\n      dup8\n        /* \"#utility.yul\":5630:5652   */\n      add\n        /* \"#utility.yul\":5609:5662   */\n      tag_354\n      jump\t// in\n    tag_493:\n        /* \"#utility.yul\":5599:5662   */\n      swap2\n      pop\n        /* \"#utility.yul\":5554:5672   */\n      pop\n        /* \"#utility.yul\":4880:5679   */\n      swap3\n      pop\n      swap3\n      pop\n      swap3\n      jump\t// out\n        /* \"#utility.yul\":5685:6194   */\n    tag_35:\n        /* \"#utility.yul\":5754:5760   */\n      0x00\n        /* \"#utility.yul\":5803:5805   */\n      0x20\n        /* \"#utility.yul\":5791:5800   */\n      dup3\n        /* \"#utility.yul\":5782:5789   */\n      dup5\n        /* \"#utility.yul\":5778:5801   */\n      sub\n        /* \"#utility.yul\":5774:5806   */\n      slt\n        /* \"#utility.yul\":5771:5890   */\n      iszero\n      tag_495\n      jumpi\n        /* \"#utility.yul\":5809:5888   */\n      tag_496\n      tag_332\n      jump\t// in\n    tag_496:\n        /* \"#utility.yul\":5771:5890   */\n    tag_495:\n        /* \"#utility.yul\":5957:5958   */\n      0x00\n        /* \"#utility.yul\":5946:5955   */\n      dup3\n        /* \"#utility.yul\":5942:5959   */\n      add\n        /* \"#utility.yul\":5929:5960   */\n      calldataload\n        /* \"#utility.yul\":5987:6005   */\n      0xffffffffffffffff\n        /* \"#utility.yul\":5979:5985   */\n      dup2\n        /* \"#utility.yul\":5976:6006   */\n      gt\n        /* \"#utility.yul\":5973:6090   */\n      iszero\n      tag_497\n      jumpi\n        /* \"#utility.yul\":6009:6088   */\n      tag_498\n      tag_333\n      jump\t// in\n    tag_498:\n        /* \"#utility.yul\":5973:6090   */\n    tag_497:\n        /* \"#utility.yul\":6114:6177   */\n      tag_499\n        /* \"#utility.yul\":6169:6176   */\n      dup5\n        /* \"#utility.yul\":6160:6166   */\n      dup3\n        /* \"#utility.yul\":6149:6158   */\n      dup6\n        /* \"#utility.yul\":6145:6167   */\n      add\n        /* \"#utility.yul\":6114:6177   */\n      tag_350\n      jump\t// in\n    tag_499:\n        /* \"#utility.yul\":6104:6177   */\n      swap2\n      pop\n        /* \"#utility.yul\":5900:6187   */\n      pop\n        /* \"#utility.yul\":5685:6194   */\n      swap3\n      swap2\n      pop\n      pop\n      jump\t// out\n        /* \"#utility.yul\":6200:6318   */\n    tag_355:\n        /* \"#utility.yul\":6287:6311   */\n      tag_501\n        /* \"#utility.yul\":6305:6310   */\n      dup2\n        /* \"#utility.yul\":6287:6311   */\n      tag_334\n      jump\t// in\n    tag_501:\n        /* \"#utility.yul\":6282:6285   */\n      dup3\n        /* \"#utility.yul\":6275:6312   */\n      mstore\n        /* \"#utility.yul\":6200:6318   */\n      pop\n      pop\n      jump\t// out\n        /* \"#utility.yul\":6324:6857   */\n    tag_38:\n        /* \"#utility.yul\":6493:6497   */\n      0x00\n        /* \"#utility.yul\":6531:6533   */\n      0x60\n        /* \"#utility.yul\":6520:6529   */\n      dup3\n        /* \"#utility.yul\":6516:6534   */\n      add\n        /* \"#utility.yul\":6508:6534   */\n      swap1\n      pop\n        /* \"#utility.yul\":6580:6589   */\n      dup2\n        /* \"#utility.yul\":6574:6578   */\n      dup2\n        /* \"#utility.yul\":6570:6590   */\n      sub\n        /* \"#utility.yul\":6566:6567   */\n      0x00\n        /* \"#utility.yul\":6555:6564   */\n      dup4\n        /* \"#utility.yul\":6551:6568   */\n      add\n        /* \"#utility.yul\":6544:6591   */\n      mstore\n        /* \"#utility.yul\":6608:6686   */\n      tag_503\n        /* \"#utility.yul\":6681:6685   */\n      dup2\n        /* \"#utility.yul\":6672:6678   */\n      dup7\n        /* \"#utility.yul\":6608:6686   */\n      tag_341\n      jump\t// in\n    tag_503:\n        /* \"#utility.yul\":6600:6686   */\n      swap1\n      pop\n        /* \"#utility.yul\":6696:6768   */\n      tag_504\n        /* \"#utility.yul\":6764:6766   */\n      0x20\n        /* \"#utility.yul\":6753:6762   */\n      dup4\n        /* \"#utility.yul\":6749:6767   */\n      add\n        /* \"#utility.yul\":6740:6746   */\n      dup6\n        /* \"#utility.yul\":6696:6768   */\n      tag_355\n      jump\t// in\n    tag_504:\n        /* \"#utility.yul\":6778:6850   */\n      tag_505\n        /* \"#utility.yul\":6846:6848   */\n      0x40\n        /* \"#utility.yul\":6835:6844   */\n      dup4\n        /* \"#utility.yul\":6831:6849   */\n      add\n        /* \"#utility.yul\":6822:6828   */\n      dup5\n        /* \"#utility.yul\":6778:6850   */\n      tag_355\n      jump\t// in\n    tag_505:\n        /* \"#utility.yul\":6324:6857   */\n      swap5\n      swap4\n      pop\n      pop\n      pop\n      pop\n      jump\t// out\n        /* \"#utility.yul\":6863:7517   */\n    tag_45:\n        /* \"#utility.yul\":6941:6947   */\n      0x00\n        /* \"#utility.yul\":6949:6955   */\n      dup1\n        /* \"#utility.yul\":6998:7000   */\n      0x40\n        /* \"#utility.yul\":6986:6995   */\n      dup4\n        /* \"#utility.yul\":6977:6984   */\n      dup6\n        /* \"#utility.yul\":6973:6996   */\n      sub\n        /* \"#utility.yul\":6969:7001   */\n      slt\n        /* \"#utility.yul\":6966:7085   */\n      iszero\n      tag_507\n      jumpi\n        /* \"#utility.yul\":7004:7083   */\n      tag_508\n      tag_332\n      jump\t// in\n    tag_508:\n        /* \"#utility.yul\":6966:7085   */\n    tag_507:\n        /* \"#utility.yul\":7152:7153   */\n      0x00\n        /* \"#utility.yul\":7141:7150   */\n      dup4\n        /* \"#utility.yul\":7137:7154   */\n      add\n        /* \"#utility.yul\":7124:7155   */\n      calldataload\n        /* \"#utility.yul\":7182:7200   */\n      0xffffffffffffffff\n        /* \"#utility.yul\":7174:7180   */\n      dup2\n        /* \"#utility.yul\":7171:7201   */\n      gt\n        /* \"#utility.yul\":7168:7285   */\n      iszero\n      tag_509\n      jumpi\n        /* \"#utility.yul\":7204:7283   */\n      tag_510\n      tag_333\n      jump\t// in\n    tag_510:\n        /* \"#utility.yul\":7168:7285   */\n    tag_509:\n        /* \"#utility.yul\":7309:7372   */\n      tag_511\n        /* \"#utility.yul\":7364:7371   */\n      dup6\n        /* \"#utility.yul\":7355:7361   */\n      dup3\n        /* \"#utility.yul\":7344:7353   */\n      dup7\n        /* \"#utility.yul\":7340:7362   */\n      add\n        /* \"#utility.yul\":7309:7372   */\n      tag_350\n      jump\t// in\n    tag_511:\n        /* \"#utility.yul\":7299:7372   */\n      swap3\n      pop\n        /* \"#utility.yul\":7095:7382   */\n      pop\n        /* \"#utility.yul\":7421:7423   */\n      0x20\n        /* \"#utility.yul\":7447:7500   */\n      tag_512\n        /* \"#utility.yul\":7492:7499   */\n      dup6\n        /* \"#utility.yul\":7483:7489   */\n      dup3\n        /* \"#utility.yul\":7472:7481   */\n      dup7\n        /* \"#utility.yul\":7468:7490   */\n      add\n        /* \"#utility.yul\":7447:7500   */\n      tag_354\n      jump\t// in\n    tag_512:\n        /* \"#utility.yul\":7437:7500   */\n      swap2\n      pop\n        /* \"#utility.yul\":7392:7510   */\n      pop\n        /* \"#utility.yul\":6863:7517   */\n      swap3\n      pop\n      swap3\n      swap1\n      pop\n      jump\t// out\n        /* \"#utility.yul\":7523:7641   */\n    tag_356:\n        /* \"#utility.yul\":7610:7634   */\n      tag_514\n        /* \"#utility.yul\":7628:7633   */\n      dup2\n        /* \"#utility.yul\":7610:7634   */\n      tag_352\n      jump\t// in\n    tag_514:\n        /* \"#utility.yul\":7605:7608   */\n      dup3\n        /* \"#utility.yul\":7598:7635   */\n      mstore\n        /* \"#utility.yul\":7523:7641   */\n      pop\n      pop\n      jump\t// out\n        /* \"#utility.yul\":7647:7869   */\n    tag_51:\n        /* \"#utility.yul\":7740:7744   */\n      0x00\n        /* \"#utility.yul\":7778:7780   */\n      0x20\n        /* \"#utility.yul\":7767:7776   */\n      dup3\n        /* \"#utility.yul\":7763:7781   */\n      add\n        /* \"#utility.yul\":7755:7781   */\n      swap1\n      pop\n        /* \"#utility.yul\":7791:7862   */\n      tag_516\n        /* \"#utility.yul\":7859:7860   */\n      0x00\n        /* \"#utility.yul\":7848:7857   */\n      dup4\n        /* \"#utility.yul\":7844:7861   */\n      add\n        /* \"#utility.yul\":7835:7841   */\n      dup5\n        /* \"#utility.yul\":7791:7862   */\n      tag_356\n      jump\t// in\n    tag_516:\n        /* \"#utility.yul\":7647:7869   */\n      swap3\n      swap2\n      pop\n      pop\n      jump\t// out\n        /* \"#utility.yul\":7875:8097   */\n    tag_56:\n        /* \"#utility.yul\":7968:7972   */\n      0x00\n        /* \"#utility.yul\":8006:8008   */\n      0x20\n        /* \"#utility.yul\":7995:8004   */\n      dup3\n        /* \"#utility.yul\":7991:8009   */\n      add\n        /* \"#utility.yul\":7983:8009   */\n      swap1\n      pop\n        /* \"#utility.yul\":8019:8090   */\n      tag_518\n        /* \"#utility.yul\":8087:8088   */\n      0x00\n        /* \"#utility.yul\":8076:8085   */\n      dup4\n        /* \"#utility.yul\":8072:8089   */\n      add\n        /* \"#utility.yul\":8063:8069   */\n      dup5\n        /* \"#utility.yul\":8019:8090   */\n      tag_355\n      jump\t// in\n    tag_518:\n        /* \"#utility.yul\":7875:8097   */\n      swap3\n      swap2\n      pop\n      pop\n      jump\t// out\n        /* \"#utility.yul\":8103:8577   */\n    tag_60:\n        /* \"#utility.yul\":8171:8177   */\n      0x00\n        /* \"#utility.yul\":8179:8185   */\n      dup1\n        /* \"#utility.yul\":8228:8230   */\n      0x40\n        /* \"#utility.yul\":8216:8225   */\n      dup4\n        /* \"#utility.yul\":8207:8214   */\n      dup6\n        /* \"#utility.yul\":8203:8226   */\n      sub\n        /* \"#utility.yul\":8199:8231   */\n      slt\n        /* \"#utility.yul\":8196:8315   */\n      iszero\n      tag_520\n      jumpi\n        /* \"#utility.yul\":8234:8313   */\n      tag_521\n      tag_332\n      jump\t// in\n    tag_521:\n        /* \"#utility.yul\":8196:8315   */\n    tag_520:\n        /* \"#utility.yul\":8354:8355   */\n      0x00\n        /* \"#utility.yul\":8379:8432   */\n      tag_522\n        /* \"#utility.yul\":8424:8431   */\n      dup6\n        /* \"#utility.yul\":8415:8421   */\n      dup3\n        /* \"#utility.yul\":8404:8413   */\n      dup7\n        /* \"#utility.yul\":8400:8422   */\n      add\n        /* \"#utility.yul\":8379:8432   */\n      tag_354\n      jump\t// in\n    tag_522:\n        /* \"#utility.yul\":8369:8432   */\n      swap3\n      pop\n        /* \"#utility.yul\":8325:8442   */\n      pop\n        /* \"#utility.yul\":8481:8483   */\n      0x20\n        /* \"#utility.yul\":8507:8560   */\n      tag_523\n        /* \"#utility.yul\":8552:8559   */\n      dup6\n        /* \"#utility.yul\":8543:8549   */\n      dup3\n        /* \"#utility.yul\":8532:8541   */\n      dup7\n        /* \"#utility.yul\":8528:8550   */\n      add\n        /* \"#utility.yul\":8507:8560   */\n      tag_336\n      jump\t// in\n    tag_523:\n        /* \"#utility.yul\":8497:8560   */\n      swap2\n      pop\n        /* \"#utility.yul\":8452:8570   */\n      pop\n        /* \"#utility.yul\":8103:8577   */\n      swap3\n      pop\n      swap3\n      swap1\n      pop\n      jump\t// out\n        /* \"#utility.yul\":8583:8697   */\n    tag_357:\n        /* \"#utility.yul\":8650:8656   */\n      0x00\n        /* \"#utility.yul\":8684:8689   */\n      dup2\n        /* \"#utility.yul\":8678:8690   */\n      mload\n        /* \"#utility.yul\":8668:8690   */\n      swap1\n      pop\n        /* \"#utility.yul\":8583:8697   */\n      swap2\n      swap1\n      pop\n      jump\t// out\n        /* \"#utility.yul\":8703:8887   */\n    tag_358:\n        /* \"#utility.yul\":8802:8813   */\n      0x00\n        /* \"#utility.yul\":8836:8842   */\n      dup3\n        /* \"#utility.yul\":8831:8834   */\n      dup3\n        /* \"#utility.yul\":8824:8843   */\n      mstore\n        /* \"#utility.yul\":8876:8880   */\n      0x20\n        /* \"#utility.yul\":8871:8874   */\n      dup3\n        /* \"#utility.yul\":8867:8881   */\n      add\n        /* \"#utility.yul\":8852:8881   */\n      swap1\n      pop\n        /* \"#utility.yul\":8703:8887   */\n      swap3\n      swap2\n      pop\n      pop\n      jump\t// out\n        /* \"#utility.yul\":8893:9025   */\n    tag_359:\n        /* \"#utility.yul\":8960:8964   */\n      0x00\n        /* \"#utility.yul\":8983:8986   */\n      dup2\n        /* \"#utility.yul\":8975:8986   */\n      swap1\n      pop\n        /* \"#utility.yul\":9013:9017   */\n      0x20\n        /* \"#utility.yul\":9008:9011   */\n      dup3\n        /* \"#utility.yul\":9004:9018   */\n      add\n        /* \"#utility.yul\":8996:9018   */\n      swap1\n      pop\n        /* \"#utility.yul\":8893:9025   */\n      swap2\n      swap1\n      pop\n      jump\t// out\n        /* \"#utility.yul\":9031:9139   */\n    tag_360:\n        /* \"#utility.yul\":9108:9132   */\n      tag_528\n        /* \"#utility.yul\":9126:9131   */\n      dup2\n        /* \"#utility.yul\":9108:9132   */\n      tag_352\n      jump\t// in\n    tag_528:\n        /* \"#utility.yul\":9103:9106   */\n      dup3\n        /* \"#utility.yul\":9096:9133   */\n      mstore\n        /* \"#utility.yul\":9031:9139   */\n      pop\n      pop\n      jump\t// out\n        /* \"#utility.yul\":9145:9324   */\n    tag_361:\n        /* \"#utility.yul\":9214:9224   */\n      0x00\n        /* \"#utility.yul\":9235:9281   */\n      tag_530\n        /* \"#utility.yul\":9277:9280   */\n      dup4\n        /* \"#utility.yul\":9269:9275   */\n      dup4\n        /* \"#utility.yul\":9235:9281   */\n      tag_360\n      jump\t// in\n    tag_530:\n        /* \"#utility.yul\":9313:9317   */\n      0x20\n        /* \"#utility.yul\":9308:9311   */\n      dup4\n        /* \"#utility.yul\":9304:9318   */\n      add\n        /* \"#utility.yul\":9290:9318   */\n      swap1\n      pop\n        /* \"#utility.yul\":9145:9324   */\n      swap3\n      swap2\n      pop\n      pop\n      jump\t// out\n        /* \"#utility.yul\":9330:9443   */\n    tag_362:\n        /* \"#utility.yul\":9400:9404   */\n      0x00\n        /* \"#utility.yul\":9432:9436   */\n      0x20\n        /* \"#utility.yul\":9427:9430   */\n      dup3\n        /* \"#utility.yul\":9423:9437   */\n      add\n        /* \"#utility.yul\":9415:9437   */\n      swap1\n      pop\n        /* \"#utility.yul\":9330:9443   */\n      swap2\n      swap1\n      pop\n      jump\t// out\n        /* \"#utility.yul\":9479:10211   */\n    tag_363:\n        /* \"#utility.yul\":9598:9601   */\n      0x00\n        /* \"#utility.yul\":9627:9681   */\n      tag_533\n        /* \"#utility.yul\":9675:9680   */\n      dup3\n        /* \"#utility.yul\":9627:9681   */\n      tag_357\n      jump\t// in\n    tag_533:\n        /* \"#utility.yul\":9697:9783   */\n      tag_534\n        /* \"#utility.yul\":9776:9782   */\n      dup2\n        /* \"#utility.yul\":9771:9774   */\n      dup6\n        /* \"#utility.yul\":9697:9783   */\n      tag_358\n      jump\t// in\n    tag_534:\n        /* \"#utility.yul\":9690:9783   */\n      swap4\n      pop\n        /* \"#utility.yul\":9807:9863   */\n      tag_535\n        /* \"#utility.yul\":9857:9862   */\n      dup4\n        /* \"#utility.yul\":9807:9863   */\n      tag_359\n      jump\t// in\n    tag_535:\n        /* \"#utility.yul\":9886:9893   */\n      dup1\n        /* \"#utility.yul\":9917:9918   */\n      0x00\n        /* \"#utility.yul\":9902:10186   */\n    tag_536:\n        /* \"#utility.yul\":9927:9933   */\n      dup4\n        /* \"#utility.yul\":9924:9925   */\n      dup2\n        /* \"#utility.yul\":9921:9934   */\n      lt\n        /* \"#utility.yul\":9902:10186   */\n      iszero\n      tag_538\n      jumpi\n        /* \"#utility.yul\":10003:10009   */\n      dup2\n        /* \"#utility.yul\":9997:10010   */\n      mload\n        /* \"#utility.yul\":10030:10093   */\n      tag_539\n        /* \"#utility.yul\":10089:10092   */\n      dup9\n        /* \"#utility.yul\":10074:10087   */\n      dup3\n        /* \"#utility.yul\":10030:10093   */\n      tag_361\n      jump\t// in\n    tag_539:\n        /* \"#utility.yul\":10023:10093   */\n      swap8\n      pop\n        /* \"#utility.yul\":10116:10176   */\n      tag_540\n        /* \"#utility.yul\":10169:10175   */\n      dup4\n        /* \"#utility.yul\":10116:10176   */\n      tag_362\n      jump\t// in\n    tag_540:\n        /* \"#utility.yul\":10106:10176   */\n      swap3\n      pop\n        /* \"#utility.yul\":9962:10186   */\n      pop\n        /* \"#utility.yul\":9949:9950   */\n      0x01\n        /* \"#utility.yul\":9946:9947   */\n      dup2\n        /* \"#utility.yul\":9942:9951   */\n      add\n        /* \"#utility.yul\":9937:9951   */\n      swap1\n      pop\n        /* \"#utility.yul\":9902:10186   */\n      jump(tag_536)\n    tag_538:\n        /* \"#utility.yul\":9906:9920   */\n      pop\n        /* \"#utility.yul\":10202:10205   */\n      dup6\n        /* \"#utility.yul\":10195:10205   */\n      swap4\n      pop\n        /* \"#utility.yul\":9603:10211   */\n      pop\n      pop\n      pop\n        /* \"#utility.yul\":9479:10211   */\n      swap3\n      swap2\n      pop\n      pop\n      jump\t// out\n        /* \"#utility.yul\":10217:11274   */\n    tag_79:\n        /* \"#utility.yul\":10542:10546   */\n      0x00\n        /* \"#utility.yul\":10580:10583   */\n      0xa0\n        /* \"#utility.yul\":10569:10578   */\n      dup3\n        /* \"#utility.yul\":10565:10584   */\n      add\n        /* \"#utility.yul\":10557:10584   */\n      swap1\n      pop\n        /* \"#utility.yul\":10630:10639   */\n      dup2\n        /* \"#utility.yul\":10624:10628   */\n      dup2\n        /* \"#utility.yul\":10620:10640   */\n      sub\n        /* \"#utility.yul\":10616:10617   */\n      0x00\n        /* \"#utility.yul\":10605:10614   */\n      dup4\n        /* \"#utility.yul\":10601:10618   */\n      add\n        /* \"#utility.yul\":10594:10641   */\n      mstore\n        /* \"#utility.yul\":10658:10736   */\n      tag_542\n        /* \"#utility.yul\":10731:10735   */\n      dup2\n        /* \"#utility.yul\":10722:10728   */\n      dup9\n        /* \"#utility.yul\":10658:10736   */\n      tag_341\n      jump\t// in\n    tag_542:\n        /* \"#utility.yul\":10650:10736   */\n      swap1\n      pop\n        /* \"#utility.yul\":10783:10792   */\n      dup2\n        /* \"#utility.yul\":10777:10781   */\n      dup2\n        /* \"#utility.yul\":10773:10793   */\n      sub\n        /* \"#utility.yul\":10768:10770   */\n      0x20\n        /* \"#utility.yul\":10757:10766   */\n      dup4\n        /* \"#utility.yul\":10753:10771   */\n      add\n        /* \"#utility.yul\":10746:10794   */\n      mstore\n        /* \"#utility.yul\":10811:10919   */\n      tag_543\n        /* \"#utility.yul\":10914:10918   */\n      dup2\n        /* \"#utility.yul\":10905:10911   */\n      dup8\n        /* \"#utility.yul\":10811:10919   */\n      tag_363\n      jump\t// in\n    tag_543:\n        /* \"#utility.yul\":10803:10919   */\n      swap1\n      pop\n        /* \"#utility.yul\":10966:10975   */\n      dup2\n        /* \"#utility.yul\":10960:10964   */\n      dup2\n        /* \"#utility.yul\":10956:10976   */\n      sub\n        /* \"#utility.yul\":10951:10953   */\n      0x40\n        /* \"#utility.yul\":10940:10949   */\n      dup4\n        /* \"#utility.yul\":10936:10954   */\n      add\n        /* \"#utility.yul\":10929:10977   */\n      mstore\n        /* \"#utility.yul\":10994:11102   */\n      tag_544\n        /* \"#utility.yul\":11097:11101   */\n      dup2\n        /* \"#utility.yul\":11088:11094   */\n      dup7\n        /* \"#utility.yul\":10994:11102   */\n      tag_363\n      jump\t// in\n    tag_544:\n        /* \"#utility.yul\":10986:11102   */\n      swap1\n      pop\n        /* \"#utility.yul\":11112:11184   */\n      tag_545\n        /* \"#utility.yul\":11180:11182   */\n      0x60\n        /* \"#utility.yul\":11169:11178   */\n      dup4\n        /* \"#utility.yul\":11165:11183   */\n      add\n        /* \"#utility.yul\":11156:11162   */\n      dup6\n        /* \"#utility.yul\":11112:11184   */\n      tag_355\n      jump\t// in\n    tag_545:\n        /* \"#utility.yul\":11194:11267   */\n      tag_546\n        /* \"#utility.yul\":11262:11265   */\n      0x80\n        /* \"#utility.yul\":11251:11260   */\n      dup4\n        /* \"#utility.yul\":11247:11266   */\n      add\n        /* \"#utility.yul\":11238:11244   */\n      dup5\n        /* \"#utility.yul\":11194:11267   */\n      tag_355\n      jump\t// in\n    tag_546:\n        /* \"#utility.yul\":10217:11274   */\n      swap7\n      swap6\n      pop\n      pop\n      pop\n      pop\n      pop\n      pop\n      jump\t// out\n        /* \"#utility.yul\":11280:11591   */\n    tag_364:\n        /* \"#utility.yul\":11357:11361   */\n      0x00\n        /* \"#utility.yul\":11447:11465   */\n      0xffffffffffffffff\n        /* \"#utility.yul\":11439:11445   */\n      dup3\n        /* \"#utility.yul\":11436:11466   */\n      gt\n        /* \"#utility.yul\":11433:11489   */\n      iszero\n      tag_548\n      jumpi\n        /* \"#utility.yul\":11469:11487   */\n      tag_549\n      tag_344\n      jump\t// in\n    tag_549:\n        /* \"#utility.yul\":11433:11489   */\n    tag_548:\n        /* \"#utility.yul\":11519:11523   */\n      0x20\n        /* \"#utility.yul\":11511:11517   */\n      dup3\n        /* \"#utility.yul\":11507:11524   */\n      mul\n        /* \"#utility.yul\":11499:11524   */\n      swap1\n      pop\n        /* \"#utility.yul\":11579:11583   */\n      0x20\n        /* \"#utility.yul\":11573:11577   */\n      dup2\n        /* \"#utility.yul\":11569:11584   */\n      add\n        /* \"#utility.yul\":11561:11584   */\n      swap1\n      pop\n        /* \"#utility.yul\":11280:11591   */\n      swap2\n      swap1\n      pop\n      jump\t// out\n        /* \"#utility.yul\":11597:11714   */\n    tag_365:\n        /* \"#utility.yul\":11706:11707   */\n      0x00\n        /* \"#utility.yul\":11703:11704   */\n      dup1\n        /* \"#utility.yul\":11696:11708   */\n      revert\n        /* \"#utility.yul\":11737:12447   */\n    tag_366:\n        /* \"#utility.yul\":11833:11838   */\n      0x00\n        /* \"#utility.yul\":11858:11939   */\n      tag_552\n        /* \"#utility.yul\":11874:11938   */\n      tag_553\n        /* \"#utility.yul\":11931:11937   */\n      dup5\n        /* \"#utility.yul\":11874:11938   */\n      tag_364\n      jump\t// in\n    tag_553:\n        /* \"#utility.yul\":11858:11939   */\n      tag_346\n      jump\t// in\n    tag_552:\n        /* \"#utility.yul\":11849:11939   */\n      swap1\n      pop\n        /* \"#utility.yul\":11959:11964   */\n      dup1\n        /* \"#utility.yul\":11988:11994   */\n      dup4\n        /* \"#utility.yul\":11981:11986   */\n      dup3\n        /* \"#utility.yul\":11974:11995   */\n      mstore\n        /* \"#utility.yul\":12022:12026   */\n      0x20\n        /* \"#utility.yul\":12015:12020   */\n      dup3\n        /* \"#utility.yul\":12011:12027   */\n      add\n        /* \"#utility.yul\":12004:12027   */\n      swap1\n      pop\n        /* \"#utility.yul\":12075:12079   */\n      0x20\n        /* \"#utility.yul\":12067:12073   */\n      dup5\n        /* \"#utility.yul\":12063:12080   */\n      mul\n        /* \"#utility.yul\":12055:12061   */\n      dup4\n        /* \"#utility.yul\":12051:12081   */\n      add\n        /* \"#utility.yul\":12104:12107   */\n      dup6\n        /* \"#utility.yul\":12096:12102   */\n      dup2\n        /* \"#utility.yul\":12093:12108   */\n      gt\n        /* \"#utility.yul\":12090:12212   */\n      iszero\n      tag_554\n      jumpi\n        /* \"#utility.yul\":12123:12202   */\n      tag_555\n      tag_365\n      jump\t// in\n    tag_555:\n        /* \"#utility.yul\":12090:12212   */\n    tag_554:\n        /* \"#utility.yul\":12238:12244   */\n      dup4\n        /* \"#utility.yul\":12221:12441   */\n    tag_556:\n        /* \"#utility.yul\":12255:12261   */\n      dup2\n        /* \"#utility.yul\":12250:12253   */\n      dup2\n        /* \"#utility.yul\":12247:12262   */\n      lt\n        /* \"#utility.yul\":12221:12441   */\n      iszero\n      tag_558\n      jumpi\n        /* \"#utility.yul\":12330:12333   */\n      dup1\n        /* \"#utility.yul\":12359:12396   */\n      tag_559\n        /* \"#utility.yul\":12392:12395   */\n      dup9\n        /* \"#utility.yul\":12380:12390   */\n      dup3\n        /* \"#utility.yul\":12359:12396   */\n      tag_354\n      jump\t// in\n    tag_559:\n        /* \"#utility.yul\":12354:12357   */\n      dup5\n        /* \"#utility.yul\":12347:12397   */\n      mstore\n        /* \"#utility.yul\":12426:12430   */\n      0x20\n        /* \"#utility.yul\":12421:12424   */\n      dup5\n        /* \"#utility.yul\":12417:12431   */\n      add\n        /* \"#utility.yul\":12410:12431   */\n      swap4\n      pop\n        /* \"#utility.yul\":12297:12441   */\n      pop\n        /* \"#utility.yul\":12281:12285   */\n      0x20\n        /* \"#utility.yul\":12276:12279   */\n      dup2\n        /* \"#utility.yul\":12272:12286   */\n      add\n        /* \"#utility.yul\":12265:12286   */\n      swap1\n      pop\n        /* \"#utility.yul\":12221:12441   */\n      jump(tag_556)\n    tag_558:\n        /* \"#utility.yul\":12225:12246   */\n      pop\n        /* \"#utility.yul\":11839:12447   */\n      pop\n      pop\n        /* \"#utility.yul\":11737:12447   */\n      swap4\n      swap3\n      pop\n      pop\n      pop\n      jump\t// out\n        /* \"#utility.yul\":12470:12840   */\n    tag_367:\n        /* \"#utility.yul\":12541:12546   */\n      0x00\n        /* \"#utility.yul\":12590:12593   */\n      dup3\n        /* \"#utility.yul\":12583:12587   */\n      0x1f\n        /* \"#utility.yul\":12575:12581   */\n      dup4\n        /* \"#utility.yul\":12571:12588   */\n      add\n        /* \"#utility.yul\":12567:12594   */\n      slt\n        /* \"#utility.yul\":12557:12679   */\n      tag_561\n      jumpi\n        /* \"#utility.yul\":12598:12677   */\n      tag_562\n      tag_342\n      jump\t// in\n    tag_562:\n        /* \"#utility.yul\":12557:12679   */\n    tag_561:\n        /* \"#utility.yul\":12715:12721   */\n      dup2\n        /* \"#utility.yul\":12702:12722   */\n      calldataload\n        /* \"#utility.yul\":12740:12834   */\n      tag_563\n        /* \"#utility.yul\":12830:12833   */\n      dup5\n        /* \"#utility.yul\":12822:12828   */\n      dup3\n        /* \"#utility.yul\":12815:12819   */\n      0x20\n        /* \"#utility.yul\":12807:12813   */\n      dup7\n        /* \"#utility.yul\":12803:12820   */\n      add\n        /* \"#utility.yul\":12740:12834   */\n      tag_366\n      jump\t// in\n    tag_563:\n        /* \"#utility.yul\":12731:12834   */\n      swap2\n      pop\n        /* \"#utility.yul\":12547:12840   */\n      pop\n        /* \"#utility.yul\":12470:12840   */\n      swap3\n      swap2\n      pop\n      pop\n      jump\t// out\n        /* \"#utility.yul\":12846:14683   */\n    tag_90:\n        /* \"#utility.yul\":13020:13026   */\n      0x00\n        /* \"#utility.yul\":13028:13034   */\n      dup1\n        /* \"#utility.yul\":13036:13042   */\n      0x00\n        /* \"#utility.yul\":13044:13050   */\n      dup1\n        /* \"#utility.yul\":13052:13058   */\n      0x00\n        /* \"#utility.yul\":13060:13066   */\n      dup1\n        /* \"#utility.yul\":13109:13112   */\n      0xc0\n        /* \"#utility.yul\":13097:13106   */\n      dup8\n        /* \"#utility.yul\":13088:13095   */\n      dup10\n        /* \"#utility.yul\":13084:13107   */\n      sub\n        /* \"#utility.yul\":13080:13113   */\n      slt\n        /* \"#utility.yul\":13077:13197   */\n      iszero\n      tag_565\n      jumpi\n        /* \"#utility.yul\":13116:13195   */\n      tag_566\n      tag_332\n      jump\t// in\n    tag_566:\n        /* \"#utility.yul\":13077:13197   */\n    tag_565:\n        /* \"#utility.yul\":13264:13265   */\n      0x00\n        /* \"#utility.yul\":13253:13262   */\n      dup8\n        /* \"#utility.yul\":13249:13266   */\n      add\n        /* \"#utility.yul\":13236:13267   */\n      calldataload\n        /* \"#utility.yul\":13294:13312   */\n      0xffffffffffffffff\n        /* \"#utility.yul\":13286:13292   */\n      dup2\n        /* \"#utility.yul\":13283:13313   */\n      gt\n        /* \"#utility.yul\":13280:13397   */\n      iszero\n      tag_567\n      jumpi\n        /* \"#utility.yul\":13316:13395   */\n      tag_568\n      tag_333\n      jump\t// in\n    tag_568:\n        /* \"#utility.yul\":13280:13397   */\n    tag_567:\n        /* \"#utility.yul\":13421:13484   */\n      tag_569\n        /* \"#utility.yul\":13476:13483   */\n      dup10\n        /* \"#utility.yul\":13467:13473   */\n      dup3\n        /* \"#utility.yul\":13456:13465   */\n      dup11\n        /* \"#utility.yul\":13452:13474   */\n      add\n        /* \"#utility.yul\":13421:13484   */\n      tag_350\n      jump\t// in\n    tag_569:\n        /* \"#utility.yul\":13411:13484   */\n      swap7\n      pop\n        /* \"#utility.yul\":13207:13494   */\n      pop\n        /* \"#utility.yul\":13561:13563   */\n      0x20\n        /* \"#utility.yul\":13550:13559   */\n      dup8\n        /* \"#utility.yul\":13546:13564   */\n      add\n        /* \"#utility.yul\":13533:13565   */\n      calldataload\n        /* \"#utility.yul\":13592:13610   */\n      0xffffffffffffffff\n        /* \"#utility.yul\":13584:13590   */\n      dup2\n        /* \"#utility.yul\":13581:13611   */\n      gt\n        /* \"#utility.yul\":13578:13695   */\n      iszero\n      tag_570\n      jumpi\n        /* \"#utility.yul\":13614:13693   */\n      tag_571\n      tag_333\n      jump\t// in\n    tag_571:\n        /* \"#utility.yul\":13578:13695   */\n    tag_570:\n        /* \"#utility.yul\":13719:13782   */\n      tag_572\n        /* \"#utility.yul\":13774:13781   */\n      dup10\n        /* \"#utility.yul\":13765:13771   */\n      dup3\n        /* \"#utility.yul\":13754:13763   */\n      dup11\n        /* \"#utility.yul\":13750:13772   */\n      add\n        /* \"#utility.yul\":13719:13782   */\n      tag_350\n      jump\t// in\n    tag_572:\n        /* \"#utility.yul\":13709:13782   */\n      swap6\n      pop\n        /* \"#utility.yul\":13504:13792   */\n      pop\n        /* \"#utility.yul\":13859:13861   */\n      0x40\n        /* \"#utility.yul\":13848:13857   */\n      dup8\n        /* \"#utility.yul\":13844:13862   */\n      add\n        /* \"#utility.yul\":13831:13863   */\n      calldataload\n        /* \"#utility.yul\":13890:13908   */\n      0xffffffffffffffff\n        /* \"#utility.yul\":13882:13888   */\n      dup2\n        /* \"#utility.yul\":13879:13909   */\n      gt\n        /* \"#utility.yul\":13876:13993   */\n      iszero\n      tag_573\n      jumpi\n        /* \"#utility.yul\":13912:13991   */\n      tag_574\n      tag_333\n      jump\t// in\n    tag_574:\n        /* \"#utility.yul\":13876:13993   */\n    tag_573:\n        /* \"#utility.yul\":14017:14095   */\n      tag_575\n        /* \"#utility.yul\":14087:14094   */\n      dup10\n        /* \"#utility.yul\":14078:14084   */\n      dup3\n        /* \"#utility.yul\":14067:14076   */\n      dup11\n        /* \"#utility.yul\":14063:14085   */\n      add\n        /* \"#utility.yul\":14017:14095   */\n      tag_367\n      jump\t// in\n    tag_575:\n        /* \"#utility.yul\":14007:14095   */\n      swap5\n      pop\n        /* \"#utility.yul\":13802:14105   */\n      pop\n        /* \"#utility.yul\":14172:14174   */\n      0x60\n        /* \"#utility.yul\":14161:14170   */\n      dup8\n        /* \"#utility.yul\":14157:14175   */\n      add\n        /* \"#utility.yul\":14144:14176   */\n      calldataload\n        /* \"#utility.yul\":14203:14221   */\n      0xffffffffffffffff\n        /* \"#utility.yul\":14195:14201   */\n      dup2\n        /* \"#utility.yul\":14192:14222   */\n      gt\n        /* \"#utility.yul\":14189:14306   */\n      iszero\n      tag_576\n      jumpi\n        /* \"#utility.yul\":14225:14304   */\n      tag_577\n      tag_333\n      jump\t// in\n    tag_577:\n        /* \"#utility.yul\":14189:14306   */\n    tag_576:\n        /* \"#utility.yul\":14330:14408   */\n      tag_578\n        /* \"#utility.yul\":14400:14407   */\n      dup10\n        /* \"#utility.yul\":14391:14397   */\n      dup3\n        /* \"#utility.yul\":14380:14389   */\n      dup11\n        /* \"#utility.yul\":14376:14398   */\n      add\n        /* \"#utility.yul\":14330:14408   */\n      tag_367\n      jump\t// in\n    tag_578:\n        /* \"#utility.yul\":14320:14408   */\n      swap4\n      pop\n        /* \"#utility.yul\":14115:14418   */\n      pop\n        /* \"#utility.yul\":14457:14460   */\n      0x80\n        /* \"#utility.yul\":14484:14537   */\n      tag_579\n        /* \"#utility.yul\":14529:14536   */\n      dup10\n        /* \"#utility.yul\":14520:14526   */\n      dup3\n        /* \"#utility.yul\":14509:14518   */\n      dup11\n        /* \"#utility.yul\":14505:14527   */\n      add\n        /* \"#utility.yul\":14484:14537   */\n      tag_336\n      jump\t// in\n    tag_579:\n        /* \"#utility.yul\":14474:14537   */\n      swap3\n      pop\n        /* \"#utility.yul\":14428:14547   */\n      pop\n        /* \"#utility.yul\":14586:14589   */\n      0xa0\n        /* \"#utility.yul\":14613:14666   */\n      tag_580\n        /* \"#utility.yul\":14658:14665   */\n      dup10\n        /* \"#utility.yul\":14649:14655   */\n      dup3\n        /* \"#utility.yul\":14638:14647   */\n      dup11\n        /* \"#utility.yul\":14634:14656   */\n      add\n        /* \"#utility.yul\":14613:14666   */\n      tag_336\n      jump\t// in\n    tag_580:\n        /* \"#utility.yul\":14603:14666   */\n      swap2\n      pop\n        /* \"#utility.yul\":14557:14676   */\n      pop\n        /* \"#utility.yul\":12846:14683   */\n      swap3\n      swap6\n      pop\n      swap3\n      swap6\n      pop\n      swap3\n      swap6\n      jump\t// out\n        /* \"#utility.yul\":14689:14858   */\n    tag_368:\n        /* \"#utility.yul\":14829:14850   */\n      0x496e646578206f7574206f6620626f756e647300000000000000000000000000\n        /* \"#utility.yul\":14825:14826   */\n      0x00\n        /* \"#utility.yul\":14817:14823   */\n      dup3\n        /* \"#utility.yul\":14813:14827   */\n      add\n        /* \"#utility.yul\":14806:14851   */\n      mstore\n        /* \"#utility.yul\":14689:14858   */\n      pop\n      jump\t// out\n        /* \"#utility.yul\":14864:15230   */\n    tag_369:\n        /* \"#utility.yul\":15006:15009   */\n      0x00\n        /* \"#utility.yul\":15027:15094   */\n      tag_583\n        /* \"#utility.yul\":15091:15093   */\n      0x13\n        /* \"#utility.yul\":15086:15089   */\n      dup4\n        /* \"#utility.yul\":15027:15094   */\n      tag_338\n      jump\t// in\n    tag_583:\n        /* \"#utility.yul\":15020:15094   */\n      swap2\n      pop\n        /* \"#utility.yul\":15103:15196   */\n      tag_584\n        /* \"#utility.yul\":15192:15195   */\n      dup3\n        /* \"#utility.yul\":15103:15196   */\n      tag_368\n      jump\t// in\n    tag_584:\n        /* \"#utility.yul\":15221:15223   */\n      0x20\n        /* \"#utility.yul\":15216:15219   */\n      dup3\n        /* \"#utility.yul\":15212:15224   */\n      add\n        /* \"#utility.yul\":15205:15224   */\n      swap1\n      pop\n        /* \"#utility.yul\":14864:15230   */\n      swap2\n      swap1\n      pop\n      jump\t// out\n        /* \"#utility.yul\":15236:15655   */\n    tag_95:\n        /* \"#utility.yul\":15402:15406   */\n      0x00\n        /* \"#utility.yul\":15440:15442   */\n      0x20\n        /* \"#utility.yul\":15429:15438   */\n      dup3\n        /* \"#utility.yul\":15425:15443   */\n      add\n        /* \"#utility.yul\":15417:15443   */\n      swap1\n      pop\n        /* \"#utility.yul\":15489:15498   */\n      dup2\n        /* \"#utility.yul\":15483:15487   */\n      dup2\n        /* \"#utility.yul\":15479:15499   */\n      sub\n        /* \"#utility.yul\":15475:15476   */\n      0x00\n        /* \"#utility.yul\":15464:15473   */\n      dup4\n        /* \"#utility.yul\":15460:15477   */\n      add\n        /* \"#utility.yul\":15453:15500   */\n      mstore\n        /* \"#utility.yul\":15517:15648   */\n      tag_586\n        /* \"#utility.yul\":15643:15647   */\n      dup2\n        /* \"#utility.yul\":15517:15648   */\n      tag_369\n      jump\t// in\n    tag_586:\n        /* \"#utility.yul\":15509:15648   */\n      swap1\n      pop\n        /* \"#utility.yul\":15236:15655   */\n      swap2\n      swap1\n      pop\n      jump\t// out\n        /* \"#utility.yul\":15661:15841   */\n    tag_98:\n        /* \"#utility.yul\":15709:15786   */\n      0x4e487b7100000000000000000000000000000000000000000000000000000000\n        /* \"#utility.yul\":15706:15707   */\n      0x00\n        /* \"#utility.yul\":15699:15787   */\n      mstore\n        /* \"#utility.yul\":15806:15810   */\n      0x32\n        /* \"#utility.yul\":15803:15804   */\n      0x04\n        /* \"#utility.yul\":15796:15811   */\n      mstore\n        /* \"#utility.yul\":15830:15834   */\n      0x24\n        /* \"#utility.yul\":15827:15828   */\n      0x00\n        /* \"#utility.yul\":15820:15835   */\n      revert\n        /* \"#utility.yul\":15847:16027   */\n    tag_370:\n        /* \"#utility.yul\":15895:15972   */\n      0x4e487b7100000000000000000000000000000000000000000000000000000000\n        /* \"#utility.yul\":15892:15893   */\n      0x00\n        /* \"#utility.yul\":15885:15973   */\n      mstore\n        /* \"#utility.yul\":15992:15996   */\n      0x22\n        /* \"#utility.yul\":15989:15990   */\n      0x04\n        /* \"#utility.yul\":15982:15997   */\n      mstore\n        /* \"#utility.yul\":16016:16020   */\n      0x24\n        /* \"#utility.yul\":16013:16014   */\n      0x00\n        /* \"#utility.yul\":16006:16021   */\n      revert\n        /* \"#utility.yul\":16033:16353   */\n    tag_101:\n        /* \"#utility.yul\":16077:16083   */\n      0x00\n        /* \"#utility.yul\":16114:16115   */\n      0x02\n        /* \"#utility.yul\":16108:16112   */\n      dup3\n        /* \"#utility.yul\":16104:16116   */\n      div\n        /* \"#utility.yul\":16094:16116   */\n      swap1\n      pop\n        /* \"#utility.yul\":16161:16162   */\n      0x01\n        /* \"#utility.yul\":16155:16159   */\n      dup3\n        /* \"#utility.yul\":16151:16163   */\n      and\n        /* \"#utility.yul\":16182:16200   */\n      dup1\n        /* \"#utility.yul\":16172:16253   */\n      tag_590\n      jumpi\n        /* \"#utility.yul\":16238:16242   */\n      0x7f\n        /* \"#utility.yul\":16230:16236   */\n      dup3\n        /* \"#utility.yul\":16226:16243   */\n      and\n        /* \"#utility.yul\":16216:16243   */\n      swap2\n      pop\n        /* \"#utility.yul\":16172:16253   */\n    tag_590:\n        /* \"#utility.yul\":16300:16302   */\n      0x20\n        /* \"#utility.yul\":16292:16298   */\n      dup3\n        /* \"#utility.yul\":16289:16303   */\n      lt\n        /* \"#utility.yul\":16269:16287   */\n      dup2\n        /* \"#utility.yul\":16266:16304   */\n      sub\n        /* \"#utility.yul\":16263:16347   */\n      tag_591\n      jumpi\n        /* \"#utility.yul\":16319:16337   */\n      tag_592\n      tag_370\n      jump\t// in\n    tag_592:\n        /* \"#utility.yul\":16263:16347   */\n    tag_591:\n        /* \"#utility.yul\":16084:16353   */\n      pop\n        /* \"#utility.yul\":16033:16353   */\n      swap2\n      swap1\n      pop\n      jump\t// out\n        /* \"#utility.yul\":16359:16507   */\n    tag_371:\n        /* \"#utility.yul\":16461:16472   */\n      0x00\n        /* \"#utility.yul\":16498:16501   */\n      dup2\n        /* \"#utility.yul\":16483:16501   */\n      swap1\n      pop\n        /* \"#utility.yul\":16359:16507   */\n      swap3\n      swap2\n      pop\n      pop\n      jump\t// out\n        /* \"#utility.yul\":16513:16903   */\n    tag_372:\n        /* \"#utility.yul\":16619:16622   */\n      0x00\n        /* \"#utility.yul\":16647:16686   */\n      tag_595\n        /* \"#utility.yul\":16680:16685   */\n      dup3\n        /* \"#utility.yul\":16647:16686   */\n      tag_337\n      jump\t// in\n    tag_595:\n        /* \"#utility.yul\":16702:16791   */\n      tag_596\n        /* \"#utility.yul\":16784:16790   */\n      dup2\n        /* \"#utility.yul\":16779:16782   */\n      dup6\n        /* \"#utility.yul\":16702:16791   */\n      tag_371\n      jump\t// in\n    tag_596:\n        /* \"#utility.yul\":16695:16791   */\n      swap4\n      pop\n        /* \"#utility.yul\":16800:16865   */\n      tag_597\n        /* \"#utility.yul\":16858:16864   */\n      dup2\n        /* \"#utility.yul\":16853:16856   */\n      dup6\n        /* \"#utility.yul\":16846:16850   */\n      0x20\n        /* \"#utility.yul\":16839:16844   */\n      dup7\n        /* \"#utility.yul\":16835:16851   */\n      add\n        /* \"#utility.yul\":16800:16865   */\n      tag_339\n      jump\t// in\n    tag_597:\n        /* \"#utility.yul\":16890:16896   */\n      dup1\n        /* \"#utility.yul\":16885:16888   */\n      dup5\n        /* \"#utility.yul\":16881:16897   */\n      add\n        /* \"#utility.yul\":16874:16897   */\n      swap2\n      pop\n        /* \"#utility.yul\":16623:16903   */\n      pop\n        /* \"#utility.yul\":16513:16903   */\n      swap3\n      swap2\n      pop\n      pop\n      jump\t// out\n        /* \"#utility.yul\":16909:17184   */\n    tag_108:\n        /* \"#utility.yul\":17041:17044   */\n      0x00\n        /* \"#utility.yul\":17063:17158   */\n      tag_599\n        /* \"#utility.yul\":17154:17157   */\n      dup3\n        /* \"#utility.yul\":17145:17151   */\n      dup5\n        /* \"#utility.yul\":17063:17158   */\n      tag_372\n      jump\t// in\n    tag_599:\n        /* \"#utility.yul\":17056:17158   */\n      swap2\n      pop\n        /* \"#utility.yul\":17175:17178   */\n      dup2\n        /* \"#utility.yul\":17168:17178   */\n      swap1\n      pop\n        /* \"#utility.yul\":16909:17184   */\n      swap3\n      swap2\n      pop\n      pop\n      jump\t// out\n        /* \"#utility.yul\":17190:17361   */\n    tag_373:\n        /* \"#utility.yul\":17330:17353   */\n      0x416c62756d20646f6573206e6f742065786973742e0000000000000000000000\n        /* \"#utility.yul\":17326:17327   */\n      0x00\n        /* \"#utility.yul\":17318:17324   */\n      dup3\n        /* \"#utility.yul\":17314:17328   */\n      add\n        /* \"#utility.yul\":17307:17354   */\n      mstore\n        /* \"#utility.yul\":17190:17361   */\n      pop\n      jump\t// out\n        /* \"#utility.yul\":17367:17733   */\n    tag_374:\n        /* \"#utility.yul\":17509:17512   */\n      0x00\n        /* \"#utility.yul\":17530:17597   */\n      tag_602\n        /* \"#utility.yul\":17594:17596   */\n      0x15\n        /* \"#utility.yul\":17589:17592   */\n      dup4\n        /* \"#utility.yul\":17530:17597   */\n      tag_338\n      jump\t// in\n    tag_602:\n        /* \"#utility.yul\":17523:17597   */\n      swap2\n      pop\n        /* \"#utility.yul\":17606:17699   */\n      tag_603\n        /* \"#utility.yul\":17695:17698   */\n      dup3\n        /* \"#utility.yul\":17606:17699   */\n      tag_373\n      jump\t// in\n    tag_603:\n        /* \"#utility.yul\":17724:17726   */\n      0x20\n        /* \"#utility.yul\":17719:17722   */\n      dup3\n        /* \"#utility.yul\":17715:17727   */\n      add\n        /* \"#utility.yul\":17708:17727   */\n      swap1\n      pop\n        /* \"#utility.yul\":17367:17733   */\n      swap2\n      swap1\n      pop\n      jump\t// out\n        /* \"#utility.yul\":17739:18158   */\n    tag_112:\n        /* \"#utility.yul\":17905:17909   */\n      0x00\n        /* \"#utility.yul\":17943:17945   */\n      0x20\n        /* \"#utility.yul\":17932:17941   */\n      dup3\n        /* \"#utility.yul\":17928:17946   */\n      add\n        /* \"#utility.yul\":17920:17946   */\n      swap1\n      pop\n        /* \"#utility.yul\":17992:18001   */\n      dup2\n        /* \"#utility.yul\":17986:17990   */\n      dup2\n        /* \"#utility.yul\":17982:18002   */\n      sub\n        /* \"#utility.yul\":17978:17979   */\n      0x00\n        /* \"#utility.yul\":17967:17976   */\n      dup4\n        /* \"#utility.yul\":17963:17980   */\n      add\n        /* \"#utility.yul\":17956:18003   */\n      mstore\n        /* \"#utility.yul\":18020:18151   */\n      tag_605\n        /* \"#utility.yul\":18146:18150   */\n      dup2\n        /* \"#utility.yul\":18020:18151   */\n      tag_374\n      jump\t// in\n    tag_605:\n        /* \"#utility.yul\":18012:18151   */\n      swap1\n      pop\n        /* \"#utility.yul\":17739:18158   */\n      swap2\n      swap1\n      pop\n      jump\t// out\n        /* \"#utility.yul\":18164:18385   */\n    tag_375:\n        /* \"#utility.yul\":18304:18338   */\n      0x546f6b656e206e6f7420616363657074656420666f72207468697320616c6275\n        /* \"#utility.yul\":18300:18301   */\n      0x00\n        /* \"#utility.yul\":18292:18298   */\n      dup3\n        /* \"#utility.yul\":18288:18302   */\n      add\n        /* \"#utility.yul\":18281:18339   */\n      mstore\n        /* \"#utility.yul\":18373:18377   */\n      0x6d2e000000000000000000000000000000000000000000000000000000000000\n        /* \"#utility.yul\":18368:18370   */\n      0x20\n        /* \"#utility.yul\":18360:18366   */\n      dup3\n        /* \"#utility.yul\":18356:18371   */\n      add\n        /* \"#utility.yul\":18349:18378   */\n      mstore\n        /* \"#utility.yul\":18164:18385   */\n      pop\n      jump\t// out\n        /* \"#utility.yul\":18391:18757   */\n    tag_376:\n        /* \"#utility.yul\":18533:18536   */\n      0x00\n        /* \"#utility.yul\":18554:18621   */\n      tag_608\n        /* \"#utility.yul\":18618:18620   */\n      0x22\n        /* \"#utility.yul\":18613:18616   */\n      dup4\n        /* \"#utility.yul\":18554:18621   */\n      tag_338\n      jump\t// in\n    tag_608:\n        /* \"#utility.yul\":18547:18621   */\n      swap2\n      pop\n        /* \"#utility.yul\":18630:18723   */\n      tag_609\n        /* \"#utility.yul\":18719:18722   */\n      dup3\n        /* \"#utility.yul\":18630:18723   */\n      tag_375\n      jump\t// in\n    tag_609:\n        /* \"#utility.yul\":18748:18750   */\n      0x40\n        /* \"#utility.yul\":18743:18746   */\n      dup3\n        /* \"#utility.yul\":18739:18751   */\n      add\n        /* \"#utility.yul\":18732:18751   */\n      swap1\n      pop\n        /* \"#utility.yul\":18391:18757   */\n      swap2\n      swap1\n      pop\n      jump\t// out\n        /* \"#utility.yul\":18763:19182   */\n    tag_115:\n        /* \"#utility.yul\":18929:18933   */\n      0x00\n        /* \"#utility.yul\":18967:18969   */\n      0x20\n        /* \"#utility.yul\":18956:18965   */\n      dup3\n        /* \"#utility.yul\":18952:18970   */\n      add\n        /* \"#utility.yul\":18944:18970   */\n      swap1\n      pop\n        /* \"#utility.yul\":19016:19025   */\n      dup2\n        /* \"#utility.yul\":19010:19014   */\n      dup2\n        /* \"#utility.yul\":19006:19026   */\n      sub\n        /* \"#utility.yul\":19002:19003   */\n      0x00\n        /* \"#utility.yul\":18991:19000   */\n      dup4\n        /* \"#utility.yul\":18987:19004   */\n      add\n        /* \"#utility.yul\":18980:19027   */\n      mstore\n        /* \"#utility.yul\":19044:19175   */\n      tag_611\n        /* \"#utility.yul\":19170:19174   */\n      dup2\n        /* \"#utility.yul\":19044:19175   */\n      tag_376\n      jump\t// in\n    tag_611:\n        /* \"#utility.yul\":19036:19175   */\n      swap1\n      pop\n        /* \"#utility.yul\":18763:19182   */\n      swap2\n      swap1\n      pop\n      jump\t// out\n        /* \"#utility.yul\":19188:19331   */\n    tag_377:\n        /* \"#utility.yul\":19245:19250   */\n      0x00\n        /* \"#utility.yul\":19276:19282   */\n      dup2\n        /* \"#utility.yul\":19270:19283   */\n      mload\n        /* \"#utility.yul\":19261:19283   */\n      swap1\n      pop\n        /* \"#utility.yul\":19292:19325   */\n      tag_613\n        /* \"#utility.yul\":19319:19324   */\n      dup2\n        /* \"#utility.yul\":19292:19325   */\n      tag_335\n      jump\t// in\n    tag_613:\n        /* \"#utility.yul\":19188:19331   */\n      swap3\n      swap2\n      pop\n      pop\n      jump\t// out\n        /* \"#utility.yul\":19337:19688   */\n    tag_120:\n        /* \"#utility.yul\":19407:19413   */\n      0x00\n        /* \"#utility.yul\":19456:19458   */\n      0x20\n        /* \"#utility.yul\":19444:19453   */\n      dup3\n        /* \"#utility.yul\":19435:19442   */\n      dup5\n        /* \"#utility.yul\":19431:19454   */\n      sub\n        /* \"#utility.yul\":19427:19459   */\n      slt\n        /* \"#utility.yul\":19424:19543   */\n      iszero\n      tag_615\n      jumpi\n        /* \"#utility.yul\":19462:19541   */\n      tag_616\n      tag_332\n      jump\t// in\n    tag_616:\n        /* \"#utility.yul\":19424:19543   */\n    tag_615:\n        /* \"#utility.yul\":19582:19583   */\n      0x00\n        /* \"#utility.yul\":19607:19671   */\n      tag_617\n        /* \"#utility.yul\":19663:19670   */\n      dup5\n        /* \"#utility.yul\":19654:19660   */\n      dup3\n        /* \"#utility.yul\":19643:19652   */\n      dup6\n        /* \"#utility.yul\":19639:19661   */\n      add\n        /* \"#utility.yul\":19607:19671   */\n      tag_377\n      jump\t// in\n    tag_617:\n        /* \"#utility.yul\":19597:19671   */\n      swap2\n      pop\n        /* \"#utility.yul\":19553:19681   */\n      pop\n        /* \"#utility.yul\":19337:19688   */\n      swap3\n      swap2\n      pop\n      pop\n      jump\t// out\n        /* \"#utility.yul\":19694:19871   */\n    tag_378:\n        /* \"#utility.yul\":19834:19863   */\n      0x496e73756666696369656e7420746f6b656e2062616c616e63652e0000000000\n        /* \"#utility.yul\":19830:19831   */\n      0x00\n        /* \"#utility.yul\":19822:19828   */\n      dup3\n        /* \"#utility.yul\":19818:19832   */\n      add\n        /* \"#utility.yul\":19811:19864   */\n      mstore\n        /* \"#utility.yul\":19694:19871   */\n      pop\n      jump\t// out\n        /* \"#utility.yul\":19877:20243   */\n    tag_379:\n        /* \"#utility.yul\":20019:20022   */\n      0x00\n        /* \"#utility.yul\":20040:20107   */\n      tag_620\n        /* \"#utility.yul\":20104:20106   */\n      0x1b\n        /* \"#utility.yul\":20099:20102   */\n      dup4\n        /* \"#utility.yul\":20040:20107   */\n      tag_338\n      jump\t// in\n    tag_620:\n        /* \"#utility.yul\":20033:20107   */\n      swap2\n      pop\n        /* \"#utility.yul\":20116:20209   */\n      tag_621\n        /* \"#utility.yul\":20205:20208   */\n      dup3\n        /* \"#utility.yul\":20116:20209   */\n      tag_378\n      jump\t// in\n    tag_621:\n        /* \"#utility.yul\":20234:20236   */\n      0x20\n        /* \"#utility.yul\":20229:20232   */\n      dup3\n        /* \"#utility.yul\":20225:20237   */\n      add\n        /* \"#utility.yul\":20218:20237   */\n      swap1\n      pop\n        /* \"#utility.yul\":19877:20243   */\n      swap2\n      swap1\n      pop\n      jump\t// out\n        /* \"#utility.yul\":20249:20668   */\n    tag_123:\n        /* \"#utility.yul\":20415:20419   */\n      0x00\n        /* \"#utility.yul\":20453:20455   */\n      0x20\n        /* \"#utility.yul\":20442:20451   */\n      dup3\n        /* \"#utility.yul\":20438:20456   */\n      add\n        /* \"#utility.yul\":20430:20456   */\n      swap1\n      pop\n        /* \"#utility.yul\":20502:20511   */\n      dup2\n        /* \"#utility.yul\":20496:20500   */\n      dup2\n        /* \"#utility.yul\":20492:20512   */\n      sub\n        /* \"#utility.yul\":20488:20489   */\n      0x00\n        /* \"#utility.yul\":20477:20486   */\n      dup4\n        /* \"#utility.yul\":20473:20490   */\n      add\n        /* \"#utility.yul\":20466:20513   */\n      mstore\n        /* \"#utility.yul\":20530:20661   */\n      tag_623\n        /* \"#utility.yul\":20656:20660   */\n      dup2\n        /* \"#utility.yul\":20530:20661   */\n      tag_379\n      jump\t// in\n    tag_623:\n        /* \"#utility.yul\":20522:20661   */\n      swap1\n      pop\n        /* \"#utility.yul\":20249:20668   */\n      swap2\n      swap1\n      pop\n      jump\t// out\n        /* \"#utility.yul\":20674:21318   */\n    tag_129:\n        /* \"#utility.yul\":20871:20875   */\n      0x00\n        /* \"#utility.yul\":20909:20912   */\n      0x80\n        /* \"#utility.yul\":20898:20907   */\n      dup3\n        /* \"#utility.yul\":20894:20913   */\n      add\n        /* \"#utility.yul\":20886:20913   */\n      swap1\n      pop\n        /* \"#utility.yul\":20959:20968   */\n      dup2\n        /* \"#utility.yul\":20953:20957   */\n      dup2\n        /* \"#utility.yul\":20949:20969   */\n      sub\n        /* \"#utility.yul\":20945:20946   */\n      0x00\n        /* \"#utility.yul\":20934:20943   */\n      dup4\n        /* \"#utility.yul\":20930:20947   */\n      add\n        /* \"#utility.yul\":20923:20970   */\n      mstore\n        /* \"#utility.yul\":20987:21065   */\n      tag_625\n        /* \"#utility.yul\":21060:21064   */\n      dup2\n        /* \"#utility.yul\":21051:21057   */\n      dup8\n        /* \"#utility.yul\":20987:21065   */\n      tag_341\n      jump\t// in\n    tag_625:\n        /* \"#utility.yul\":20979:21065   */\n      swap1\n      pop\n        /* \"#utility.yul\":21075:21147   */\n      tag_626\n        /* \"#utility.yul\":21143:21145   */\n      0x20\n        /* \"#utility.yul\":21132:21141   */\n      dup4\n        /* \"#utility.yul\":21128:21146   */\n      add\n        /* \"#utility.yul\":21119:21125   */\n      dup7\n        /* \"#utility.yul\":21075:21147   */\n      tag_355\n      jump\t// in\n    tag_626:\n        /* \"#utility.yul\":21157:21229   */\n      tag_627\n        /* \"#utility.yul\":21225:21227   */\n      0x40\n        /* \"#utility.yul\":21214:21223   */\n      dup4\n        /* \"#utility.yul\":21210:21228   */\n      add\n        /* \"#utility.yul\":21201:21207   */\n      dup6\n        /* \"#utility.yul\":21157:21229   */\n      tag_356\n      jump\t// in\n    tag_627:\n        /* \"#utility.yul\":21239:21311   */\n      tag_628\n        /* \"#utility.yul\":21307:21309   */\n      0x60\n        /* \"#utility.yul\":21296:21305   */\n      dup4\n        /* \"#utility.yul\":21292:21310   */\n      add\n        /* \"#utility.yul\":21283:21289   */\n      dup5\n        /* \"#utility.yul\":21239:21311   */\n      tag_355\n      jump\t// in\n    tag_628:\n        /* \"#utility.yul\":20674:21318   */\n      swap6\n      swap5\n      pop\n      pop\n      pop\n      pop\n      pop\n      jump\t// out\n        /* \"#utility.yul\":21324:21559   */\n    tag_380:\n        /* \"#utility.yul\":21464:21498   */\n      0x4f6e6c792074686520636f6e7472616374206f776e65722063616e2070657266\n        /* \"#utility.yul\":21460:21461   */\n      0x00\n        /* \"#utility.yul\":21452:21458   */\n      dup3\n        /* \"#utility.yul\":21448:21462   */\n      add\n        /* \"#utility.yul\":21441:21499   */\n      mstore\n        /* \"#utility.yul\":21533:21551   */\n      0x6f726d207468697320616374696f6e2e00000000000000000000000000000000\n        /* \"#utility.yul\":21528:21530   */\n      0x20\n        /* \"#utility.yul\":21520:21526   */\n      dup3\n        /* \"#utility.yul\":21516:21531   */\n      add\n        /* \"#utility.yul\":21509:21552   */\n      mstore\n        /* \"#utility.yul\":21324:21559   */\n      pop\n      jump\t// out\n        /* \"#utility.yul\":21565:21931   */\n    tag_381:\n        /* \"#utility.yul\":21707:21710   */\n      0x00\n        /* \"#utility.yul\":21728:21795   */\n      tag_631\n        /* \"#utility.yul\":21792:21794   */\n      0x30\n        /* \"#utility.yul\":21787:21790   */\n      dup4\n        /* \"#utility.yul\":21728:21795   */\n      tag_338\n      jump\t// in\n    tag_631:\n        /* \"#utility.yul\":21721:21795   */\n      swap2\n      pop\n        /* \"#utility.yul\":21804:21897   */\n      tag_632\n        /* \"#utility.yul\":21893:21896   */\n      dup3\n        /* \"#utility.yul\":21804:21897   */\n      tag_380\n      jump\t// in\n    tag_632:\n        /* \"#utility.yul\":21922:21924   */\n      0x40\n        /* \"#utility.yul\":21917:21920   */\n      dup3\n        /* \"#utility.yul\":21913:21925   */\n      add\n        /* \"#utility.yul\":21906:21925   */\n      swap1\n      pop\n        /* \"#utility.yul\":21565:21931   */\n      swap2\n      swap1\n      pop\n      jump\t// out\n        /* \"#utility.yul\":21937:22356   */\n    tag_138:\n        /* \"#utility.yul\":22103:22107   */\n      0x00\n        /* \"#utility.yul\":22141:22143   */\n      0x20\n        /* \"#utility.yul\":22130:22139   */\n      dup3\n        /* \"#utility.yul\":22126:22144   */\n      add\n        /* \"#utility.yul\":22118:22144   */\n      swap1\n      pop\n        /* \"#utility.yul\":22190:22199   */\n      dup2\n        /* \"#utility.yul\":22184:22188   */\n      dup2\n        /* \"#utility.yul\":22180:22200   */\n      sub\n        /* \"#utility.yul\":22176:22177   */\n      0x00\n        /* \"#utility.yul\":22165:22174   */\n      dup4\n        /* \"#utility.yul\":22161:22178   */\n      add\n        /* \"#utility.yul\":22154:22201   */\n      mstore\n        /* \"#utility.yul\":22218:22349   */\n      tag_634\n        /* \"#utility.yul\":22344:22348   */\n      dup2\n        /* \"#utility.yul\":22218:22349   */\n      tag_381\n      jump\t// in\n    tag_634:\n        /* \"#utility.yul\":22210:22349   */\n      swap1\n      pop\n        /* \"#utility.yul\":21937:22356   */\n      swap2\n      swap1\n      pop\n      jump\t// out\n        /* \"#utility.yul\":22362:22895   */\n    tag_160:\n        /* \"#utility.yul\":22531:22535   */\n      0x00\n        /* \"#utility.yul\":22569:22571   */\n      0x60\n        /* \"#utility.yul\":22558:22567   */\n      dup3\n        /* \"#utility.yul\":22554:22572   */\n      add\n        /* \"#utility.yul\":22546:22572   */\n      swap1\n      pop\n        /* \"#utility.yul\":22618:22627   */\n      dup2\n        /* \"#utility.yul\":22612:22616   */\n      dup2\n        /* \"#utility.yul\":22608:22628   */\n      sub\n        /* \"#utility.yul\":22604:22605   */\n      0x00\n        /* \"#utility.yul\":22593:22602   */\n      dup4\n        /* \"#utility.yul\":22589:22606   */\n      add\n        /* \"#utility.yul\":22582:22629   */\n      mstore\n        /* \"#utility.yul\":22646:22724   */\n      tag_636\n        /* \"#utility.yul\":22719:22723   */\n      dup2\n        /* \"#utility.yul\":22710:22716   */\n      dup7\n        /* \"#utility.yul\":22646:22724   */\n      tag_341\n      jump\t// in\n    tag_636:\n        /* \"#utility.yul\":22638:22724   */\n      swap1\n      pop\n        /* \"#utility.yul\":22734:22806   */\n      tag_637\n        /* \"#utility.yul\":22802:22804   */\n      0x20\n        /* \"#utility.yul\":22791:22800   */\n      dup4\n        /* \"#utility.yul\":22787:22805   */\n      add\n        /* \"#utility.yul\":22778:22784   */\n      dup6\n        /* \"#utility.yul\":22734:22806   */\n      tag_356\n      jump\t// in\n    tag_637:\n        /* \"#utility.yul\":22816:22888   */\n      tag_638\n        /* \"#utility.yul\":22884:22886   */\n      0x40\n        /* \"#utility.yul\":22873:22882   */\n      dup4\n        /* \"#utility.yul\":22869:22887   */\n      add\n        /* \"#utility.yul\":22860:22866   */\n      dup5\n        /* \"#utility.yul\":22816:22888   */\n      tag_355\n      jump\t// in\n    tag_638:\n        /* \"#utility.yul\":22362:22895   */\n      swap5\n      swap4\n      pop\n      pop\n      pop\n      pop\n      jump\t// out\n        /* \"#utility.yul\":22901:23233   */\n    tag_172:\n        /* \"#utility.yul\":23022:23026   */\n      0x00\n        /* \"#utility.yul\":23060:23062   */\n      0x40\n        /* \"#utility.yul\":23049:23058   */\n      dup3\n        /* \"#utility.yul\":23045:23063   */\n      add\n        /* \"#utility.yul\":23037:23063   */\n      swap1\n      pop\n        /* \"#utility.yul\":23073:23144   */\n      tag_640\n        /* \"#utility.yul\":23141:23142   */\n      0x00\n        /* \"#utility.yul\":23130:23139   */\n      dup4\n        /* \"#utility.yul\":23126:23143   */\n      add\n        /* \"#utility.yul\":23117:23123   */\n      dup6\n        /* \"#utility.yul\":23073:23144   */\n      tag_356\n      jump\t// in\n    tag_640:\n        /* \"#utility.yul\":23154:23226   */\n      tag_641\n        /* \"#utility.yul\":23222:23224   */\n      0x20\n        /* \"#utility.yul\":23211:23220   */\n      dup4\n        /* \"#utility.yul\":23207:23225   */\n      add\n        /* \"#utility.yul\":23198:23204   */\n      dup5\n        /* \"#utility.yul\":23154:23226   */\n      tag_355\n      jump\t// in\n    tag_641:\n        /* \"#utility.yul\":22901:23233   */\n      swap4\n      swap3\n      pop\n      pop\n      pop\n      jump\t// out\n        /* \"#utility.yul\":23239:23329   */\n    tag_382:\n        /* \"#utility.yul\":23273:23280   */\n      0x00\n        /* \"#utility.yul\":23316:23321   */\n      dup2\n        /* \"#utility.yul\":23309:23322   */\n      iszero\n        /* \"#utility.yul\":23302:23323   */\n      iszero\n        /* \"#utility.yul\":23291:23323   */\n      swap1\n      pop\n        /* \"#utility.yul\":23239:23329   */\n      swap2\n      swap1\n      pop\n      jump\t// out\n        /* \"#utility.yul\":23335:23451   */\n    tag_383:\n        /* \"#utility.yul\":23405:23426   */\n      tag_644\n        /* \"#utility.yul\":23420:23425   */\n      dup2\n        /* \"#utility.yul\":23405:23426   */\n      tag_382\n      jump\t// in\n    tag_644:\n        /* \"#utility.yul\":23398:23403   */\n      dup2\n        /* \"#utility.yul\":23395:23427   */\n      eq\n        /* \"#utility.yul\":23385:23445   */\n      tag_645\n      jumpi\n        /* \"#utility.yul\":23441:23442   */\n      0x00\n        /* \"#utility.yul\":23438:23439   */\n      dup1\n        /* \"#utility.yul\":23431:23443   */\n      revert\n        /* \"#utility.yul\":23385:23445   */\n    tag_645:\n        /* \"#utility.yul\":23335:23451   */\n      pop\n      jump\t// out\n        /* \"#utility.yul\":23457:23594   */\n    tag_384:\n        /* \"#utility.yul\":23511:23516   */\n      0x00\n        /* \"#utility.yul\":23542:23548   */\n      dup2\n        /* \"#utility.yul\":23536:23549   */\n      mload\n        /* \"#utility.yul\":23527:23549   */\n      swap1\n      pop\n        /* \"#utility.yul\":23558:23588   */\n      tag_647\n        /* \"#utility.yul\":23582:23587   */\n      dup2\n        /* \"#utility.yul\":23558:23588   */\n      tag_383\n      jump\t// in\n    tag_647:\n        /* \"#utility.yul\":23457:23594   */\n      swap3\n      swap2\n      pop\n      pop\n      jump\t// out\n        /* \"#utility.yul\":23600:23945   */\n    tag_176:\n        /* \"#utility.yul\":23667:23673   */\n      0x00\n        /* \"#utility.yul\":23716:23718   */\n      0x20\n        /* \"#utility.yul\":23704:23713   */\n      dup3\n        /* \"#utility.yul\":23695:23702   */\n      dup5\n        /* \"#utility.yul\":23691:23714   */\n      sub\n        /* \"#utility.yul\":23687:23719   */\n      slt\n        /* \"#utility.yul\":23684:23803   */\n      iszero\n      tag_649\n      jumpi\n        /* \"#utility.yul\":23722:23801   */\n      tag_650\n      tag_332\n      jump\t// in\n    tag_650:\n        /* \"#utility.yul\":23684:23803   */\n    tag_649:\n        /* \"#utility.yul\":23842:23843   */\n      0x00\n        /* \"#utility.yul\":23867:23928   */\n      tag_651\n        /* \"#utility.yul\":23920:23927   */\n      dup5\n        /* \"#utility.yul\":23911:23917   */\n      dup3\n        /* \"#utility.yul\":23900:23909   */\n      dup6\n        /* \"#utility.yul\":23896:23918   */\n      add\n        /* \"#utility.yul\":23867:23928   */\n      tag_384\n      jump\t// in\n    tag_651:\n        /* \"#utility.yul\":23857:23928   */\n      swap2\n      pop\n        /* \"#utility.yul\":23813:23938   */\n      pop\n        /* \"#utility.yul\":23600:23945   */\n      swap3\n      swap2\n      pop\n      pop\n      jump\t// out\n        /* \"#utility.yul\":23951:24125   */\n    tag_385:\n        /* \"#utility.yul\":24091:24117   */\n      0x546f6b656e207769746864726177616c206661696c65642e0000000000000000\n        /* \"#utility.yul\":24087:24088   */\n      0x00\n        /* \"#utility.yul\":24079:24085   */\n      dup3\n        /* \"#utility.yul\":24075:24089   */\n      add\n        /* \"#utility.yul\":24068:24118   */\n      mstore\n        /* \"#utility.yul\":23951:24125   */\n      pop\n      jump\t// out\n        /* \"#utility.yul\":24131:24497   */\n    tag_386:\n        /* \"#utility.yul\":24273:24276   */\n      0x00\n        /* \"#utility.yul\":24294:24361   */\n      tag_654\n        /* \"#utility.yul\":24358:24360   */\n      0x18\n        /* \"#utility.yul\":24353:24356   */\n      dup4\n        /* \"#utility.yul\":24294:24361   */\n      tag_338\n      jump\t// in\n    tag_654:\n        /* \"#utility.yul\":24287:24361   */\n      swap2\n      pop\n        /* \"#utility.yul\":24370:24463   */\n      tag_655\n        /* \"#utility.yul\":24459:24462   */\n      dup3\n        /* \"#utility.yul\":24370:24463   */\n      tag_385\n      jump\t// in\n    tag_655:\n        /* \"#utility.yul\":24488:24490   */\n      0x20\n        /* \"#utility.yul\":24483:24486   */\n      dup3\n        /* \"#utility.yul\":24479:24491   */\n      add\n        /* \"#utility.yul\":24472:24491   */\n      swap1\n      pop\n        /* \"#utility.yul\":24131:24497   */\n      swap2\n      swap1\n      pop\n      jump\t// out\n        /* \"#utility.yul\":24503:24922   */\n    tag_179:\n        /* \"#utility.yul\":24669:24673   */\n      0x00\n        /* \"#utility.yul\":24707:24709   */\n      0x20\n        /* \"#utility.yul\":24696:24705   */\n      dup3\n        /* \"#utility.yul\":24692:24710   */\n      add\n        /* \"#utility.yul\":24684:24710   */\n      swap1\n      pop\n        /* \"#utility.yul\":24756:24765   */\n      dup2\n        /* \"#utility.yul\":24750:24754   */\n      dup2\n        /* \"#utility.yul\":24746:24766   */\n      sub\n        /* \"#utility.yul\":24742:24743   */\n      0x00\n        /* \"#utility.yul\":24731:24740   */\n      dup4\n        /* \"#utility.yul\":24727:24744   */\n      add\n        /* \"#utility.yul\":24720:24767   */\n      mstore\n        /* \"#utility.yul\":24784:24915   */\n      tag_657\n        /* \"#utility.yul\":24910:24914   */\n      dup2\n        /* \"#utility.yul\":24784:24915   */\n      tag_386\n      jump\t// in\n    tag_657:\n        /* \"#utility.yul\":24776:24915   */\n      swap1\n      pop\n        /* \"#utility.yul\":24503:24922   */\n      swap2\n      swap1\n      pop\n      jump\t// out\n        /* \"#utility.yul\":24928:25151   */\n    tag_387:\n        /* \"#utility.yul\":25068:25102   */\n      0x43616c6c6572206973206e6f7420616e206f776e6572206f662074686520616c\n        /* \"#utility.yul\":25064:25065   */\n      0x00\n        /* \"#utility.yul\":25056:25062   */\n      dup3\n        /* \"#utility.yul\":25052:25066   */\n      add\n        /* \"#utility.yul\":25045:25103   */\n      mstore\n        /* \"#utility.yul\":25137:25143   */\n      0x62756d2e00000000000000000000000000000000000000000000000000000000\n        /* \"#utility.yul\":25132:25134   */\n      0x20\n        /* \"#utility.yul\":25124:25130   */\n      dup3\n        /* \"#utility.yul\":25120:25135   */\n      add\n        /* \"#utility.yul\":25113:25144   */\n      mstore\n        /* \"#utility.yul\":24928:25151   */\n      pop\n      jump\t// out\n        /* \"#utility.yul\":25157:25523   */\n    tag_388:\n        /* \"#utility.yul\":25299:25302   */\n      0x00\n        /* \"#utility.yul\":25320:25387   */\n      tag_660\n        /* \"#utility.yul\":25384:25386   */\n      0x24\n        /* \"#utility.yul\":25379:25382   */\n      dup4\n        /* \"#utility.yul\":25320:25387   */\n      tag_338\n      jump\t// in\n    tag_660:\n        /* \"#utility.yul\":25313:25387   */\n      swap2\n      pop\n        /* \"#utility.yul\":25396:25489   */\n      tag_661\n        /* \"#utility.yul\":25485:25488   */\n      dup3\n        /* \"#utility.yul\":25396:25489   */\n      tag_387\n      jump\t// in\n    tag_661:\n        /* \"#utility.yul\":25514:25516   */\n      0x40\n        /* \"#utility.yul\":25509:25512   */\n      dup3\n        /* \"#utility.yul\":25505:25517   */\n      add\n        /* \"#utility.yul\":25498:25517   */\n      swap1\n      pop\n        /* \"#utility.yul\":25157:25523   */\n      swap2\n      swap1\n      pop\n      jump\t// out\n        /* \"#utility.yul\":25529:25948   */\n    tag_189:\n        /* \"#utility.yul\":25695:25699   */\n      0x00\n        /* \"#utility.yul\":25733:25735   */\n      0x20\n        /* \"#utility.yul\":25722:25731   */\n      dup3\n        /* \"#utility.yul\":25718:25736   */\n      add\n        /* \"#utility.yul\":25710:25736   */\n      swap1\n      pop\n        /* \"#utility.yul\":25782:25791   */\n      dup2\n        /* \"#utility.yul\":25776:25780   */\n      dup2\n        /* \"#utility.yul\":25772:25792   */\n      sub\n        /* \"#utility.yul\":25768:25769   */\n      0x00\n        /* \"#utility.yul\":25757:25766   */\n      dup4\n        /* \"#utility.yul\":25753:25770   */\n      add\n        /* \"#utility.yul\":25746:25793   */\n      mstore\n        /* \"#utility.yul\":25810:25941   */\n      tag_663\n        /* \"#utility.yul\":25936:25940   */\n      dup2\n        /* \"#utility.yul\":25810:25941   */\n      tag_388\n      jump\t// in\n    tag_663:\n        /* \"#utility.yul\":25802:25941   */\n      swap1\n      pop\n        /* \"#utility.yul\":25529:25948   */\n      swap2\n      swap1\n      pop\n      jump\t// out\n        /* \"#utility.yul\":25954:26130   */\n    tag_389:\n        /* \"#utility.yul\":26094:26122   */\n      0x546f6b656e20697320616c72656164792061636365707465642e000000000000\n        /* \"#utility.yul\":26090:26091   */\n      0x00\n        /* \"#utility.yul\":26082:26088   */\n      dup3\n        /* \"#utility.yul\":26078:26092   */\n      add\n        /* \"#utility.yul\":26071:26123   */\n      mstore\n        /* \"#utility.yul\":25954:26130   */\n      pop\n      jump\t// out\n        /* \"#utility.yul\":26136:26502   */\n    tag_390:\n        /* \"#utility.yul\":26278:26281   */\n      0x00\n        /* \"#utility.yul\":26299:26366   */\n      tag_666\n        /* \"#utility.yul\":26363:26365   */\n      0x1a\n        /* \"#utility.yul\":26358:26361   */\n      dup4\n        /* \"#utility.yul\":26299:26366   */\n      tag_338\n      jump\t// in\n    tag_666:\n        /* \"#utility.yul\":26292:26366   */\n      swap2\n      pop\n        /* \"#utility.yul\":26375:26468   */\n      tag_667\n        /* \"#utility.yul\":26464:26467   */\n      dup3\n        /* \"#utility.yul\":26375:26468   */\n      tag_389\n      jump\t// in\n    tag_667:\n        /* \"#utility.yul\":26493:26495   */\n      0x20\n        /* \"#utility.yul\":26488:26491   */\n      dup3\n        /* \"#utility.yul\":26484:26496   */\n      add\n        /* \"#utility.yul\":26477:26496   */\n      swap1\n      pop\n        /* \"#utility.yul\":26136:26502   */\n      swap2\n      swap1\n      pop\n      jump\t// out\n        /* \"#utility.yul\":26508:26927   */\n    tag_192:\n        /* \"#utility.yul\":26674:26678   */\n      0x00\n        /* \"#utility.yul\":26712:26714   */\n      0x20\n        /* \"#utility.yul\":26701:26710   */\n      dup3\n        /* \"#utility.yul\":26697:26715   */\n      add\n        /* \"#utility.yul\":26689:26715   */\n      swap1\n      pop\n        /* \"#utility.yul\":26761:26770   */\n      dup2\n        /* \"#utility.yul\":26755:26759   */\n      dup2\n        /* \"#utility.yul\":26751:26771   */\n      sub\n        /* \"#utility.yul\":26747:26748   */\n      0x00\n        /* \"#utility.yul\":26736:26745   */\n      dup4\n        /* \"#utility.yul\":26732:26749   */\n      add\n        /* \"#utility.yul\":26725:26772   */\n      mstore\n        /* \"#utility.yul\":26789:26920   */\n      tag_669\n        /* \"#utility.yul\":26915:26919   */\n      dup2\n        /* \"#utility.yul\":26789:26920   */\n      tag_390\n      jump\t// in\n    tag_669:\n        /* \"#utility.yul\":26781:26920   */\n      swap1\n      pop\n        /* \"#utility.yul\":26508:26927   */\n      swap2\n      swap1\n      pop\n      jump\t// out\n        /* \"#utility.yul\":26933:27356   */\n    tag_195:\n        /* \"#utility.yul\":27074:27078   */\n      0x00\n        /* \"#utility.yul\":27112:27114   */\n      0x40\n        /* \"#utility.yul\":27101:27110   */\n      dup3\n        /* \"#utility.yul\":27097:27115   */\n      add\n        /* \"#utility.yul\":27089:27115   */\n      swap1\n      pop\n        /* \"#utility.yul\":27161:27170   */\n      dup2\n        /* \"#utility.yul\":27155:27159   */\n      dup2\n        /* \"#utility.yul\":27151:27171   */\n      sub\n        /* \"#utility.yul\":27147:27148   */\n      0x00\n        /* \"#utility.yul\":27136:27145   */\n      dup4\n        /* \"#utility.yul\":27132:27149   */\n      add\n        /* \"#utility.yul\":27125:27172   */\n      mstore\n        /* \"#utility.yul\":27189:27267   */\n      tag_671\n        /* \"#utility.yul\":27262:27266   */\n      dup2\n        /* \"#utility.yul\":27253:27259   */\n      dup6\n        /* \"#utility.yul\":27189:27267   */\n      tag_341\n      jump\t// in\n    tag_671:\n        /* \"#utility.yul\":27181:27267   */\n      swap1\n      pop\n        /* \"#utility.yul\":27277:27349   */\n      tag_672\n        /* \"#utility.yul\":27345:27347   */\n      0x20\n        /* \"#utility.yul\":27334:27343   */\n      dup4\n        /* \"#utility.yul\":27330:27348   */\n      add\n        /* \"#utility.yul\":27321:27327   */\n      dup5\n        /* \"#utility.yul\":27277:27349   */\n      tag_356\n      jump\t// in\n    tag_672:\n        /* \"#utility.yul\":26933:27356   */\n      swap4\n      swap3\n      pop\n      pop\n      pop\n      jump\t// out\n        /* \"#utility.yul\":27362:27534   */\n    tag_391:\n        /* \"#utility.yul\":27502:27526   */\n      0x546f6b656e206973206e6f742061636365707465642e00000000000000000000\n        /* \"#utility.yul\":27498:27499   */\n      0x00\n        /* \"#utility.yul\":27490:27496   */\n      dup3\n        /* \"#utility.yul\":27486:27500   */\n      add\n        /* \"#utility.yul\":27479:27527   */\n      mstore\n        /* \"#utility.yul\":27362:27534   */\n      pop\n      jump\t// out\n        /* \"#utility.yul\":27540:27906   */\n    tag_392:\n        /* \"#utility.yul\":27682:27685   */\n      0x00\n        /* \"#utility.yul\":27703:27770   */\n      tag_675\n        /* \"#utility.yul\":27767:27769   */\n      0x16\n        /* \"#utility.yul\":27762:27765   */\n      dup4\n        /* \"#utility.yul\":27703:27770   */\n      tag_338\n      jump\t// in\n    tag_675:\n        /* \"#utility.yul\":27696:27770   */\n      swap2\n      pop\n        /* \"#utility.yul\":27779:27872   */\n      tag_676\n        /* \"#utility.yul\":27868:27871   */\n      dup3\n        /* \"#utility.yul\":27779:27872   */\n      tag_391\n      jump\t// in\n    tag_676:\n        /* \"#utility.yul\":27897:27899   */\n      0x20\n        /* \"#utility.yul\":27892:27895   */\n      dup3\n        /* \"#utility.yul\":27888:27900   */\n      add\n        /* \"#utility.yul\":27881:27900   */\n      swap1\n      pop\n        /* \"#utility.yul\":27540:27906   */\n      swap2\n      swap1\n      pop\n      jump\t// out\n        /* \"#utility.yul\":27912:28331   */\n    tag_210:\n        /* \"#utility.yul\":28078:28082   */\n      0x00\n        /* \"#utility.yul\":28116:28118   */\n      0x20\n        /* \"#utility.yul\":28105:28114   */\n      dup3\n        /* \"#utility.yul\":28101:28119   */\n      add\n        /* \"#utility.yul\":28093:28119   */\n      swap1\n      pop\n        /* \"#utility.yul\":28165:28174   */\n      dup2\n        /* \"#utility.yul\":28159:28163   */\n      dup2\n        /* \"#utility.yul\":28155:28175   */\n      sub\n        /* \"#utility.yul\":28151:28152   */\n      0x00\n        /* \"#utility.yul\":28140:28149   */\n      dup4\n        /* \"#utility.yul\":28136:28153   */\n      add\n        /* \"#utility.yul\":28129:28176   */\n      mstore\n        /* \"#utility.yul\":28193:28324   */\n      tag_678\n        /* \"#utility.yul\":28319:28323   */\n      dup2\n        /* \"#utility.yul\":28193:28324   */\n      tag_392\n      jump\t// in\n    tag_678:\n        /* \"#utility.yul\":28185:28324   */\n      swap1\n      pop\n        /* \"#utility.yul\":27912:28331   */\n      swap2\n      swap1\n      pop\n      jump\t// out\n        /* \"#utility.yul\":28337:28517   */\n    tag_393:\n        /* \"#utility.yul\":28385:28462   */\n      0x4e487b7100000000000000000000000000000000000000000000000000000000\n        /* \"#utility.yul\":28382:28383   */\n      0x00\n        /* \"#utility.yul\":28375:28463   */\n      mstore\n        /* \"#utility.yul\":28482:28486   */\n      0x11\n        /* \"#utility.yul\":28479:28480   */\n      0x04\n        /* \"#utility.yul\":28472:28487   */\n      mstore\n        /* \"#utility.yul\":28506:28510   */\n      0x24\n        /* \"#utility.yul\":28503:28504   */\n      0x00\n        /* \"#utility.yul\":28496:28511   */\n      revert\n        /* \"#utility.yul\":28523:28717   */\n    tag_219:\n        /* \"#utility.yul\":28563:28567   */\n      0x00\n        /* \"#utility.yul\":28583:28603   */\n      tag_681\n        /* \"#utility.yul\":28601:28602   */\n      dup3\n        /* \"#utility.yul\":28583:28603   */\n      tag_334\n      jump\t// in\n    tag_681:\n        /* \"#utility.yul\":28578:28603   */\n      swap2\n      pop\n        /* \"#utility.yul\":28617:28637   */\n      tag_682\n        /* \"#utility.yul\":28635:28636   */\n      dup4\n        /* \"#utility.yul\":28617:28637   */\n      tag_334\n      jump\t// in\n    tag_682:\n        /* \"#utility.yul\":28612:28637   */\n      swap3\n      pop\n        /* \"#utility.yul\":28661:28662   */\n      dup3\n        /* \"#utility.yul\":28658:28659   */\n      dup3\n        /* \"#utility.yul\":28654:28663   */\n      sub\n        /* \"#utility.yul\":28646:28663   */\n      swap1\n      pop\n        /* \"#utility.yul\":28685:28686   */\n      dup2\n        /* \"#utility.yul\":28679:28683   */\n      dup2\n        /* \"#utility.yul\":28676:28687   */\n      gt\n        /* \"#utility.yul\":28673:28710   */\n      iszero\n      tag_683\n      jumpi\n        /* \"#utility.yul\":28690:28708   */\n      tag_684\n      tag_393\n      jump\t// in\n    tag_684:\n        /* \"#utility.yul\":28673:28710   */\n    tag_683:\n        /* \"#utility.yul\":28523:28717   */\n      swap3\n      swap2\n      pop\n      pop\n      jump\t// out\n        /* \"#utility.yul\":28723:28903   */\n    tag_228:\n        /* \"#utility.yul\":28771:28848   */\n      0x4e487b7100000000000000000000000000000000000000000000000000000000\n        /* \"#utility.yul\":28768:28769   */\n      0x00\n        /* \"#utility.yul\":28761:28849   */\n      mstore\n        /* \"#utility.yul\":28868:28872   */\n      0x31\n        /* \"#utility.yul\":28865:28866   */\n      0x04\n        /* \"#utility.yul\":28858:28873   */\n      mstore\n        /* \"#utility.yul\":28892:28896   */\n      0x24\n        /* \"#utility.yul\":28889:28890   */\n      0x00\n        /* \"#utility.yul\":28882:28897   */\n      revert\n        /* \"#utility.yul\":28909:29129   */\n    tag_394:\n        /* \"#utility.yul\":29049:29083   */\n      0x496e73756666696369656e742066656520746f2063726561746520616c62756d\n        /* \"#utility.yul\":29045:29046   */\n      0x00\n        /* \"#utility.yul\":29037:29043   */\n      dup3\n        /* \"#utility.yul\":29033:29047   */\n      add\n        /* \"#utility.yul\":29026:29084   */\n      mstore\n        /* \"#utility.yul\":29118:29121   */\n      0x2e00000000000000000000000000000000000000000000000000000000000000\n        /* \"#utility.yul\":29113:29115   */\n      0x20\n        /* \"#utility.yul\":29105:29111   */\n      dup3\n        /* \"#utility.yul\":29101:29116   */\n      add\n        /* \"#utility.yul\":29094:29122   */\n      mstore\n        /* \"#utility.yul\":28909:29129   */\n      pop\n      jump\t// out\n        /* \"#utility.yul\":29135:29501   */\n    tag_395:\n        /* \"#utility.yul\":29277:29280   */\n      0x00\n        /* \"#utility.yul\":29298:29365   */\n      tag_688\n        /* \"#utility.yul\":29362:29364   */\n      0x21\n        /* \"#utility.yul\":29357:29360   */\n      dup4\n        /* \"#utility.yul\":29298:29365   */\n      tag_338\n      jump\t// in\n    tag_688:\n        /* \"#utility.yul\":29291:29365   */\n      swap2\n      pop\n        /* \"#utility.yul\":29374:29467   */\n      tag_689\n        /* \"#utility.yul\":29463:29466   */\n      dup3\n        /* \"#utility.yul\":29374:29467   */\n      tag_394\n      jump\t// in\n    tag_689:\n        /* \"#utility.yul\":29492:29494   */\n      0x40\n        /* \"#utility.yul\":29487:29490   */\n      dup3\n        /* \"#utility.yul\":29483:29495   */\n      add\n        /* \"#utility.yul\":29476:29495   */\n      swap1\n      pop\n        /* \"#utility.yul\":29135:29501   */\n      swap2\n      swap1\n      pop\n      jump\t// out\n        /* \"#utility.yul\":29507:29926   */\n    tag_249:\n        /* \"#utility.yul\":29673:29677   */\n      0x00\n        /* \"#utility.yul\":29711:29713   */\n      0x20\n        /* \"#utility.yul\":29700:29709   */\n      dup3\n        /* \"#utility.yul\":29696:29714   */\n      add\n        /* \"#utility.yul\":29688:29714   */\n      swap1\n      pop\n        /* \"#utility.yul\":29760:29769   */\n      dup2\n        /* \"#utility.yul\":29754:29758   */\n      dup2\n        /* \"#utility.yul\":29750:29770   */\n      sub\n        /* \"#utility.yul\":29746:29747   */\n      0x00\n        /* \"#utility.yul\":29735:29744   */\n      dup4\n        /* \"#utility.yul\":29731:29748   */\n      add\n        /* \"#utility.yul\":29724:29771   */\n      mstore\n        /* \"#utility.yul\":29788:29919   */\n      tag_691\n        /* \"#utility.yul\":29914:29918   */\n      dup2\n        /* \"#utility.yul\":29788:29919   */\n      tag_395\n      jump\t// in\n    tag_691:\n        /* \"#utility.yul\":29780:29919   */\n      swap1\n      pop\n        /* \"#utility.yul\":29507:29926   */\n      swap2\n      swap1\n      pop\n      jump\t// out\n        /* \"#utility.yul\":29932:30109   */\n    tag_396:\n        /* \"#utility.yul\":30072:30101   */\n      0x416c62756d206e616d652063616e6e6f7420626520656d7074792e0000000000\n        /* \"#utility.yul\":30068:30069   */\n      0x00\n        /* \"#utility.yul\":30060:30066   */\n      dup3\n        /* \"#utility.yul\":30056:30070   */\n      add\n        /* \"#utility.yul\":30049:30102   */\n      mstore\n        /* \"#utility.yul\":29932:30109   */\n      pop\n      jump\t// out\n        /* \"#utility.yul\":30115:30481   */\n    tag_397:\n        /* \"#utility.yul\":30257:30260   */\n      0x00\n        /* \"#utility.yul\":30278:30345   */\n      tag_694\n        /* \"#utility.yul\":30342:30344   */\n      0x1b\n        /* \"#utility.yul\":30337:30340   */\n      dup4\n        /* \"#utility.yul\":30278:30345   */\n      tag_338\n      jump\t// in\n    tag_694:\n        /* \"#utility.yul\":30271:30345   */\n      swap2\n      pop\n        /* \"#utility.yul\":30354:30447   */\n      tag_695\n        /* \"#utility.yul\":30443:30446   */\n      dup3\n        /* \"#utility.yul\":30354:30447   */\n      tag_396\n      jump\t// in\n    tag_695:\n        /* \"#utility.yul\":30472:30474   */\n      0x20\n        /* \"#utility.yul\":30467:30470   */\n      dup3\n        /* \"#utility.yul\":30463:30475   */\n      add\n        /* \"#utility.yul\":30456:30475   */\n      swap1\n      pop\n        /* \"#utility.yul\":30115:30481   */\n      swap2\n      swap1\n      pop\n      jump\t// out\n        /* \"#utility.yul\":30487:30906   */\n    tag_252:\n        /* \"#utility.yul\":30653:30657   */\n      0x00\n        /* \"#utility.yul\":30691:30693   */\n      0x20\n        /* \"#utility.yul\":30680:30689   */\n      dup3\n        /* \"#utility.yul\":30676:30694   */\n      add\n        /* \"#utility.yul\":30668:30694   */\n      swap1\n      pop\n        /* \"#utility.yul\":30740:30749   */\n      dup2\n        /* \"#utility.yul\":30734:30738   */\n      dup2\n        /* \"#utility.yul\":30730:30750   */\n      sub\n        /* \"#utility.yul\":30726:30727   */\n      0x00\n        /* \"#utility.yul\":30715:30724   */\n      dup4\n        /* \"#utility.yul\":30711:30728   */\n      add\n        /* \"#utility.yul\":30704:30751   */\n      mstore\n        /* \"#utility.yul\":30768:30899   */\n      tag_697\n        /* \"#utility.yul\":30894:30898   */\n      dup2\n        /* \"#utility.yul\":30768:30899   */\n      tag_397\n      jump\t// in\n    tag_697:\n        /* \"#utility.yul\":30760:30899   */\n      swap1\n      pop\n        /* \"#utility.yul\":30487:30906   */\n      swap2\n      swap1\n      pop\n      jump\t// out\n        /* \"#utility.yul\":30912:31082   */\n    tag_398:\n        /* \"#utility.yul\":31052:31074   */\n      0x4349442063616e6e6f7420626520656d7074792e000000000000000000000000\n        /* \"#utility.yul\":31048:31049   */\n      0x00\n        /* \"#utility.yul\":31040:31046   */\n      dup3\n        /* \"#utility.yul\":31036:31050   */\n      add\n        /* \"#utility.yul\":31029:31075   */\n      mstore\n        /* \"#utility.yul\":30912:31082   */\n      pop\n      jump\t// out\n        /* \"#utility.yul\":31088:31454   */\n    tag_399:\n        /* \"#utility.yul\":31230:31233   */\n      0x00\n        /* \"#utility.yul\":31251:31318   */\n      tag_700\n        /* \"#utility.yul\":31315:31317   */\n      0x14\n        /* \"#utility.yul\":31310:31313   */\n      dup4\n        /* \"#utility.yul\":31251:31318   */\n      tag_338\n      jump\t// in\n    tag_700:\n        /* \"#utility.yul\":31244:31318   */\n      swap2\n      pop\n        /* \"#utility.yul\":31327:31420   */\n      tag_701\n        /* \"#utility.yul\":31416:31419   */\n      dup3\n        /* \"#utility.yul\":31327:31420   */\n      tag_398\n      jump\t// in\n    tag_701:\n        /* \"#utility.yul\":31445:31447   */\n      0x20\n        /* \"#utility.yul\":31440:31443   */\n      dup3\n        /* \"#utility.yul\":31436:31448   */\n      add\n        /* \"#utility.yul\":31429:31448   */\n      swap1\n      pop\n        /* \"#utility.yul\":31088:31454   */\n      swap2\n      swap1\n      pop\n      jump\t// out\n        /* \"#utility.yul\":31460:31879   */\n    tag_255:\n        /* \"#utility.yul\":31626:31630   */\n      0x00\n        /* \"#utility.yul\":31664:31666   */\n      0x20\n        /* \"#utility.yul\":31653:31662   */\n      dup3\n        /* \"#utility.yul\":31649:31667   */\n      add\n        /* \"#utility.yul\":31641:31667   */\n      swap1\n      pop\n        /* \"#utility.yul\":31713:31722   */\n      dup2\n        /* \"#utility.yul\":31707:31711   */\n      dup2\n        /* \"#utility.yul\":31703:31723   */\n      sub\n        /* \"#utility.yul\":31699:31700   */\n      0x00\n        /* \"#utility.yul\":31688:31697   */\n      dup4\n        /* \"#utility.yul\":31684:31701   */\n      add\n        /* \"#utility.yul\":31677:31724   */\n      mstore\n        /* \"#utility.yul\":31741:31872   */\n      tag_703\n        /* \"#utility.yul\":31867:31871   */\n      dup2\n        /* \"#utility.yul\":31741:31872   */\n      tag_399\n      jump\t// in\n    tag_703:\n        /* \"#utility.yul\":31733:31872   */\n      swap1\n      pop\n        /* \"#utility.yul\":31460:31879   */\n      swap2\n      swap1\n      pop\n      jump\t// out\n        /* \"#utility.yul\":31885:32109   */\n    tag_400:\n        /* \"#utility.yul\":32025:32059   */\n      0x4174206c65617374206f6e6520616c62756d206f776e65722069732072657175\n        /* \"#utility.yul\":32021:32022   */\n      0x00\n        /* \"#utility.yul\":32013:32019   */\n      dup3\n        /* \"#utility.yul\":32009:32023   */\n      add\n        /* \"#utility.yul\":32002:32060   */\n      mstore\n        /* \"#utility.yul\":32094:32101   */\n      0x697265642e000000000000000000000000000000000000000000000000000000\n        /* \"#utility.yul\":32089:32091   */\n      0x20\n        /* \"#utility.yul\":32081:32087   */\n      dup3\n        /* \"#utility.yul\":32077:32092   */\n      add\n        /* \"#utility.yul\":32070:32102   */\n      mstore\n        /* \"#utility.yul\":31885:32109   */\n      pop\n      jump\t// out\n        /* \"#utility.yul\":32115:32481   */\n    tag_401:\n        /* \"#utility.yul\":32257:32260   */\n      0x00\n        /* \"#utility.yul\":32278:32345   */\n      tag_706\n        /* \"#utility.yul\":32342:32344   */\n      0x25\n        /* \"#utility.yul\":32337:32340   */\n      dup4\n        /* \"#utility.yul\":32278:32345   */\n      tag_338\n      jump\t// in\n    tag_706:\n        /* \"#utility.yul\":32271:32345   */\n      swap2\n      pop\n        /* \"#utility.yul\":32354:32447   */\n      tag_707\n        /* \"#utility.yul\":32443:32446   */\n      dup3\n        /* \"#utility.yul\":32354:32447   */\n      tag_400\n      jump\t// in\n    tag_707:\n        /* \"#utility.yul\":32472:32474   */\n      0x40\n        /* \"#utility.yul\":32467:32470   */\n      dup3\n        /* \"#utility.yul\":32463:32475   */\n      add\n        /* \"#utility.yul\":32456:32475   */\n      swap1\n      pop\n        /* \"#utility.yul\":32115:32481   */\n      swap2\n      swap1\n      pop\n      jump\t// out\n        /* \"#utility.yul\":32487:32906   */\n    tag_258:\n        /* \"#utility.yul\":32653:32657   */\n      0x00\n        /* \"#utility.yul\":32691:32693   */\n      0x20\n        /* \"#utility.yul\":32680:32689   */\n      dup3\n        /* \"#utility.yul\":32676:32694   */\n      add\n        /* \"#utility.yul\":32668:32694   */\n      swap1\n      pop\n        /* \"#utility.yul\":32740:32749   */\n      dup2\n        /* \"#utility.yul\":32734:32738   */\n      dup2\n        /* \"#utility.yul\":32730:32750   */\n      sub\n        /* \"#utility.yul\":32726:32727   */\n      0x00\n        /* \"#utility.yul\":32715:32724   */\n      dup4\n        /* \"#utility.yul\":32711:32728   */\n      add\n        /* \"#utility.yul\":32704:32751   */\n      mstore\n        /* \"#utility.yul\":32768:32899   */\n      tag_709\n        /* \"#utility.yul\":32894:32898   */\n      dup2\n        /* \"#utility.yul\":32768:32899   */\n      tag_401\n      jump\t// in\n    tag_709:\n        /* \"#utility.yul\":32760:32899   */\n      swap1\n      pop\n        /* \"#utility.yul\":32487:32906   */\n      swap2\n      swap1\n      pop\n      jump\t// out\n        /* \"#utility.yul\":32912:33143   */\n    tag_402:\n        /* \"#utility.yul\":33052:33086   */\n      0x4174206c65617374206f6e65207061796d656e7420746f6b656e206d75737420\n        /* \"#utility.yul\":33048:33049   */\n      0x00\n        /* \"#utility.yul\":33040:33046   */\n      dup3\n        /* \"#utility.yul\":33036:33050   */\n      add\n        /* \"#utility.yul\":33029:33087   */\n      mstore\n        /* \"#utility.yul\":33121:33135   */\n      0x62652070726f76696465642e0000000000000000000000000000000000000000\n        /* \"#utility.yul\":33116:33118   */\n      0x20\n        /* \"#utility.yul\":33108:33114   */\n      dup3\n        /* \"#utility.yul\":33104:33119   */\n      add\n        /* \"#utility.yul\":33097:33136   */\n      mstore\n        /* \"#utility.yul\":32912:33143   */\n      pop\n      jump\t// out\n        /* \"#utility.yul\":33149:33515   */\n    tag_403:\n        /* \"#utility.yul\":33291:33294   */\n      0x00\n        /* \"#utility.yul\":33312:33379   */\n      tag_712\n        /* \"#utility.yul\":33376:33378   */\n      0x2c\n        /* \"#utility.yul\":33371:33374   */\n      dup4\n        /* \"#utility.yul\":33312:33379   */\n      tag_338\n      jump\t// in\n    tag_712:\n        /* \"#utility.yul\":33305:33379   */\n      swap2\n      pop\n        /* \"#utility.yul\":33388:33481   */\n      tag_713\n        /* \"#utility.yul\":33477:33480   */\n      dup3\n        /* \"#utility.yul\":33388:33481   */\n      tag_402\n      jump\t// in\n    tag_713:\n        /* \"#utility.yul\":33506:33508   */\n      0x40\n        /* \"#utility.yul\":33501:33504   */\n      dup3\n        /* \"#utility.yul\":33497:33509   */\n      add\n        /* \"#utility.yul\":33490:33509   */\n      swap1\n      pop\n        /* \"#utility.yul\":33149:33515   */\n      swap2\n      swap1\n      pop\n      jump\t// out\n        /* \"#utility.yul\":33521:33940   */\n    tag_261:\n        /* \"#utility.yul\":33687:33691   */\n      0x00\n        /* \"#utility.yul\":33725:33727   */\n      0x20\n        /* \"#utility.yul\":33714:33723   */\n      dup3\n        /* \"#utility.yul\":33710:33728   */\n      add\n        /* \"#utility.yul\":33702:33728   */\n      swap1\n      pop\n        /* \"#utility.yul\":33774:33783   */\n      dup2\n        /* \"#utility.yul\":33768:33772   */\n      dup2\n        /* \"#utility.yul\":33764:33784   */\n      sub\n        /* \"#utility.yul\":33760:33761   */\n      0x00\n        /* \"#utility.yul\":33749:33758   */\n      dup4\n        /* \"#utility.yul\":33745:33762   */\n      add\n        /* \"#utility.yul\":33738:33785   */\n      mstore\n        /* \"#utility.yul\":33802:33933   */\n      tag_715\n        /* \"#utility.yul\":33928:33932   */\n      dup2\n        /* \"#utility.yul\":33802:33933   */\n      tag_403\n      jump\t// in\n    tag_715:\n        /* \"#utility.yul\":33794:33933   */\n      swap1\n      pop\n        /* \"#utility.yul\":33521:33940   */\n      swap2\n      swap1\n      pop\n      jump\t// out\n        /* \"#utility.yul\":33946:34137   */\n    tag_263:\n        /* \"#utility.yul\":33986:33989   */\n      0x00\n        /* \"#utility.yul\":34005:34025   */\n      tag_717\n        /* \"#utility.yul\":34023:34024   */\n      dup3\n        /* \"#utility.yul\":34005:34025   */\n      tag_334\n      jump\t// in\n    tag_717:\n        /* \"#utility.yul\":34000:34025   */\n      swap2\n      pop\n        /* \"#utility.yul\":34039:34059   */\n      tag_718\n        /* \"#utility.yul\":34057:34058   */\n      dup4\n        /* \"#utility.yul\":34039:34059   */\n      tag_334\n      jump\t// in\n    tag_718:\n        /* \"#utility.yul\":34034:34059   */\n      swap3\n      pop\n        /* \"#utility.yul\":34082:34083   */\n      dup3\n        /* \"#utility.yul\":34079:34080   */\n      dup3\n        /* \"#utility.yul\":34075:34084   */\n      add\n        /* \"#utility.yul\":34068:34084   */\n      swap1\n      pop\n        /* \"#utility.yul\":34103:34106   */\n      dup1\n        /* \"#utility.yul\":34100:34101   */\n      dup3\n        /* \"#utility.yul\":34097:34107   */\n      gt\n        /* \"#utility.yul\":34094:34130   */\n      iszero\n      tag_719\n      jumpi\n        /* \"#utility.yul\":34110:34128   */\n      tag_720\n      tag_393\n      jump\t// in\n    tag_720:\n        /* \"#utility.yul\":34094:34130   */\n    tag_719:\n        /* \"#utility.yul\":33946:34137   */\n      swap3\n      swap2\n      pop\n      pop\n      jump\t// out\n        /* \"#utility.yul\":34143:34314   */\n    tag_404:\n        /* \"#utility.yul\":34283:34306   */\n      0x416c62756d20616c7265616479206578697374732e0000000000000000000000\n        /* \"#utility.yul\":34279:34280   */\n      0x00\n        /* \"#utility.yul\":34271:34277   */\n      dup3\n        /* \"#utility.yul\":34267:34281   */\n      add\n        /* \"#utility.yul\":34260:34307   */\n      mstore\n        /* \"#utility.yul\":34143:34314   */\n      pop\n      jump\t// out\n        /* \"#utility.yul\":34320:34686   */\n    tag_405:\n        /* \"#utility.yul\":34462:34465   */\n      0x00\n        /* \"#utility.yul\":34483:34550   */\n      tag_723\n        /* \"#utility.yul\":34547:34549   */\n      0x15\n        /* \"#utility.yul\":34542:34545   */\n      dup4\n        /* \"#utility.yul\":34483:34550   */\n      tag_338\n      jump\t// in\n    tag_723:\n        /* \"#utility.yul\":34476:34550   */\n      swap2\n      pop\n        /* \"#utility.yul\":34559:34652   */\n      tag_724\n        /* \"#utility.yul\":34648:34651   */\n      dup3\n        /* \"#utility.yul\":34559:34652   */\n      tag_404\n      jump\t// in\n    tag_724:\n        /* \"#utility.yul\":34677:34679   */\n      0x20\n        /* \"#utility.yul\":34672:34675   */\n      dup3\n        /* \"#utility.yul\":34668:34680   */\n      add\n        /* \"#utility.yul\":34661:34680   */\n      swap1\n      pop\n        /* \"#utility.yul\":34320:34686   */\n      swap2\n      swap1\n      pop\n      jump\t// out\n        /* \"#utility.yul\":34692:35111   */\n    tag_268:\n        /* \"#utility.yul\":34858:34862   */\n      0x00\n        /* \"#utility.yul\":34896:34898   */\n      0x20\n        /* \"#utility.yul\":34885:34894   */\n      dup3\n        /* \"#utility.yul\":34881:34899   */\n      add\n        /* \"#utility.yul\":34873:34899   */\n      swap1\n      pop\n        /* \"#utility.yul\":34945:34954   */\n      dup2\n        /* \"#utility.yul\":34939:34943   */\n      dup2\n        /* \"#utility.yul\":34935:34955   */\n      sub\n        /* \"#utility.yul\":34931:34932   */\n      0x00\n        /* \"#utility.yul\":34920:34929   */\n      dup4\n        /* \"#utility.yul\":34916:34933   */\n      add\n        /* \"#utility.yul\":34909:34956   */\n      mstore\n        /* \"#utility.yul\":34973:35104   */\n      tag_726\n        /* \"#utility.yul\":35099:35103   */\n      dup2\n        /* \"#utility.yul\":34973:35104   */\n      tag_405\n      jump\t// in\n    tag_726:\n        /* \"#utility.yul\":34965:35104   */\n      swap1\n      pop\n        /* \"#utility.yul\":34692:35111   */\n      swap2\n      swap1\n      pop\n      jump\t// out\n        /* \"#utility.yul\":35117:35258   */\n    tag_406:\n        /* \"#utility.yul\":35166:35170   */\n      0x00\n        /* \"#utility.yul\":35189:35192   */\n      dup2\n        /* \"#utility.yul\":35181:35192   */\n      swap1\n      pop\n        /* \"#utility.yul\":35212:35215   */\n      dup2\n        /* \"#utility.yul\":35209:35210   */\n      0x00\n        /* \"#utility.yul\":35202:35216   */\n      mstore\n        /* \"#utility.yul\":35246:35250   */\n      0x20\n        /* \"#utility.yul\":35243:35244   */\n      0x00\n        /* \"#utility.yul\":35233:35251   */\n      keccak256\n        /* \"#utility.yul\":35225:35251   */\n      swap1\n      pop\n        /* \"#utility.yul\":35117:35258   */\n      swap2\n      swap1\n      pop\n      jump\t// out\n        /* \"#utility.yul\":35264:35357   */\n    tag_407:\n        /* \"#utility.yul\":35301:35307   */\n      0x00\n        /* \"#utility.yul\":35348:35350   */\n      0x20\n        /* \"#utility.yul\":35343:35345   */\n      0x1f\n        /* \"#utility.yul\":35336:35341   */\n      dup4\n        /* \"#utility.yul\":35332:35346   */\n      add\n        /* \"#utility.yul\":35328:35351   */\n      div\n        /* \"#utility.yul\":35318:35351   */\n      swap1\n      pop\n        /* \"#utility.yul\":35264:35357   */\n      swap2\n      swap1\n      pop\n      jump\t// out\n        /* \"#utility.yul\":35363:35470   */\n    tag_408:\n        /* \"#utility.yul\":35407:35415   */\n      0x00\n        /* \"#utility.yul\":35457:35462   */\n      dup3\n        /* \"#utility.yul\":35451:35455   */\n      dup3\n        /* \"#utility.yul\":35447:35463   */\n      shl\n        /* \"#utility.yul\":35426:35463   */\n      swap1\n      pop\n        /* \"#utility.yul\":35363:35470   */\n      swap3\n      swap2\n      pop\n      pop\n      jump\t// out\n        /* \"#utility.yul\":35476:35869   */\n    tag_409:\n        /* \"#utility.yul\":35545:35551   */\n      0x00\n        /* \"#utility.yul\":35595:35596   */\n      0x08\n        /* \"#utility.yul\":35583:35593   */\n      dup4\n        /* \"#utility.yul\":35579:35597   */\n      mul\n        /* \"#utility.yul\":35618:35715   */\n      tag_731\n        /* \"#utility.yul\":35648:35714   */\n      0xffffffffffffffffffffffffffffffffffffffffffffffffffffffffffffffff\n        /* \"#utility.yul\":35637:35646   */\n      dup3\n        /* \"#utility.yul\":35618:35715   */\n      tag_408\n      jump\t// in\n    tag_731:\n        /* \"#utility.yul\":35736:35775   */\n      tag_732\n        /* \"#utility.yul\":35766:35774   */\n      dup7\n        /* \"#utility.yul\":35755:35764   */\n      dup4\n        /* \"#utility.yul\":35736:35775   */\n      tag_408\n      jump\t// in\n    tag_732:\n        /* \"#utility.yul\":35724:35775   */\n      swap6\n      pop\n        /* \"#utility.yul\":35808:35812   */\n      dup1\n        /* \"#utility.yul\":35804:35813   */\n      not\n        /* \"#utility.yul\":35797:35802   */\n      dup5\n        /* \"#utility.yul\":35793:35814   */\n      and\n        /* \"#utility.yul\":35784:35814   */\n      swap4\n      pop\n        /* \"#utility.yul\":35857:35861   */\n      dup1\n        /* \"#utility.yul\":35847:35855   */\n      dup7\n        /* \"#utility.yul\":35843:35862   */\n      and\n        /* \"#utility.yul\":35836:35841   */\n      dup5\n        /* \"#utility.yul\":35833:35863   */\n      or\n        /* \"#utility.yul\":35823:35863   */\n      swap3\n      pop\n        /* \"#utility.yul\":35552:35869   */\n      pop\n      pop\n        /* \"#utility.yul\":35476:35869   */\n      swap4\n      swap3\n      pop\n      pop\n      pop\n      jump\t// out\n        /* \"#utility.yul\":35875:35935   */\n    tag_410:\n        /* \"#utility.yul\":35903:35906   */\n      0x00\n        /* \"#utility.yul\":35924:35929   */\n      dup2\n        /* \"#utility.yul\":35917:35929   */\n      swap1\n      pop\n        /* \"#utility.yul\":35875:35935   */\n      swap2\n      swap1\n      pop\n      jump\t// out\n        /* \"#utility.yul\":35941:36083   */\n    tag_411:\n        /* \"#utility.yul\":35991:36000   */\n      0x00\n        /* \"#utility.yul\":36024:36077   */\n      tag_735\n        /* \"#utility.yul\":36042:36076   */\n      tag_736\n        /* \"#utility.yul\":36051:36075   */\n      tag_737\n        /* \"#utility.yul\":36069:36074   */\n      dup5\n        /* \"#utility.yul\":36051:36075   */\n      tag_334\n      jump\t// in\n    tag_737:\n        /* \"#utility.yul\":36042:36076   */\n      tag_410\n      jump\t// in\n    tag_736:\n        /* \"#utility.yul\":36024:36077   */\n      tag_334\n      jump\t// in\n    tag_735:\n        /* \"#utility.yul\":36011:36077   */\n      swap1\n      pop\n        /* \"#utility.yul\":35941:36083   */\n      swap2\n      swap1\n      pop\n      jump\t// out\n        /* \"#utility.yul\":36089:36164   */\n    tag_412:\n        /* \"#utility.yul\":36132:36135   */\n      0x00\n        /* \"#utility.yul\":36153:36158   */\n      dup2\n        /* \"#utility.yul\":36146:36158   */\n      swap1\n      pop\n        /* \"#utility.yul\":36089:36164   */\n      swap2\n      swap1\n      pop\n      jump\t// out\n        /* \"#utility.yul\":36170:36439   */\n    tag_413:\n        /* \"#utility.yul\":36280:36319   */\n      tag_740\n        /* \"#utility.yul\":36311:36318   */\n      dup4\n        /* \"#utility.yul\":36280:36319   */\n      tag_411\n      jump\t// in\n    tag_740:\n        /* \"#utility.yul\":36341:36432   */\n      tag_741\n        /* \"#utility.yul\":36390:36431   */\n      tag_742\n        /* \"#utility.yul\":36414:36430   */\n      dup3\n        /* \"#utility.yul\":36390:36431   */\n      tag_412\n      jump\t// in\n    tag_742:\n        /* \"#utility.yul\":36382:36388   */\n      dup5\n        /* \"#utility.yul\":36375:36379   */\n      dup5\n        /* \"#utility.yul\":36369:36380   */\n      sload\n        /* \"#utility.yul\":36341:36432   */\n      tag_409\n      jump\t// in\n    tag_741:\n        /* \"#utility.yul\":36335:36339   */\n      dup3\n        /* \"#utility.yul\":36328:36433   */\n      sstore\n        /* \"#utility.yul\":36246:36439   */\n      pop\n        /* \"#utility.yul\":36170:36439   */\n      pop\n      pop\n      pop\n      jump\t// out\n        /* \"#utility.yul\":36445:36518   */\n    tag_414:\n        /* \"#utility.yul\":36490:36493   */\n      0x00\n        /* \"#utility.yul\":36445:36518   */\n      swap1\n      jump\t// out\n        /* \"#utility.yul\":36524:36713   */\n    tag_415:\n        /* \"#utility.yul\":36601:36633   */\n      tag_745\n      tag_414\n      jump\t// in\n    tag_745:\n        /* \"#utility.yul\":36642:36707   */\n      tag_746\n        /* \"#utility.yul\":36700:36706   */\n      dup2\n        /* \"#utility.yul\":36692:36698   */\n      dup5\n        /* \"#utility.yul\":36686:36690   */\n      dup5\n        /* \"#utility.yul\":36642:36707   */\n      tag_413\n      jump\t// in\n    tag_746:\n        /* \"#utility.yul\":36577:36713   */\n      pop\n        /* \"#utility.yul\":36524:36713   */\n      pop\n      pop\n      jump\t// out\n        /* \"#utility.yul\":36719:36905   */\n    tag_416:\n        /* \"#utility.yul\":36779:36899   */\n    tag_748:\n        /* \"#utility.yul\":36796:36799   */\n      dup2\n        /* \"#utility.yul\":36789:36794   */\n      dup2\n        /* \"#utility.yul\":36786:36800   */\n      lt\n        /* \"#utility.yul\":36779:36899   */\n      iszero\n      tag_750\n      jumpi\n        /* \"#utility.yul\":36850:36889   */\n      tag_751\n        /* \"#utility.yul\":36887:36888   */\n      0x00\n        /* \"#utility.yul\":36880:36885   */\n      dup3\n        /* \"#utility.yul\":36850:36889   */\n      tag_415\n      jump\t// in\n    tag_751:\n        /* \"#utility.yul\":36823:36824   */\n      0x01\n        /* \"#utility.yul\":36816:36821   */\n      dup2\n        /* \"#utility.yul\":36812:36825   */\n      add\n        /* \"#utility.yul\":36803:36825   */\n      swap1\n      pop\n        /* \"#utility.yul\":36779:36899   */\n      jump(tag_748)\n    tag_750:\n        /* \"#utility.yul\":36719:36905   */\n      pop\n      pop\n      jump\t// out\n        /* \"#utility.yul\":36911:37454   */\n    tag_417:\n        /* \"#utility.yul\":37012:37014   */\n      0x1f\n        /* \"#utility.yul\":37007:37010   */\n      dup3\n        /* \"#utility.yul\":37004:37015   */\n      gt\n        /* \"#utility.yul\":37001:37447   */\n      iszero\n      tag_753\n      jumpi\n        /* \"#utility.yul\":37046:37084   */\n      tag_754\n        /* \"#utility.yul\":37078:37083   */\n      dup2\n        /* \"#utility.yul\":37046:37084   */\n      tag_406\n      jump\t// in\n    tag_754:\n        /* \"#utility.yul\":37130:37159   */\n      tag_755\n        /* \"#utility.yul\":37148:37158   */\n      dup5\n        /* \"#utility.yul\":37130:37159   */\n      tag_407\n      jump\t// in\n    tag_755:\n        /* \"#utility.yul\":37120:37128   */\n      dup2\n        /* \"#utility.yul\":37116:37160   */\n      add\n        /* \"#utility.yul\":37313:37315   */\n      0x20\n        /* \"#utility.yul\":37301:37311   */\n      dup6\n        /* \"#utility.yul\":37298:37316   */\n      lt\n        /* \"#utility.yul\":37295:37344   */\n      iszero\n      tag_756\n      jumpi\n        /* \"#utility.yul\":37334:37342   */\n      dup2\n        /* \"#utility.yul\":37319:37342   */\n      swap1\n      pop\n        /* \"#utility.yul\":37295:37344   */\n    tag_756:\n        /* \"#utility.yul\":37357:37437   */\n      tag_757\n        /* \"#utility.yul\":37413:37435   */\n      tag_758\n        /* \"#utility.yul\":37431:37434   */\n      dup6\n        /* \"#utility.yul\":37413:37435   */\n      tag_407\n      jump\t// in\n    tag_758:\n        /* \"#utility.yul\":37403:37411   */\n      dup4\n        /* \"#utility.yul\":37399:37436   */\n      add\n        /* \"#utility.yul\":37386:37397   */\n      dup3\n        /* \"#utility.yul\":37357:37437   */\n      tag_416\n      jump\t// in\n    tag_757:\n        /* \"#utility.yul\":37016:37447   */\n      pop\n      pop\n        /* \"#utility.yul\":37001:37447   */\n    tag_753:\n        /* \"#utility.yul\":36911:37454   */\n      pop\n      pop\n      pop\n      jump\t// out\n        /* \"#utility.yul\":37460:37577   */\n    tag_418:\n        /* \"#utility.yul\":37514:37522   */\n      0x00\n        /* \"#utility.yul\":37564:37569   */\n      dup3\n        /* \"#utility.yul\":37558:37562   */\n      dup3\n        /* \"#utility.yul\":37554:37570   */\n      shr\n        /* \"#utility.yul\":37533:37570   */\n      swap1\n      pop\n        /* \"#utility.yul\":37460:37577   */\n      swap3\n      swap2\n      pop\n      pop\n      jump\t// out\n        /* \"#utility.yul\":37583:37752   */\n    tag_419:\n        /* \"#utility.yul\":37627:37633   */\n      0x00\n        /* \"#utility.yul\":37660:37711   */\n      tag_761\n        /* \"#utility.yul\":37708:37709   */\n      0x00\n        /* \"#utility.yul\":37704:37710   */\n      not\n        /* \"#utility.yul\":37696:37701   */\n      dup5\n        /* \"#utility.yul\":37693:37694   */\n      0x08\n        /* \"#utility.yul\":37689:37702   */\n      mul\n        /* \"#utility.yul\":37660:37711   */\n      tag_418\n      jump\t// in\n    tag_761:\n        /* \"#utility.yul\":37656:37712   */\n      not\n        /* \"#utility.yul\":37741:37745   */\n      dup1\n        /* \"#utility.yul\":37735:37739   */\n      dup4\n        /* \"#utility.yul\":37731:37746   */\n      and\n        /* \"#utility.yul\":37721:37746   */\n      swap2\n      pop\n        /* \"#utility.yul\":37634:37752   */\n      pop\n        /* \"#utility.yul\":37583:37752   */\n      swap3\n      swap2\n      pop\n      pop\n      jump\t// out\n        /* \"#utility.yul\":37757:38052   */\n    tag_420:\n        /* \"#utility.yul\":37833:37837   */\n      0x00\n        /* \"#utility.yul\":37979:38008   */\n      tag_763\n        /* \"#utility.yul\":38004:38007   */\n      dup4\n        /* \"#utility.yul\":37998:38002   */\n      dup4\n        /* \"#utility.yul\":37979:38008   */\n      tag_419\n      jump\t// in\n    tag_763:\n        /* \"#utility.yul\":37971:38008   */\n      swap2\n      pop\n        /* \"#utility.yul\":38041:38044   */\n      dup3\n        /* \"#utility.yul\":38038:38039   */\n      0x02\n        /* \"#utility.yul\":38034:38045   */\n      mul\n        /* \"#utility.yul\":38028:38032   */\n      dup3\n        /* \"#utility.yul\":38025:38046   */\n      or\n        /* \"#utility.yul\":38017:38046   */\n      swap1\n      pop\n        /* \"#utility.yul\":37757:38052   */\n      swap3\n      swap2\n      pop\n      pop\n      jump\t// out\n        /* \"#utility.yul\":38057:39452   */\n    tag_270:\n        /* \"#utility.yul\":38174:38211   */\n      tag_765\n        /* \"#utility.yul\":38207:38210   */\n      dup3\n        /* \"#utility.yul\":38174:38211   */\n      tag_337\n      jump\t// in\n    tag_765:\n        /* \"#utility.yul\":38276:38294   */\n      0xffffffffffffffff\n        /* \"#utility.yul\":38268:38274   */\n      dup2\n        /* \"#utility.yul\":38265:38295   */\n      gt\n        /* \"#utility.yul\":38262:38318   */\n      iszero\n      tag_766\n      jumpi\n        /* \"#utility.yul\":38298:38316   */\n      tag_767\n      tag_344\n      jump\t// in\n    tag_767:\n        /* \"#utility.yul\":38262:38318   */\n    tag_766:\n        /* \"#utility.yul\":38342:38380   */\n      tag_768\n        /* \"#utility.yul\":38374:38378   */\n      dup3\n        /* \"#utility.yul\":38368:38379   */\n      sload\n        /* \"#utility.yul\":38342:38380   */\n      tag_101\n      jump\t// in\n    tag_768:\n        /* \"#utility.yul\":38427:38494   */\n      tag_769\n        /* \"#utility.yul\":38487:38493   */\n      dup3\n        /* \"#utility.yul\":38479:38485   */\n      dup3\n        /* \"#utility.yul\":38473:38477   */\n      dup6\n        /* \"#utility.yul\":38427:38494   */\n      tag_417\n      jump\t// in\n    tag_769:\n        /* \"#utility.yul\":38521:38522   */\n      0x00\n        /* \"#utility.yul\":38545:38549   */\n      0x20\n        /* \"#utility.yul\":38532:38549   */\n      swap1\n      pop\n        /* \"#utility.yul\":38577:38579   */\n      0x1f\n        /* \"#utility.yul\":38569:38575   */\n      dup4\n        /* \"#utility.yul\":38566:38580   */\n      gt\n        /* \"#utility.yul\":38594:38595   */\n      0x01\n        /* \"#utility.yul\":38589:39207   */\n      dup2\n      eq\n      tag_771\n      jumpi\n        /* \"#utility.yul\":39251:39252   */\n      0x00\n        /* \"#utility.yul\":39268:39274   */\n      dup5\n        /* \"#utility.yul\":39265:39342   */\n      iszero\n      tag_772\n      jumpi\n        /* \"#utility.yul\":39317:39326   */\n      dup3\n        /* \"#utility.yul\":39312:39315   */\n      dup8\n        /* \"#utility.yul\":39308:39327   */\n      add\n        /* \"#utility.yul\":39302:39328   */\n      mload\n        /* \"#utility.yul\":39293:39328   */\n      swap1\n      pop\n        /* \"#utility.yul\":39265:39342   */\n    tag_772:\n        /* \"#utility.yul\":39368:39435   */\n      tag_773\n        /* \"#utility.yul\":39428:39434   */\n      dup6\n        /* \"#utility.yul\":39421:39426   */\n      dup3\n        /* \"#utility.yul\":39368:39435   */\n      tag_420\n      jump\t// in\n    tag_773:\n        /* \"#utility.yul\":39362:39366   */\n      dup7\n        /* \"#utility.yul\":39355:39436   */\n      sstore\n        /* \"#utility.yul\":39224:39446   */\n      pop\n        /* \"#utility.yul\":38559:39446   */\n      jump(tag_770)\n        /* \"#utility.yul\":38589:39207   */\n    tag_771:\n        /* \"#utility.yul\":38641:38645   */\n      0x1f\n        /* \"#utility.yul\":38637:38646   */\n      not\n        /* \"#utility.yul\":38629:38635   */\n      dup5\n        /* \"#utility.yul\":38625:38647   */\n      and\n        /* \"#utility.yul\":38675:38712   */\n      tag_774\n        /* \"#utility.yul\":38707:38711   */\n      dup7\n        /* \"#utility.yul\":38675:38712   */\n      tag_406\n      jump\t// in\n    tag_774:\n        /* \"#utility.yul\":38734:38735   */\n      0x00\n        /* \"#utility.yul\":38748:38956   */\n    tag_775:\n        /* \"#utility.yul\":38762:38769   */\n      dup3\n        /* \"#utility.yul\":38759:38760   */\n      dup2\n        /* \"#utility.yul\":38756:38770   */\n      lt\n        /* \"#utility.yul\":38748:38956   */\n      iszero\n      tag_777\n      jumpi\n        /* \"#utility.yul\":38841:38850   */\n      dup5\n        /* \"#utility.yul\":38836:38839   */\n      dup10\n        /* \"#utility.yul\":38832:38851   */\n      add\n        /* \"#utility.yul\":38826:38852   */\n      mload\n        /* \"#utility.yul\":38818:38824   */\n      dup3\n        /* \"#utility.yul\":38811:38853   */\n      sstore\n        /* \"#utility.yul\":38892:38893   */\n      0x01\n        /* \"#utility.yul\":38884:38890   */\n      dup3\n        /* \"#utility.yul\":38880:38894   */\n      add\n        /* \"#utility.yul\":38870:38894   */\n      swap2\n      pop\n        /* \"#utility.yul\":38939:38941   */\n      0x20\n        /* \"#utility.yul\":38928:38937   */\n      dup6\n        /* \"#utility.yul\":38924:38942   */\n      add\n        /* \"#utility.yul\":38911:38942   */\n      swap5\n      pop\n        /* \"#utility.yul\":38785:38789   */\n      0x20\n        /* \"#utility.yul\":38782:38783   */\n      dup2\n        /* \"#utility.yul\":38778:38790   */\n      add\n        /* \"#utility.yul\":38773:38790   */\n      swap1\n      pop\n        /* \"#utility.yul\":38748:38956   */\n      jump(tag_775)\n    tag_777:\n        /* \"#utility.yul\":38984:38990   */\n      dup7\n        /* \"#utility.yul\":38975:38982   */\n      dup4\n        /* \"#utility.yul\":38972:38991   */\n      lt\n        /* \"#utility.yul\":38969:39148   */\n      iszero\n      tag_778\n      jumpi\n        /* \"#utility.yul\":39042:39051   */\n      dup5\n        /* \"#utility.yul\":39037:39040   */\n      dup10\n        /* \"#utility.yul\":39033:39052   */\n      add\n        /* \"#utility.yul\":39027:39053   */\n      mload\n        /* \"#utility.yul\":39085:39133   */\n      tag_779\n        /* \"#utility.yul\":39127:39131   */\n      0x1f\n        /* \"#utility.yul\":39119:39125   */\n      dup10\n        /* \"#utility.yul\":39115:39132   */\n      and\n        /* \"#utility.yul\":39104:39113   */\n      dup3\n        /* \"#utility.yul\":39085:39133   */\n      tag_419\n      jump\t// in\n    tag_779:\n        /* \"#utility.yul\":39077:39083   */\n      dup4\n        /* \"#utility.yul\":39070:39134   */\n      sstore\n        /* \"#utility.yul\":38992:39148   */\n      pop\n        /* \"#utility.yul\":38969:39148   */\n    tag_778:\n        /* \"#utility.yul\":39194:39195   */\n      0x01\n        /* \"#utility.yul\":39190:39191   */\n      0x02\n        /* \"#utility.yul\":39182:39188   */\n      dup9\n        /* \"#utility.yul\":39178:39192   */\n      mul\n        /* \"#utility.yul\":39174:39196   */\n      add\n        /* \"#utility.yul\":39168:39172   */\n      dup9\n        /* \"#utility.yul\":39161:39197   */\n      sstore\n        /* \"#utility.yul\":38596:39207   */\n      pop\n      pop\n      pop\n        /* \"#utility.yul\":38559:39446   */\n    tag_770:\n      pop\n        /* \"#utility.yul\":38149:39452   */\n      pop\n      pop\n      pop\n        /* \"#utility.yul\":38057:39452   */\n      pop\n      pop\n      jump\t// out\n        /* \"#utility.yul\":39458:39636   */\n    tag_421:\n        /* \"#utility.yul\":39598:39628   */\n      0x496e76616c696420616c62756d206f776e657220616464726573732e00000000\n        /* \"#utility.yul\":39594:39595   */\n      0x00\n        /* \"#utility.yul\":39586:39592   */\n      dup3\n        /* \"#utility.yul\":39582:39596   */\n      add\n        /* \"#utility.yul\":39575:39629   */\n      mstore\n        /* \"#utility.yul\":39458:39636   */\n      pop\n      jump\t// out\n        /* \"#utility.yul\":39642:40008   */\n    tag_422:\n        /* \"#utility.yul\":39784:39787   */\n      0x00\n        /* \"#utility.yul\":39805:39872   */\n      tag_782\n        /* \"#utility.yul\":39869:39871   */\n      0x1c\n        /* \"#utility.yul\":39864:39867   */\n      dup4\n        /* \"#utility.yul\":39805:39872   */\n      tag_338\n      jump\t// in\n    tag_782:\n        /* \"#utility.yul\":39798:39872   */\n      swap2\n      pop\n        /* \"#utility.yul\":39881:39974   */\n      tag_783\n        /* \"#utility.yul\":39970:39973   */\n      dup3\n        /* \"#utility.yul\":39881:39974   */\n      tag_421\n      jump\t// in\n    tag_783:\n        /* \"#utility.yul\":39999:40001   */\n      0x20\n        /* \"#utility.yul\":39994:39997   */\n      dup3\n        /* \"#utility.yul\":39990:40002   */\n      add\n        /* \"#utility.yul\":39983:40002   */\n      swap1\n      pop\n        /* \"#utility.yul\":39642:40008   */\n      swap2\n      swap1\n      pop\n      jump\t// out\n        /* \"#utility.yul\":40014:40433   */\n    tag_278:\n        /* \"#utility.yul\":40180:40184   */\n      0x00\n        /* \"#utility.yul\":40218:40220   */\n      0x20\n        /* \"#utility.yul\":40207:40216   */\n      dup3\n        /* \"#utility.yul\":40203:40221   */\n      add\n        /* \"#utility.yul\":40195:40221   */\n      swap1\n      pop\n        /* \"#utility.yul\":40267:40276   */\n      dup2\n        /* \"#utility.yul\":40261:40265   */\n      dup2\n        /* \"#utility.yul\":40257:40277   */\n      sub\n        /* \"#utility.yul\":40253:40254   */\n      0x00\n        /* \"#utility.yul\":40242:40251   */\n      dup4\n        /* \"#utility.yul\":40238:40255   */\n      add\n        /* \"#utility.yul\":40231:40278   */\n      mstore\n        /* \"#utility.yul\":40295:40426   */\n      tag_785\n        /* \"#utility.yul\":40421:40425   */\n      dup2\n        /* \"#utility.yul\":40295:40426   */\n      tag_422\n      jump\t// in\n    tag_785:\n        /* \"#utility.yul\":40287:40426   */\n      swap1\n      pop\n        /* \"#utility.yul\":40014:40433   */\n      swap2\n      swap1\n      pop\n      jump\t// out\n        /* \"#utility.yul\":40439:41698   */\n    tag_294:\n        /* \"#utility.yul\":40812:40816   */\n      0x00\n        /* \"#utility.yul\":40850:40853   */\n      0xc0\n        /* \"#utility.yul\":40839:40848   */\n      dup3\n        /* \"#utility.yul\":40835:40854   */\n      add\n        /* \"#utility.yul\":40827:40854   */\n      swap1\n      pop\n        /* \"#utility.yul\":40900:40909   */\n      dup2\n        /* \"#utility.yul\":40894:40898   */\n      dup2\n        /* \"#utility.yul\":40890:40910   */\n      sub\n        /* \"#utility.yul\":40886:40887   */\n      0x00\n        /* \"#utility.yul\":40875:40884   */\n      dup4\n        /* \"#utility.yul\":40871:40888   */\n      add\n        /* \"#utility.yul\":40864:40911   */\n      mstore\n        /* \"#utility.yul\":40928:41006   */\n      tag_787\n        /* \"#utility.yul\":41001:41005   */\n      dup2\n        /* \"#utility.yul\":40992:40998   */\n      dup10\n        /* \"#utility.yul\":40928:41006   */\n      tag_341\n      jump\t// in\n    tag_787:\n        /* \"#utility.yul\":40920:41006   */\n      swap1\n      pop\n        /* \"#utility.yul\":41053:41062   */\n      dup2\n        /* \"#utility.yul\":41047:41051   */\n      dup2\n        /* \"#utility.yul\":41043:41063   */\n      sub\n        /* \"#utility.yul\":41038:41040   */\n      0x20\n        /* \"#utility.yul\":41027:41036   */\n      dup4\n        /* \"#utility.yul\":41023:41041   */\n      add\n        /* \"#utility.yul\":41016:41064   */\n      mstore\n        /* \"#utility.yul\":41081:41159   */\n      tag_788\n        /* \"#utility.yul\":41154:41158   */\n      dup2\n        /* \"#utility.yul\":41145:41151   */\n      dup9\n        /* \"#utility.yul\":41081:41159   */\n      tag_341\n      jump\t// in\n    tag_788:\n        /* \"#utility.yul\":41073:41159   */\n      swap1\n      pop\n        /* \"#utility.yul\":41206:41215   */\n      dup2\n        /* \"#utility.yul\":41200:41204   */\n      dup2\n        /* \"#utility.yul\":41196:41216   */\n      sub\n        /* \"#utility.yul\":41191:41193   */\n      0x40\n        /* \"#utility.yul\":41180:41189   */\n      dup4\n        /* \"#utility.yul\":41176:41194   */\n      add\n        /* \"#utility.yul\":41169:41217   */\n      mstore\n        /* \"#utility.yul\":41234:41342   */\n      tag_789\n        /* \"#utility.yul\":41337:41341   */\n      dup2\n        /* \"#utility.yul\":41328:41334   */\n      dup8\n        /* \"#utility.yul\":41234:41342   */\n      tag_363\n      jump\t// in\n    tag_789:\n        /* \"#utility.yul\":41226:41342   */\n      swap1\n      pop\n        /* \"#utility.yul\":41389:41398   */\n      dup2\n        /* \"#utility.yul\":41383:41387   */\n      dup2\n        /* \"#utility.yul\":41379:41399   */\n      sub\n        /* \"#utility.yul\":41374:41376   */\n      0x60\n        /* \"#utility.yul\":41363:41372   */\n      dup4\n        /* \"#utility.yul\":41359:41377   */\n      add\n        /* \"#utility.yul\":41352:41400   */\n      mstore\n        /* \"#utility.yul\":41417:41525   */\n      tag_790\n        /* \"#utility.yul\":41520:41524   */\n      dup2\n        /* \"#utility.yul\":41511:41517   */\n      dup7\n        /* \"#utility.yul\":41417:41525   */\n      tag_363\n      jump\t// in\n    tag_790:\n        /* \"#utility.yul\":41409:41525   */\n      swap1\n      pop\n        /* \"#utility.yul\":41535:41608   */\n      tag_791\n        /* \"#utility.yul\":41603:41606   */\n      0x80\n        /* \"#utility.yul\":41592:41601   */\n      dup4\n        /* \"#utility.yul\":41588:41607   */\n      add\n        /* \"#utility.yul\":41579:41585   */\n      dup6\n        /* \"#utility.yul\":41535:41608   */\n      tag_355\n      jump\t// in\n    tag_791:\n        /* \"#utility.yul\":41618:41691   */\n      tag_792\n        /* \"#utility.yul\":41686:41689   */\n      0xa0\n        /* \"#utility.yul\":41675:41684   */\n      dup4\n        /* \"#utility.yul\":41671:41690   */\n      add\n        /* \"#utility.yul\":41662:41668   */\n      dup5\n        /* \"#utility.yul\":41618:41691   */\n      tag_355\n      jump\t// in\n    tag_792:\n        /* \"#utility.yul\":40439:41698   */\n      swap8\n      swap7\n      pop\n      pop\n      pop\n      pop\n      pop\n      pop\n      pop\n      jump\t// out\n        /* \"#utility.yul\":41704:42114   */\n    tag_297:\n        /* \"#utility.yul\":41744:41751   */\n      0x00\n        /* \"#utility.yul\":41767:41787   */\n      tag_794\n        /* \"#utility.yul\":41785:41786   */\n      dup3\n        /* \"#utility.yul\":41767:41787   */\n      tag_334\n      jump\t// in\n    tag_794:\n        /* \"#utility.yul\":41762:41787   */\n      swap2\n      pop\n        /* \"#utility.yul\":41801:41821   */\n      tag_795\n        /* \"#utility.yul\":41819:41820   */\n      dup4\n        /* \"#utility.yul\":41801:41821   */\n      tag_334\n      jump\t// in\n    tag_795:\n        /* \"#utility.yul\":41796:41821   */\n      swap3\n      pop\n        /* \"#utility.yul\":41856:41857   */\n      dup3\n        /* \"#utility.yul\":41853:41854   */\n      dup3\n        /* \"#utility.yul\":41849:41858   */\n      mul\n        /* \"#utility.yul\":41878:41908   */\n      tag_796\n        /* \"#utility.yul\":41896:41907   */\n      dup2\n        /* \"#utility.yul\":41878:41908   */\n      tag_334\n      jump\t// in\n    tag_796:\n        /* \"#utility.yul\":41867:41908   */\n      swap2\n      pop\n        /* \"#utility.yul\":42057:42058   */\n      dup3\n        /* \"#utility.yul\":42048:42055   */\n      dup3\n        /* \"#utility.yul\":42044:42059   */\n      div\n        /* \"#utility.yul\":42041:42042   */\n      dup5\n        /* \"#utility.yul\":42038:42060   */\n      eq\n        /* \"#utility.yul\":42018:42019   */\n      dup4\n        /* \"#utility.yul\":42011:42020   */\n      iszero\n        /* \"#utility.yul\":41991:42074   */\n      or\n        /* \"#utility.yul\":41968:42107   */\n      tag_797\n      jumpi\n        /* \"#utility.yul\":42087:42105   */\n      tag_798\n      tag_393\n      jump\t// in\n    tag_798:\n        /* \"#utility.yul\":41968:42107   */\n    tag_797:\n        /* \"#utility.yul\":41752:42114   */\n      pop\n        /* \"#utility.yul\":41704:42114   */\n      swap3\n      swap2\n      pop\n      pop\n      jump\t// out\n        /* \"#utility.yul\":42120:42300   */\n    tag_423:\n        /* \"#utility.yul\":42168:42245   */\n      0x4e487b7100000000000000000000000000000000000000000000000000000000\n        /* \"#utility.yul\":42165:42166   */\n      0x00\n        /* \"#utility.yul\":42158:42246   */\n      mstore\n        /* \"#utility.yul\":42265:42269   */\n      0x12\n        /* \"#utility.yul\":42262:42263   */\n      0x04\n        /* \"#utility.yul\":42255:42270   */\n      mstore\n        /* \"#utility.yul\":42289:42293   */\n      0x24\n        /* \"#utility.yul\":42286:42287   */\n      0x00\n        /* \"#utility.yul\":42279:42294   */\n      revert\n        /* \"#utility.yul\":42306:42491   */\n    tag_299:\n        /* \"#utility.yul\":42346:42347   */\n      0x00\n        /* \"#utility.yul\":42363:42383   */\n      tag_801\n        /* \"#utility.yul\":42381:42382   */\n      dup3\n        /* \"#utility.yul\":42363:42383   */\n      tag_334\n      jump\t// in\n    tag_801:\n        /* \"#utility.yul\":42358:42383   */\n      swap2\n      pop\n        /* \"#utility.yul\":42397:42417   */\n      tag_802\n        /* \"#utility.yul\":42415:42416   */\n      dup4\n        /* \"#utility.yul\":42397:42417   */\n      tag_334\n      jump\t// in\n    tag_802:\n        /* \"#utility.yul\":42392:42417   */\n      swap3\n      pop\n        /* \"#utility.yul\":42436:42437   */\n      dup3\n        /* \"#utility.yul\":42426:42461   */\n      tag_803\n      jumpi\n        /* \"#utility.yul\":42441:42459   */\n      tag_804\n      tag_423\n      jump\t// in\n    tag_804:\n        /* \"#utility.yul\":42426:42461   */\n    tag_803:\n        /* \"#utility.yul\":42483:42484   */\n      dup3\n        /* \"#utility.yul\":42480:42481   */\n      dup3\n        /* \"#utility.yul\":42476:42485   */\n      div\n        /* \"#utility.yul\":42471:42485   */\n      swap1\n      pop\n        /* \"#utility.yul\":42306:42491   */\n      swap3\n      swap2\n      pop\n      pop\n      jump\t// out\n        /* \"#utility.yul\":42497:42939   */\n    tag_303:\n        /* \"#utility.yul\":42646:42650   */\n      0x00\n        /* \"#utility.yul\":42684:42686   */\n      0x60\n        /* \"#utility.yul\":42673:42682   */\n      dup3\n        /* \"#utility.yul\":42669:42687   */\n      add\n        /* \"#utility.yul\":42661:42687   */\n      swap1\n      pop\n        /* \"#utility.yul\":42697:42768   */\n      tag_806\n        /* \"#utility.yul\":42765:42766   */\n      0x00\n        /* \"#utility.yul\":42754:42763   */\n      dup4\n        /* \"#utility.yul\":42750:42767   */\n      add\n        /* \"#utility.yul\":42741:42747   */\n      dup7\n        /* \"#utility.yul\":42697:42768   */\n      tag_356\n      jump\t// in\n    tag_806:\n        /* \"#utility.yul\":42778:42850   */\n      tag_807\n        /* \"#utility.yul\":42846:42848   */\n      0x20\n        /* \"#utility.yul\":42835:42844   */\n      dup4\n        /* \"#utility.yul\":42831:42849   */\n      add\n        /* \"#utility.yul\":42822:42828   */\n      dup6\n        /* \"#utility.yul\":42778:42850   */\n      tag_356\n      jump\t// in\n    tag_807:\n        /* \"#utility.yul\":42860:42932   */\n      tag_808\n        /* \"#utility.yul\":42928:42930   */\n      0x40\n        /* \"#utility.yul\":42917:42926   */\n      dup4\n        /* \"#utility.yul\":42913:42931   */\n      add\n        /* \"#utility.yul\":42904:42910   */\n      dup5\n        /* \"#utility.yul\":42860:42932   */\n      tag_355\n      jump\t// in\n    tag_808:\n        /* \"#utility.yul\":42497:42939   */\n      swap5\n      swap4\n      pop\n      pop\n      pop\n      pop\n      jump\t// out\n        /* \"#utility.yul\":42945:43126   */\n    tag_424:\n        /* \"#utility.yul\":43085:43118   */\n      0x506c6174666f726d207368617265207472616e73666572206661696c65642e00\n        /* \"#utility.yul\":43081:43082   */\n      0x00\n        /* \"#utility.yul\":43073:43079   */\n      dup3\n        /* \"#utility.yul\":43069:43083   */\n      add\n        /* \"#utility.yul\":43062:43119   */\n      mstore\n        /* \"#utility.yul\":42945:43126   */\n      pop\n      jump\t// out\n        /* \"#utility.yul\":43132:43498   */\n    tag_425:\n        /* \"#utility.yul\":43274:43277   */\n      0x00\n        /* \"#utility.yul\":43295:43362   */\n      tag_811\n        /* \"#utility.yul\":43359:43361   */\n      0x1f\n        /* \"#utility.yul\":43354:43357   */\n      dup4\n        /* \"#utility.yul\":43295:43362   */\n      tag_338\n      jump\t// in\n    tag_811:\n        /* \"#utility.yul\":43288:43362   */\n      swap2\n      pop\n        /* \"#utility.yul\":43371:43464   */\n      tag_812\n        /* \"#utility.yul\":43460:43463   */\n      dup3\n        /* \"#utility.yul\":43371:43464   */\n      tag_424\n      jump\t// in\n    tag_812:\n        /* \"#utility.yul\":43489:43491   */\n      0x20\n        /* \"#utility.yul\":43484:43487   */\n      dup3\n        /* \"#utility.yul\":43480:43492   */\n      add\n        /* \"#utility.yul\":43473:43492   */\n      swap1\n      pop\n        /* \"#utility.yul\":43132:43498   */\n      swap2\n      swap1\n      pop\n      jump\t// out\n        /* \"#utility.yul\":43504:43923   */\n    tag_309:\n        /* \"#utility.yul\":43670:43674   */\n      0x00\n        /* \"#utility.yul\":43708:43710   */\n      0x20\n        /* \"#utility.yul\":43697:43706   */\n      dup3\n        /* \"#utility.yul\":43693:43711   */\n      add\n        /* \"#utility.yul\":43685:43711   */\n      swap1\n      pop\n        /* \"#utility.yul\":43757:43766   */\n      dup2\n        /* \"#utility.yul\":43751:43755   */\n      dup2\n        /* \"#utility.yul\":43747:43767   */\n      sub\n        /* \"#utility.yul\":43743:43744   */\n      0x00\n        /* \"#utility.yul\":43732:43741   */\n      dup4\n        /* \"#utility.yul\":43728:43745   */\n      add\n        /* \"#utility.yul\":43721:43768   */\n      mstore\n        /* \"#utility.yul\":43785:43916   */\n      tag_814\n        /* \"#utility.yul\":43911:43915   */\n      dup2\n        /* \"#utility.yul\":43785:43916   */\n      tag_425\n      jump\t// in\n    tag_814:\n        /* \"#utility.yul\":43777:43916   */\n      swap1\n      pop\n        /* \"#utility.yul\":43504:43923   */\n      swap2\n      swap1\n      pop\n      jump\t// out\n        /* \"#utility.yul\":43929:44107   */\n    tag_426:\n        /* \"#utility.yul\":44069:44099   */\n      0x4f776e6572207368617265207472616e73666572206661696c65642e00000000\n        /* \"#utility.yul\":44065:44066   */\n      0x00\n        /* \"#utility.yul\":44057:44063   */\n      dup3\n        /* \"#utility.yul\":44053:44067   */\n      add\n        /* \"#utility.yul\":44046:44100   */\n      mstore\n        /* \"#utility.yul\":43929:44107   */\n      pop\n      jump\t// out\n        /* \"#utility.yul\":44113:44479   */\n    tag_427:\n        /* \"#utility.yul\":44255:44258   */\n      0x00\n        /* \"#utility.yul\":44276:44343   */\n      tag_817\n        /* \"#utility.yul\":44340:44342   */\n      0x1c\n        /* \"#utility.yul\":44335:44338   */\n      dup4\n        /* \"#utility.yul\":44276:44343   */\n      tag_338\n      jump\t// in\n    tag_817:\n        /* \"#utility.yul\":44269:44343   */\n      swap2\n      pop\n        /* \"#utility.yul\":44352:44445   */\n      tag_818\n        /* \"#utility.yul\":44441:44444   */\n      dup3\n        /* \"#utility.yul\":44352:44445   */\n      tag_426\n      jump\t// in\n    tag_818:\n        /* \"#utility.yul\":44470:44472   */\n      0x20\n        /* \"#utility.yul\":44465:44468   */\n      dup3\n        /* \"#utility.yul\":44461:44473   */\n      add\n        /* \"#utility.yul\":44454:44473   */\n      swap1\n      pop\n        /* \"#utility.yul\":44113:44479   */\n      swap2\n      swap1\n      pop\n      jump\t// out\n        /* \"#utility.yul\":44485:44904   */\n    tag_321:\n        /* \"#utility.yul\":44651:44655   */\n      0x00\n        /* \"#utility.yul\":44689:44691   */\n      0x20\n        /* \"#utility.yul\":44678:44687   */\n      dup3\n        /* \"#utility.yul\":44674:44692   */\n      add\n        /* \"#utility.yul\":44666:44692   */\n      swap1\n      pop\n        /* \"#utility.yul\":44738:44747   */\n      dup2\n        /* \"#utility.yul\":44732:44736   */\n      dup2\n        /* \"#utility.yul\":44728:44748   */\n      sub\n        /* \"#utility.yul\":44724:44725   */\n      0x00\n        /* \"#utility.yul\":44713:44722   */\n      dup4\n        /* \"#utility.yul\":44709:44726   */\n      add\n        /* \"#utility.yul\":44702:44749   */\n      mstore\n        /* \"#utility.yul\":44766:44897   */\n      tag_820\n        /* \"#utility.yul\":44892:44896   */\n      dup2\n        /* \"#utility.yul\":44766:44897   */\n      tag_427\n      jump\t// in\n    tag_820:\n        /* \"#utility.yul\":44758:44897   */\n      swap1\n      pop\n        /* \"#utility.yul\":44485:44904   */\n      swap2\n      swap1\n      pop\n      jump\t// out\n\n    auxdata: 0xa26469706673582212209e9e86464be1fbf944d03bc46742e0e6298080cf97edc2616b4ed5bba1c484c364736f6c634300081a0033\n}\n",
				"bytecode": {
					"linkReferences": {},
					"object": "6080604052670de0b6b3a7640000600155348015601a575f80fd5b50335f806101000a81548173ffffffffffffffffffffffffffffffffffffffff021916908373ffffffffffffffffffffffffffffffffffffffff1602179055506134cf806100675f395ff3fe6080604052600436106100e7575f3560e01c80639e281a9811610089578063e5421c8211610058578063e5421c82146102bf578063f3025b48146102ff578063f576784914610329578063f8ac7b4414610353576100e7565b80639e281a981461021f578063b0b22c2c14610247578063b120662e1461026f578063e3c5c2a914610297576100e7565b8063476343ee116100c5578063476343ee1461018d5780636c463ecc146101a35780638da5cb5b146101cb5780639003adfe146101f5576100e7565b806332aeb67b146100eb5780633878ea70146101275780633936d48d1461014f575b5f80fd5b3480156100f6575f80fd5b50610111600480360381019061010c9190611ea5565b61036f565b60405161011e9190611f40565b60405180910390f35b348015610132575f80fd5b5061014d600480360381019061014891906120e6565b610462565b005b34801561015a575f80fd5b5061017560048036038101906101709190612152565b610714565b604051610184939291906121a8565b60405180910390f35b348015610198575f80fd5b506101a16107d8565b005b3480156101ae575f80fd5b506101c960048036038101906101c491906121e4565b610945565b005b3480156101d6575f80fd5b506101df610bf4565b6040516101ec919061224d565b60405180910390f35b348015610200575f80fd5b50610209610c17565b6040516102169190612266565b60405180910390f35b34801561022a575f80fd5b506102456004803603810190610240919061227f565b610c1d565b005b348015610252575f80fd5b5061026d600480360381019061026891906121e4565b610e46565b005b34801561027a575f80fd5b5061029560048036038101906102909190611ea5565b611084565b005b3480156102a2575f80fd5b506102bd60048036038101906102b891906121e4565b61111b565b005b3480156102ca575f80fd5b506102e560048036038101906102e09190612152565b611471565b6040516102f6959493929190612374565b60405180910390f35b34801561030a575f80fd5b506103136116a7565b6040516103209190612266565b60405180910390f35b348015610334575f80fd5b5061033d6116ad565b60405161034a9190612266565b60405180910390f35b61036d6004803603810190610368919061249e565b6116b9565b005b606060048054905082106103b8576040517f08c379a00000000000000000000000000000000000000000000000000000000081526004016103af906125e1565b60405180910390fd5b600482815481106103cc576103cb6125ff565b5b905f5260205f200180546103df90612659565b80601f016020809104026020016040519081016040528092919081815260200182805461040b90612659565b80156104565780601f1061042d57610100808354040283529160200191610456565b820191905f5260205f20905b81548152906001019060200180831161043957829003601f168201915b50505050509050919050565b5f60038460405161047391906126c3565b908152602001604051809103902090505f815f01805461049290612659565b9050116104d4576040517f08c379a00000000000000000000000000000000000000000000000000000000081526004016104cb90612723565b60405180910390fd5b806005015f8373ffffffffffffffffffffffffffffffffffffffff1673ffffffffffffffffffffffffffffffffffffffff1681526020019081526020015f205f9054906101000a900460ff1661055f576040517f08c379a0000000000000000000000000000000000000000000000000000000008152600401610556906127b1565b60405180910390fd5b5f82905081600301548173ffffffffffffffffffffffffffffffffffffffff166370a08231336040518263ffffffff1660e01b81526004016105a1919061224d565b602060405180830381865afa1580156105bc573d5f803e3d5ffd5b505050506040513d601f19601f820116820180604052508101906105e091906127e3565b1015610621576040517f08c379a000000000000000000000000000000000000000000000000000000000815260040161061890612858565b60405180910390fd5b6106b5838360030154846001018054806020026020016040519081016040528092919081815260200182805480156106ab57602002820191905f5260205f20905b815f9054906101000a900473ffffffffffffffffffffffffffffffffffffffff1673ffffffffffffffffffffffffffffffffffffffff1681526020019060010190808311610662575b5050505050611ba7565b3373ffffffffffffffffffffffffffffffffffffffff167fb53ed8f15802aa36dffcba6be380a339237c5544765d530961f58e0ce4ccdb8186868686600301546040516107059493929190612876565b60405180910390a25050505050565b6003818051602081018201805184825260208301602085012081835280955050505050505f91509050805f01805461074b90612659565b80601f016020809104026020016040519081016040528092919081815260200182805461077790612659565b80156107c25780601f10610799576101008083540402835291602001916107c2565b820191905f5260205f20905b8154815290600101906020018083116107a557829003601f168201915b5050505050908060030154908060040154905083565b5f8054906101000a900473ffffffffffffffffffffffffffffffffffffffff1673ffffffffffffffffffffffffffffffffffffffff163373ffffffffffffffffffffffffffffffffffffffff1614610865576040517f08c379a000000000000000000000000000000000000000000000000000000000815260040161085c90612930565b60405180910390fd5b5f60025490505f6002819055505f8054906101000a900473ffffffffffffffffffffffffffffffffffffffff1673ffffffffffffffffffffffffffffffffffffffff166108fc8290811502906040515f60405180830381858888f193505050501580156108d4573d5f803e3d5ffd5b505f8054906101000a900473ffffffffffffffffffffffffffffffffffffffff1673ffffffffffffffffffffffffffffffffffffffff167f7fcf532c15f0a6db0bd6d0e038bea71d30d808c7d98cb3bf7268a95bf5081b658260405161093a9190612266565b60405180910390a250565b5f60038360405161095691906126c3565b908152602001604051809103902090505f815f01805461097590612659565b9050116109b7576040517f08c379a00000000000000000000000000000000000000000000000000000000081526004016109ae90612723565b60405180910390fd5b806005015f8373ffffffffffffffffffffffffffffffffffffffff1673ffffffffffffffffffffffffffffffffffffffff1681526020019081526020015f205f9054906101000a900460ff16610a42576040517f08c379a0000000000000000000000000000000000000000000000000000000008152600401610a39906127b1565b60405180910390fd5b5f82905081600401548173ffffffffffffffffffffffffffffffffffffffff166370a08231336040518263ffffffff1660e01b8152600401610a84919061224d565b602060405180830381865afa158015610a9f573d5f803e3d5ffd5b505050506040513d601f19601f82011682018060405250810190610ac391906127e3565b1015610b04576040517f08c379a0000000000000000000000000000000000000000000000000000000008152600401610afb90612858565b60405180910390fd5b610b9883836004015484600101805480602002602001604051908101604052809291908181526020018280548015610b8e57602002820191905f5260205f20905b815f9054906101000a900473ffffffffffffffffffffffffffffffffffffffff1673ffffffffffffffffffffffffffffffffffffffff1681526020019060010190808311610b45575b5050505050611ba7565b3373ffffffffffffffffffffffffffffffffffffffff167fa3380e26e795e8b011218106540ac41c35ea93f383c2259d0834693381025e4c85858560040154604051610be69392919061294e565b60405180910390a250505050565b5f8054906101000a900473ffffffffffffffffffffffffffffffffffffffff1681565b60025481565b5f8054906101000a900473ffffffffffffffffffffffffffffffffffffffff1673ffffffffffffffffffffffffffffffffffffffff163373ffffffffffffffffffffffffffffffffffffffff1614610caa576040517f08c379a0000000000000000000000000000000000000000000000000000000008152600401610ca190612930565b60405180910390fd5b5f829050818173ffffffffffffffffffffffffffffffffffffffff166370a08231306040518263ffffffff1660e01b8152600401610ce8919061224d565b602060405180830381865afa158015610d03573d5f803e3d5ffd5b505050506040513d601f19601f82011682018060405250810190610d2791906127e3565b1015610d68576040517f08c379a0000000000000000000000000000000000000000000000000000000008152600401610d5f90612858565b60405180910390fd5b8073ffffffffffffffffffffffffffffffffffffffff1663a9059cbb5f8054906101000a900473ffffffffffffffffffffffffffffffffffffffff16846040518363ffffffff1660e01b8152600401610dc292919061298a565b6020604051808303815f875af1158015610dde573d5f803e3d5ffd5b505050506040513d601f19601f82011682018060405250810190610e0291906129e6565b610e41576040517f08c379a0000000000000000000000000000000000000000000000000000000008152600401610e3890612a5b565b60405180910390fd5b505050565b5f600383604051610e5791906126c3565b908152602001604051809103902090505f815f018054610e7690612659565b905011610eb8576040517f08c379a0000000000000000000000000000000000000000000000000000000008152600401610eaf90612723565b60405180910390fd5b610ec28333611d9a565b610f01576040517f08c379a0000000000000000000000000000000000000000000000000000000008152600401610ef890612ae9565b60405180910390fd5b806005015f8373ffffffffffffffffffffffffffffffffffffffff1673ffffffffffffffffffffffffffffffffffffffff1681526020019081526020015f205f9054906101000a900460ff1615610f8d576040517f08c379a0000000000000000000000000000000000000000000000000000000008152600401610f8490612b51565b60405180910390fd5b8060020182908060018154018082558091505060019003905f5260205f20015f9091909190916101000a81548173ffffffffffffffffffffffffffffffffffffffff021916908373ffffffffffffffffffffffffffffffffffffffff1602179055506001816005015f8473ffffffffffffffffffffffffffffffffffffffff1673ffffffffffffffffffffffffffffffffffffffff1681526020019081526020015f205f6101000a81548160ff0219169083151502179055507f6d97a31531bdb3c43d920bc996ec8b9fd7733f5f55a81cd74700f88631fc60328383604051611077929190612b6f565b60405180910390a1505050565b5f8054906101000a900473ffffffffffffffffffffffffffffffffffffffff1673ffffffffffffffffffffffffffffffffffffffff163373ffffffffffffffffffffffffffffffffffffffff1614611111576040517f08c379a000000000000000000000000000000000000000000000000000000000815260040161110890612930565b60405180910390fd5b8060018190555050565b5f60038360405161112c91906126c3565b908152602001604051809103902090505f815f01805461114b90612659565b90501161118d576040517f08c379a000000000000000000000000000000000000000000000000000000000815260040161118490612723565b60405180910390fd5b6111978333611d9a565b6111d6576040517f08c379a00000000000000000000000000000000000000000000000000000000081526004016111cd90612ae9565b60405180910390fd5b806005015f8373ffffffffffffffffffffffffffffffffffffffff1673ffffffffffffffffffffffffffffffffffffffff1681526020019081526020015f205f9054906101000a900460ff16611261576040517f08c379a000000000000000000000000000000000000000000000000000000000815260040161125890612be7565b60405180910390fd5b5f816005015f8473ffffffffffffffffffffffffffffffffffffffff1673ffffffffffffffffffffffffffffffffffffffff1681526020019081526020015f205f6101000a81548160ff0219169083151502179055505f8160020190505f5b8180549050811015611431578373ffffffffffffffffffffffffffffffffffffffff168282815481106112f6576112f56125ff565b5b905f5260205f20015f9054906101000a900473ffffffffffffffffffffffffffffffffffffffff1673ffffffffffffffffffffffffffffffffffffffff160361142457816001838054905061134b9190612c32565b8154811061135c5761135b6125ff565b5b905f5260205f20015f9054906101000a900473ffffffffffffffffffffffffffffffffffffffff16828281548110611397576113966125ff565b5b905f5260205f20015f6101000a81548173ffffffffffffffffffffffffffffffffffffffff021916908373ffffffffffffffffffffffffffffffffffffffff160217905550818054806113ed576113ec612c65565b5b600190038181905f5260205f20015f6101000a81549073ffffffffffffffffffffffffffffffffffffffff02191690559055611431565b80806001019150506112c0565b507f1adb68f0a540855cafa9d341c1e94a36fa13b8a15ff602507addfe49c0f018d18484604051611463929190612b6f565b60405180910390a150505050565b60608060605f805f60038760405161148991906126c3565b908152602001604051809103902090505f815f0180546114a890612659565b9050116114ea576040517f08c379a00000000000000000000000000000000000000000000000000000000081526004016114e190612723565b60405180910390fd5b805f0181600101826002018360030154846004015484805461150b90612659565b80601f016020809104026020016040519081016040528092919081815260200182805461153790612659565b80156115825780601f1061155957610100808354040283529160200191611582565b820191905f5260205f20905b81548152906001019060200180831161156557829003601f168201915b505050505094508380548060200260200160405190810160405280929190818152602001828054801561160757602002820191905f5260205f20905b815f9054906101000a900473ffffffffffffffffffffffffffffffffffffffff1673ffffffffffffffffffffffffffffffffffffffff16815260200190600101908083116115be575b505050505093508280548060200260200160405190810160405280929190818152602001828054801561168c57602002820191905f5260205f20905b815f9054906101000a900473ffffffffffffffffffffffffffffffffffffffff1673ffffffffffffffffffffffffffffffffffffffff1681526020019060010190808311611643575b50505050509250955095509550955095505091939590929450565b60015481565b5f600480549050905090565b6001543410156116fe576040517f08c379a00000000000000000000000000000000000000000000000000000000081526004016116f590612d02565b60405180910390fd5b5f865111611741576040517f08c379a000000000000000000000000000000000000000000000000000000000815260040161173890612d6a565b60405180910390fd5b5f855111611784576040517f08c379a000000000000000000000000000000000000000000000000000000000815260040161177b90612dd2565b60405180910390fd5b5f8451116117c7576040517f08c379a00000000000000000000000000000000000000000000000000000000081526004016117be90612e60565b60405180910390fd5b5f83511161180a576040517f08c379a000000000000000000000000000000000000000000000000000000000815260040161180190612eee565b60405180910390fd5b3460025f82825461181b9190612f0c565b925050819055505f60038760405161183391906126c3565b908152602001604051809103902090505f815f01805461185290612659565b905014611894576040517f08c379a000000000000000000000000000000000000000000000000000000000815260040161188b90612f89565b60405180910390fd5b85815f0190816118a49190613144565b508281600301819055508181600401819055505f5b85518110156119d3575f73ffffffffffffffffffffffffffffffffffffffff168682815181106118ec576118eb6125ff565b5b602002602001015173ffffffffffffffffffffffffffffffffffffffff160361194a576040517f08c379a00000000000000000000000000000000000000000000000000000000081526004016119419061325d565b60405180910390fd5b81600101868281518110611961576119606125ff565b5b6020026020010151908060018154018082558091505060019003905f5260205f20015f9091909190916101000a81548173ffffffffffffffffffffffffffffffffffffffff021916908373ffffffffffffffffffffffffffffffffffffffff16021790555080806001019150506118b9565b505f5b8451811015611ac4575f8582815181106119f3576119f26125ff565b5b602002602001015190508260020181908060018154018082558091505060019003905f5260205f20015f9091909190916101000a81548173ffffffffffffffffffffffffffffffffffffffff021916908373ffffffffffffffffffffffffffffffffffffffff1602179055506001836005015f8373ffffffffffffffffffffffffffffffffffffffff1673ffffffffffffffffffffffffffffffffffffffff1681526020019081526020015f205f6101000a81548160ff0219169083151502179055505080806001019150506119d6565b50600587604051611ad591906126c3565b90815260200160405180910390205f9054906101000a900460ff16611b5d57600487908060018154018082558091505060019003905f5260205f20015f909190919091509081611b259190613144565b506001600588604051611b3891906126c3565b90815260200160405180910390205f6101000a81548160ff0219169083151502179055505b7f48ca2be04c170673333be95535f657bd93ff950e43dbc555a86bc66af5335b5e878787878787604051611b969695949392919061327b565b60405180910390a150505050505050565b5f8390505f6064600a85611bbb91906132f6565b611bc59190613364565b90505f8185611bd49190612c32565b90505f845182611be49190613364565b90508373ffffffffffffffffffffffffffffffffffffffff166323b872dd3330866040518463ffffffff1660e01b8152600401611c2393929190613394565b6020604051808303815f875af1158015611c3f573d5f803e3d5ffd5b505050506040513d601f19601f82011682018060405250810190611c6391906129e6565b611ca2576040517f08c379a0000000000000000000000000000000000000000000000000000000008152600401611c9990613413565b60405180910390fd5b5f5b8551811015611d90578473ffffffffffffffffffffffffffffffffffffffff166323b872dd33888481518110611cdd57611cdc6125ff565b5b6020026020010151856040518463ffffffff1660e01b8152600401611d0493929190613394565b6020604051808303815f875af1158015611d20573d5f803e3d5ffd5b505050506040513d601f19601f82011682018060405250810190611d4491906129e6565b611d83576040517f08c379a0000000000000000000000000000000000000000000000000000000008152600401611d7a9061347b565b60405180910390fd5b8080600101915050611ca4565b5050505050505050565b5f80600384604051611dac91906126c3565b908152602001604051809103902090505f5b8160010180549050811015611e55578373ffffffffffffffffffffffffffffffffffffffff16826001018281548110611dfa57611df96125ff565b5b905f5260205f20015f9054906101000a900473ffffffffffffffffffffffffffffffffffffffff1673ffffffffffffffffffffffffffffffffffffffff1603611e4857600192505050611e5b565b8080600101915050611dbe565b505f9150505b92915050565b5f604051905090565b5f80fd5b5f80fd5b5f819050919050565b611e8481611e72565b8114611e8e575f80fd5b50565b5f81359050611e9f81611e7b565b92915050565b5f60208284031215611eba57611eb9611e6a565b5b5f611ec784828501611e91565b91505092915050565b5f81519050919050565b5f82825260208201905092915050565b8281835e5f83830152505050565b5f601f19601f8301169050919050565b5f611f1282611ed0565b611f1c8185611eda565b9350611f2c818560208601611eea565b611f3581611ef8565b840191505092915050565b5f6020820190508181035f830152611f588184611f08565b905092915050565b5f80fd5b5f80fd5b7f4e487b71000000000000000000000000000000000000000000000000000000005f52604160045260245ffd5b611f9e82611ef8565b810181811067ffffffffffffffff82111715611fbd57611fbc611f68565b5b80604052505050565b5f611fcf611e61565b9050611fdb8282611f95565b919050565b5f67ffffffffffffffff821115611ffa57611ff9611f68565b5b61200382611ef8565b9050602081019050919050565b828183375f83830152505050565b5f61203061202b84611fe0565b611fc6565b90508281526020810184848401111561204c5761204b611f64565b5b612057848285612010565b509392505050565b5f82601f83011261207357612072611f60565b5b813561208384826020860161201e565b91505092915050565b5f73ffffffffffffffffffffffffffffffffffffffff82169050919050565b5f6120b58261208c565b9050919050565b6120c5816120ab565b81146120cf575f80fd5b50565b5f813590506120e0816120bc565b92915050565b5f805f606084860312156120fd576120fc611e6a565b5b5f84013567ffffffffffffffff81111561211a57612119611e6e565b5b6121268682870161205f565b935050602061213786828701611e91565b9250506040612148868287016120d2565b9150509250925092565b5f6020828403121561216757612166611e6a565b5b5f82013567ffffffffffffffff81111561218457612183611e6e565b5b6121908482850161205f565b91505092915050565b6121a281611e72565b82525050565b5f6060820190508181035f8301526121c08186611f08565b90506121cf6020830185612199565b6121dc6040830184612199565b949350505050565b5f80604083850312156121fa576121f9611e6a565b5b5f83013567ffffffffffffffff81111561221757612216611e6e565b5b6122238582860161205f565b9250506020612234858286016120d2565b9150509250929050565b612247816120ab565b82525050565b5f6020820190506122605f83018461223e565b92915050565b5f6020820190506122795f830184612199565b92915050565b5f806040838503121561229557612294611e6a565b5b5f6122a2858286016120d2565b92505060206122b385828601611e91565b9150509250929050565b5f81519050919050565b5f82825260208201905092915050565b5f819050602082019050919050565b6122ef816120ab565b82525050565b5f61230083836122e6565b60208301905092915050565b5f602082019050919050565b5f612322826122bd565b61232c81856122c7565b9350612337836122d7565b805f5b8381101561236757815161234e88826122f5565b97506123598361230c565b92505060018101905061233a565b5085935050505092915050565b5f60a0820190508181035f83015261238c8188611f08565b905081810360208301526123a08187612318565b905081810360408301526123b48186612318565b90506123c36060830185612199565b6123d06080830184612199565b9695505050505050565b5f67ffffffffffffffff8211156123f4576123f3611f68565b5b602082029050602081019050919050565b5f80fd5b5f61241b612416846123da565b611fc6565b9050808382526020820190506020840283018581111561243e5761243d612405565b5b835b81811015612467578061245388826120d2565b845260208401935050602081019050612440565b5050509392505050565b5f82601f83011261248557612484611f60565b5b8135612495848260208601612409565b91505092915050565b5f805f805f8060c087890312156124b8576124b7611e6a565b5b5f87013567ffffffffffffffff8111156124d5576124d4611e6e565b5b6124e189828a0161205f565b965050602087013567ffffffffffffffff81111561250257612501611e6e565b5b61250e89828a0161205f565b955050604087013567ffffffffffffffff81111561252f5761252e611e6e565b5b61253b89828a01612471565b945050606087013567ffffffffffffffff81111561255c5761255b611e6e565b5b61256889828a01612471565b935050608061257989828a01611e91565b92505060a061258a89828a01611e91565b9150509295509295509295565b7f496e646578206f7574206f6620626f756e6473000000000000000000000000005f82015250565b5f6125cb601383611eda565b91506125d682612597565b602082019050919050565b5f6020820190508181035f8301526125f8816125bf565b9050919050565b7f4e487b71000000000000000000000000000000000000000000000000000000005f52603260045260245ffd5b7f4e487b71000000000000000000000000000000000000000000000000000000005f52602260045260245ffd5b5f600282049050600182168061267057607f821691505b6020821081036126835761268261262c565b5b50919050565b5f81905092915050565b5f61269d82611ed0565b6126a78185612689565b93506126b7818560208601611eea565b80840191505092915050565b5f6126ce8284612693565b915081905092915050565b7f416c62756d20646f6573206e6f742065786973742e00000000000000000000005f82015250565b5f61270d601583611eda565b9150612718826126d9565b602082019050919050565b5f6020820190508181035f83015261273a81612701565b9050919050565b7f546f6b656e206e6f7420616363657074656420666f72207468697320616c62755f8201527f6d2e000000000000000000000000000000000000000000000000000000000000602082015250565b5f61279b602283611eda565b91506127a682612741565b604082019050919050565b5f6020820190508181035f8301526127c88161278f565b9050919050565b5f815190506127dd81611e7b565b92915050565b5f602082840312156127f8576127f7611e6a565b5b5f612805848285016127cf565b91505092915050565b7f496e73756666696369656e7420746f6b656e2062616c616e63652e00000000005f82015250565b5f612842601b83611eda565b915061284d8261280e565b602082019050919050565b5f6020820190508181035f83015261286f81612836565b9050919050565b5f6080820190508181035f83015261288e8187611f08565b905061289d6020830186612199565b6128aa604083018561223e565b6128b76060830184612199565b95945050505050565b7f4f6e6c792074686520636f6e7472616374206f776e65722063616e20706572665f8201527f6f726d207468697320616374696f6e2e00000000000000000000000000000000602082015250565b5f61291a603083611eda565b9150612925826128c0565b604082019050919050565b5f6020820190508181035f8301526129478161290e565b9050919050565b5f6060820190508181035f8301526129668186611f08565b9050612975602083018561223e565b6129826040830184612199565b949350505050565b5f60408201905061299d5f83018561223e565b6129aa6020830184612199565b9392505050565b5f8115159050919050565b6129c5816129b1565b81146129cf575f80fd5b50565b5f815190506129e0816129bc565b92915050565b5f602082840312156129fb576129fa611e6a565b5b5f612a08848285016129d2565b91505092915050565b7f546f6b656e207769746864726177616c206661696c65642e00000000000000005f82015250565b5f612a45601883611eda565b9150612a5082612a11565b602082019050919050565b5f6020820190508181035f830152612a7281612a39565b9050919050565b7f43616c6c6572206973206e6f7420616e206f776e6572206f662074686520616c5f8201527f62756d2e00000000000000000000000000000000000000000000000000000000602082015250565b5f612ad3602483611eda565b9150612ade82612a79565b604082019050919050565b5f6020820190508181035f830152612b0081612ac7565b9050919050565b7f546f6b656e20697320616c72656164792061636365707465642e0000000000005f82015250565b5f612b3b601a83611eda565b9150612b4682612b07565b602082019050919050565b5f6020820190508181035f830152612b6881612b2f565b9050919050565b5f6040820190508181035f830152612b878185611f08565b9050612b96602083018461223e565b9392505050565b7f546f6b656e206973206e6f742061636365707465642e000000000000000000005f82015250565b5f612bd1601683611eda565b9150612bdc82612b9d565b602082019050919050565b5f6020820190508181035f830152612bfe81612bc5565b9050919050565b7f4e487b71000000000000000000000000000000000000000000000000000000005f52601160045260245ffd5b5f612c3c82611e72565b9150612c4783611e72565b9250828203905081811115612c5f57612c5e612c05565b5b92915050565b7f4e487b71000000000000000000000000000000000000000000000000000000005f52603160045260245ffd5b7f496e73756666696369656e742066656520746f2063726561746520616c62756d5f8201527f2e00000000000000000000000000000000000000000000000000000000000000602082015250565b5f612cec602183611eda565b9150612cf782612c92565b604082019050919050565b5f6020820190508181035f830152612d1981612ce0565b9050919050565b7f416c62756d206e616d652063616e6e6f7420626520656d7074792e00000000005f82015250565b5f612d54601b83611eda565b9150612d5f82612d20565b602082019050919050565b5f6020820190508181035f830152612d8181612d48565b9050919050565b7f4349442063616e6e6f7420626520656d7074792e0000000000000000000000005f82015250565b5f612dbc601483611eda565b9150612dc782612d88565b602082019050919050565b5f6020820190508181035f830152612de981612db0565b9050919050565b7f4174206c65617374206f6e6520616c62756d206f776e657220697320726571755f8201527f697265642e000000000000000000000000000000000000000000000000000000602082015250565b5f612e4a602583611eda565b9150612e5582612df0565b604082019050919050565b5f6020820190508181035f830152612e7781612e3e565b9050919050565b7f4174206c65617374206f6e65207061796d656e7420746f6b656e206d757374205f8201527f62652070726f76696465642e0000000000000000000000000000000000000000602082015250565b5f612ed8602c83611eda565b9150612ee382612e7e565b604082019050919050565b5f6020820190508181035f830152612f0581612ecc565b9050919050565b5f612f1682611e72565b9150612f2183611e72565b9250828201905080821115612f3957612f38612c05565b5b92915050565b7f416c62756d20616c7265616479206578697374732e00000000000000000000005f82015250565b5f612f73601583611eda565b9150612f7e82612f3f565b602082019050919050565b5f6020820190508181035f830152612fa081612f67565b9050919050565b5f819050815f5260205f209050919050565b5f6020601f8301049050919050565b5f82821b905092915050565b5f600883026130037fffffffffffffffffffffffffffffffffffffffffffffffffffffffffffffffff82612fc8565b61300d8683612fc8565b95508019841693508086168417925050509392505050565b5f819050919050565b5f61304861304361303e84611e72565b613025565b611e72565b9050919050565b5f819050919050565b6130618361302e565b61307561306d8261304f565b848454612fd4565b825550505050565b5f90565b61308961307d565b613094818484613058565b505050565b5b818110156130b7576130ac5f82613081565b60018101905061309a565b5050565b601f8211156130fc576130cd81612fa7565b6130d684612fb9565b810160208510156130e5578190505b6130f96130f185612fb9565b830182613099565b50505b505050565b5f82821c905092915050565b5f61311c5f1984600802613101565b1980831691505092915050565b5f613134838361310d565b9150826002028217905092915050565b61314d82611ed0565b67ffffffffffffffff81111561316657613165611f68565b5b6131708254612659565b61317b8282856130bb565b5f60209050601f8311600181146131ac575f841561319a578287015190505b6131a48582613129565b86555061320b565b601f1984166131ba86612fa7565b5f5b828110156131e1578489015182556001820191506020850194506020810190506131bc565b868310156131fe57848901516131fa601f89168261310d565b8355505b6001600288020188555050505b505050505050565b7f496e76616c696420616c62756d206f776e657220616464726573732e000000005f82015250565b5f613247601c83611eda565b915061325282613213565b602082019050919050565b5f6020820190508181035f8301526132748161323b565b9050919050565b5f60c0820190508181035f8301526132938189611f08565b905081810360208301526132a78188611f08565b905081810360408301526132bb8187612318565b905081810360608301526132cf8186612318565b90506132de6080830185612199565b6132eb60a0830184612199565b979650505050505050565b5f61330082611e72565b915061330b83611e72565b925082820261331981611e72565b915082820484148315176133305761332f612c05565b5b5092915050565b7f4e487b71000000000000000000000000000000000000000000000000000000005f52601260045260245ffd5b5f61336e82611e72565b915061337983611e72565b92508261338957613388613337565b5b828204905092915050565b5f6060820190506133a75f83018661223e565b6133b4602083018561223e565b6133c16040830184612199565b949350505050565b7f506c6174666f726d207368617265207472616e73666572206661696c65642e005f82015250565b5f6133fd601f83611eda565b9150613408826133c9565b602082019050919050565b5f6020820190508181035f83015261342a816133f1565b9050919050565b7f4f776e6572207368617265207472616e73666572206661696c65642e000000005f82015250565b5f613465601c83611eda565b915061347082613431565b602082019050919050565b5f6020820190508181035f83015261349281613459565b905091905056fea26469706673582212209e9e86464be1fbf944d03bc46742e0e6298080cf97edc2616b4ed5bba1c484c364736f6c634300081a0033",
					"opcodes": "PUSH1 0x80 PUSH1 0x40 MSTORE PUSH8 0xDE0B6B3A7640000 PUSH1 0x1 SSTORE CALLVALUE DUP1 ISZERO PUSH1 0x1A JUMPI PUSH0 DUP1 REVERT JUMPDEST POP CALLER PUSH0 DUP1 PUSH2 0x100 EXP DUP2 SLOAD DUP2 PUSH20 0xFFFFFFFFFFFFFFFFFFFFFFFFFFFFFFFFFFFFFFFF MUL NOT AND SWAP1 DUP4 PUSH20 0xFFFFFFFFFFFFFFFFFFFFFFFFFFFFFFFFFFFFFFFF AND MUL OR SWAP1 SSTORE POP PUSH2 0x34CF DUP1 PUSH2 0x67 PUSH0 CODECOPY PUSH0 RETURN INVALID PUSH1 0x80 PUSH1 0x40 MSTORE PUSH1 0x4 CALLDATASIZE LT PUSH2 0xE7 JUMPI PUSH0 CALLDATALOAD PUSH1 0xE0 SHR DUP1 PUSH4 0x9E281A98 GT PUSH2 0x89 JUMPI DUP1 PUSH4 0xE5421C82 GT PUSH2 0x58 JUMPI DUP1 PUSH4 0xE5421C82 EQ PUSH2 0x2BF JUMPI DUP1 PUSH4 0xF3025B48 EQ PUSH2 0x2FF JUMPI DUP1 PUSH4 0xF5767849 EQ PUSH2 0x329 JUMPI DUP1 PUSH4 0xF8AC7B44 EQ PUSH2 0x353 JUMPI PUSH2 0xE7 JUMP JUMPDEST DUP1 PUSH4 0x9E281A98 EQ PUSH2 0x21F JUMPI DUP1 PUSH4 0xB0B22C2C EQ PUSH2 0x247 JUMPI DUP1 PUSH4 0xB120662E EQ PUSH2 0x26F JUMPI DUP1 PUSH4 0xE3C5C2A9 EQ PUSH2 0x297 JUMPI PUSH2 0xE7 JUMP JUMPDEST DUP1 PUSH4 0x476343EE GT PUSH2 0xC5 JUMPI DUP1 PUSH4 0x476343EE EQ PUSH2 0x18D JUMPI DUP1 PUSH4 0x6C463ECC EQ PUSH2 0x1A3 JUMPI DUP1 PUSH4 0x8DA5CB5B EQ PUSH2 0x1CB JUMPI DUP1 PUSH4 0x9003ADFE EQ PUSH2 0x1F5 JUMPI PUSH2 0xE7 JUMP JUMPDEST DUP1 PUSH4 0x32AEB67B EQ PUSH2 0xEB JUMPI DUP1 PUSH4 0x3878EA70 EQ PUSH2 0x127 JUMPI DUP1 PUSH4 0x3936D48D EQ PUSH2 0x14F JUMPI JUMPDEST PUSH0 DUP1 REVERT JUMPDEST CALLVALUE DUP1 ISZERO PUSH2 0xF6 JUMPI PUSH0 DUP1 REVERT JUMPDEST POP PUSH2 0x111 PUSH1 0x4 DUP1 CALLDATASIZE SUB DUP2 ADD SWAP1 PUSH2 0x10C SWAP2 SWAP1 PUSH2 0x1EA5 JUMP JUMPDEST PUSH2 0x36F JUMP JUMPDEST PUSH1 0x40 MLOAD PUSH2 0x11E SWAP2 SWAP1 PUSH2 0x1F40 JUMP JUMPDEST PUSH1 0x40 MLOAD DUP1 SWAP2 SUB SWAP1 RETURN JUMPDEST CALLVALUE DUP1 ISZERO PUSH2 0x132 JUMPI PUSH0 DUP1 REVERT JUMPDEST POP PUSH2 0x14D PUSH1 0x4 DUP1 CALLDATASIZE SUB DUP2 ADD SWAP1 PUSH2 0x148 SWAP2 SWAP1 PUSH2 0x20E6 JUMP JUMPDEST PUSH2 0x462 JUMP JUMPDEST STOP JUMPDEST CALLVALUE DUP1 ISZERO PUSH2 0x15A JUMPI PUSH0 DUP1 REVERT JUMPDEST POP PUSH2 0x175 PUSH1 0x4 DUP1 CALLDATASIZE SUB DUP2 ADD SWAP1 PUSH2 0x170 SWAP2 SWAP1 PUSH2 0x2152 JUMP JUMPDEST PUSH2 0x714 JUMP JUMPDEST PUSH1 0x40 MLOAD PUSH2 0x184 SWAP4 SWAP3 SWAP2 SWAP1 PUSH2 0x21A8 JUMP JUMPDEST PUSH1 0x40 MLOAD DUP1 SWAP2 SUB SWAP1 RETURN JUMPDEST CALLVALUE DUP1 ISZERO PUSH2 0x198 JUMPI PUSH0 DUP1 REVERT JUMPDEST POP PUSH2 0x1A1 PUSH2 0x7D8 JUMP JUMPDEST STOP JUMPDEST CALLVALUE DUP1 ISZERO PUSH2 0x1AE JUMPI PUSH0 DUP1 REVERT JUMPDEST POP PUSH2 0x1C9 PUSH1 0x4 DUP1 CALLDATASIZE SUB DUP2 ADD SWAP1 PUSH2 0x1C4 SWAP2 SWAP1 PUSH2 0x21E4 JUMP JUMPDEST PUSH2 0x945 JUMP JUMPDEST STOP JUMPDEST CALLVALUE DUP1 ISZERO PUSH2 0x1D6 JUMPI PUSH0 DUP1 REVERT JUMPDEST POP PUSH2 0x1DF PUSH2 0xBF4 JUMP JUMPDEST PUSH1 0x40 MLOAD PUSH2 0x1EC SWAP2 SWAP1 PUSH2 0x224D JUMP JUMPDEST PUSH1 0x40 MLOAD DUP1 SWAP2 SUB SWAP1 RETURN JUMPDEST CALLVALUE DUP1 ISZERO PUSH2 0x200 JUMPI PUSH0 DUP1 REVERT JUMPDEST POP PUSH2 0x209 PUSH2 0xC17 JUMP JUMPDEST PUSH1 0x40 MLOAD PUSH2 0x216 SWAP2 SWAP1 PUSH2 0x2266 JUMP JUMPDEST PUSH1 0x40 MLOAD DUP1 SWAP2 SUB SWAP1 RETURN JUMPDEST CALLVALUE DUP1 ISZERO PUSH2 0x22A JUMPI PUSH0 DUP1 REVERT JUMPDEST POP PUSH2 0x245 PUSH1 0x4 DUP1 CALLDATASIZE SUB DUP2 ADD SWAP1 PUSH2 0x240 SWAP2 SWAP1 PUSH2 0x227F JUMP JUMPDEST PUSH2 0xC1D JUMP JUMPDEST STOP JUMPDEST CALLVALUE DUP1 ISZERO PUSH2 0x252 JUMPI PUSH0 DUP1 REVERT JUMPDEST POP PUSH2 0x26D PUSH1 0x4 DUP1 CALLDATASIZE SUB DUP2 ADD SWAP1 PUSH2 0x268 SWAP2 SWAP1 PUSH2 0x21E4 JUMP JUMPDEST PUSH2 0xE46 JUMP JUMPDEST STOP JUMPDEST CALLVALUE DUP1 ISZERO PUSH2 0x27A JUMPI PUSH0 DUP1 REVERT JUMPDEST POP PUSH2 0x295 PUSH1 0x4 DUP1 CALLDATASIZE SUB DUP2 ADD SWAP1 PUSH2 0x290 SWAP2 SWAP1 PUSH2 0x1EA5 JUMP JUMPDEST PUSH2 0x1084 JUMP JUMPDEST STOP JUMPDEST CALLVALUE DUP1 ISZERO PUSH2 0x2A2 JUMPI PUSH0 DUP1 REVERT JUMPDEST POP PUSH2 0x2BD PUSH1 0x4 DUP1 CALLDATASIZE SUB DUP2 ADD SWAP1 PUSH2 0x2B8 SWAP2 SWAP1 PUSH2 0x21E4 JUMP JUMPDEST PUSH2 0x111B JUMP JUMPDEST STOP JUMPDEST CALLVALUE DUP1 ISZERO PUSH2 0x2CA JUMPI PUSH0 DUP1 REVERT JUMPDEST POP PUSH2 0x2E5 PUSH1 0x4 DUP1 CALLDATASIZE SUB DUP2 ADD SWAP1 PUSH2 0x2E0 SWAP2 SWAP1 PUSH2 0x2152 JUMP JUMPDEST PUSH2 0x1471 JUMP JUMPDEST PUSH1 0x40 MLOAD PUSH2 0x2F6 SWAP6 SWAP5 SWAP4 SWAP3 SWAP2 SWAP1 PUSH2 0x2374 JUMP JUMPDEST PUSH1 0x40 MLOAD DUP1 SWAP2 SUB SWAP1 RETURN JUMPDEST CALLVALUE DUP1 ISZERO PUSH2 0x30A JUMPI PUSH0 DUP1 REVERT JUMPDEST POP PUSH2 0x313 PUSH2 0x16A7 JUMP JUMPDEST PUSH1 0x40 MLOAD PUSH2 0x320 SWAP2 SWAP1 PUSH2 0x2266 JUMP JUMPDEST PUSH1 0x40 MLOAD DUP1 SWAP2 SUB SWAP1 RETURN JUMPDEST CALLVALUE DUP1 ISZERO PUSH2 0x334 JUMPI PUSH0 DUP1 REVERT JUMPDEST POP PUSH2 0x33D PUSH2 0x16AD JUMP JUMPDEST PUSH1 0x40 MLOAD PUSH2 0x34A SWAP2 SWAP1 PUSH2 0x2266 JUMP JUMPDEST PUSH1 0x40 MLOAD DUP1 SWAP2 SUB SWAP1 RETURN JUMPDEST PUSH2 0x36D PUSH1 0x4 DUP1 CALLDATASIZE SUB DUP2 ADD SWAP1 PUSH2 0x368 SWAP2 SWAP1 PUSH2 0x249E JUMP JUMPDEST PUSH2 0x16B9 JUMP JUMPDEST STOP JUMPDEST PUSH1 0x60 PUSH1 0x4 DUP1 SLOAD SWAP1 POP DUP3 LT PUSH2 0x3B8 JUMPI PUSH1 0x40 MLOAD PUSH32 0x8C379A000000000000000000000000000000000000000000000000000000000 DUP2 MSTORE PUSH1 0x4 ADD PUSH2 0x3AF SWAP1 PUSH2 0x25E1 JUMP JUMPDEST PUSH1 0x40 MLOAD DUP1 SWAP2 SUB SWAP1 REVERT JUMPDEST PUSH1 0x4 DUP3 DUP2 SLOAD DUP2 LT PUSH2 0x3CC JUMPI PUSH2 0x3CB PUSH2 0x25FF JUMP JUMPDEST JUMPDEST SWAP1 PUSH0 MSTORE PUSH1 0x20 PUSH0 KECCAK256 ADD DUP1 SLOAD PUSH2 0x3DF SWAP1 PUSH2 0x2659 JUMP JUMPDEST DUP1 PUSH1 0x1F ADD PUSH1 0x20 DUP1 SWAP2 DIV MUL PUSH1 0x20 ADD PUSH1 0x40 MLOAD SWAP1 DUP2 ADD PUSH1 0x40 MSTORE DUP1 SWAP3 SWAP2 SWAP1 DUP2 DUP2 MSTORE PUSH1 0x20 ADD DUP3 DUP1 SLOAD PUSH2 0x40B SWAP1 PUSH2 0x2659 JUMP JUMPDEST DUP1 ISZERO PUSH2 0x456 JUMPI DUP1 PUSH1 0x1F LT PUSH2 0x42D JUMPI PUSH2 0x100 DUP1 DUP4 SLOAD DIV MUL DUP4 MSTORE SWAP2 PUSH1 0x20 ADD SWAP2 PUSH2 0x456 JUMP JUMPDEST DUP3 ADD SWAP2 SWAP1 PUSH0 MSTORE PUSH1 0x20 PUSH0 KECCAK256 SWAP1 JUMPDEST DUP2 SLOAD DUP2 MSTORE SWAP1 PUSH1 0x1 ADD SWAP1 PUSH1 0x20 ADD DUP1 DUP4 GT PUSH2 0x439 JUMPI DUP3 SWAP1 SUB PUSH1 0x1F AND DUP3 ADD SWAP2 JUMPDEST POP POP POP POP POP SWAP1 POP SWAP2 SWAP1 POP JUMP JUMPDEST PUSH0 PUSH1 0x3 DUP5 PUSH1 0x40 MLOAD PUSH2 0x473 SWAP2 SWAP1 PUSH2 0x26C3 JUMP JUMPDEST SWAP1 DUP2 MSTORE PUSH1 0x20 ADD PUSH1 0x40 MLOAD DUP1 SWAP2 SUB SWAP1 KECCAK256 SWAP1 POP PUSH0 DUP2 PUSH0 ADD DUP1 SLOAD PUSH2 0x492 SWAP1 PUSH2 0x2659 JUMP JUMPDEST SWAP1 POP GT PUSH2 0x4D4 JUMPI PUSH1 0x40 MLOAD PUSH32 0x8C379A000000000000000000000000000000000000000000000000000000000 DUP2 MSTORE PUSH1 0x4 ADD PUSH2 0x4CB SWAP1 PUSH2 0x2723 JUMP JUMPDEST PUSH1 0x40 MLOAD DUP1 SWAP2 SUB SWAP1 REVERT JUMPDEST DUP1 PUSH1 0x5 ADD PUSH0 DUP4 PUSH20 0xFFFFFFFFFFFFFFFFFFFFFFFFFFFFFFFFFFFFFFFF AND PUSH20 0xFFFFFFFFFFFFFFFFFFFFFFFFFFFFFFFFFFFFFFFF AND DUP2 MSTORE PUSH1 0x20 ADD SWAP1 DUP2 MSTORE PUSH1 0x20 ADD PUSH0 KECCAK256 PUSH0 SWAP1 SLOAD SWAP1 PUSH2 0x100 EXP SWAP1 DIV PUSH1 0xFF AND PUSH2 0x55F JUMPI PUSH1 0x40 MLOAD PUSH32 0x8C379A000000000000000000000000000000000000000000000000000000000 DUP2 MSTORE PUSH1 0x4 ADD PUSH2 0x556 SWAP1 PUSH2 0x27B1 JUMP JUMPDEST PUSH1 0x40 MLOAD DUP1 SWAP2 SUB SWAP1 REVERT JUMPDEST PUSH0 DUP3 SWAP1 POP DUP2 PUSH1 0x3 ADD SLOAD DUP2 PUSH20 0xFFFFFFFFFFFFFFFFFFFFFFFFFFFFFFFFFFFFFFFF AND PUSH4 0x70A08231 CALLER PUSH1 0x40 MLOAD DUP3 PUSH4 0xFFFFFFFF AND PUSH1 0xE0 SHL DUP2 MSTORE PUSH1 0x4 ADD PUSH2 0x5A1 SWAP2 SWAP1 PUSH2 0x224D JUMP JUMPDEST PUSH1 0x20 PUSH1 0x40 MLOAD DUP1 DUP4 SUB DUP2 DUP7 GAS STATICCALL ISZERO DUP1 ISZERO PUSH2 0x5BC JUMPI RETURNDATASIZE PUSH0 DUP1 RETURNDATACOPY RETURNDATASIZE PUSH0 REVERT JUMPDEST POP POP POP POP PUSH1 0x40 MLOAD RETURNDATASIZE PUSH1 0x1F NOT PUSH1 0x1F DUP3 ADD AND DUP3 ADD DUP1 PUSH1 0x40 MSTORE POP DUP2 ADD SWAP1 PUSH2 0x5E0 SWAP2 SWAP1 PUSH2 0x27E3 JUMP JUMPDEST LT ISZERO PUSH2 0x621 JUMPI PUSH1 0x40 MLOAD PUSH32 0x8C379A000000000000000000000000000000000000000000000000000000000 DUP2 MSTORE PUSH1 0x4 ADD PUSH2 0x618 SWAP1 PUSH2 0x2858 JUMP JUMPDEST PUSH1 0x40 MLOAD DUP1 SWAP2 SUB SWAP1 REVERT JUMPDEST PUSH2 0x6B5 DUP4 DUP4 PUSH1 0x3 ADD SLOAD DUP5 PUSH1 0x1 ADD DUP1 SLOAD DUP1 PUSH1 0x20 MUL PUSH1 0x20 ADD PUSH1 0x40 MLOAD SWAP1 DUP2 ADD PUSH1 0x40 MSTORE DUP1 SWAP3 SWAP2 SWAP1 DUP2 DUP2 MSTORE PUSH1 0x20 ADD DUP3 DUP1 SLOAD DUP1 ISZERO PUSH2 0x6AB JUMPI PUSH1 0x20 MUL DUP3 ADD SWAP2 SWAP1 PUSH0 MSTORE PUSH1 0x20 PUSH0 KECCAK256 SWAP1 JUMPDEST DUP2 PUSH0 SWAP1 SLOAD SWAP1 PUSH2 0x100 EXP SWAP1 DIV PUSH20 0xFFFFFFFFFFFFFFFFFFFFFFFFFFFFFFFFFFFFFFFF AND PUSH20 0xFFFFFFFFFFFFFFFFFFFFFFFFFFFFFFFFFFFFFFFF AND DUP2 MSTORE PUSH1 0x20 ADD SWAP1 PUSH1 0x1 ADD SWAP1 DUP1 DUP4 GT PUSH2 0x662 JUMPI JUMPDEST POP POP POP POP POP PUSH2 0x1BA7 JUMP JUMPDEST CALLER PUSH20 0xFFFFFFFFFFFFFFFFFFFFFFFFFFFFFFFFFFFFFFFF AND PUSH32 0xB53ED8F15802AA36DFFCBA6BE380A339237C5544765D530961F58E0CE4CCDB81 DUP7 DUP7 DUP7 DUP7 PUSH1 0x3 ADD SLOAD PUSH1 0x40 MLOAD PUSH2 0x705 SWAP5 SWAP4 SWAP3 SWAP2 SWAP1 PUSH2 0x2876 JUMP JUMPDEST PUSH1 0x40 MLOAD DUP1 SWAP2 SUB SWAP1 LOG2 POP POP POP POP POP JUMP JUMPDEST PUSH1 0x3 DUP2 DUP1 MLOAD PUSH1 0x20 DUP2 ADD DUP3 ADD DUP1 MLOAD DUP5 DUP3 MSTORE PUSH1 0x20 DUP4 ADD PUSH1 0x20 DUP6 ADD KECCAK256 DUP2 DUP4 MSTORE DUP1 SWAP6 POP POP POP POP POP POP PUSH0 SWAP2 POP SWAP1 POP DUP1 PUSH0 ADD DUP1 SLOAD PUSH2 0x74B SWAP1 PUSH2 0x2659 JUMP JUMPDEST DUP1 PUSH1 0x1F ADD PUSH1 0x20 DUP1 SWAP2 DIV MUL PUSH1 0x20 ADD PUSH1 0x40 MLOAD SWAP1 DUP2 ADD PUSH1 0x40 MSTORE DUP1 SWAP3 SWAP2 SWAP1 DUP2 DUP2 MSTORE PUSH1 0x20 ADD DUP3 DUP1 SLOAD PUSH2 0x777 SWAP1 PUSH2 0x2659 JUMP JUMPDEST DUP1 ISZERO PUSH2 0x7C2 JUMPI DUP1 PUSH1 0x1F LT PUSH2 0x799 JUMPI PUSH2 0x100 DUP1 DUP4 SLOAD DIV MUL DUP4 MSTORE SWAP2 PUSH1 0x20 ADD SWAP2 PUSH2 0x7C2 JUMP JUMPDEST DUP3 ADD SWAP2 SWAP1 PUSH0 MSTORE PUSH1 0x20 PUSH0 KECCAK256 SWAP1 JUMPDEST DUP2 SLOAD DUP2 MSTORE SWAP1 PUSH1 0x1 ADD SWAP1 PUSH1 0x20 ADD DUP1 DUP4 GT PUSH2 0x7A5 JUMPI DUP3 SWAP1 SUB PUSH1 0x1F AND DUP3 ADD SWAP2 JUMPDEST POP POP POP POP POP SWAP1 DUP1 PUSH1 0x3 ADD SLOAD SWAP1 DUP1 PUSH1 0x4 ADD SLOAD SWAP1 POP DUP4 JUMP JUMPDEST PUSH0 DUP1 SLOAD SWAP1 PUSH2 0x100 EXP SWAP1 DIV PUSH20 0xFFFFFFFFFFFFFFFFFFFFFFFFFFFFFFFFFFFFFFFF AND PUSH20 0xFFFFFFFFFFFFFFFFFFFFFFFFFFFFFFFFFFFFFFFF AND CALLER PUSH20 0xFFFFFFFFFFFFFFFFFFFFFFFFFFFFFFFFFFFFFFFF AND EQ PUSH2 0x865 JUMPI PUSH1 0x40 MLOAD PUSH32 0x8C379A000000000000000000000000000000000000000000000000000000000 DUP2 MSTORE PUSH1 0x4 ADD PUSH2 0x85C SWAP1 PUSH2 0x2930 JUMP JUMPDEST PUSH1 0x40 MLOAD DUP1 SWAP2 SUB SWAP1 REVERT JUMPDEST PUSH0 PUSH1 0x2 SLOAD SWAP1 POP PUSH0 PUSH1 0x2 DUP2 SWAP1 SSTORE POP PUSH0 DUP1 SLOAD SWAP1 PUSH2 0x100 EXP SWAP1 DIV PUSH20 0xFFFFFFFFFFFFFFFFFFFFFFFFFFFFFFFFFFFFFFFF AND PUSH20 0xFFFFFFFFFFFFFFFFFFFFFFFFFFFFFFFFFFFFFFFF AND PUSH2 0x8FC DUP3 SWAP1 DUP2 ISZERO MUL SWAP1 PUSH1 0x40 MLOAD PUSH0 PUSH1 0x40 MLOAD DUP1 DUP4 SUB DUP2 DUP6 DUP9 DUP9 CALL SWAP4 POP POP POP POP ISZERO DUP1 ISZERO PUSH2 0x8D4 JUMPI RETURNDATASIZE PUSH0 DUP1 RETURNDATACOPY RETURNDATASIZE PUSH0 REVERT JUMPDEST POP PUSH0 DUP1 SLOAD SWAP1 PUSH2 0x100 EXP SWAP1 DIV PUSH20 0xFFFFFFFFFFFFFFFFFFFFFFFFFFFFFFFFFFFFFFFF AND PUSH20 0xFFFFFFFFFFFFFFFFFFFFFFFFFFFFFFFFFFFFFFFF AND PUSH32 0x7FCF532C15F0A6DB0BD6D0E038BEA71D30D808C7D98CB3BF7268A95BF5081B65 DUP3 PUSH1 0x40 MLOAD PUSH2 0x93A SWAP2 SWAP1 PUSH2 0x2266 JUMP JUMPDEST PUSH1 0x40 MLOAD DUP1 SWAP2 SUB SWAP1 LOG2 POP JUMP JUMPDEST PUSH0 PUSH1 0x3 DUP4 PUSH1 0x40 MLOAD PUSH2 0x956 SWAP2 SWAP1 PUSH2 0x26C3 JUMP JUMPDEST SWAP1 DUP2 MSTORE PUSH1 0x20 ADD PUSH1 0x40 MLOAD DUP1 SWAP2 SUB SWAP1 KECCAK256 SWAP1 POP PUSH0 DUP2 PUSH0 ADD DUP1 SLOAD PUSH2 0x975 SWAP1 PUSH2 0x2659 JUMP JUMPDEST SWAP1 POP GT PUSH2 0x9B7 JUMPI PUSH1 0x40 MLOAD PUSH32 0x8C379A000000000000000000000000000000000000000000000000000000000 DUP2 MSTORE PUSH1 0x4 ADD PUSH2 0x9AE SWAP1 PUSH2 0x2723 JUMP JUMPDEST PUSH1 0x40 MLOAD DUP1 SWAP2 SUB SWAP1 REVERT JUMPDEST DUP1 PUSH1 0x5 ADD PUSH0 DUP4 PUSH20 0xFFFFFFFFFFFFFFFFFFFFFFFFFFFFFFFFFFFFFFFF AND PUSH20 0xFFFFFFFFFFFFFFFFFFFFFFFFFFFFFFFFFFFFFFFF AND DUP2 MSTORE PUSH1 0x20 ADD SWAP1 DUP2 MSTORE PUSH1 0x20 ADD PUSH0 KECCAK256 PUSH0 SWAP1 SLOAD SWAP1 PUSH2 0x100 EXP SWAP1 DIV PUSH1 0xFF AND PUSH2 0xA42 JUMPI PUSH1 0x40 MLOAD PUSH32 0x8C379A000000000000000000000000000000000000000000000000000000000 DUP2 MSTORE PUSH1 0x4 ADD PUSH2 0xA39 SWAP1 PUSH2 0x27B1 JUMP JUMPDEST PUSH1 0x40 MLOAD DUP1 SWAP2 SUB SWAP1 REVERT JUMPDEST PUSH0 DUP3 SWAP1 POP DUP2 PUSH1 0x4 ADD SLOAD DUP2 PUSH20 0xFFFFFFFFFFFFFFFFFFFFFFFFFFFFFFFFFFFFFFFF AND PUSH4 0x70A08231 CALLER PUSH1 0x40 MLOAD DUP3 PUSH4 0xFFFFFFFF AND PUSH1 0xE0 SHL DUP2 MSTORE PUSH1 0x4 ADD PUSH2 0xA84 SWAP2 SWAP1 PUSH2 0x224D JUMP JUMPDEST PUSH1 0x20 PUSH1 0x40 MLOAD DUP1 DUP4 SUB DUP2 DUP7 GAS STATICCALL ISZERO DUP1 ISZERO PUSH2 0xA9F JUMPI RETURNDATASIZE PUSH0 DUP1 RETURNDATACOPY RETURNDATASIZE PUSH0 REVERT JUMPDEST POP POP POP POP PUSH1 0x40 MLOAD RETURNDATASIZE PUSH1 0x1F NOT PUSH1 0x1F DUP3 ADD AND DUP3 ADD DUP1 PUSH1 0x40 MSTORE POP DUP2 ADD SWAP1 PUSH2 0xAC3 SWAP2 SWAP1 PUSH2 0x27E3 JUMP JUMPDEST LT ISZERO PUSH2 0xB04 JUMPI PUSH1 0x40 MLOAD PUSH32 0x8C379A000000000000000000000000000000000000000000000000000000000 DUP2 MSTORE PUSH1 0x4 ADD PUSH2 0xAFB SWAP1 PUSH2 0x2858 JUMP JUMPDEST PUSH1 0x40 MLOAD DUP1 SWAP2 SUB SWAP1 REVERT JUMPDEST PUSH2 0xB98 DUP4 DUP4 PUSH1 0x4 ADD SLOAD DUP5 PUSH1 0x1 ADD DUP1 SLOAD DUP1 PUSH1 0x20 MUL PUSH1 0x20 ADD PUSH1 0x40 MLOAD SWAP1 DUP2 ADD PUSH1 0x40 MSTORE DUP1 SWAP3 SWAP2 SWAP1 DUP2 DUP2 MSTORE PUSH1 0x20 ADD DUP3 DUP1 SLOAD DUP1 ISZERO PUSH2 0xB8E JUMPI PUSH1 0x20 MUL DUP3 ADD SWAP2 SWAP1 PUSH0 MSTORE PUSH1 0x20 PUSH0 KECCAK256 SWAP1 JUMPDEST DUP2 PUSH0 SWAP1 SLOAD SWAP1 PUSH2 0x100 EXP SWAP1 DIV PUSH20 0xFFFFFFFFFFFFFFFFFFFFFFFFFFFFFFFFFFFFFFFF AND PUSH20 0xFFFFFFFFFFFFFFFFFFFFFFFFFFFFFFFFFFFFFFFF AND DUP2 MSTORE PUSH1 0x20 ADD SWAP1 PUSH1 0x1 ADD SWAP1 DUP1 DUP4 GT PUSH2 0xB45 JUMPI JUMPDEST POP POP POP POP POP PUSH2 0x1BA7 JUMP JUMPDEST CALLER PUSH20 0xFFFFFFFFFFFFFFFFFFFFFFFFFFFFFFFFFFFFFFFF AND PUSH32 0xA3380E26E795E8B011218106540AC41C35EA93F383C2259D0834693381025E4C DUP6 DUP6 DUP6 PUSH1 0x4 ADD SLOAD PUSH1 0x40 MLOAD PUSH2 0xBE6 SWAP4 SWAP3 SWAP2 SWAP1 PUSH2 0x294E JUMP JUMPDEST PUSH1 0x40 MLOAD DUP1 SWAP2 SUB SWAP1 LOG2 POP POP POP POP JUMP JUMPDEST PUSH0 DUP1 SLOAD SWAP1 PUSH2 0x100 EXP SWAP1 DIV PUSH20 0xFFFFFFFFFFFFFFFFFFFFFFFFFFFFFFFFFFFFFFFF AND DUP2 JUMP JUMPDEST PUSH1 0x2 SLOAD DUP2 JUMP JUMPDEST PUSH0 DUP1 SLOAD SWAP1 PUSH2 0x100 EXP SWAP1 DIV PUSH20 0xFFFFFFFFFFFFFFFFFFFFFFFFFFFFFFFFFFFFFFFF AND PUSH20 0xFFFFFFFFFFFFFFFFFFFFFFFFFFFFFFFFFFFFFFFF AND CALLER PUSH20 0xFFFFFFFFFFFFFFFFFFFFFFFFFFFFFFFFFFFFFFFF AND EQ PUSH2 0xCAA JUMPI PUSH1 0x40 MLOAD PUSH32 0x8C379A000000000000000000000000000000000000000000000000000000000 DUP2 MSTORE PUSH1 0x4 ADD PUSH2 0xCA1 SWAP1 PUSH2 0x2930 JUMP JUMPDEST PUSH1 0x40 MLOAD DUP1 SWAP2 SUB SWAP1 REVERT JUMPDEST PUSH0 DUP3 SWAP1 POP DUP2 DUP2 PUSH20 0xFFFFFFFFFFFFFFFFFFFFFFFFFFFFFFFFFFFFFFFF AND PUSH4 0x70A08231 ADDRESS PUSH1 0x40 MLOAD DUP3 PUSH4 0xFFFFFFFF AND PUSH1 0xE0 SHL DUP2 MSTORE PUSH1 0x4 ADD PUSH2 0xCE8 SWAP2 SWAP1 PUSH2 0x224D JUMP JUMPDEST PUSH1 0x20 PUSH1 0x40 MLOAD DUP1 DUP4 SUB DUP2 DUP7 GAS STATICCALL ISZERO DUP1 ISZERO PUSH2 0xD03 JUMPI RETURNDATASIZE PUSH0 DUP1 RETURNDATACOPY RETURNDATASIZE PUSH0 REVERT JUMPDEST POP POP POP POP PUSH1 0x40 MLOAD RETURNDATASIZE PUSH1 0x1F NOT PUSH1 0x1F DUP3 ADD AND DUP3 ADD DUP1 PUSH1 0x40 MSTORE POP DUP2 ADD SWAP1 PUSH2 0xD27 SWAP2 SWAP1 PUSH2 0x27E3 JUMP JUMPDEST LT ISZERO PUSH2 0xD68 JUMPI PUSH1 0x40 MLOAD PUSH32 0x8C379A000000000000000000000000000000000000000000000000000000000 DUP2 MSTORE PUSH1 0x4 ADD PUSH2 0xD5F SWAP1 PUSH2 0x2858 JUMP JUMPDEST PUSH1 0x40 MLOAD DUP1 SWAP2 SUB SWAP1 REVERT JUMPDEST DUP1 PUSH20 0xFFFFFFFFFFFFFFFFFFFFFFFFFFFFFFFFFFFFFFFF AND PUSH4 0xA9059CBB PUSH0 DUP1 SLOAD SWAP1 PUSH2 0x100 EXP SWAP1 DIV PUSH20 0xFFFFFFFFFFFFFFFFFFFFFFFFFFFFFFFFFFFFFFFF AND DUP5 PUSH1 0x40 MLOAD DUP4 PUSH4 0xFFFFFFFF AND PUSH1 0xE0 SHL DUP2 MSTORE PUSH1 0x4 ADD PUSH2 0xDC2 SWAP3 SWAP2 SWAP1 PUSH2 0x298A JUMP JUMPDEST PUSH1 0x20 PUSH1 0x40 MLOAD DUP1 DUP4 SUB DUP2 PUSH0 DUP8 GAS CALL ISZERO DUP1 ISZERO PUSH2 0xDDE JUMPI RETURNDATASIZE PUSH0 DUP1 RETURNDATACOPY RETURNDATASIZE PUSH0 REVERT JUMPDEST POP POP POP POP PUSH1 0x40 MLOAD RETURNDATASIZE PUSH1 0x1F NOT PUSH1 0x1F DUP3 ADD AND DUP3 ADD DUP1 PUSH1 0x40 MSTORE POP DUP2 ADD SWAP1 PUSH2 0xE02 SWAP2 SWAP1 PUSH2 0x29E6 JUMP JUMPDEST PUSH2 0xE41 JUMPI PUSH1 0x40 MLOAD PUSH32 0x8C379A000000000000000000000000000000000000000000000000000000000 DUP2 MSTORE PUSH1 0x4 ADD PUSH2 0xE38 SWAP1 PUSH2 0x2A5B JUMP JUMPDEST PUSH1 0x40 MLOAD DUP1 SWAP2 SUB SWAP1 REVERT JUMPDEST POP POP POP JUMP JUMPDEST PUSH0 PUSH1 0x3 DUP4 PUSH1 0x40 MLOAD PUSH2 0xE57 SWAP2 SWAP1 PUSH2 0x26C3 JUMP JUMPDEST SWAP1 DUP2 MSTORE PUSH1 0x20 ADD PUSH1 0x40 MLOAD DUP1 SWAP2 SUB SWAP1 KECCAK256 SWAP1 POP PUSH0 DUP2 PUSH0 ADD DUP1 SLOAD PUSH2 0xE76 SWAP1 PUSH2 0x2659 JUMP JUMPDEST SWAP1 POP GT PUSH2 0xEB8 JUMPI PUSH1 0x40 MLOAD PUSH32 0x8C379A000000000000000000000000000000000000000000000000000000000 DUP2 MSTORE PUSH1 0x4 ADD PUSH2 0xEAF SWAP1 PUSH2 0x2723 JUMP JUMPDEST PUSH1 0x40 MLOAD DUP1 SWAP2 SUB SWAP1 REVERT JUMPDEST PUSH2 0xEC2 DUP4 CALLER PUSH2 0x1D9A JUMP JUMPDEST PUSH2 0xF01 JUMPI PUSH1 0x40 MLOAD PUSH32 0x8C379A000000000000000000000000000000000000000000000000000000000 DUP2 MSTORE PUSH1 0x4 ADD PUSH2 0xEF8 SWAP1 PUSH2 0x2AE9 JUMP JUMPDEST PUSH1 0x40 MLOAD DUP1 SWAP2 SUB SWAP1 REVERT JUMPDEST DUP1 PUSH1 0x5 ADD PUSH0 DUP4 PUSH20 0xFFFFFFFFFFFFFFFFFFFFFFFFFFFFFFFFFFFFFFFF AND PUSH20 0xFFFFFFFFFFFFFFFFFFFFFFFFFFFFFFFFFFFFFFFF AND DUP2 MSTORE PUSH1 0x20 ADD SWAP1 DUP2 MSTORE PUSH1 0x20 ADD PUSH0 KECCAK256 PUSH0 SWAP1 SLOAD SWAP1 PUSH2 0x100 EXP SWAP1 DIV PUSH1 0xFF AND ISZERO PUSH2 0xF8D JUMPI PUSH1 0x40 MLOAD PUSH32 0x8C379A000000000000000000000000000000000000000000000000000000000 DUP2 MSTORE PUSH1 0x4 ADD PUSH2 0xF84 SWAP1 PUSH2 0x2B51 JUMP JUMPDEST PUSH1 0x40 MLOAD DUP1 SWAP2 SUB SWAP1 REVERT JUMPDEST DUP1 PUSH1 0x2 ADD DUP3 SWAP1 DUP1 PUSH1 0x1 DUP2 SLOAD ADD DUP1 DUP3 SSTORE DUP1 SWAP2 POP POP PUSH1 0x1 SWAP1 SUB SWAP1 PUSH0 MSTORE PUSH1 0x20 PUSH0 KECCAK256 ADD PUSH0 SWAP1 SWAP2 SWAP1 SWAP2 SWAP1 SWAP2 PUSH2 0x100 EXP DUP2 SLOAD DUP2 PUSH20 0xFFFFFFFFFFFFFFFFFFFFFFFFFFFFFFFFFFFFFFFF MUL NOT AND SWAP1 DUP4 PUSH20 0xFFFFFFFFFFFFFFFFFFFFFFFFFFFFFFFFFFFFFFFF AND MUL OR SWAP1 SSTORE POP PUSH1 0x1 DUP2 PUSH1 0x5 ADD PUSH0 DUP5 PUSH20 0xFFFFFFFFFFFFFFFFFFFFFFFFFFFFFFFFFFFFFFFF AND PUSH20 0xFFFFFFFFFFFFFFFFFFFFFFFFFFFFFFFFFFFFFFFF AND DUP2 MSTORE PUSH1 0x20 ADD SWAP1 DUP2 MSTORE PUSH1 0x20 ADD PUSH0 KECCAK256 PUSH0 PUSH2 0x100 EXP DUP2 SLOAD DUP2 PUSH1 0xFF MUL NOT AND SWAP1 DUP4 ISZERO ISZERO MUL OR SWAP1 SSTORE POP PUSH32 0x6D97A31531BDB3C43D920BC996EC8B9FD7733F5F55A81CD74700F88631FC6032 DUP4 DUP4 PUSH1 0x40 MLOAD PUSH2 0x1077 SWAP3 SWAP2 SWAP1 PUSH2 0x2B6F JUMP JUMPDEST PUSH1 0x40 MLOAD DUP1 SWAP2 SUB SWAP1 LOG1 POP POP POP JUMP JUMPDEST PUSH0 DUP1 SLOAD SWAP1 PUSH2 0x100 EXP SWAP1 DIV PUSH20 0xFFFFFFFFFFFFFFFFFFFFFFFFFFFFFFFFFFFFFFFF AND PUSH20 0xFFFFFFFFFFFFFFFFFFFFFFFFFFFFFFFFFFFFFFFF AND CALLER PUSH20 0xFFFFFFFFFFFFFFFFFFFFFFFFFFFFFFFFFFFFFFFF AND EQ PUSH2 0x1111 JUMPI PUSH1 0x40 MLOAD PUSH32 0x8C379A000000000000000000000000000000000000000000000000000000000 DUP2 MSTORE PUSH1 0x4 ADD PUSH2 0x1108 SWAP1 PUSH2 0x2930 JUMP JUMPDEST PUSH1 0x40 MLOAD DUP1 SWAP2 SUB SWAP1 REVERT JUMPDEST DUP1 PUSH1 0x1 DUP2 SWAP1 SSTORE POP POP JUMP JUMPDEST PUSH0 PUSH1 0x3 DUP4 PUSH1 0x40 MLOAD PUSH2 0x112C SWAP2 SWAP1 PUSH2 0x26C3 JUMP JUMPDEST SWAP1 DUP2 MSTORE PUSH1 0x20 ADD PUSH1 0x40 MLOAD DUP1 SWAP2 SUB SWAP1 KECCAK256 SWAP1 POP PUSH0 DUP2 PUSH0 ADD DUP1 SLOAD PUSH2 0x114B SWAP1 PUSH2 0x2659 JUMP JUMPDEST SWAP1 POP GT PUSH2 0x118D JUMPI PUSH1 0x40 MLOAD PUSH32 0x8C379A000000000000000000000000000000000000000000000000000000000 DUP2 MSTORE PUSH1 0x4 ADD PUSH2 0x1184 SWAP1 PUSH2 0x2723 JUMP JUMPDEST PUSH1 0x40 MLOAD DUP1 SWAP2 SUB SWAP1 REVERT JUMPDEST PUSH2 0x1197 DUP4 CALLER PUSH2 0x1D9A JUMP JUMPDEST PUSH2 0x11D6 JUMPI PUSH1 0x40 MLOAD PUSH32 0x8C379A000000000000000000000000000000000000000000000000000000000 DUP2 MSTORE PUSH1 0x4 ADD PUSH2 0x11CD SWAP1 PUSH2 0x2AE9 JUMP JUMPDEST PUSH1 0x40 MLOAD DUP1 SWAP2 SUB SWAP1 REVERT JUMPDEST DUP1 PUSH1 0x5 ADD PUSH0 DUP4 PUSH20 0xFFFFFFFFFFFFFFFFFFFFFFFFFFFFFFFFFFFFFFFF AND PUSH20 0xFFFFFFFFFFFFFFFFFFFFFFFFFFFFFFFFFFFFFFFF AND DUP2 MSTORE PUSH1 0x20 ADD SWAP1 DUP2 MSTORE PUSH1 0x20 ADD PUSH0 KECCAK256 PUSH0 SWAP1 SLOAD SWAP1 PUSH2 0x100 EXP SWAP1 DIV PUSH1 0xFF AND PUSH2 0x1261 JUMPI PUSH1 0x40 MLOAD PUSH32 0x8C379A000000000000000000000000000000000000000000000000000000000 DUP2 MSTORE PUSH1 0x4 ADD PUSH2 0x1258 SWAP1 PUSH2 0x2BE7 JUMP JUMPDEST PUSH1 0x40 MLOAD DUP1 SWAP2 SUB SWAP1 REVERT JUMPDEST PUSH0 DUP2 PUSH1 0x5 ADD PUSH0 DUP5 PUSH20 0xFFFFFFFFFFFFFFFFFFFFFFFFFFFFFFFFFFFFFFFF AND PUSH20 0xFFFFFFFFFFFFFFFFFFFFFFFFFFFFFFFFFFFFFFFF AND DUP2 MSTORE PUSH1 0x20 ADD SWAP1 DUP2 MSTORE PUSH1 0x20 ADD PUSH0 KECCAK256 PUSH0 PUSH2 0x100 EXP DUP2 SLOAD DUP2 PUSH1 0xFF MUL NOT AND SWAP1 DUP4 ISZERO ISZERO MUL OR SWAP1 SSTORE POP PUSH0 DUP2 PUSH1 0x2 ADD SWAP1 POP PUSH0 JUMPDEST DUP2 DUP1 SLOAD SWAP1 POP DUP2 LT ISZERO PUSH2 0x1431 JUMPI DUP4 PUSH20 0xFFFFFFFFFFFFFFFFFFFFFFFFFFFFFFFFFFFFFFFF AND DUP3 DUP3 DUP2 SLOAD DUP2 LT PUSH2 0x12F6 JUMPI PUSH2 0x12F5 PUSH2 0x25FF JUMP JUMPDEST JUMPDEST SWAP1 PUSH0 MSTORE PUSH1 0x20 PUSH0 KECCAK256 ADD PUSH0 SWAP1 SLOAD SWAP1 PUSH2 0x100 EXP SWAP1 DIV PUSH20 0xFFFFFFFFFFFFFFFFFFFFFFFFFFFFFFFFFFFFFFFF AND PUSH20 0xFFFFFFFFFFFFFFFFFFFFFFFFFFFFFFFFFFFFFFFF AND SUB PUSH2 0x1424 JUMPI DUP2 PUSH1 0x1 DUP4 DUP1 SLOAD SWAP1 POP PUSH2 0x134B SWAP2 SWAP1 PUSH2 0x2C32 JUMP JUMPDEST DUP2 SLOAD DUP2 LT PUSH2 0x135C JUMPI PUSH2 0x135B PUSH2 0x25FF JUMP JUMPDEST JUMPDEST SWAP1 PUSH0 MSTORE PUSH1 0x20 PUSH0 KECCAK256 ADD PUSH0 SWAP1 SLOAD SWAP1 PUSH2 0x100 EXP SWAP1 DIV PUSH20 0xFFFFFFFFFFFFFFFFFFFFFFFFFFFFFFFFFFFFFFFF AND DUP3 DUP3 DUP2 SLOAD DUP2 LT PUSH2 0x1397 JUMPI PUSH2 0x1396 PUSH2 0x25FF JUMP JUMPDEST JUMPDEST SWAP1 PUSH0 MSTORE PUSH1 0x20 PUSH0 KECCAK256 ADD PUSH0 PUSH2 0x100 EXP DUP2 SLOAD DUP2 PUSH20 0xFFFFFFFFFFFFFFFFFFFFFFFFFFFFFFFFFFFFFFFF MUL NOT AND SWAP1 DUP4 PUSH20 0xFFFFFFFFFFFFFFFFFFFFFFFFFFFFFFFFFFFFFFFF AND MUL OR SWAP1 SSTORE POP DUP2 DUP1 SLOAD DUP1 PUSH2 0x13ED JUMPI PUSH2 0x13EC PUSH2 0x2C65 JUMP JUMPDEST JUMPDEST PUSH1 0x1 SWAP1 SUB DUP2 DUP2 SWAP1 PUSH0 MSTORE PUSH1 0x20 PUSH0 KECCAK256 ADD PUSH0 PUSH2 0x100 EXP DUP2 SLOAD SWAP1 PUSH20 0xFFFFFFFFFFFFFFFFFFFFFFFFFFFFFFFFFFFFFFFF MUL NOT AND SWAP1 SSTORE SWAP1 SSTORE PUSH2 0x1431 JUMP JUMPDEST DUP1 DUP1 PUSH1 0x1 ADD SWAP2 POP POP PUSH2 0x12C0 JUMP JUMPDEST POP PUSH32 0x1ADB68F0A540855CAFA9D341C1E94A36FA13B8A15FF602507ADDFE49C0F018D1 DUP5 DUP5 PUSH1 0x40 MLOAD PUSH2 0x1463 SWAP3 SWAP2 SWAP1 PUSH2 0x2B6F JUMP JUMPDEST PUSH1 0x40 MLOAD DUP1 SWAP2 SUB SWAP1 LOG1 POP POP POP POP JUMP JUMPDEST PUSH1 0x60 DUP1 PUSH1 0x60 PUSH0 DUP1 PUSH0 PUSH1 0x3 DUP8 PUSH1 0x40 MLOAD PUSH2 0x1489 SWAP2 SWAP1 PUSH2 0x26C3 JUMP JUMPDEST SWAP1 DUP2 MSTORE PUSH1 0x20 ADD PUSH1 0x40 MLOAD DUP1 SWAP2 SUB SWAP1 KECCAK256 SWAP1 POP PUSH0 DUP2 PUSH0 ADD DUP1 SLOAD PUSH2 0x14A8 SWAP1 PUSH2 0x2659 JUMP JUMPDEST SWAP1 POP GT PUSH2 0x14EA JUMPI PUSH1 0x40 MLOAD PUSH32 0x8C379A000000000000000000000000000000000000000000000000000000000 DUP2 MSTORE PUSH1 0x4 ADD PUSH2 0x14E1 SWAP1 PUSH2 0x2723 JUMP JUMPDEST PUSH1 0x40 MLOAD DUP1 SWAP2 SUB SWAP1 REVERT JUMPDEST DUP1 PUSH0 ADD DUP2 PUSH1 0x1 ADD DUP3 PUSH1 0x2 ADD DUP4 PUSH1 0x3 ADD SLOAD DUP5 PUSH1 0x4 ADD SLOAD DUP5 DUP1 SLOAD PUSH2 0x150B SWAP1 PUSH2 0x2659 JUMP JUMPDEST DUP1 PUSH1 0x1F ADD PUSH1 0x20 DUP1 SWAP2 DIV MUL PUSH1 0x20 ADD PUSH1 0x40 MLOAD SWAP1 DUP2 ADD PUSH1 0x40 MSTORE DUP1 SWAP3 SWAP2 SWAP1 DUP2 DUP2 MSTORE PUSH1 0x20 ADD DUP3 DUP1 SLOAD PUSH2 0x1537 SWAP1 PUSH2 0x2659 JUMP JUMPDEST DUP1 ISZERO PUSH2 0x1582 JUMPI DUP1 PUSH1 0x1F LT PUSH2 0x1559 JUMPI PUSH2 0x100 DUP1 DUP4 SLOAD DIV MUL DUP4 MSTORE SWAP2 PUSH1 0x20 ADD SWAP2 PUSH2 0x1582 JUMP JUMPDEST DUP3 ADD SWAP2 SWAP1 PUSH0 MSTORE PUSH1 0x20 PUSH0 KECCAK256 SWAP1 JUMPDEST DUP2 SLOAD DUP2 MSTORE SWAP1 PUSH1 0x1 ADD SWAP1 PUSH1 0x20 ADD DUP1 DUP4 GT PUSH2 0x1565 JUMPI DUP3 SWAP1 SUB PUSH1 0x1F AND DUP3 ADD SWAP2 JUMPDEST POP POP POP POP POP SWAP5 POP DUP4 DUP1 SLOAD DUP1 PUSH1 0x20 MUL PUSH1 0x20 ADD PUSH1 0x40 MLOAD SWAP1 DUP2 ADD PUSH1 0x40 MSTORE DUP1 SWAP3 SWAP2 SWAP1 DUP2 DUP2 MSTORE PUSH1 0x20 ADD DUP3 DUP1 SLOAD DUP1 ISZERO PUSH2 0x1607 JUMPI PUSH1 0x20 MUL DUP3 ADD SWAP2 SWAP1 PUSH0 MSTORE PUSH1 0x20 PUSH0 KECCAK256 SWAP1 JUMPDEST DUP2 PUSH0 SWAP1 SLOAD SWAP1 PUSH2 0x100 EXP SWAP1 DIV PUSH20 0xFFFFFFFFFFFFFFFFFFFFFFFFFFFFFFFFFFFFFFFF AND PUSH20 0xFFFFFFFFFFFFFFFFFFFFFFFFFFFFFFFFFFFFFFFF AND DUP2 MSTORE PUSH1 0x20 ADD SWAP1 PUSH1 0x1 ADD SWAP1 DUP1 DUP4 GT PUSH2 0x15BE JUMPI JUMPDEST POP POP POP POP POP SWAP4 POP DUP3 DUP1 SLOAD DUP1 PUSH1 0x20 MUL PUSH1 0x20 ADD PUSH1 0x40 MLOAD SWAP1 DUP2 ADD PUSH1 0x40 MSTORE DUP1 SWAP3 SWAP2 SWAP1 DUP2 DUP2 MSTORE PUSH1 0x20 ADD DUP3 DUP1 SLOAD DUP1 ISZERO PUSH2 0x168C JUMPI PUSH1 0x20 MUL DUP3 ADD SWAP2 SWAP1 PUSH0 MSTORE PUSH1 0x20 PUSH0 KECCAK256 SWAP1 JUMPDEST DUP2 PUSH0 SWAP1 SLOAD SWAP1 PUSH2 0x100 EXP SWAP1 DIV PUSH20 0xFFFFFFFFFFFFFFFFFFFFFFFFFFFFFFFFFFFFFFFF AND PUSH20 0xFFFFFFFFFFFFFFFFFFFFFFFFFFFFFFFFFFFFFFFF AND DUP2 MSTORE PUSH1 0x20 ADD SWAP1 PUSH1 0x1 ADD SWAP1 DUP1 DUP4 GT PUSH2 0x1643 JUMPI JUMPDEST POP POP POP POP POP SWAP3 POP SWAP6 POP SWAP6 POP SWAP6 POP SWAP6 POP SWAP6 POP POP SWAP2 SWAP4 SWAP6 SWAP1 SWAP3 SWAP5 POP JUMP JUMPDEST PUSH1 0x1 SLOAD DUP2 JUMP JUMPDEST PUSH0 PUSH1 0x4 DUP1 SLOAD SWAP1 POP SWAP1 POP SWAP1 JUMP JUMPDEST PUSH1 0x1 SLOAD CALLVALUE LT ISZERO PUSH2 0x16FE JUMPI PUSH1 0x40 MLOAD PUSH32 0x8C379A000000000000000000000000000000000000000000000000000000000 DUP2 MSTORE PUSH1 0x4 ADD PUSH2 0x16F5 SWAP1 PUSH2 0x2D02 JUMP JUMPDEST PUSH1 0x40 MLOAD DUP1 SWAP2 SUB SWAP1 REVERT JUMPDEST PUSH0 DUP7 MLOAD GT PUSH2 0x1741 JUMPI PUSH1 0x40 MLOAD PUSH32 0x8C379A000000000000000000000000000000000000000000000000000000000 DUP2 MSTORE PUSH1 0x4 ADD PUSH2 0x1738 SWAP1 PUSH2 0x2D6A JUMP JUMPDEST PUSH1 0x40 MLOAD DUP1 SWAP2 SUB SWAP1 REVERT JUMPDEST PUSH0 DUP6 MLOAD GT PUSH2 0x1784 JUMPI PUSH1 0x40 MLOAD PUSH32 0x8C379A000000000000000000000000000000000000000000000000000000000 DUP2 MSTORE PUSH1 0x4 ADD PUSH2 0x177B SWAP1 PUSH2 0x2DD2 JUMP JUMPDEST PUSH1 0x40 MLOAD DUP1 SWAP2 SUB SWAP1 REVERT JUMPDEST PUSH0 DUP5 MLOAD GT PUSH2 0x17C7 JUMPI PUSH1 0x40 MLOAD PUSH32 0x8C379A000000000000000000000000000000000000000000000000000000000 DUP2 MSTORE PUSH1 0x4 ADD PUSH2 0x17BE SWAP1 PUSH2 0x2E60 JUMP JUMPDEST PUSH1 0x40 MLOAD DUP1 SWAP2 SUB SWAP1 REVERT JUMPDEST PUSH0 DUP4 MLOAD GT PUSH2 0x180A JUMPI PUSH1 0x40 MLOAD PUSH32 0x8C379A000000000000000000000000000000000000000000000000000000000 DUP2 MSTORE PUSH1 0x4 ADD PUSH2 0x1801 SWAP1 PUSH2 0x2EEE JUMP JUMPDEST PUSH1 0x40 MLOAD DUP1 SWAP2 SUB SWAP1 REVERT JUMPDEST CALLVALUE PUSH1 0x2 PUSH0 DUP3 DUP3 SLOAD PUSH2 0x181B SWAP2 SWAP1 PUSH2 0x2F0C JUMP JUMPDEST SWAP3 POP POP DUP2 SWAP1 SSTORE POP PUSH0 PUSH1 0x3 DUP8 PUSH1 0x40 MLOAD PUSH2 0x1833 SWAP2 SWAP1 PUSH2 0x26C3 JUMP JUMPDEST SWAP1 DUP2 MSTORE PUSH1 0x20 ADD PUSH1 0x40 MLOAD DUP1 SWAP2 SUB SWAP1 KECCAK256 SWAP1 POP PUSH0 DUP2 PUSH0 ADD DUP1 SLOAD PUSH2 0x1852 SWAP1 PUSH2 0x2659 JUMP JUMPDEST SWAP1 POP EQ PUSH2 0x1894 JUMPI PUSH1 0x40 MLOAD PUSH32 0x8C379A000000000000000000000000000000000000000000000000000000000 DUP2 MSTORE PUSH1 0x4 ADD PUSH2 0x188B SWAP1 PUSH2 0x2F89 JUMP JUMPDEST PUSH1 0x40 MLOAD DUP1 SWAP2 SUB SWAP1 REVERT JUMPDEST DUP6 DUP2 PUSH0 ADD SWAP1 DUP2 PUSH2 0x18A4 SWAP2 SWAP1 PUSH2 0x3144 JUMP JUMPDEST POP DUP3 DUP2 PUSH1 0x3 ADD DUP2 SWAP1 SSTORE POP DUP2 DUP2 PUSH1 0x4 ADD DUP2 SWAP1 SSTORE POP PUSH0 JUMPDEST DUP6 MLOAD DUP2 LT ISZERO PUSH2 0x19D3 JUMPI PUSH0 PUSH20 0xFFFFFFFFFFFFFFFFFFFFFFFFFFFFFFFFFFFFFFFF AND DUP7 DUP3 DUP2 MLOAD DUP2 LT PUSH2 0x18EC JUMPI PUSH2 0x18EB PUSH2 0x25FF JUMP JUMPDEST JUMPDEST PUSH1 0x20 MUL PUSH1 0x20 ADD ADD MLOAD PUSH20 0xFFFFFFFFFFFFFFFFFFFFFFFFFFFFFFFFFFFFFFFF AND SUB PUSH2 0x194A JUMPI PUSH1 0x40 MLOAD PUSH32 0x8C379A000000000000000000000000000000000000000000000000000000000 DUP2 MSTORE PUSH1 0x4 ADD PUSH2 0x1941 SWAP1 PUSH2 0x325D JUMP JUMPDEST PUSH1 0x40 MLOAD DUP1 SWAP2 SUB SWAP1 REVERT JUMPDEST DUP2 PUSH1 0x1 ADD DUP7 DUP3 DUP2 MLOAD DUP2 LT PUSH2 0x1961 JUMPI PUSH2 0x1960 PUSH2 0x25FF JUMP JUMPDEST JUMPDEST PUSH1 0x20 MUL PUSH1 0x20 ADD ADD MLOAD SWAP1 DUP1 PUSH1 0x1 DUP2 SLOAD ADD DUP1 DUP3 SSTORE DUP1 SWAP2 POP POP PUSH1 0x1 SWAP1 SUB SWAP1 PUSH0 MSTORE PUSH1 0x20 PUSH0 KECCAK256 ADD PUSH0 SWAP1 SWAP2 SWAP1 SWAP2 SWAP1 SWAP2 PUSH2 0x100 EXP DUP2 SLOAD DUP2 PUSH20 0xFFFFFFFFFFFFFFFFFFFFFFFFFFFFFFFFFFFFFFFF MUL NOT AND SWAP1 DUP4 PUSH20 0xFFFFFFFFFFFFFFFFFFFFFFFFFFFFFFFFFFFFFFFF AND MUL OR SWAP1 SSTORE POP DUP1 DUP1 PUSH1 0x1 ADD SWAP2 POP POP PUSH2 0x18B9 JUMP JUMPDEST POP PUSH0 JUMPDEST DUP5 MLOAD DUP2 LT ISZERO PUSH2 0x1AC4 JUMPI PUSH0 DUP6 DUP3 DUP2 MLOAD DUP2 LT PUSH2 0x19F3 JUMPI PUSH2 0x19F2 PUSH2 0x25FF JUMP JUMPDEST JUMPDEST PUSH1 0x20 MUL PUSH1 0x20 ADD ADD MLOAD SWAP1 POP DUP3 PUSH1 0x2 ADD DUP2 SWAP1 DUP1 PUSH1 0x1 DUP2 SLOAD ADD DUP1 DUP3 SSTORE DUP1 SWAP2 POP POP PUSH1 0x1 SWAP1 SUB SWAP1 PUSH0 MSTORE PUSH1 0x20 PUSH0 KECCAK256 ADD PUSH0 SWAP1 SWAP2 SWAP1 SWAP2 SWAP1 SWAP2 PUSH2 0x100 EXP DUP2 SLOAD DUP2 PUSH20 0xFFFFFFFFFFFFFFFFFFFFFFFFFFFFFFFFFFFFFFFF MUL NOT AND SWAP1 DUP4 PUSH20 0xFFFFFFFFFFFFFFFFFFFFFFFFFFFFFFFFFFFFFFFF AND MUL OR SWAP1 SSTORE POP PUSH1 0x1 DUP4 PUSH1 0x5 ADD PUSH0 DUP4 PUSH20 0xFFFFFFFFFFFFFFFFFFFFFFFFFFFFFFFFFFFFFFFF AND PUSH20 0xFFFFFFFFFFFFFFFFFFFFFFFFFFFFFFFFFFFFFFFF AND DUP2 MSTORE PUSH1 0x20 ADD SWAP1 DUP2 MSTORE PUSH1 0x20 ADD PUSH0 KECCAK256 PUSH0 PUSH2 0x100 EXP DUP2 SLOAD DUP2 PUSH1 0xFF MUL NOT AND SWAP1 DUP4 ISZERO ISZERO MUL OR SWAP1 SSTORE POP POP DUP1 DUP1 PUSH1 0x1 ADD SWAP2 POP POP PUSH2 0x19D6 JUMP JUMPDEST POP PUSH1 0x5 DUP8 PUSH1 0x40 MLOAD PUSH2 0x1AD5 SWAP2 SWAP1 PUSH2 0x26C3 JUMP JUMPDEST SWAP1 DUP2 MSTORE PUSH1 0x20 ADD PUSH1 0x40 MLOAD DUP1 SWAP2 SUB SWAP1 KECCAK256 PUSH0 SWAP1 SLOAD SWAP1 PUSH2 0x100 EXP SWAP1 DIV PUSH1 0xFF AND PUSH2 0x1B5D JUMPI PUSH1 0x4 DUP8 SWAP1 DUP1 PUSH1 0x1 DUP2 SLOAD ADD DUP1 DUP3 SSTORE DUP1 SWAP2 POP POP PUSH1 0x1 SWAP1 SUB SWAP1 PUSH0 MSTORE PUSH1 0x20 PUSH0 KECCAK256 ADD PUSH0 SWAP1 SWAP2 SWAP1 SWAP2 SWAP1 SWAP2 POP SWAP1 DUP2 PUSH2 0x1B25 SWAP2 SWAP1 PUSH2 0x3144 JUMP JUMPDEST POP PUSH1 0x1 PUSH1 0x5 DUP9 PUSH1 0x40 MLOAD PUSH2 0x1B38 SWAP2 SWAP1 PUSH2 0x26C3 JUMP JUMPDEST SWAP1 DUP2 MSTORE PUSH1 0x20 ADD PUSH1 0x40 MLOAD DUP1 SWAP2 SUB SWAP1 KECCAK256 PUSH0 PUSH2 0x100 EXP DUP2 SLOAD DUP2 PUSH1 0xFF MUL NOT AND SWAP1 DUP4 ISZERO ISZERO MUL OR SWAP1 SSTORE POP JUMPDEST PUSH32 0x48CA2BE04C170673333BE95535F657BD93FF950E43DBC555A86BC66AF5335B5E DUP8 DUP8 DUP8 DUP8 DUP8 DUP8 PUSH1 0x40 MLOAD PUSH2 0x1B96 SWAP7 SWAP6 SWAP5 SWAP4 SWAP3 SWAP2 SWAP1 PUSH2 0x327B JUMP JUMPDEST PUSH1 0x40 MLOAD DUP1 SWAP2 SUB SWAP1 LOG1 POP POP POP POP POP POP POP JUMP JUMPDEST PUSH0 DUP4 SWAP1 POP PUSH0 PUSH1 0x64 PUSH1 0xA DUP6 PUSH2 0x1BBB SWAP2 SWAP1 PUSH2 0x32F6 JUMP JUMPDEST PUSH2 0x1BC5 SWAP2 SWAP1 PUSH2 0x3364 JUMP JUMPDEST SWAP1 POP PUSH0 DUP2 DUP6 PUSH2 0x1BD4 SWAP2 SWAP1 PUSH2 0x2C32 JUMP JUMPDEST SWAP1 POP PUSH0 DUP5 MLOAD DUP3 PUSH2 0x1BE4 SWAP2 SWAP1 PUSH2 0x3364 JUMP JUMPDEST SWAP1 POP DUP4 PUSH20 0xFFFFFFFFFFFFFFFFFFFFFFFFFFFFFFFFFFFFFFFF AND PUSH4 0x23B872DD CALLER ADDRESS DUP7 PUSH1 0x40 MLOAD DUP5 PUSH4 0xFFFFFFFF AND PUSH1 0xE0 SHL DUP2 MSTORE PUSH1 0x4 ADD PUSH2 0x1C23 SWAP4 SWAP3 SWAP2 SWAP1 PUSH2 0x3394 JUMP JUMPDEST PUSH1 0x20 PUSH1 0x40 MLOAD DUP1 DUP4 SUB DUP2 PUSH0 DUP8 GAS CALL ISZERO DUP1 ISZERO PUSH2 0x1C3F JUMPI RETURNDATASIZE PUSH0 DUP1 RETURNDATACOPY RETURNDATASIZE PUSH0 REVERT JUMPDEST POP POP POP POP PUSH1 0x40 MLOAD RETURNDATASIZE PUSH1 0x1F NOT PUSH1 0x1F DUP3 ADD AND DUP3 ADD DUP1 PUSH1 0x40 MSTORE POP DUP2 ADD SWAP1 PUSH2 0x1C63 SWAP2 SWAP1 PUSH2 0x29E6 JUMP JUMPDEST PUSH2 0x1CA2 JUMPI PUSH1 0x40 MLOAD PUSH32 0x8C379A000000000000000000000000000000000000000000000000000000000 DUP2 MSTORE PUSH1 0x4 ADD PUSH2 0x1C99 SWAP1 PUSH2 0x3413 JUMP JUMPDEST PUSH1 0x40 MLOAD DUP1 SWAP2 SUB SWAP1 REVERT JUMPDEST PUSH0 JUMPDEST DUP6 MLOAD DUP2 LT ISZERO PUSH2 0x1D90 JUMPI DUP5 PUSH20 0xFFFFFFFFFFFFFFFFFFFFFFFFFFFFFFFFFFFFFFFF AND PUSH4 0x23B872DD CALLER DUP9 DUP5 DUP2 MLOAD DUP2 LT PUSH2 0x1CDD JUMPI PUSH2 0x1CDC PUSH2 0x25FF JUMP JUMPDEST JUMPDEST PUSH1 0x20 MUL PUSH1 0x20 ADD ADD MLOAD DUP6 PUSH1 0x40 MLOAD DUP5 PUSH4 0xFFFFFFFF AND PUSH1 0xE0 SHL DUP2 MSTORE PUSH1 0x4 ADD PUSH2 0x1D04 SWAP4 SWAP3 SWAP2 SWAP1 PUSH2 0x3394 JUMP JUMPDEST PUSH1 0x20 PUSH1 0x40 MLOAD DUP1 DUP4 SUB DUP2 PUSH0 DUP8 GAS CALL ISZERO DUP1 ISZERO PUSH2 0x1D20 JUMPI RETURNDATASIZE PUSH0 DUP1 RETURNDATACOPY RETURNDATASIZE PUSH0 REVERT JUMPDEST POP POP POP POP PUSH1 0x40 MLOAD RETURNDATASIZE PUSH1 0x1F NOT PUSH1 0x1F DUP3 ADD AND DUP3 ADD DUP1 PUSH1 0x40 MSTORE POP DUP2 ADD SWAP1 PUSH2 0x1D44 SWAP2 SWAP1 PUSH2 0x29E6 JUMP JUMPDEST PUSH2 0x1D83 JUMPI PUSH1 0x40 MLOAD PUSH32 0x8C379A000000000000000000000000000000000000000000000000000000000 DUP2 MSTORE PUSH1 0x4 ADD PUSH2 0x1D7A SWAP1 PUSH2 0x347B JUMP JUMPDEST PUSH1 0x40 MLOAD DUP1 SWAP2 SUB SWAP1 REVERT JUMPDEST DUP1 DUP1 PUSH1 0x1 ADD SWAP2 POP POP PUSH2 0x1CA4 JUMP JUMPDEST POP POP POP POP POP POP POP POP JUMP JUMPDEST PUSH0 DUP1 PUSH1 0x3 DUP5 PUSH1 0x40 MLOAD PUSH2 0x1DAC SWAP2 SWAP1 PUSH2 0x26C3 JUMP JUMPDEST SWAP1 DUP2 MSTORE PUSH1 0x20 ADD PUSH1 0x40 MLOAD DUP1 SWAP2 SUB SWAP1 KECCAK256 SWAP1 POP PUSH0 JUMPDEST DUP2 PUSH1 0x1 ADD DUP1 SLOAD SWAP1 POP DUP2 LT ISZERO PUSH2 0x1E55 JUMPI DUP4 PUSH20 0xFFFFFFFFFFFFFFFFFFFFFFFFFFFFFFFFFFFFFFFF AND DUP3 PUSH1 0x1 ADD DUP3 DUP2 SLOAD DUP2 LT PUSH2 0x1DFA JUMPI PUSH2 0x1DF9 PUSH2 0x25FF JUMP JUMPDEST JUMPDEST SWAP1 PUSH0 MSTORE PUSH1 0x20 PUSH0 KECCAK256 ADD PUSH0 SWAP1 SLOAD SWAP1 PUSH2 0x100 EXP SWAP1 DIV PUSH20 0xFFFFFFFFFFFFFFFFFFFFFFFFFFFFFFFFFFFFFFFF AND PUSH20 0xFFFFFFFFFFFFFFFFFFFFFFFFFFFFFFFFFFFFFFFF AND SUB PUSH2 0x1E48 JUMPI PUSH1 0x1 SWAP3 POP POP POP PUSH2 0x1E5B JUMP JUMPDEST DUP1 DUP1 PUSH1 0x1 ADD SWAP2 POP POP PUSH2 0x1DBE JUMP JUMPDEST POP PUSH0 SWAP2 POP POP JUMPDEST SWAP3 SWAP2 POP POP JUMP JUMPDEST PUSH0 PUSH1 0x40 MLOAD SWAP1 POP SWAP1 JUMP JUMPDEST PUSH0 DUP1 REVERT JUMPDEST PUSH0 DUP1 REVERT JUMPDEST PUSH0 DUP2 SWAP1 POP SWAP2 SWAP1 POP JUMP JUMPDEST PUSH2 0x1E84 DUP2 PUSH2 0x1E72 JUMP JUMPDEST DUP2 EQ PUSH2 0x1E8E JUMPI PUSH0 DUP1 REVERT JUMPDEST POP JUMP JUMPDEST PUSH0 DUP2 CALLDATALOAD SWAP1 POP PUSH2 0x1E9F DUP2 PUSH2 0x1E7B JUMP JUMPDEST SWAP3 SWAP2 POP POP JUMP JUMPDEST PUSH0 PUSH1 0x20 DUP3 DUP5 SUB SLT ISZERO PUSH2 0x1EBA JUMPI PUSH2 0x1EB9 PUSH2 0x1E6A JUMP JUMPDEST JUMPDEST PUSH0 PUSH2 0x1EC7 DUP5 DUP3 DUP6 ADD PUSH2 0x1E91 JUMP JUMPDEST SWAP2 POP POP SWAP3 SWAP2 POP POP JUMP JUMPDEST PUSH0 DUP2 MLOAD SWAP1 POP SWAP2 SWAP1 POP JUMP JUMPDEST PUSH0 DUP3 DUP3 MSTORE PUSH1 0x20 DUP3 ADD SWAP1 POP SWAP3 SWAP2 POP POP JUMP JUMPDEST DUP3 DUP2 DUP4 MCOPY PUSH0 DUP4 DUP4 ADD MSTORE POP POP POP JUMP JUMPDEST PUSH0 PUSH1 0x1F NOT PUSH1 0x1F DUP4 ADD AND SWAP1 POP SWAP2 SWAP1 POP JUMP JUMPDEST PUSH0 PUSH2 0x1F12 DUP3 PUSH2 0x1ED0 JUMP JUMPDEST PUSH2 0x1F1C DUP2 DUP6 PUSH2 0x1EDA JUMP JUMPDEST SWAP4 POP PUSH2 0x1F2C DUP2 DUP6 PUSH1 0x20 DUP7 ADD PUSH2 0x1EEA JUMP JUMPDEST PUSH2 0x1F35 DUP2 PUSH2 0x1EF8 JUMP JUMPDEST DUP5 ADD SWAP2 POP POP SWAP3 SWAP2 POP POP JUMP JUMPDEST PUSH0 PUSH1 0x20 DUP3 ADD SWAP1 POP DUP2 DUP2 SUB PUSH0 DUP4 ADD MSTORE PUSH2 0x1F58 DUP2 DUP5 PUSH2 0x1F08 JUMP JUMPDEST SWAP1 POP SWAP3 SWAP2 POP POP JUMP JUMPDEST PUSH0 DUP1 REVERT JUMPDEST PUSH0 DUP1 REVERT JUMPDEST PUSH32 0x4E487B7100000000000000000000000000000000000000000000000000000000 PUSH0 MSTORE PUSH1 0x41 PUSH1 0x4 MSTORE PUSH1 0x24 PUSH0 REVERT JUMPDEST PUSH2 0x1F9E DUP3 PUSH2 0x1EF8 JUMP JUMPDEST DUP2 ADD DUP2 DUP2 LT PUSH8 0xFFFFFFFFFFFFFFFF DUP3 GT OR ISZERO PUSH2 0x1FBD JUMPI PUSH2 0x1FBC PUSH2 0x1F68 JUMP JUMPDEST JUMPDEST DUP1 PUSH1 0x40 MSTORE POP POP POP JUMP JUMPDEST PUSH0 PUSH2 0x1FCF PUSH2 0x1E61 JUMP JUMPDEST SWAP1 POP PUSH2 0x1FDB DUP3 DUP3 PUSH2 0x1F95 JUMP JUMPDEST SWAP2 SWAP1 POP JUMP JUMPDEST PUSH0 PUSH8 0xFFFFFFFFFFFFFFFF DUP3 GT ISZERO PUSH2 0x1FFA JUMPI PUSH2 0x1FF9 PUSH2 0x1F68 JUMP JUMPDEST JUMPDEST PUSH2 0x2003 DUP3 PUSH2 0x1EF8 JUMP JUMPDEST SWAP1 POP PUSH1 0x20 DUP2 ADD SWAP1 POP SWAP2 SWAP1 POP JUMP JUMPDEST DUP3 DUP2 DUP4 CALLDATACOPY PUSH0 DUP4 DUP4 ADD MSTORE POP POP POP JUMP JUMPDEST PUSH0 PUSH2 0x2030 PUSH2 0x202B DUP5 PUSH2 0x1FE0 JUMP JUMPDEST PUSH2 0x1FC6 JUMP JUMPDEST SWAP1 POP DUP3 DUP2 MSTORE PUSH1 0x20 DUP2 ADD DUP5 DUP5 DUP5 ADD GT ISZERO PUSH2 0x204C JUMPI PUSH2 0x204B PUSH2 0x1F64 JUMP JUMPDEST JUMPDEST PUSH2 0x2057 DUP5 DUP3 DUP6 PUSH2 0x2010 JUMP JUMPDEST POP SWAP4 SWAP3 POP POP POP JUMP JUMPDEST PUSH0 DUP3 PUSH1 0x1F DUP4 ADD SLT PUSH2 0x2073 JUMPI PUSH2 0x2072 PUSH2 0x1F60 JUMP JUMPDEST JUMPDEST DUP2 CALLDATALOAD PUSH2 0x2083 DUP5 DUP3 PUSH1 0x20 DUP7 ADD PUSH2 0x201E JUMP JUMPDEST SWAP2 POP POP SWAP3 SWAP2 POP POP JUMP JUMPDEST PUSH0 PUSH20 0xFFFFFFFFFFFFFFFFFFFFFFFFFFFFFFFFFFFFFFFF DUP3 AND SWAP1 POP SWAP2 SWAP1 POP JUMP JUMPDEST PUSH0 PUSH2 0x20B5 DUP3 PUSH2 0x208C JUMP JUMPDEST SWAP1 POP SWAP2 SWAP1 POP JUMP JUMPDEST PUSH2 0x20C5 DUP2 PUSH2 0x20AB JUMP JUMPDEST DUP2 EQ PUSH2 0x20CF JUMPI PUSH0 DUP1 REVERT JUMPDEST POP JUMP JUMPDEST PUSH0 DUP2 CALLDATALOAD SWAP1 POP PUSH2 0x20E0 DUP2 PUSH2 0x20BC JUMP JUMPDEST SWAP3 SWAP2 POP POP JUMP JUMPDEST PUSH0 DUP1 PUSH0 PUSH1 0x60 DUP5 DUP7 SUB SLT ISZERO PUSH2 0x20FD JUMPI PUSH2 0x20FC PUSH2 0x1E6A JUMP JUMPDEST JUMPDEST PUSH0 DUP5 ADD CALLDATALOAD PUSH8 0xFFFFFFFFFFFFFFFF DUP2 GT ISZERO PUSH2 0x211A JUMPI PUSH2 0x2119 PUSH2 0x1E6E JUMP JUMPDEST JUMPDEST PUSH2 0x2126 DUP7 DUP3 DUP8 ADD PUSH2 0x205F JUMP JUMPDEST SWAP4 POP POP PUSH1 0x20 PUSH2 0x2137 DUP7 DUP3 DUP8 ADD PUSH2 0x1E91 JUMP JUMPDEST SWAP3 POP POP PUSH1 0x40 PUSH2 0x2148 DUP7 DUP3 DUP8 ADD PUSH2 0x20D2 JUMP JUMPDEST SWAP2 POP POP SWAP3 POP SWAP3 POP SWAP3 JUMP JUMPDEST PUSH0 PUSH1 0x20 DUP3 DUP5 SUB SLT ISZERO PUSH2 0x2167 JUMPI PUSH2 0x2166 PUSH2 0x1E6A JUMP JUMPDEST JUMPDEST PUSH0 DUP3 ADD CALLDATALOAD PUSH8 0xFFFFFFFFFFFFFFFF DUP2 GT ISZERO PUSH2 0x2184 JUMPI PUSH2 0x2183 PUSH2 0x1E6E JUMP JUMPDEST JUMPDEST PUSH2 0x2190 DUP5 DUP3 DUP6 ADD PUSH2 0x205F JUMP JUMPDEST SWAP2 POP POP SWAP3 SWAP2 POP POP JUMP JUMPDEST PUSH2 0x21A2 DUP2 PUSH2 0x1E72 JUMP JUMPDEST DUP3 MSTORE POP POP JUMP JUMPDEST PUSH0 PUSH1 0x60 DUP3 ADD SWAP1 POP DUP2 DUP2 SUB PUSH0 DUP4 ADD MSTORE PUSH2 0x21C0 DUP2 DUP7 PUSH2 0x1F08 JUMP JUMPDEST SWAP1 POP PUSH2 0x21CF PUSH1 0x20 DUP4 ADD DUP6 PUSH2 0x2199 JUMP JUMPDEST PUSH2 0x21DC PUSH1 0x40 DUP4 ADD DUP5 PUSH2 0x2199 JUMP JUMPDEST SWAP5 SWAP4 POP POP POP POP JUMP JUMPDEST PUSH0 DUP1 PUSH1 0x40 DUP4 DUP6 SUB SLT ISZERO PUSH2 0x21FA JUMPI PUSH2 0x21F9 PUSH2 0x1E6A JUMP JUMPDEST JUMPDEST PUSH0 DUP4 ADD CALLDATALOAD PUSH8 0xFFFFFFFFFFFFFFFF DUP2 GT ISZERO PUSH2 0x2217 JUMPI PUSH2 0x2216 PUSH2 0x1E6E JUMP JUMPDEST JUMPDEST PUSH2 0x2223 DUP6 DUP3 DUP7 ADD PUSH2 0x205F JUMP JUMPDEST SWAP3 POP POP PUSH1 0x20 PUSH2 0x2234 DUP6 DUP3 DUP7 ADD PUSH2 0x20D2 JUMP JUMPDEST SWAP2 POP POP SWAP3 POP SWAP3 SWAP1 POP JUMP JUMPDEST PUSH2 0x2247 DUP2 PUSH2 0x20AB JUMP JUMPDEST DUP3 MSTORE POP POP JUMP JUMPDEST PUSH0 PUSH1 0x20 DUP3 ADD SWAP1 POP PUSH2 0x2260 PUSH0 DUP4 ADD DUP5 PUSH2 0x223E JUMP JUMPDEST SWAP3 SWAP2 POP POP JUMP JUMPDEST PUSH0 PUSH1 0x20 DUP3 ADD SWAP1 POP PUSH2 0x2279 PUSH0 DUP4 ADD DUP5 PUSH2 0x2199 JUMP JUMPDEST SWAP3 SWAP2 POP POP JUMP JUMPDEST PUSH0 DUP1 PUSH1 0x40 DUP4 DUP6 SUB SLT ISZERO PUSH2 0x2295 JUMPI PUSH2 0x2294 PUSH2 0x1E6A JUMP JUMPDEST JUMPDEST PUSH0 PUSH2 0x22A2 DUP6 DUP3 DUP7 ADD PUSH2 0x20D2 JUMP JUMPDEST SWAP3 POP POP PUSH1 0x20 PUSH2 0x22B3 DUP6 DUP3 DUP7 ADD PUSH2 0x1E91 JUMP JUMPDEST SWAP2 POP POP SWAP3 POP SWAP3 SWAP1 POP JUMP JUMPDEST PUSH0 DUP2 MLOAD SWAP1 POP SWAP2 SWAP1 POP JUMP JUMPDEST PUSH0 DUP3 DUP3 MSTORE PUSH1 0x20 DUP3 ADD SWAP1 POP SWAP3 SWAP2 POP POP JUMP JUMPDEST PUSH0 DUP2 SWAP1 POP PUSH1 0x20 DUP3 ADD SWAP1 POP SWAP2 SWAP1 POP JUMP JUMPDEST PUSH2 0x22EF DUP2 PUSH2 0x20AB JUMP JUMPDEST DUP3 MSTORE POP POP JUMP JUMPDEST PUSH0 PUSH2 0x2300 DUP4 DUP4 PUSH2 0x22E6 JUMP JUMPDEST PUSH1 0x20 DUP4 ADD SWAP1 POP SWAP3 SWAP2 POP POP JUMP JUMPDEST PUSH0 PUSH1 0x20 DUP3 ADD SWAP1 POP SWAP2 SWAP1 POP JUMP JUMPDEST PUSH0 PUSH2 0x2322 DUP3 PUSH2 0x22BD JUMP JUMPDEST PUSH2 0x232C DUP2 DUP6 PUSH2 0x22C7 JUMP JUMPDEST SWAP4 POP PUSH2 0x2337 DUP4 PUSH2 0x22D7 JUMP JUMPDEST DUP1 PUSH0 JUMPDEST DUP4 DUP2 LT ISZERO PUSH2 0x2367 JUMPI DUP2 MLOAD PUSH2 0x234E DUP9 DUP3 PUSH2 0x22F5 JUMP JUMPDEST SWAP8 POP PUSH2 0x2359 DUP4 PUSH2 0x230C JUMP JUMPDEST SWAP3 POP POP PUSH1 0x1 DUP2 ADD SWAP1 POP PUSH2 0x233A JUMP JUMPDEST POP DUP6 SWAP4 POP POP POP POP SWAP3 SWAP2 POP POP JUMP JUMPDEST PUSH0 PUSH1 0xA0 DUP3 ADD SWAP1 POP DUP2 DUP2 SUB PUSH0 DUP4 ADD MSTORE PUSH2 0x238C DUP2 DUP9 PUSH2 0x1F08 JUMP JUMPDEST SWAP1 POP DUP2 DUP2 SUB PUSH1 0x20 DUP4 ADD MSTORE PUSH2 0x23A0 DUP2 DUP8 PUSH2 0x2318 JUMP JUMPDEST SWAP1 POP DUP2 DUP2 SUB PUSH1 0x40 DUP4 ADD MSTORE PUSH2 0x23B4 DUP2 DUP7 PUSH2 0x2318 JUMP JUMPDEST SWAP1 POP PUSH2 0x23C3 PUSH1 0x60 DUP4 ADD DUP6 PUSH2 0x2199 JUMP JUMPDEST PUSH2 0x23D0 PUSH1 0x80 DUP4 ADD DUP5 PUSH2 0x2199 JUMP JUMPDEST SWAP7 SWAP6 POP POP POP POP POP POP JUMP JUMPDEST PUSH0 PUSH8 0xFFFFFFFFFFFFFFFF DUP3 GT ISZERO PUSH2 0x23F4 JUMPI PUSH2 0x23F3 PUSH2 0x1F68 JUMP JUMPDEST JUMPDEST PUSH1 0x20 DUP3 MUL SWAP1 POP PUSH1 0x20 DUP2 ADD SWAP1 POP SWAP2 SWAP1 POP JUMP JUMPDEST PUSH0 DUP1 REVERT JUMPDEST PUSH0 PUSH2 0x241B PUSH2 0x2416 DUP5 PUSH2 0x23DA JUMP JUMPDEST PUSH2 0x1FC6 JUMP JUMPDEST SWAP1 POP DUP1 DUP4 DUP3 MSTORE PUSH1 0x20 DUP3 ADD SWAP1 POP PUSH1 0x20 DUP5 MUL DUP4 ADD DUP6 DUP2 GT ISZERO PUSH2 0x243E JUMPI PUSH2 0x243D PUSH2 0x2405 JUMP JUMPDEST JUMPDEST DUP4 JUMPDEST DUP2 DUP2 LT ISZERO PUSH2 0x2467 JUMPI DUP1 PUSH2 0x2453 DUP9 DUP3 PUSH2 0x20D2 JUMP JUMPDEST DUP5 MSTORE PUSH1 0x20 DUP5 ADD SWAP4 POP POP PUSH1 0x20 DUP2 ADD SWAP1 POP PUSH2 0x2440 JUMP JUMPDEST POP POP POP SWAP4 SWAP3 POP POP POP JUMP JUMPDEST PUSH0 DUP3 PUSH1 0x1F DUP4 ADD SLT PUSH2 0x2485 JUMPI PUSH2 0x2484 PUSH2 0x1F60 JUMP JUMPDEST JUMPDEST DUP2 CALLDATALOAD PUSH2 0x2495 DUP5 DUP3 PUSH1 0x20 DUP7 ADD PUSH2 0x2409 JUMP JUMPDEST SWAP2 POP POP SWAP3 SWAP2 POP POP JUMP JUMPDEST PUSH0 DUP1 PUSH0 DUP1 PUSH0 DUP1 PUSH1 0xC0 DUP8 DUP10 SUB SLT ISZERO PUSH2 0x24B8 JUMPI PUSH2 0x24B7 PUSH2 0x1E6A JUMP JUMPDEST JUMPDEST PUSH0 DUP8 ADD CALLDATALOAD PUSH8 0xFFFFFFFFFFFFFFFF DUP2 GT ISZERO PUSH2 0x24D5 JUMPI PUSH2 0x24D4 PUSH2 0x1E6E JUMP JUMPDEST JUMPDEST PUSH2 0x24E1 DUP10 DUP3 DUP11 ADD PUSH2 0x205F JUMP JUMPDEST SWAP7 POP POP PUSH1 0x20 DUP8 ADD CALLDATALOAD PUSH8 0xFFFFFFFFFFFFFFFF DUP2 GT ISZERO PUSH2 0x2502 JUMPI PUSH2 0x2501 PUSH2 0x1E6E JUMP JUMPDEST JUMPDEST PUSH2 0x250E DUP10 DUP3 DUP11 ADD PUSH2 0x205F JUMP JUMPDEST SWAP6 POP POP PUSH1 0x40 DUP8 ADD CALLDATALOAD PUSH8 0xFFFFFFFFFFFFFFFF DUP2 GT ISZERO PUSH2 0x252F JUMPI PUSH2 0x252E PUSH2 0x1E6E JUMP JUMPDEST JUMPDEST PUSH2 0x253B DUP10 DUP3 DUP11 ADD PUSH2 0x2471 JUMP JUMPDEST SWAP5 POP POP PUSH1 0x60 DUP8 ADD CALLDATALOAD PUSH8 0xFFFFFFFFFFFFFFFF DUP2 GT ISZERO PUSH2 0x255C JUMPI PUSH2 0x255B PUSH2 0x1E6E JUMP JUMPDEST JUMPDEST PUSH2 0x2568 DUP10 DUP3 DUP11 ADD PUSH2 0x2471 JUMP JUMPDEST SWAP4 POP POP PUSH1 0x80 PUSH2 0x2579 DUP10 DUP3 DUP11 ADD PUSH2 0x1E91 JUMP JUMPDEST SWAP3 POP POP PUSH1 0xA0 PUSH2 0x258A DUP10 DUP3 DUP11 ADD PUSH2 0x1E91 JUMP JUMPDEST SWAP2 POP POP SWAP3 SWAP6 POP SWAP3 SWAP6 POP SWAP3 SWAP6 JUMP JUMPDEST PUSH32 0x496E646578206F7574206F6620626F756E647300000000000000000000000000 PUSH0 DUP3 ADD MSTORE POP JUMP JUMPDEST PUSH0 PUSH2 0x25CB PUSH1 0x13 DUP4 PUSH2 0x1EDA JUMP JUMPDEST SWAP2 POP PUSH2 0x25D6 DUP3 PUSH2 0x2597 JUMP JUMPDEST PUSH1 0x20 DUP3 ADD SWAP1 POP SWAP2 SWAP1 POP JUMP JUMPDEST PUSH0 PUSH1 0x20 DUP3 ADD SWAP1 POP DUP2 DUP2 SUB PUSH0 DUP4 ADD MSTORE PUSH2 0x25F8 DUP2 PUSH2 0x25BF JUMP JUMPDEST SWAP1 POP SWAP2 SWAP1 POP JUMP JUMPDEST PUSH32 0x4E487B7100000000000000000000000000000000000000000000000000000000 PUSH0 MSTORE PUSH1 0x32 PUSH1 0x4 MSTORE PUSH1 0x24 PUSH0 REVERT JUMPDEST PUSH32 0x4E487B7100000000000000000000000000000000000000000000000000000000 PUSH0 MSTORE PUSH1 0x22 PUSH1 0x4 MSTORE PUSH1 0x24 PUSH0 REVERT JUMPDEST PUSH0 PUSH1 0x2 DUP3 DIV SWAP1 POP PUSH1 0x1 DUP3 AND DUP1 PUSH2 0x2670 JUMPI PUSH1 0x7F DUP3 AND SWAP2 POP JUMPDEST PUSH1 0x20 DUP3 LT DUP2 SUB PUSH2 0x2683 JUMPI PUSH2 0x2682 PUSH2 0x262C JUMP JUMPDEST JUMPDEST POP SWAP2 SWAP1 POP JUMP JUMPDEST PUSH0 DUP2 SWAP1 POP SWAP3 SWAP2 POP POP JUMP JUMPDEST PUSH0 PUSH2 0x269D DUP3 PUSH2 0x1ED0 JUMP JUMPDEST PUSH2 0x26A7 DUP2 DUP6 PUSH2 0x2689 JUMP JUMPDEST SWAP4 POP PUSH2 0x26B7 DUP2 DUP6 PUSH1 0x20 DUP7 ADD PUSH2 0x1EEA JUMP JUMPDEST DUP1 DUP5 ADD SWAP2 POP POP SWAP3 SWAP2 POP POP JUMP JUMPDEST PUSH0 PUSH2 0x26CE DUP3 DUP5 PUSH2 0x2693 JUMP JUMPDEST SWAP2 POP DUP2 SWAP1 POP SWAP3 SWAP2 POP POP JUMP JUMPDEST PUSH32 0x416C62756D20646F6573206E6F742065786973742E0000000000000000000000 PUSH0 DUP3 ADD MSTORE POP JUMP JUMPDEST PUSH0 PUSH2 0x270D PUSH1 0x15 DUP4 PUSH2 0x1EDA JUMP JUMPDEST SWAP2 POP PUSH2 0x2718 DUP3 PUSH2 0x26D9 JUMP JUMPDEST PUSH1 0x20 DUP3 ADD SWAP1 POP SWAP2 SWAP1 POP JUMP JUMPDEST PUSH0 PUSH1 0x20 DUP3 ADD SWAP1 POP DUP2 DUP2 SUB PUSH0 DUP4 ADD MSTORE PUSH2 0x273A DUP2 PUSH2 0x2701 JUMP JUMPDEST SWAP1 POP SWAP2 SWAP1 POP JUMP JUMPDEST PUSH32 0x546F6B656E206E6F7420616363657074656420666F72207468697320616C6275 PUSH0 DUP3 ADD MSTORE PUSH32 0x6D2E000000000000000000000000000000000000000000000000000000000000 PUSH1 0x20 DUP3 ADD MSTORE POP JUMP JUMPDEST PUSH0 PUSH2 0x279B PUSH1 0x22 DUP4 PUSH2 0x1EDA JUMP JUMPDEST SWAP2 POP PUSH2 0x27A6 DUP3 PUSH2 0x2741 JUMP JUMPDEST PUSH1 0x40 DUP3 ADD SWAP1 POP SWAP2 SWAP1 POP JUMP JUMPDEST PUSH0 PUSH1 0x20 DUP3 ADD SWAP1 POP DUP2 DUP2 SUB PUSH0 DUP4 ADD MSTORE PUSH2 0x27C8 DUP2 PUSH2 0x278F JUMP JUMPDEST SWAP1 POP SWAP2 SWAP1 POP JUMP JUMPDEST PUSH0 DUP2 MLOAD SWAP1 POP PUSH2 0x27DD DUP2 PUSH2 0x1E7B JUMP JUMPDEST SWAP3 SWAP2 POP POP JUMP JUMPDEST PUSH0 PUSH1 0x20 DUP3 DUP5 SUB SLT ISZERO PUSH2 0x27F8 JUMPI PUSH2 0x27F7 PUSH2 0x1E6A JUMP JUMPDEST JUMPDEST PUSH0 PUSH2 0x2805 DUP5 DUP3 DUP6 ADD PUSH2 0x27CF JUMP JUMPDEST SWAP2 POP POP SWAP3 SWAP2 POP POP JUMP JUMPDEST PUSH32 0x496E73756666696369656E7420746F6B656E2062616C616E63652E0000000000 PUSH0 DUP3 ADD MSTORE POP JUMP JUMPDEST PUSH0 PUSH2 0x2842 PUSH1 0x1B DUP4 PUSH2 0x1EDA JUMP JUMPDEST SWAP2 POP PUSH2 0x284D DUP3 PUSH2 0x280E JUMP JUMPDEST PUSH1 0x20 DUP3 ADD SWAP1 POP SWAP2 SWAP1 POP JUMP JUMPDEST PUSH0 PUSH1 0x20 DUP3 ADD SWAP1 POP DUP2 DUP2 SUB PUSH0 DUP4 ADD MSTORE PUSH2 0x286F DUP2 PUSH2 0x2836 JUMP JUMPDEST SWAP1 POP SWAP2 SWAP1 POP JUMP JUMPDEST PUSH0 PUSH1 0x80 DUP3 ADD SWAP1 POP DUP2 DUP2 SUB PUSH0 DUP4 ADD MSTORE PUSH2 0x288E DUP2 DUP8 PUSH2 0x1F08 JUMP JUMPDEST SWAP1 POP PUSH2 0x289D PUSH1 0x20 DUP4 ADD DUP7 PUSH2 0x2199 JUMP JUMPDEST PUSH2 0x28AA PUSH1 0x40 DUP4 ADD DUP6 PUSH2 0x223E JUMP JUMPDEST PUSH2 0x28B7 PUSH1 0x60 DUP4 ADD DUP5 PUSH2 0x2199 JUMP JUMPDEST SWAP6 SWAP5 POP POP POP POP POP JUMP JUMPDEST PUSH32 0x4F6E6C792074686520636F6E7472616374206F776E65722063616E2070657266 PUSH0 DUP3 ADD MSTORE PUSH32 0x6F726D207468697320616374696F6E2E00000000000000000000000000000000 PUSH1 0x20 DUP3 ADD MSTORE POP JUMP JUMPDEST PUSH0 PUSH2 0x291A PUSH1 0x30 DUP4 PUSH2 0x1EDA JUMP JUMPDEST SWAP2 POP PUSH2 0x2925 DUP3 PUSH2 0x28C0 JUMP JUMPDEST PUSH1 0x40 DUP3 ADD SWAP1 POP SWAP2 SWAP1 POP JUMP JUMPDEST PUSH0 PUSH1 0x20 DUP3 ADD SWAP1 POP DUP2 DUP2 SUB PUSH0 DUP4 ADD MSTORE PUSH2 0x2947 DUP2 PUSH2 0x290E JUMP JUMPDEST SWAP1 POP SWAP2 SWAP1 POP JUMP JUMPDEST PUSH0 PUSH1 0x60 DUP3 ADD SWAP1 POP DUP2 DUP2 SUB PUSH0 DUP4 ADD MSTORE PUSH2 0x2966 DUP2 DUP7 PUSH2 0x1F08 JUMP JUMPDEST SWAP1 POP PUSH2 0x2975 PUSH1 0x20 DUP4 ADD DUP6 PUSH2 0x223E JUMP JUMPDEST PUSH2 0x2982 PUSH1 0x40 DUP4 ADD DUP5 PUSH2 0x2199 JUMP JUMPDEST SWAP5 SWAP4 POP POP POP POP JUMP JUMPDEST PUSH0 PUSH1 0x40 DUP3 ADD SWAP1 POP PUSH2 0x299D PUSH0 DUP4 ADD DUP6 PUSH2 0x223E JUMP JUMPDEST PUSH2 0x29AA PUSH1 0x20 DUP4 ADD DUP5 PUSH2 0x2199 JUMP JUMPDEST SWAP4 SWAP3 POP POP POP JUMP JUMPDEST PUSH0 DUP2 ISZERO ISZERO SWAP1 POP SWAP2 SWAP1 POP JUMP JUMPDEST PUSH2 0x29C5 DUP2 PUSH2 0x29B1 JUMP JUMPDEST DUP2 EQ PUSH2 0x29CF JUMPI PUSH0 DUP1 REVERT JUMPDEST POP JUMP JUMPDEST PUSH0 DUP2 MLOAD SWAP1 POP PUSH2 0x29E0 DUP2 PUSH2 0x29BC JUMP JUMPDEST SWAP3 SWAP2 POP POP JUMP JUMPDEST PUSH0 PUSH1 0x20 DUP3 DUP5 SUB SLT ISZERO PUSH2 0x29FB JUMPI PUSH2 0x29FA PUSH2 0x1E6A JUMP JUMPDEST JUMPDEST PUSH0 PUSH2 0x2A08 DUP5 DUP3 DUP6 ADD PUSH2 0x29D2 JUMP JUMPDEST SWAP2 POP POP SWAP3 SWAP2 POP POP JUMP JUMPDEST PUSH32 0x546F6B656E207769746864726177616C206661696C65642E0000000000000000 PUSH0 DUP3 ADD MSTORE POP JUMP JUMPDEST PUSH0 PUSH2 0x2A45 PUSH1 0x18 DUP4 PUSH2 0x1EDA JUMP JUMPDEST SWAP2 POP PUSH2 0x2A50 DUP3 PUSH2 0x2A11 JUMP JUMPDEST PUSH1 0x20 DUP3 ADD SWAP1 POP SWAP2 SWAP1 POP JUMP JUMPDEST PUSH0 PUSH1 0x20 DUP3 ADD SWAP1 POP DUP2 DUP2 SUB PUSH0 DUP4 ADD MSTORE PUSH2 0x2A72 DUP2 PUSH2 0x2A39 JUMP JUMPDEST SWAP1 POP SWAP2 SWAP1 POP JUMP JUMPDEST PUSH32 0x43616C6C6572206973206E6F7420616E206F776E6572206F662074686520616C PUSH0 DUP3 ADD MSTORE PUSH32 0x62756D2E00000000000000000000000000000000000000000000000000000000 PUSH1 0x20 DUP3 ADD MSTORE POP JUMP JUMPDEST PUSH0 PUSH2 0x2AD3 PUSH1 0x24 DUP4 PUSH2 0x1EDA JUMP JUMPDEST SWAP2 POP PUSH2 0x2ADE DUP3 PUSH2 0x2A79 JUMP JUMPDEST PUSH1 0x40 DUP3 ADD SWAP1 POP SWAP2 SWAP1 POP JUMP JUMPDEST PUSH0 PUSH1 0x20 DUP3 ADD SWAP1 POP DUP2 DUP2 SUB PUSH0 DUP4 ADD MSTORE PUSH2 0x2B00 DUP2 PUSH2 0x2AC7 JUMP JUMPDEST SWAP1 POP SWAP2 SWAP1 POP JUMP JUMPDEST PUSH32 0x546F6B656E20697320616C72656164792061636365707465642E000000000000 PUSH0 DUP3 ADD MSTORE POP JUMP JUMPDEST PUSH0 PUSH2 0x2B3B PUSH1 0x1A DUP4 PUSH2 0x1EDA JUMP JUMPDEST SWAP2 POP PUSH2 0x2B46 DUP3 PUSH2 0x2B07 JUMP JUMPDEST PUSH1 0x20 DUP3 ADD SWAP1 POP SWAP2 SWAP1 POP JUMP JUMPDEST PUSH0 PUSH1 0x20 DUP3 ADD SWAP1 POP DUP2 DUP2 SUB PUSH0 DUP4 ADD MSTORE PUSH2 0x2B68 DUP2 PUSH2 0x2B2F JUMP JUMPDEST SWAP1 POP SWAP2 SWAP1 POP JUMP JUMPDEST PUSH0 PUSH1 0x40 DUP3 ADD SWAP1 POP DUP2 DUP2 SUB PUSH0 DUP4 ADD MSTORE PUSH2 0x2B87 DUP2 DUP6 PUSH2 0x1F08 JUMP JUMPDEST SWAP1 POP PUSH2 0x2B96 PUSH1 0x20 DUP4 ADD DUP5 PUSH2 0x223E JUMP JUMPDEST SWAP4 SWAP3 POP POP POP JUMP JUMPDEST PUSH32 0x546F6B656E206973206E6F742061636365707465642E00000000000000000000 PUSH0 DUP3 ADD MSTORE POP JUMP JUMPDEST PUSH0 PUSH2 0x2BD1 PUSH1 0x16 DUP4 PUSH2 0x1EDA JUMP JUMPDEST SWAP2 POP PUSH2 0x2BDC DUP3 PUSH2 0x2B9D JUMP JUMPDEST PUSH1 0x20 DUP3 ADD SWAP1 POP SWAP2 SWAP1 POP JUMP JUMPDEST PUSH0 PUSH1 0x20 DUP3 ADD SWAP1 POP DUP2 DUP2 SUB PUSH0 DUP4 ADD MSTORE PUSH2 0x2BFE DUP2 PUSH2 0x2BC5 JUMP JUMPDEST SWAP1 POP SWAP2 SWAP1 POP JUMP JUMPDEST PUSH32 0x4E487B7100000000000000000000000000000000000000000000000000000000 PUSH0 MSTORE PUSH1 0x11 PUSH1 0x4 MSTORE PUSH1 0x24 PUSH0 REVERT JUMPDEST PUSH0 PUSH2 0x2C3C DUP3 PUSH2 0x1E72 JUMP JUMPDEST SWAP2 POP PUSH2 0x2C47 DUP4 PUSH2 0x1E72 JUMP JUMPDEST SWAP3 POP DUP3 DUP3 SUB SWAP1 POP DUP2 DUP2 GT ISZERO PUSH2 0x2C5F JUMPI PUSH2 0x2C5E PUSH2 0x2C05 JUMP JUMPDEST JUMPDEST SWAP3 SWAP2 POP POP JUMP JUMPDEST PUSH32 0x4E487B7100000000000000000000000000000000000000000000000000000000 PUSH0 MSTORE PUSH1 0x31 PUSH1 0x4 MSTORE PUSH1 0x24 PUSH0 REVERT JUMPDEST PUSH32 0x496E73756666696369656E742066656520746F2063726561746520616C62756D PUSH0 DUP3 ADD MSTORE PUSH32 0x2E00000000000000000000000000000000000000000000000000000000000000 PUSH1 0x20 DUP3 ADD MSTORE POP JUMP JUMPDEST PUSH0 PUSH2 0x2CEC PUSH1 0x21 DUP4 PUSH2 0x1EDA JUMP JUMPDEST SWAP2 POP PUSH2 0x2CF7 DUP3 PUSH2 0x2C92 JUMP JUMPDEST PUSH1 0x40 DUP3 ADD SWAP1 POP SWAP2 SWAP1 POP JUMP JUMPDEST PUSH0 PUSH1 0x20 DUP3 ADD SWAP1 POP DUP2 DUP2 SUB PUSH0 DUP4 ADD MSTORE PUSH2 0x2D19 DUP2 PUSH2 0x2CE0 JUMP JUMPDEST SWAP1 POP SWAP2 SWAP1 POP JUMP JUMPDEST PUSH32 0x416C62756D206E616D652063616E6E6F7420626520656D7074792E0000000000 PUSH0 DUP3 ADD MSTORE POP JUMP JUMPDEST PUSH0 PUSH2 0x2D54 PUSH1 0x1B DUP4 PUSH2 0x1EDA JUMP JUMPDEST SWAP2 POP PUSH2 0x2D5F DUP3 PUSH2 0x2D20 JUMP JUMPDEST PUSH1 0x20 DUP3 ADD SWAP1 POP SWAP2 SWAP1 POP JUMP JUMPDEST PUSH0 PUSH1 0x20 DUP3 ADD SWAP1 POP DUP2 DUP2 SUB PUSH0 DUP4 ADD MSTORE PUSH2 0x2D81 DUP2 PUSH2 0x2D48 JUMP JUMPDEST SWAP1 POP SWAP2 SWAP1 POP JUMP JUMPDEST PUSH32 0x4349442063616E6E6F7420626520656D7074792E000000000000000000000000 PUSH0 DUP3 ADD MSTORE POP JUMP JUMPDEST PUSH0 PUSH2 0x2DBC PUSH1 0x14 DUP4 PUSH2 0x1EDA JUMP JUMPDEST SWAP2 POP PUSH2 0x2DC7 DUP3 PUSH2 0x2D88 JUMP JUMPDEST PUSH1 0x20 DUP3 ADD SWAP1 POP SWAP2 SWAP1 POP JUMP JUMPDEST PUSH0 PUSH1 0x20 DUP3 ADD SWAP1 POP DUP2 DUP2 SUB PUSH0 DUP4 ADD MSTORE PUSH2 0x2DE9 DUP2 PUSH2 0x2DB0 JUMP JUMPDEST SWAP1 POP SWAP2 SWAP1 POP JUMP JUMPDEST PUSH32 0x4174206C65617374206F6E6520616C62756D206F776E65722069732072657175 PUSH0 DUP3 ADD MSTORE PUSH32 0x697265642E000000000000000000000000000000000000000000000000000000 PUSH1 0x20 DUP3 ADD MSTORE POP JUMP JUMPDEST PUSH0 PUSH2 0x2E4A PUSH1 0x25 DUP4 PUSH2 0x1EDA JUMP JUMPDEST SWAP2 POP PUSH2 0x2E55 DUP3 PUSH2 0x2DF0 JUMP JUMPDEST PUSH1 0x40 DUP3 ADD SWAP1 POP SWAP2 SWAP1 POP JUMP JUMPDEST PUSH0 PUSH1 0x20 DUP3 ADD SWAP1 POP DUP2 DUP2 SUB PUSH0 DUP4 ADD MSTORE PUSH2 0x2E77 DUP2 PUSH2 0x2E3E JUMP JUMPDEST SWAP1 POP SWAP2 SWAP1 POP JUMP JUMPDEST PUSH32 0x4174206C65617374206F6E65207061796D656E7420746F6B656E206D75737420 PUSH0 DUP3 ADD MSTORE PUSH32 0x62652070726F76696465642E0000000000000000000000000000000000000000 PUSH1 0x20 DUP3 ADD MSTORE POP JUMP JUMPDEST PUSH0 PUSH2 0x2ED8 PUSH1 0x2C DUP4 PUSH2 0x1EDA JUMP JUMPDEST SWAP2 POP PUSH2 0x2EE3 DUP3 PUSH2 0x2E7E JUMP JUMPDEST PUSH1 0x40 DUP3 ADD SWAP1 POP SWAP2 SWAP1 POP JUMP JUMPDEST PUSH0 PUSH1 0x20 DUP3 ADD SWAP1 POP DUP2 DUP2 SUB PUSH0 DUP4 ADD MSTORE PUSH2 0x2F05 DUP2 PUSH2 0x2ECC JUMP JUMPDEST SWAP1 POP SWAP2 SWAP1 POP JUMP JUMPDEST PUSH0 PUSH2 0x2F16 DUP3 PUSH2 0x1E72 JUMP JUMPDEST SWAP2 POP PUSH2 0x2F21 DUP4 PUSH2 0x1E72 JUMP JUMPDEST SWAP3 POP DUP3 DUP3 ADD SWAP1 POP DUP1 DUP3 GT ISZERO PUSH2 0x2F39 JUMPI PUSH2 0x2F38 PUSH2 0x2C05 JUMP JUMPDEST JUMPDEST SWAP3 SWAP2 POP POP JUMP JUMPDEST PUSH32 0x416C62756D20616C7265616479206578697374732E0000000000000000000000 PUSH0 DUP3 ADD MSTORE POP JUMP JUMPDEST PUSH0 PUSH2 0x2F73 PUSH1 0x15 DUP4 PUSH2 0x1EDA JUMP JUMPDEST SWAP2 POP PUSH2 0x2F7E DUP3 PUSH2 0x2F3F JUMP JUMPDEST PUSH1 0x20 DUP3 ADD SWAP1 POP SWAP2 SWAP1 POP JUMP JUMPDEST PUSH0 PUSH1 0x20 DUP3 ADD SWAP1 POP DUP2 DUP2 SUB PUSH0 DUP4 ADD MSTORE PUSH2 0x2FA0 DUP2 PUSH2 0x2F67 JUMP JUMPDEST SWAP1 POP SWAP2 SWAP1 POP JUMP JUMPDEST PUSH0 DUP2 SWAP1 POP DUP2 PUSH0 MSTORE PUSH1 0x20 PUSH0 KECCAK256 SWAP1 POP SWAP2 SWAP1 POP JUMP JUMPDEST PUSH0 PUSH1 0x20 PUSH1 0x1F DUP4 ADD DIV SWAP1 POP SWAP2 SWAP1 POP JUMP JUMPDEST PUSH0 DUP3 DUP3 SHL SWAP1 POP SWAP3 SWAP2 POP POP JUMP JUMPDEST PUSH0 PUSH1 0x8 DUP4 MUL PUSH2 0x3003 PUSH32 0xFFFFFFFFFFFFFFFFFFFFFFFFFFFFFFFFFFFFFFFFFFFFFFFFFFFFFFFFFFFFFFFF DUP3 PUSH2 0x2FC8 JUMP JUMPDEST PUSH2 0x300D DUP7 DUP4 PUSH2 0x2FC8 JUMP JUMPDEST SWAP6 POP DUP1 NOT DUP5 AND SWAP4 POP DUP1 DUP7 AND DUP5 OR SWAP3 POP POP POP SWAP4 SWAP3 POP POP POP JUMP JUMPDEST PUSH0 DUP2 SWAP1 POP SWAP2 SWAP1 POP JUMP JUMPDEST PUSH0 PUSH2 0x3048 PUSH2 0x3043 PUSH2 0x303E DUP5 PUSH2 0x1E72 JUMP JUMPDEST PUSH2 0x3025 JUMP JUMPDEST PUSH2 0x1E72 JUMP JUMPDEST SWAP1 POP SWAP2 SWAP1 POP JUMP JUMPDEST PUSH0 DUP2 SWAP1 POP SWAP2 SWAP1 POP JUMP JUMPDEST PUSH2 0x3061 DUP4 PUSH2 0x302E JUMP JUMPDEST PUSH2 0x3075 PUSH2 0x306D DUP3 PUSH2 0x304F JUMP JUMPDEST DUP5 DUP5 SLOAD PUSH2 0x2FD4 JUMP JUMPDEST DUP3 SSTORE POP POP POP POP JUMP JUMPDEST PUSH0 SWAP1 JUMP JUMPDEST PUSH2 0x3089 PUSH2 0x307D JUMP JUMPDEST PUSH2 0x3094 DUP2 DUP5 DUP5 PUSH2 0x3058 JUMP JUMPDEST POP POP POP JUMP JUMPDEST JUMPDEST DUP2 DUP2 LT ISZERO PUSH2 0x30B7 JUMPI PUSH2 0x30AC PUSH0 DUP3 PUSH2 0x3081 JUMP JUMPDEST PUSH1 0x1 DUP2 ADD SWAP1 POP PUSH2 0x309A JUMP JUMPDEST POP POP JUMP JUMPDEST PUSH1 0x1F DUP3 GT ISZERO PUSH2 0x30FC JUMPI PUSH2 0x30CD DUP2 PUSH2 0x2FA7 JUMP JUMPDEST PUSH2 0x30D6 DUP5 PUSH2 0x2FB9 JUMP JUMPDEST DUP2 ADD PUSH1 0x20 DUP6 LT ISZERO PUSH2 0x30E5 JUMPI DUP2 SWAP1 POP JUMPDEST PUSH2 0x30F9 PUSH2 0x30F1 DUP6 PUSH2 0x2FB9 JUMP JUMPDEST DUP4 ADD DUP3 PUSH2 0x3099 JUMP JUMPDEST POP POP JUMPDEST POP POP POP JUMP JUMPDEST PUSH0 DUP3 DUP3 SHR SWAP1 POP SWAP3 SWAP2 POP POP JUMP JUMPDEST PUSH0 PUSH2 0x311C PUSH0 NOT DUP5 PUSH1 0x8 MUL PUSH2 0x3101 JUMP JUMPDEST NOT DUP1 DUP4 AND SWAP2 POP POP SWAP3 SWAP2 POP POP JUMP JUMPDEST PUSH0 PUSH2 0x3134 DUP4 DUP4 PUSH2 0x310D JUMP JUMPDEST SWAP2 POP DUP3 PUSH1 0x2 MUL DUP3 OR SWAP1 POP SWAP3 SWAP2 POP POP JUMP JUMPDEST PUSH2 0x314D DUP3 PUSH2 0x1ED0 JUMP JUMPDEST PUSH8 0xFFFFFFFFFFFFFFFF DUP2 GT ISZERO PUSH2 0x3166 JUMPI PUSH2 0x3165 PUSH2 0x1F68 JUMP JUMPDEST JUMPDEST PUSH2 0x3170 DUP3 SLOAD PUSH2 0x2659 JUMP JUMPDEST PUSH2 0x317B DUP3 DUP3 DUP6 PUSH2 0x30BB JUMP JUMPDEST PUSH0 PUSH1 0x20 SWAP1 POP PUSH1 0x1F DUP4 GT PUSH1 0x1 DUP2 EQ PUSH2 0x31AC JUMPI PUSH0 DUP5 ISZERO PUSH2 0x319A JUMPI DUP3 DUP8 ADD MLOAD SWAP1 POP JUMPDEST PUSH2 0x31A4 DUP6 DUP3 PUSH2 0x3129 JUMP JUMPDEST DUP7 SSTORE POP PUSH2 0x320B JUMP JUMPDEST PUSH1 0x1F NOT DUP5 AND PUSH2 0x31BA DUP7 PUSH2 0x2FA7 JUMP JUMPDEST PUSH0 JUMPDEST DUP3 DUP2 LT ISZERO PUSH2 0x31E1 JUMPI DUP5 DUP10 ADD MLOAD DUP3 SSTORE PUSH1 0x1 DUP3 ADD SWAP2 POP PUSH1 0x20 DUP6 ADD SWAP5 POP PUSH1 0x20 DUP2 ADD SWAP1 POP PUSH2 0x31BC JUMP JUMPDEST DUP7 DUP4 LT ISZERO PUSH2 0x31FE JUMPI DUP5 DUP10 ADD MLOAD PUSH2 0x31FA PUSH1 0x1F DUP10 AND DUP3 PUSH2 0x310D JUMP JUMPDEST DUP4 SSTORE POP JUMPDEST PUSH1 0x1 PUSH1 0x2 DUP9 MUL ADD DUP9 SSTORE POP POP POP JUMPDEST POP POP POP POP POP POP JUMP JUMPDEST PUSH32 0x496E76616C696420616C62756D206F776E657220616464726573732E00000000 PUSH0 DUP3 ADD MSTORE POP JUMP JUMPDEST PUSH0 PUSH2 0x3247 PUSH1 0x1C DUP4 PUSH2 0x1EDA JUMP JUMPDEST SWAP2 POP PUSH2 0x3252 DUP3 PUSH2 0x3213 JUMP JUMPDEST PUSH1 0x20 DUP3 ADD SWAP1 POP SWAP2 SWAP1 POP JUMP JUMPDEST PUSH0 PUSH1 0x20 DUP3 ADD SWAP1 POP DUP2 DUP2 SUB PUSH0 DUP4 ADD MSTORE PUSH2 0x3274 DUP2 PUSH2 0x323B JUMP JUMPDEST SWAP1 POP SWAP2 SWAP1 POP JUMP JUMPDEST PUSH0 PUSH1 0xC0 DUP3 ADD SWAP1 POP DUP2 DUP2 SUB PUSH0 DUP4 ADD MSTORE PUSH2 0x3293 DUP2 DUP10 PUSH2 0x1F08 JUMP JUMPDEST SWAP1 POP DUP2 DUP2 SUB PUSH1 0x20 DUP4 ADD MSTORE PUSH2 0x32A7 DUP2 DUP9 PUSH2 0x1F08 JUMP JUMPDEST SWAP1 POP DUP2 DUP2 SUB PUSH1 0x40 DUP4 ADD MSTORE PUSH2 0x32BB DUP2 DUP8 PUSH2 0x2318 JUMP JUMPDEST SWAP1 POP DUP2 DUP2 SUB PUSH1 0x60 DUP4 ADD MSTORE PUSH2 0x32CF DUP2 DUP7 PUSH2 0x2318 JUMP JUMPDEST SWAP1 POP PUSH2 0x32DE PUSH1 0x80 DUP4 ADD DUP6 PUSH2 0x2199 JUMP JUMPDEST PUSH2 0x32EB PUSH1 0xA0 DUP4 ADD DUP5 PUSH2 0x2199 JUMP JUMPDEST SWAP8 SWAP7 POP POP POP POP POP POP POP JUMP JUMPDEST PUSH0 PUSH2 0x3300 DUP3 PUSH2 0x1E72 JUMP JUMPDEST SWAP2 POP PUSH2 0x330B DUP4 PUSH2 0x1E72 JUMP JUMPDEST SWAP3 POP DUP3 DUP3 MUL PUSH2 0x3319 DUP2 PUSH2 0x1E72 JUMP JUMPDEST SWAP2 POP DUP3 DUP3 DIV DUP5 EQ DUP4 ISZERO OR PUSH2 0x3330 JUMPI PUSH2 0x332F PUSH2 0x2C05 JUMP JUMPDEST JUMPDEST POP SWAP3 SWAP2 POP POP JUMP JUMPDEST PUSH32 0x4E487B7100000000000000000000000000000000000000000000000000000000 PUSH0 MSTORE PUSH1 0x12 PUSH1 0x4 MSTORE PUSH1 0x24 PUSH0 REVERT JUMPDEST PUSH0 PUSH2 0x336E DUP3 PUSH2 0x1E72 JUMP JUMPDEST SWAP2 POP PUSH2 0x3379 DUP4 PUSH2 0x1E72 JUMP JUMPDEST SWAP3 POP DUP3 PUSH2 0x3389 JUMPI PUSH2 0x3388 PUSH2 0x3337 JUMP JUMPDEST JUMPDEST DUP3 DUP3 DIV SWAP1 POP SWAP3 SWAP2 POP POP JUMP JUMPDEST PUSH0 PUSH1 0x60 DUP3 ADD SWAP1 POP PUSH2 0x33A7 PUSH0 DUP4 ADD DUP7 PUSH2 0x223E JUMP JUMPDEST PUSH2 0x33B4 PUSH1 0x20 DUP4 ADD DUP6 PUSH2 0x223E JUMP JUMPDEST PUSH2 0x33C1 PUSH1 0x40 DUP4 ADD DUP5 PUSH2 0x2199 JUMP JUMPDEST SWAP5 SWAP4 POP POP POP POP JUMP JUMPDEST PUSH32 0x506C6174666F726D207368617265207472616E73666572206661696C65642E00 PUSH0 DUP3 ADD MSTORE POP JUMP JUMPDEST PUSH0 PUSH2 0x33FD PUSH1 0x1F DUP4 PUSH2 0x1EDA JUMP JUMPDEST SWAP2 POP PUSH2 0x3408 DUP3 PUSH2 0x33C9 JUMP JUMPDEST PUSH1 0x20 DUP3 ADD SWAP1 POP SWAP2 SWAP1 POP JUMP JUMPDEST PUSH0 PUSH1 0x20 DUP3 ADD SWAP1 POP DUP2 DUP2 SUB PUSH0 DUP4 ADD MSTORE PUSH2 0x342A DUP2 PUSH2 0x33F1 JUMP JUMPDEST SWAP1 POP SWAP2 SWAP1 POP JUMP JUMPDEST PUSH32 0x4F776E6572207368617265207472616E73666572206661696C65642E00000000 PUSH0 DUP3 ADD MSTORE POP JUMP JUMPDEST PUSH0 PUSH2 0x3465 PUSH1 0x1C DUP4 PUSH2 0x1EDA JUMP JUMPDEST SWAP2 POP PUSH2 0x3470 DUP3 PUSH2 0x3431 JUMP JUMPDEST PUSH1 0x20 DUP3 ADD SWAP1 POP SWAP2 SWAP1 POP JUMP JUMPDEST PUSH0 PUSH1 0x20 DUP3 ADD SWAP1 POP DUP2 DUP2 SUB PUSH0 DUP4 ADD MSTORE PUSH2 0x3492 DUP2 PUSH2 0x3459 JUMP JUMPDEST SWAP1 POP SWAP2 SWAP1 POP JUMP INVALID LOG2 PUSH5 0x6970667358 0x22 SLT KECCAK256 SWAP15 SWAP15 DUP7 CHAINID 0x4B 0xE1 0xFB 0xF9 PREVRANDAO 0xD0 EXTCODESIZE 0xC4 PUSH8 0x42E0E6298080CF97 0xED 0xC2 PUSH2 0x6B4E 0xD5 0xBB LOG1 0xC4 DUP5 0xC3 PUSH5 0x736F6C6343 STOP ADDMOD BYTE STOP CALLER "
				},
				"gasEstimates": {
					"creation": {
						"codeDepositCost": "2703800",
						"executionCost": "49307",
						"totalCost": "2753107"
					},
					"external": {
						"addAlbum(string,string,address[],address[],uint256,uint256)": "infinite",
						"addToken(string,address)": "infinite",
						"albumCreationFee()": "2469",
						"albums(string)": "infinite",
						"collectedFees()": "2514",
						"getAlbumCount()": "2506",
						"getAlbumDetails(string)": "infinite",
						"getAlbumNameByIndex(uint256)": "infinite",
						"owner()": "2572",
						"playAlbum(string,address)": "infinite",
						"playSong(string,uint256,address)": "infinite",
						"removeToken(string,address)": "infinite",
						"setAlbumCreationFee(uint256)": "24748",
						"withdrawFees()": "infinite",
						"withdrawToken(address,uint256)": "infinite"
					},
					"internal": {
						"isAlbumOwner(string memory,address)": "infinite",
						"splitPayment(address,uint256,address[] memory)": "infinite"
					}
				},
				"methodIdentifiers": {
					"addAlbum(string,string,address[],address[],uint256,uint256)": "f8ac7b44",
					"addToken(string,address)": "b0b22c2c",
					"albumCreationFee()": "f3025b48",
					"albums(string)": "3936d48d",
					"collectedFees()": "9003adfe",
					"getAlbumCount()": "f5767849",
					"getAlbumDetails(string)": "e5421c82",
					"getAlbumNameByIndex(uint256)": "32aeb67b",
					"owner()": "8da5cb5b",
					"playAlbum(string,address)": "6c463ecc",
					"playSong(string,uint256,address)": "3878ea70",
					"removeToken(string,address)": "e3c5c2a9",
					"setAlbumCreationFee(uint256)": "b120662e",
					"withdrawFees()": "476343ee",
					"withdrawToken(address,uint256)": "9e281a98"
				}
			},
			"storageLayout": {
				"storage": [
					{
						"astId": 31,
						"contract": "contracts/Web3_Jukebox_V1.2.sol:Jukebox",
						"label": "owner",
						"offset": 0,
						"slot": "0",
						"type": "t_address"
					},
					{
						"astId": 34,
						"contract": "contracts/Web3_Jukebox_V1.2.sol:Jukebox",
						"label": "albumCreationFee",
						"offset": 0,
						"slot": "1",
						"type": "t_uint256"
					},
					{
						"astId": 36,
						"contract": "contracts/Web3_Jukebox_V1.2.sol:Jukebox",
						"label": "collectedFees",
						"offset": 0,
						"slot": "2",
						"type": "t_uint256"
					},
					{
						"astId": 58,
						"contract": "contracts/Web3_Jukebox_V1.2.sol:Jukebox",
						"label": "albums",
						"offset": 0,
						"slot": "3",
						"type": "t_mapping(t_string_memory_ptr,t_struct(Album)53_storage)"
					},
					{
						"astId": 61,
						"contract": "contracts/Web3_Jukebox_V1.2.sol:Jukebox",
						"label": "albumNames",
						"offset": 0,
						"slot": "4",
						"type": "t_array(t_string_storage)dyn_storage"
					},
					{
						"astId": 65,
						"contract": "contracts/Web3_Jukebox_V1.2.sol:Jukebox",
						"label": "albumExists",
						"offset": 0,
						"slot": "5",
						"type": "t_mapping(t_string_memory_ptr,t_bool)"
					}
				],
				"types": {
					"t_address": {
						"encoding": "inplace",
						"label": "address",
						"numberOfBytes": "20"
					},
					"t_array(t_address)dyn_storage": {
						"base": "t_address",
						"encoding": "dynamic_array",
						"label": "address[]",
						"numberOfBytes": "32"
					},
					"t_array(t_string_storage)dyn_storage": {
						"base": "t_string_storage",
						"encoding": "dynamic_array",
						"label": "string[]",
						"numberOfBytes": "32"
					},
					"t_bool": {
						"encoding": "inplace",
						"label": "bool",
						"numberOfBytes": "1"
					},
					"t_mapping(t_address,t_bool)": {
						"encoding": "mapping",
						"key": "t_address",
						"label": "mapping(address => bool)",
						"numberOfBytes": "32",
						"value": "t_bool"
					},
					"t_mapping(t_string_memory_ptr,t_bool)": {
						"encoding": "mapping",
						"key": "t_string_memory_ptr",
						"label": "mapping(string => bool)",
						"numberOfBytes": "32",
						"value": "t_bool"
					},
					"t_mapping(t_string_memory_ptr,t_struct(Album)53_storage)": {
						"encoding": "mapping",
						"key": "t_string_memory_ptr",
						"label": "mapping(string => struct Jukebox.Album)",
						"numberOfBytes": "32",
						"value": "t_struct(Album)53_storage"
					},
					"t_string_memory_ptr": {
						"encoding": "bytes",
						"label": "string",
						"numberOfBytes": "32"
					},
					"t_string_storage": {
						"encoding": "bytes",
						"label": "string",
						"numberOfBytes": "32"
					},
					"t_struct(Album)53_storage": {
						"encoding": "inplace",
						"label": "struct Jukebox.Album",
						"members": [
							{
								"astId": 38,
								"contract": "contracts/Web3_Jukebox_V1.2.sol:Jukebox",
								"label": "cid",
								"offset": 0,
								"slot": "0",
								"type": "t_string_storage"
							},
							{
								"astId": 41,
								"contract": "contracts/Web3_Jukebox_V1.2.sol:Jukebox",
								"label": "albumOwners",
								"offset": 0,
								"slot": "1",
								"type": "t_array(t_address)dyn_storage"
							},
							{
								"astId": 44,
								"contract": "contracts/Web3_Jukebox_V1.2.sol:Jukebox",
								"label": "paymentTokens",
								"offset": 0,
								"slot": "2",
								"type": "t_array(t_address)dyn_storage"
							},
							{
								"astId": 46,
								"contract": "contracts/Web3_Jukebox_V1.2.sol:Jukebox",
								"label": "playFee",
								"offset": 0,
								"slot": "3",
								"type": "t_uint256"
							},
							{
								"astId": 48,
								"contract": "contracts/Web3_Jukebox_V1.2.sol:Jukebox",
								"label": "wholeAlbumFee",
								"offset": 0,
								"slot": "4",
								"type": "t_uint256"
							},
							{
								"astId": 52,
								"contract": "contracts/Web3_Jukebox_V1.2.sol:Jukebox",
								"label": "isTokenAccepted",
								"offset": 0,
								"slot": "5",
								"type": "t_mapping(t_address,t_bool)"
							}
						],
						"numberOfBytes": "192"
					},
					"t_uint256": {
						"encoding": "inplace",
						"label": "uint256",
						"numberOfBytes": "32"
					}
				}
			},
			"userdoc": {
				"kind": "user",
				"methods": {},
				"version": 1
			}
		}
	}
}